{
  "address": "0x4f43F45066A371F38Bb9257c3A9d6a5036665F23",
  "abi": [
    {
      "inputs": [
        {
          "internalType": "address",
          "name": "_corePoolComptroller",
          "type": "address"
        },
        {
          "internalType": "address",
          "name": "_wbnb",
          "type": "address"
        },
        {
          "internalType": "address",
          "name": "_vbnb",
          "type": "address"
        }
      ],
      "stateMutability": "nonpayable",
      "type": "constructor"
    },
    {
      "inputs": [],
      "name": "InvalidAddress",
      "type": "error"
    },
    {
      "inputs": [],
      "name": "InvalidTotalPercentage",
      "type": "error"
    },
    {
      "inputs": [
        {
          "internalType": "uint256",
          "name": "loopsLimit",
          "type": "uint256"
        },
        {
          "internalType": "uint256",
          "name": "requiredLoops",
          "type": "uint256"
        }
      ],
      "name": "MaxLoopsLimitExceeded",
      "type": "error"
    },
    {
      "inputs": [
        {
          "internalType": "address",
          "name": "sender",
          "type": "address"
        },
        {
          "internalType": "address",
          "name": "calledContract",
          "type": "address"
        },
        {
          "internalType": "string",
          "name": "methodSignature",
          "type": "string"
        }
      ],
      "name": "Unauthorized",
      "type": "error"
    },
    {
      "inputs": [],
      "name": "ZeroAddressNotAllowed",
      "type": "error"
    },
    {
      "anonymous": false,
      "inputs": [
        {
          "indexed": true,
          "internalType": "address",
          "name": "destination",
          "type": "address"
        },
        {
          "indexed": true,
          "internalType": "address",
          "name": "asset",
          "type": "address"
        },
        {
          "indexed": false,
          "internalType": "enum ProtocolShareReserve.Schema",
          "name": "schema",
          "type": "uint8"
        },
        {
          "indexed": false,
          "internalType": "uint256",
          "name": "percent",
          "type": "uint256"
        },
        {
          "indexed": false,
          "internalType": "uint256",
          "name": "amount",
          "type": "uint256"
        }
      ],
      "name": "AssetReleased",
      "type": "event"
    },
    {
      "anonymous": false,
      "inputs": [
        {
          "indexed": true,
          "internalType": "address",
          "name": "comptroller",
          "type": "address"
        },
        {
          "indexed": true,
          "internalType": "address",
          "name": "asset",
          "type": "address"
        },
        {
          "indexed": false,
          "internalType": "uint256",
          "name": "amount",
          "type": "uint256"
        },
        {
          "indexed": false,
          "internalType": "enum IProtocolShareReserve.IncomeType",
          "name": "incomeType",
          "type": "uint8"
        },
        {
          "indexed": false,
          "internalType": "enum ProtocolShareReserve.Schema",
          "name": "schema",
          "type": "uint8"
        }
      ],
      "name": "AssetsReservesUpdated",
      "type": "event"
    },
    {
      "anonymous": false,
      "inputs": [
        {
          "indexed": true,
          "internalType": "address",
          "name": "destination",
          "type": "address"
        },
        {
          "indexed": false,
          "internalType": "uint16",
          "name": "percentage",
          "type": "uint16"
        },
        {
          "indexed": false,
          "internalType": "enum ProtocolShareReserve.Schema",
          "name": "schema",
          "type": "uint8"
        }
      ],
      "name": "DistributionConfigAdded",
      "type": "event"
    },
    {
      "anonymous": false,
      "inputs": [
        {
          "indexed": true,
          "internalType": "address",
          "name": "destination",
          "type": "address"
        },
        {
          "indexed": false,
          "internalType": "uint16",
          "name": "percentage",
          "type": "uint16"
        },
        {
          "indexed": false,
          "internalType": "enum ProtocolShareReserve.Schema",
          "name": "schema",
          "type": "uint8"
        }
      ],
      "name": "DistributionConfigRemoved",
      "type": "event"
    },
    {
      "anonymous": false,
      "inputs": [
        {
          "indexed": true,
          "internalType": "address",
          "name": "destination",
          "type": "address"
        },
        {
          "indexed": false,
          "internalType": "uint16",
          "name": "oldPercentage",
          "type": "uint16"
        },
        {
          "indexed": false,
          "internalType": "uint16",
          "name": "newPercentage",
          "type": "uint16"
        },
        {
          "indexed": false,
          "internalType": "enum ProtocolShareReserve.Schema",
          "name": "schema",
          "type": "uint8"
        }
      ],
      "name": "DistributionConfigUpdated",
      "type": "event"
    },
    {
      "anonymous": false,
      "inputs": [
        {
          "indexed": false,
          "internalType": "uint8",
          "name": "version",
          "type": "uint8"
        }
      ],
      "name": "Initialized",
      "type": "event"
    },
    {
      "anonymous": false,
      "inputs": [
        {
          "indexed": false,
          "internalType": "uint256",
          "name": "oldMaxLoopsLimit",
          "type": "uint256"
        },
        {
          "indexed": false,
          "internalType": "uint256",
          "name": "newmaxLoopsLimit",
          "type": "uint256"
        }
      ],
      "name": "MaxLoopsLimitUpdated",
      "type": "event"
    },
    {
      "anonymous": false,
      "inputs": [
        {
          "indexed": false,
          "internalType": "address",
          "name": "oldAccessControlManager",
          "type": "address"
        },
        {
          "indexed": false,
          "internalType": "address",
          "name": "newAccessControlManager",
          "type": "address"
        }
      ],
      "name": "NewAccessControlManager",
      "type": "event"
    },
    {
      "anonymous": false,
      "inputs": [
        {
          "indexed": true,
          "internalType": "address",
          "name": "previousOwner",
          "type": "address"
        },
        {
          "indexed": true,
          "internalType": "address",
          "name": "newOwner",
          "type": "address"
        }
      ],
      "name": "OwnershipTransferStarted",
      "type": "event"
    },
    {
      "anonymous": false,
      "inputs": [
        {
          "indexed": true,
          "internalType": "address",
          "name": "previousOwner",
          "type": "address"
        },
        {
          "indexed": true,
          "internalType": "address",
          "name": "newOwner",
          "type": "address"
        }
      ],
      "name": "OwnershipTransferred",
      "type": "event"
    },
    {
      "anonymous": false,
      "inputs": [
        {
          "indexed": true,
          "internalType": "address",
          "name": "oldPoolRegistry",
          "type": "address"
        },
        {
          "indexed": true,
          "internalType": "address",
          "name": "newPoolRegistry",
          "type": "address"
        }
      ],
      "name": "PoolRegistryUpdated",
      "type": "event"
    },
    {
      "anonymous": false,
      "inputs": [
        {
          "indexed": true,
          "internalType": "address",
          "name": "comptroller",
          "type": "address"
        },
        {
          "indexed": true,
          "internalType": "address",
          "name": "asset",
          "type": "address"
        },
        {
          "indexed": false,
          "internalType": "enum ProtocolShareReserve.Schema",
          "name": "schema",
          "type": "uint8"
        },
        {
          "indexed": false,
          "internalType": "uint256",
          "name": "oldBalance",
          "type": "uint256"
        },
        {
          "indexed": false,
          "internalType": "uint256",
          "name": "newBalance",
          "type": "uint256"
        }
      ],
      "name": "ReservesUpdated",
      "type": "event"
    },
    {
      "inputs": [],
      "name": "CORE_POOL_COMPTROLLER",
      "outputs": [
        {
          "internalType": "address",
          "name": "",
          "type": "address"
        }
      ],
      "stateMutability": "view",
      "type": "function"
    },
    {
      "inputs": [],
      "name": "MAX_PERCENT",
      "outputs": [
        {
          "internalType": "uint16",
          "name": "",
          "type": "uint16"
        }
      ],
      "stateMutability": "view",
      "type": "function"
    },
    {
      "inputs": [],
      "name": "WBNB",
      "outputs": [
        {
          "internalType": "address",
          "name": "",
          "type": "address"
        }
      ],
      "stateMutability": "view",
      "type": "function"
    },
    {
      "inputs": [],
      "name": "acceptOwnership",
      "outputs": [],
      "stateMutability": "nonpayable",
      "type": "function"
    },
    {
      "inputs": [],
      "name": "accessControlManager",
      "outputs": [
        {
          "internalType": "contract IAccessControlManagerV8",
          "name": "",
          "type": "address"
        }
      ],
      "stateMutability": "view",
      "type": "function"
    },
    {
      "inputs": [
        {
          "components": [
            {
              "internalType": "enum ProtocolShareReserve.Schema",
              "name": "schema",
              "type": "uint8"
            },
            {
              "internalType": "uint16",
              "name": "percentage",
              "type": "uint16"
            },
            {
              "internalType": "address",
              "name": "destination",
              "type": "address"
            }
          ],
          "internalType": "struct ProtocolShareReserve.DistributionConfig[]",
          "name": "configs",
          "type": "tuple[]"
        }
      ],
      "name": "addOrUpdateDistributionConfigs",
      "outputs": [],
      "stateMutability": "nonpayable",
      "type": "function"
    },
    {
      "inputs": [
        {
          "internalType": "address",
          "name": "",
          "type": "address"
        },
        {
          "internalType": "address",
          "name": "",
          "type": "address"
        },
        {
          "internalType": "enum ProtocolShareReserve.Schema",
          "name": "",
          "type": "uint8"
        }
      ],
      "name": "assetsReserves",
      "outputs": [
        {
          "internalType": "uint256",
          "name": "",
          "type": "uint256"
        }
      ],
      "stateMutability": "view",
      "type": "function"
    },
    {
      "inputs": [
        {
          "internalType": "uint256",
          "name": "",
          "type": "uint256"
        }
      ],
      "name": "distributionTargets",
      "outputs": [
        {
          "internalType": "enum ProtocolShareReserve.Schema",
          "name": "schema",
          "type": "uint8"
        },
        {
          "internalType": "uint16",
          "name": "percentage",
          "type": "uint16"
        },
        {
          "internalType": "address",
          "name": "destination",
          "type": "address"
        }
      ],
      "stateMutability": "view",
      "type": "function"
    },
    {
      "inputs": [
        {
          "internalType": "address",
          "name": "destination",
          "type": "address"
        },
        {
          "internalType": "enum ProtocolShareReserve.Schema",
          "name": "schema",
          "type": "uint8"
        }
      ],
      "name": "getPercentageDistribution",
      "outputs": [
        {
          "internalType": "uint256",
          "name": "",
          "type": "uint256"
        }
      ],
      "stateMutability": "view",
      "type": "function"
    },
    {
      "inputs": [
        {
          "internalType": "address",
          "name": "comptroller",
          "type": "address"
        },
        {
          "internalType": "enum ProtocolShareReserve.Schema",
          "name": "schema",
          "type": "uint8"
        },
        {
          "internalType": "address",
          "name": "destination",
          "type": "address"
        },
        {
          "internalType": "address",
          "name": "asset",
          "type": "address"
        }
      ],
      "name": "getUnreleasedFunds",
      "outputs": [
        {
          "internalType": "uint256",
          "name": "",
          "type": "uint256"
        }
      ],
      "stateMutability": "view",
      "type": "function"
    },
    {
      "inputs": [
        {
          "internalType": "address",
          "name": "_accessControlManager",
          "type": "address"
        },
        {
          "internalType": "uint256",
          "name": "_loopsLimit",
          "type": "uint256"
        }
      ],
      "name": "initialize",
      "outputs": [],
      "stateMutability": "nonpayable",
      "type": "function"
    },
    {
      "inputs": [],
      "name": "maxLoopsLimit",
      "outputs": [
        {
          "internalType": "uint256",
          "name": "",
          "type": "uint256"
        }
      ],
      "stateMutability": "view",
      "type": "function"
    },
    {
      "inputs": [],
      "name": "owner",
      "outputs": [
        {
          "internalType": "address",
          "name": "",
          "type": "address"
        }
      ],
      "stateMutability": "view",
      "type": "function"
    },
    {
      "inputs": [],
      "name": "pendingOwner",
      "outputs": [
        {
          "internalType": "address",
          "name": "",
          "type": "address"
        }
      ],
      "stateMutability": "view",
      "type": "function"
    },
    {
      "inputs": [],
      "name": "poolRegistry",
      "outputs": [
        {
          "internalType": "address",
          "name": "",
          "type": "address"
        }
      ],
      "stateMutability": "view",
      "type": "function"
    },
    {
      "inputs": [
        {
          "internalType": "address",
          "name": "comptroller",
          "type": "address"
        },
        {
          "internalType": "address[]",
          "name": "assets",
          "type": "address[]"
        }
      ],
      "name": "releaseFunds",
      "outputs": [],
      "stateMutability": "nonpayable",
      "type": "function"
    },
    {
      "inputs": [
        {
          "internalType": "enum ProtocolShareReserve.Schema",
          "name": "schema",
          "type": "uint8"
        },
        {
          "internalType": "address",
          "name": "destination",
          "type": "address"
        }
      ],
      "name": "removeDistributionConfig",
      "outputs": [],
      "stateMutability": "nonpayable",
      "type": "function"
    },
    {
      "inputs": [],
      "name": "renounceOwnership",
      "outputs": [],
      "stateMutability": "nonpayable",
      "type": "function"
    },
    {
      "inputs": [
        {
          "internalType": "address",
          "name": "accessControlManager_",
          "type": "address"
        }
      ],
      "name": "setAccessControlManager",
      "outputs": [],
      "stateMutability": "nonpayable",
      "type": "function"
    },
    {
      "inputs": [
        {
          "internalType": "address",
          "name": "_poolRegistry",
          "type": "address"
        }
      ],
      "name": "setPoolRegistry",
      "outputs": [],
      "stateMutability": "nonpayable",
      "type": "function"
    },
    {
      "inputs": [
        {
          "internalType": "address",
          "name": "",
          "type": "address"
        }
      ],
      "name": "totalAssetReserve",
      "outputs": [
        {
          "internalType": "uint256",
          "name": "",
          "type": "uint256"
        }
      ],
      "stateMutability": "view",
      "type": "function"
    },
    {
      "inputs": [],
      "name": "totalDistributions",
      "outputs": [
        {
          "internalType": "uint256",
          "name": "",
          "type": "uint256"
        }
      ],
      "stateMutability": "view",
      "type": "function"
    },
    {
      "inputs": [
        {
          "internalType": "address",
          "name": "newOwner",
          "type": "address"
        }
      ],
      "name": "transferOwnership",
      "outputs": [],
      "stateMutability": "nonpayable",
      "type": "function"
    },
    {
      "inputs": [
        {
          "internalType": "address",
          "name": "comptroller",
          "type": "address"
        },
        {
          "internalType": "address",
          "name": "asset",
          "type": "address"
        },
        {
          "internalType": "enum IProtocolShareReserve.IncomeType",
          "name": "incomeType",
          "type": "uint8"
        }
      ],
      "name": "updateAssetsState",
      "outputs": [],
      "stateMutability": "nonpayable",
      "type": "function"
    },
    {
      "inputs": [],
      "name": "vBNB",
      "outputs": [
        {
          "internalType": "address",
          "name": "",
          "type": "address"
        }
      ],
      "stateMutability": "view",
      "type": "function"
    }
  ],
  "transactionHash": "0xfbf8bd20a2b7e004db4b4799e59abed3007a869f6b6ba3a52919345ba0aa6be3",
  "args": [
    "0x0000000000000000000000000000000000000001",
    "0x0000000000000000000000000000000000000001",
    "0x0000000000000000000000000000000000000001"
  ],
  "numDeployments": 2,
  "solcInputHash": "64291858ccadc72be51008438a30a689",
  "bytecode": "0x60e060405234801561001057600080fd5b50604051612fd1380380612fd183398101604081905261002f91610178565b61003883610073565b61004182610073565b61004a81610073565b6001600160a01b0380841660805282811660a052811660c05261006b61009d565b5050506101bb565b6001600160a01b03811661009a576040516342bcdf7f60e11b815260040160405180910390fd5b50565b600054610100900460ff16156101095760405162461bcd60e51b815260206004820152602760248201527f496e697469616c697a61626c653a20636f6e747261637420697320696e697469604482015266616c697a696e6760c81b606482015260840160405180910390fd5b60005460ff9081161461015a576000805460ff191660ff9081179091556040519081527f7f26b83ff96e1f2b6a682f133852f6798a09c465da95921460cefb38474024989060200160405180910390a15b565b80516001600160a01b038116811461017357600080fd5b919050565b60008060006060848603121561018d57600080fd5b6101968461015c565b92506101a46020850161015c565b91506101b26040850161015c565b90509250925092565b60805160a05160c051612de06101f16000396000610209015260006103090152600081816103c901526104bc0152612de06000f3fe608060405234801561001057600080fd5b50600436106101a35760003560e01c8063893ffe98116100ee578063b4a0bdf311610097578063e30c397811610071578063e30c3978146103a0578063f2fde38b146103b1578063fa7b81a0146103c4578063fc31116a146103eb57600080fd5b8063b4a0bdf314610373578063be26317e14610384578063cd6dc6871461038d57600080fd5b8063966961f0116100c8578063966961f01461032b578063aea211211461033e578063afcff50f1461035f57600080fd5b8063893ffe98146102e05780638da5cb5b146102f35780638dd950021461030457600080fd5b80634f429f3611610150578063715018a61161012a578063715018a6146102bd57806379ba5097146102c55780637b77cd6a146102cd57600080fd5b80634f429f36146102655780635db6da12146102785780635f3d6133146102aa57600080fd5b806316faecec1161018157806316faecec146101f157806333e1567f14610204578063392ee7121461024357600080fd5b80630e32cb86146101a85780631036bbe2146101bd578063163db71b146101de575b600080fd5b6101bb6101b636600461262e565b6103fe565b005b6101c661271081565b60405161ffff90911681526020015b60405180910390f35b610130545b6040519081526020016101d5565b6101bb6101ff36600461264b565b610412565b61022b7f000000000000000000000000000000000000000000000000000000000000000081565b6040516001600160a01b0390911681526020016101d5565b61025661025136600461269a565b610788565b6040516101d5939291906126f6565b6101bb610273366004612734565b6107c8565b6101e361028636600461276b565b61012e60209081526000938452604080852082529284528284209052825290205481565b6101bb6102b83660046127b2565b610b0a565b6101bb610e19565b6101bb610e2d565b6101bb6102db36600461262e565b610ebd565b6101e36102ee366004612827565b610f44565b6033546001600160a01b031661022b565b61022b7f000000000000000000000000000000000000000000000000000000000000000081565b6101e3610339366004612881565b611066565b6101e361034c36600461262e565b61012f6020526000908152604090205481565b61012d5461022b906001600160a01b031681565b6097546001600160a01b031661022b565b6101e360fb5481565b6101bb61039b3660046128b6565b61115b565b6065546001600160a01b031661022b565b6101bb6103bf36600461262e565b6112e6565b61022b7f000000000000000000000000000000000000000000000000000000000000000081565b6101bb6103f93660046128e2565b61136f565b6104066113c5565b61040f8161141f565b50565b61041a611515565b826001600160a01b0316627e3dd26040518163ffffffff1660e01b8152600401602060405180830381865afa158015610457573d6000803e3d6000fd5b505050506040513d601f19601f8201168201806040525081019061047b919061296a565b6104b1576040517fe6c4247b00000000000000000000000000000000000000000000000000000000815260040160405180910390fd5b6104ba8261156e565b7f00000000000000000000000000000000000000000000000000000000000000006001600160a01b0316836001600160a01b031614158015610593575061012d546040517f266e0a7f0000000000000000000000000000000000000000000000000000000081526001600160a01b0385811660048301528481166024830152600092169063266e0a7f90604401602060405180830381865afa158015610564573d6000803e3d6000fd5b505050506040513d601f19601f82011682018060405250810190610588919061298c565b6001600160a01b0316145b156105ca576040517fe6c4247b00000000000000000000000000000000000000000000000000000000815260040160405180910390fd5b60006105d5826115ae565b6040517f70a082310000000000000000000000000000000000000000000000000000000081523060048201529091506000906001600160a01b038516906370a0823190602401602060405180830381865afa158015610638573d6000803e3d6000fd5b505050506040513d601f19601f8201168201806040525081019061065c91906129a9565b6001600160a01b038516600090815261012f602052604090205490915080821115610776576001600160a01b03808716600090815261012e602090815260408083209389168352929052908120828403918291908660018111156106c2576106c26126b3565b60018111156106d3576106d36126b3565b815260200190815260200160002060008282546106f091906129f1565b90915550506001600160a01b038616600090815261012f60205260408120805483929061071e9084906129f1565b92505081905550856001600160a01b0316876001600160a01b03167fa46b2431e663cf7b50c9d5129aff85d2394ecfd447b7ccba83986510a9d945ea83888860405161076c93929190612a04565b60405180910390a3505b505050610783600160c955565b505050565b610130818154811061079957600080fd5b60009182526020909120015460ff81169150610100810461ffff1690630100000090046001600160a01b031683565b6107e9604051806060016040528060288152602001612d4f602891396115d9565b600080805b61013054811015610894576000610130828154811061080f5761080f612a2e565b6000918252602090912001805490915060ff166001811115610833576108336126b3565b866001811115610845576108456126b3565b148015610865575080546001600160a01b03868116630100000090920416145b801561087957508054610100900461ffff16155b1561088b576001925081935050610894565b506001016107ee565b508015610afc5761013082815481106108af576108af612a2e565b9060005260206000200160000160039054906101000a90046001600160a01b03166001600160a01b03167f70e7a210881df49522a5bf05d477e00d59e52a41c96c1eedeaeb356b9e6c81cc610130848154811061090e5761090e612a2e565b9060005260206000200160000160019054906101000a900461ffff16610130858154811061093e5761093e612a2e565b60009182526020909120015460405161095b929160ff1690612a5d565b60405180910390a2610130805461097490600190612a75565b8154811061098457610984612a2e565b9060005260206000200161013083815481106109a2576109a2612a2e565b60009182526020909120825491018054909160ff169082907fffffffffffffffffffffffffffffffffffffffffffffffffffffffffffffff0016600183818111156109ef576109ef6126b3565b02179055508154815461ffff61010092839004169091027fffffffffffffffffffffffffffffffffffffffffffffffffffffffffff0000ff82168117835592546001600160a01b0363010000009182900416027fffffffffffffffffff0000000000000000000000000000000000000000ffffff9093167fffffffffffffffffff00000000000000000000000000000000000000000000ff90911617919091179055610130805480610aa357610aa3612a88565b60008281526020902081017fffffffffffffffffffffffffffffffffffffffffffffffffffffffffffffffff90810180547fffffffffffffffffff00000000000000000000000000000000000000000000001690550190555b610b046116a5565b50505050565b610b12611515565b610b33604051806060016040528060348152602001612d77603491396115d9565b60005b81811015610df5576000838383818110610b5257610b52612a2e565b905060600201803603810190610b689190612ae6565b9050610b77816040015161156e565b61013054600090815b81811015610ca55760006101308281548110610b9e57610b9e612a2e565b6000918252602090912001805490915060ff166001811115610bc257610bc26126b3565b85516001811115610bd557610bd56126b3565b148015610bfa575060408501518154630100000090046001600160a01b039081169116145b15610c9c5760408581015182546020880151885193516001600160a01b03909316937fa682db621f4ae1c92cd6c492151d32fe657fc6db6e87bd65eb8bda05311f6ef293610c5393610100900461ffff16929190612b84565b60405180910390a26020850151815461ffff909116610100027fffffffffffffffffffffffffffffffffffffffffffffffffffffffffff0000ff90911617905560019250610ca5565b50600101610b80565b5081610de75761013080546001818101835560009290925284517f2f605e086faac1d93117bbfbc18835d434e9405fadc1ca66faf4b864746daf349091018054869391929183917fffffffffffffffffffffffffffffffffffffffffffffffffffffffffffffff0016908381811115610d2057610d206126b3565b021790555060208281015182546040948501517fffffffffffffffffff00000000000000000000000000000000000000000000ff90911661010061ffff909316929092027fffffffffffffffffff0000000000000000000000000000000000000000ffffff169190911763010000006001600160a01b03928316021790925585830151908601518651935191909216927f8c96910d818618d8b1de4e1b5672a192443e87aa553f0ebe4c47f9d8c928b28292610dde92909190612a5d565b60405180910390a25b836001019350505050610b36565b50610dfe6116a5565b61013054610e0b9061187d565b610e15600160c955565b5050565b610e216113c5565b610e2b60006118c7565b565b60655433906001600160a01b03168114610eb45760405162461bcd60e51b815260206004820152602960248201527f4f776e61626c6532537465703a2063616c6c6572206973206e6f74207468652060448201527f6e6577206f776e6572000000000000000000000000000000000000000000000060648201526084015b60405180910390fd5b61040f816118c7565b610ec56113c5565b610ece8161156e565b61012d546040516001600160a01b038084169216907fa87b964d321035d2165e484ff4b722dd6eae30606c0b98887d2ed1a34e594bfe90600090a361012d80547fffffffffffffffffffffffff0000000000000000000000000000000000000000166001600160a01b0392909216919091179055565b61013054600090815b8181101561105b5760006101308281548110610f6b57610f6b612a2e565b906000526020600020019050866001811115610f8957610f896126b3565b815460ff166001811115610f9f57610f9f6126b3565b148015610fbf575080546001600160a01b03878116630100000090920416145b15611052576001600160a01b03808916600090815261012e60209081526040808320938916835292905290812081896001811115610fff57610fff6126b3565b6001811115611010576110106126b3565b815260208101919091526040016000205482549091506127109061103d90610100900461ffff1683612ba4565b6110479190612bbb565b94505050505061105e565b50600101610f4d565b50505b949350505050565b61013054600090815b81811015611152576000610130828154811061108d5761108d612a2e565b60009182526020909120604080516060810190915291018054829060ff1660018111156110bc576110bc6126b3565b60018111156110cd576110cd6126b3565b81529054610100810461ffff166020830152630100000090046001600160a01b03908116604092830152908201519192508781169116148015611132575084600181111561111d5761111d6126b3565b81516001811115611130576111306126b3565b145b15611149576020015161ffff169250611155915050565b5060010161106f565b50505b92915050565b600054610100900460ff161580801561117b5750600054600160ff909116105b806111955750303b158015611195575060005460ff166001145b6112075760405162461bcd60e51b815260206004820152602e60248201527f496e697469616c697a61626c653a20636f6e747261637420697320616c72656160448201527f647920696e697469616c697a65640000000000000000000000000000000000006064820152608401610eab565b600080547fffffffffffffffffffffffffffffffffffffffffffffffffffffffffffffff00166001179055801561126557600080547fffffffffffffffffffffffffffffffffffffffffffffffffffffffffffff00ff166101001790555b61126e836118f8565b611276611986565b61127f82611a0b565b801561078357600080547fffffffffffffffffffffffffffffffffffffffffffffffffffffffffffff00ff169055604051600181527f7f26b83ff96e1f2b6a682f133852f6798a09c465da95921460cefb38474024989060200160405180910390a1505050565b6112ee6113c5565b606580546001600160a01b0383167fffffffffffffffffffffffff000000000000000000000000000000000000000090911681179091556113376033546001600160a01b031690565b6001600160a01b03167f38d16b8cac22d99fc7c124b9cd0de2d3fa1faef420bfe791d8c362d765e2270060405160405180910390a350565b611377611515565b60005b818110156113ba576113b28484848481811061139857611398612a2e565b90506020020160208101906113ad919061262e565b611ac0565b60010161137a565b50610783600160c955565b6033546001600160a01b03163314610e2b5760405162461bcd60e51b815260206004820181905260248201527f4f776e61626c653a2063616c6c6572206973206e6f7420746865206f776e65726044820152606401610eab565b6001600160a01b03811661149b5760405162461bcd60e51b815260206004820152602560248201527f696e76616c696420616365737320636f6e74726f6c206d616e6167657220616460448201527f64726573730000000000000000000000000000000000000000000000000000006064820152608401610eab565b609780546001600160a01b038381167fffffffffffffffffffffffff000000000000000000000000000000000000000083168117909355604080519190921680825260208201939093527f66fd58e82f7b31a2a5c30e0888f3093efe4e111b00cd2b0c31fe014601293aa091015b60405180910390a15050565b600260c954036115675760405162461bcd60e51b815260206004820152601f60248201527f5265656e7472616e637947756172643a207265656e7472616e742063616c6c006044820152606401610eab565b600260c955565b6001600160a01b03811661040f576040517f8579befe00000000000000000000000000000000000000000000000000000000815260040160405180910390fd5b600160008260038111156115c4576115c46126b3565b036115cd575060005b919050565b600160c955565b6097546040517f18c5e8ab0000000000000000000000000000000000000000000000000000000081526000916001600160a01b0316906318c5e8ab906116259033908690600401612c64565b602060405180830381865afa158015611642573d6000803e3d6000fd5b505050506040513d601f19601f82011682018060405250810190611666919061296a565b905080610e15573330836040517f4a3fa293000000000000000000000000000000000000000000000000000000008152600401610eab93929190612c86565b60006116b26001806129f1565b905060008167ffffffffffffffff8111156116cf576116cf612ab7565b6040519080825280602002602001820160405280156116f8578160200160208202803683370190505b506101305490915060005b818110156117e1576000610130828154811061172157611721612a2e565b60009182526020909120604080516060810190915291018054829060ff166001811115611750576117506126b3565b6001811115611761576117616126b3565b81529054610100810461ffff1660208084019190915263010000009091046001600160a01b0316604090920191909152810151815191925090859060018111156117ad576117ad6126b3565b815181106117bd576117bd612a2e565b602002602001018181516117d19190612cbb565b61ffff1690525050600101611703565b5060005b83811015610b045761271061ffff1683828151811061180657611806612a2e565b602002602001015161ffff161415801561183e575082818151811061182d5761182d612a2e565b602002602001015161ffff16600014155b15611875576040517f0b8ad7f100000000000000000000000000000000000000000000000000000000815260040160405180910390fd5b6001016117e5565b60fb5481111561040f5760fb546040517ff257f636000000000000000000000000000000000000000000000000000000008152600481019190915260248101829052604401610eab565b606580547fffffffffffffffffffffffff000000000000000000000000000000000000000016905561040f81612099565b600054610100900460ff166119755760405162461bcd60e51b815260206004820152602b60248201527f496e697469616c697a61626c653a20636f6e7472616374206973206e6f74206960448201527f6e697469616c697a696e670000000000000000000000000000000000000000006064820152608401610eab565b61197d612103565b61040f81612188565b600054610100900460ff16611a035760405162461bcd60e51b815260206004820152602b60248201527f496e697469616c697a61626c653a20636f6e7472616374206973206e6f74206960448201527f6e697469616c697a696e670000000000000000000000000000000000000000006064820152608401610eab565b610e2b612205565b60fb548111611a825760405162461bcd60e51b815260206004820152602260248201527f436f6d7074726f6c6c65723a20496e76616c6964206d61784c6f6f70734c696d60448201527f69740000000000000000000000000000000000000000000000000000000000006064820152608401610eab565b60fb80549082905560408051828152602081018490527fc2d09fef144f7c8a86f71ea459f8fc17f675768eb1ae369cbd77fb31d467aafa9101611509565b6000611acd6001806129f1565b905060008167ffffffffffffffff811115611aea57611aea612ab7565b604051908082528060200260200182016040528015611b13578160200160208202803683370190505b5090506000805b83811015611bdb576001600160a01b03808716600090815261012e60209081526040808320938916835292905290812090826001811115611b5d57611b5d6126b3565b6001811115611b6e57611b6e6126b3565b6001811115611b7f57611b7f6126b3565b815260200190815260200160002054838281518110611ba057611ba0612a2e565b602002602001018181525050828181518110611bbe57611bbe612a2e565b602002602001015182611bd191906129f1565b9150600101611b1a565b5080600003611beb575050505050565b60008367ffffffffffffffff811115611c0657611c06612ab7565b604051908082528060200260200182016040528015611c2f578160200160208202803683370190505b50905060005b61013054811015611e645760006101308281548110611c5657611c56612a2e565b60009182526020909120604080516060810190915291018054829060ff166001811115611c8557611c856126b3565b6001811115611c9657611c966126b3565b81529054610100810461ffff90811660208085019190915263010000009092046001600160a01b0316604090930192909252820151825192935060009261271092919091169088906001811115611cef57611cef6126b3565b81518110611cff57611cff612a2e565b6020026020010151611d119190612ba4565b611d1b9190612bbb565b9050808483600001516001811115611d3557611d356126b3565b81518110611d4557611d45612a2e565b60200260200101818151611d5991906129f1565b9052508015611e5a576040820151611d7c906001600160a01b038a169083612282565b60408083015190517faac59a750000000000000000000000000000000000000000000000000000000081526001600160a01b038b811660048301528a811660248301529091169063aac59a7590604401600060405180830381600087803b158015611de657600080fd5b505af1158015611dfa573d6000803e3d6000fd5b50505050876001600160a01b031682604001516001600160a01b03167f09f71e7b22d78540ee9a42f09917a9d62f46735cb0dfa70d6bab27866d9cb5008460000151856020015185604051611e5193929190612cdd565b60405180910390a35b5050600101611c35565b5060008467ffffffffffffffff811115611e8057611e80612ab7565b604051908082528060200260200182016040528015611ea9578160200160208202803683370190505b50905060005b8581101561208f57828181518110611ec957611ec9612a2e565b6020026020010151858281518110611ee357611ee3612a2e565b6020026020010151611ef59190612a75565b828281518110611f0757611f07612a2e565b602002602001018181525050818181518110611f2557611f25612a2e565b6020908102919091018101516001600160a01b03808b16600090815261012e84526040808220928c1682529190935282209091836001811115611f6a57611f6a6126b3565b6001811115611f7b57611f7b6126b3565b6001811115611f8c57611f8c6126b3565b815260200190815260200160002081905550828181518110611fb057611fb0612a2e565b602002602001015161012f6000896001600160a01b03166001600160a01b0316815260200190815260200160002054611fe99190612a75565b6001600160a01b03808916600081815261012f602052604090209290925589167f7d881f3d6246a6a2b97b121b8ba093c17497912c68e8b2bca6108528e91df3ca83600181111561203c5761203c6126b3565b88858151811061204e5761204e612a2e565b602002602001015186868151811061206857612068612a2e565b602002602001015160405161207f93929190612d00565b60405180910390a3600101611eaf565b5050505050505050565b603380546001600160a01b038381167fffffffffffffffffffffffff0000000000000000000000000000000000000000831681179093556040519116919082907f8be0079c531659141344cd1fd0a4f28419497f9722a3daafe3b4186f6b6457e090600090a35050565b600054610100900460ff166121805760405162461bcd60e51b815260206004820152602b60248201527f496e697469616c697a61626c653a20636f6e7472616374206973206e6f74206960448201527f6e697469616c697a696e670000000000000000000000000000000000000000006064820152608401610eab565b610e2b612302565b600054610100900460ff166104065760405162461bcd60e51b815260206004820152602b60248201527f496e697469616c697a61626c653a20636f6e7472616374206973206e6f74206960448201527f6e697469616c697a696e670000000000000000000000000000000000000000006064820152608401610eab565b600054610100900460ff166115d25760405162461bcd60e51b815260206004820152602b60248201527f496e697469616c697a61626c653a20636f6e7472616374206973206e6f74206960448201527f6e697469616c697a696e670000000000000000000000000000000000000000006064820152608401610eab565b604080516001600160a01b038416602482015260448082018490528251808303909101815260649091019091526020810180517bffffffffffffffffffffffffffffffffffffffffffffffffffffffff167fa9059cbb00000000000000000000000000000000000000000000000000000000179052610783908490612388565b600054610100900460ff1661237f5760405162461bcd60e51b815260206004820152602b60248201527f496e697469616c697a61626c653a20636f6e7472616374206973206e6f74206960448201527f6e697469616c697a696e670000000000000000000000000000000000000000006064820152608401610eab565b610e2b336118c7565b60006123dd826040518060400160405280602081526020017f5361666545524332303a206c6f772d6c6576656c2063616c6c206661696c6564815250856001600160a01b03166124709092919063ffffffff16565b90508051600014806123fe5750808060200190518101906123fe919061296a565b6107835760405162461bcd60e51b815260206004820152602a60248201527f5361666545524332303a204552433230206f7065726174696f6e20646964206e60448201527f6f742073756363656564000000000000000000000000000000000000000000006064820152608401610eab565b606061247f8484600085612489565b90505b9392505050565b6060824710156125015760405162461bcd60e51b815260206004820152602660248201527f416464726573733a20696e73756666696369656e742062616c616e636520666f60448201527f722063616c6c00000000000000000000000000000000000000000000000000006064820152608401610eab565b600080866001600160a01b0316858760405161251d9190612d1f565b60006040518083038185875af1925050503d806000811461255a576040519150601f19603f3d011682016040523d82523d6000602084013e61255f565b606091505b50915091506125708783838761257b565b979650505050505050565b606083156125ea5782516000036125e3576001600160a01b0385163b6125e35760405162461bcd60e51b815260206004820152601d60248201527f416464726573733a2063616c6c20746f206e6f6e2d636f6e74726163740000006044820152606401610eab565b508161105e565b61105e83838151156125ff5781518083602001fd5b8060405162461bcd60e51b8152600401610eab9190612d3b565b6001600160a01b038116811461040f57600080fd5b60006020828403121561264057600080fd5b813561248281612619565b60008060006060848603121561266057600080fd5b833561266b81612619565b9250602084013561267b81612619565b915060408401356004811061268f57600080fd5b809150509250925092565b6000602082840312156126ac57600080fd5b5035919050565b7f4e487b7100000000000000000000000000000000000000000000000000000000600052602160045260246000fd5b600281106126f2576126f26126b3565b9052565b6060810161270482866126e2565b61ffff841660208301526001600160a01b0383166040830152949350505050565b8035600281106115cd57600080fd5b6000806040838503121561274757600080fd5b61275083612725565b9150602083013561276081612619565b809150509250929050565b60008060006060848603121561278057600080fd5b833561278b81612619565b9250602084013561279b81612619565b91506127a960408501612725565b90509250925092565b600080602083850312156127c557600080fd5b823567ffffffffffffffff808211156127dd57600080fd5b818501915085601f8301126127f157600080fd5b81358181111561280057600080fd5b86602060608302850101111561281557600080fd5b60209290920196919550909350505050565b6000806000806080858703121561283d57600080fd5b843561284881612619565b935061285660208601612725565b9250604085013561286681612619565b9150606085013561287681612619565b939692955090935050565b6000806040838503121561289457600080fd5b823561289f81612619565b91506128ad60208401612725565b90509250929050565b600080604083850312156128c957600080fd5b82356128d481612619565b946020939093013593505050565b6000806000604084860312156128f757600080fd5b833561290281612619565b9250602084013567ffffffffffffffff8082111561291f57600080fd5b818601915086601f83011261293357600080fd5b81358181111561294257600080fd5b8760208260051b850101111561295757600080fd5b6020830194508093505050509250925092565b60006020828403121561297c57600080fd5b8151801515811461248257600080fd5b60006020828403121561299e57600080fd5b815161248281612619565b6000602082840312156129bb57600080fd5b5051919050565b7f4e487b7100000000000000000000000000000000000000000000000000000000600052601160045260246000fd5b80820180821115611155576111556129c2565b8381526060810160048410612a1b57612a1b6126b3565b83602083015261105e60408301846126e2565b7f4e487b7100000000000000000000000000000000000000000000000000000000600052603260045260246000fd5b61ffff831681526040810161248260208301846126e2565b81810381811115611155576111556129c2565b7f4e487b7100000000000000000000000000000000000000000000000000000000600052603160045260246000fd5b7f4e487b7100000000000000000000000000000000000000000000000000000000600052604160045260246000fd5b600060608284031215612af857600080fd5b6040516060810181811067ffffffffffffffff82111715612b42577f4e487b7100000000000000000000000000000000000000000000000000000000600052604160045260246000fd5b604052612b4e83612725565b8152602083013561ffff81168114612b6557600080fd5b60208201526040830135612b7881612619565b60408201529392505050565b61ffff8481168252831660208201526060810161105e60408301846126e2565b8082028115828204841417611155576111556129c2565b600082612bf1577f4e487b7100000000000000000000000000000000000000000000000000000000600052601260045260246000fd5b500490565b60005b83811015612c11578181015183820152602001612bf9565b50506000910152565b60008151808452612c32816020860160208601612bf6565b601f017fffffffffffffffffffffffffffffffffffffffffffffffffffffffffffffffe0169290920160200192915050565b6001600160a01b038316815260406020820152600061247f6040830184612c1a565b60006001600160a01b03808616835280851660208401525060606040830152612cb26060830184612c1a565b95945050505050565b61ffff818116838216019080821115612cd657612cd66129c2565b5092915050565b60608101612ceb82866126e2565b61ffff93909316602082015260400152919050565b60608101612d0e82866126e2565b602082019390935260400152919050565b60008251612d31818460208701612bf6565b9190910192915050565b6020815260006124826020830184612c1a56fe72656d6f7665446973747269627574696f6e436f6e66696728536368656d612c61646472657373296164644f72557064617465446973747269627574696f6e436f6e6669677328446973747269627574696f6e436f6e6669675b5d29a2646970667358221220598788c92e1ddb587d0c7a870c28c1bc310b8bdebfcb2ac4d13ef06bf774543c64736f6c63430008190033",
  "devdoc": {
    "events": {
      "Initialized(uint8)": {
        "details": "Triggered when the contract has been initialized or reinitialized."
      }
    },
    "kind": "dev",
    "methods": {
      "acceptOwnership()": {
        "details": "The new owner accepts the ownership transfer."
      },
      "addOrUpdateDistributionConfigs((uint8,uint16,address)[])": {
        "details": "Add or update destination targets based on destination address",
        "params": {
          "configs": "configurations of the destinations."
        }
      },
      "constructor": {
        "custom:oz-upgrades-unsafe-allow": "constructor"
      },
      "getPercentageDistribution(address,uint8)": {
        "details": "Used to find out the percentage distribution for a particular destination based on schema",
        "params": {
          "destination": "the destination address of the distribution target",
          "schema": "the schema of the distribution target"
        },
        "returns": {
          "_0": "percentage percentage distribution"
        }
      },
      "getUnreleasedFunds(address,uint8,address,address)": {
        "details": "Used to find out the amount of funds that's going to be released when release funds is called.",
        "params": {
          "asset": "the asset address which will be released",
          "comptroller": "the comptroller address of the pool",
          "destination": "the destination address of the distribution target",
          "schema": "the schema of the distribution target"
        }
      },
      "initialize(address,uint256)": {
        "details": "Initializes the deployer to owner.",
        "params": {
          "_accessControlManager": "The address of ACM contract",
          "_loopsLimit": "Limit for the loops in the contract to avoid DOS"
        }
      },
      "owner()": {
        "details": "Returns the address of the current owner."
      },
      "pendingOwner()": {
        "details": "Returns the address of the pending owner."
      },
      "releaseFunds(address,address[])": {
        "details": "Release funds",
        "params": {
          "assets": "assets to be released to distribution targets",
          "comptroller": "the comptroller address of the pool"
        }
      },
      "removeDistributionConfig(uint8,address)": {
        "details": "Remove destionation target if percentage is 0",
        "params": {
          "destination": "destination address of the configuration",
          "schema": "schema of the configuration"
        }
      },
      "renounceOwnership()": {
        "details": "Leaves the contract without owner. It will not be possible to call `onlyOwner` functions. Can only be called by the current owner. NOTE: Renouncing ownership will leave the contract without an owner, thereby disabling any functionality that is only available to the owner."
      },
      "setAccessControlManager(address)": {
        "custom:access": "Only Governance",
        "custom:event": "Emits NewAccessControlManager event",
        "details": "Admin function to set address of AccessControlManager",
        "params": {
          "accessControlManager_": "The new address of the AccessControlManager"
        }
      },
      "setPoolRegistry(address)": {
        "custom:error": "ZeroAddressNotAllowed is thrown when pool registry address is zero",
        "details": "Pool registry setter.",
        "params": {
          "_poolRegistry": "Address of the pool registry"
        }
      },
      "totalDistributions()": {
        "details": "Returns the total number of distribution targets"
      },
      "transferOwnership(address)": {
        "details": "Starts the ownership transfer of the contract to a new account. Replaces the pending transfer if there is one. Can only be called by the current owner."
      },
      "updateAssetsState(address,address,uint8)": {
        "details": "Update the reserve of the asset for the specific pool after transferring to the protocol share reserve.",
        "params": {
          "asset": "Asset address.",
          "comptroller": "Comptroller address (pool)",
          "incomeType": "type of income"
        }
      }
    },
    "stateVariables": {
      "CORE_POOL_COMPTROLLER": {
        "custom:oz-upgrades-unsafe-allow": "state-variable-immutable"
      },
      "WBNB": {
        "custom:oz-upgrades-unsafe-allow": "state-variable-immutable"
      },
      "vBNB": {
        "custom:oz-upgrades-unsafe-allow": "state-variable-immutable"
      }
    },
    "version": 1
  },
  "userdoc": {
    "errors": {
      "MaxLoopsLimitExceeded(uint256,uint256)": [
        {
          "notice": "Thrown an error on maxLoopsLimit exceeds for any loop"
        }
      ],
      "Unauthorized(address,address,string)": [
        {
          "notice": "Thrown when the action is prohibited by AccessControlManager"
        }
      ],
      "ZeroAddressNotAllowed()": [
        {
          "notice": "Thrown if the supplied address is a zero address where it is not allowed"
        }
      ]
    },
    "events": {
      "AssetReleased(address,address,uint8,uint256,uint256)": {
        "notice": "Event emitted when an asset is released to a target"
      },
      "AssetsReservesUpdated(address,address,uint256,uint8,uint8)": {
        "notice": "Event emitted after updating of the assets reserves."
      },
      "DistributionConfigAdded(address,uint16,uint8)": {
        "notice": "Event emitted when distribution configuration is added"
      },
      "DistributionConfigRemoved(address,uint16,uint8)": {
        "notice": "Event emitted when distribution configuration is removed"
      },
      "DistributionConfigUpdated(address,uint16,uint16,uint8)": {
        "notice": "Event emitted when distribution configuration is updated"
      },
      "MaxLoopsLimitUpdated(uint256,uint256)": {
        "notice": "Emitted when max loops limit is set"
      },
      "NewAccessControlManager(address,address)": {
        "notice": "Emitted when access control manager contract address is changed"
      },
      "PoolRegistryUpdated(address,address)": {
        "notice": "Emitted when pool registry address is updated"
      },
      "ReservesUpdated(address,address,uint8,uint256,uint256)": {
        "notice": "Event emitted when asset reserves state is updated"
      }
    },
    "kind": "user",
    "methods": {
      "CORE_POOL_COMPTROLLER()": {
        "notice": "address of core pool comptroller contract"
      },
      "WBNB()": {
        "notice": "address of WBNB contract"
      },
      "accessControlManager()": {
        "notice": "Returns the address of the access control manager contract"
      },
      "assetsReserves(address,address,uint8)": {
        "notice": "comptroller => asset => schema => balance"
      },
      "distributionTargets(uint256)": {
        "notice": "configuration for different income distribution targets"
      },
      "poolRegistry()": {
        "notice": "address of pool registry contract"
      },
      "setAccessControlManager(address)": {
        "notice": "Sets the address of AccessControlManager"
      },
      "totalAssetReserve(address)": {
        "notice": "asset => balance"
      },
      "vBNB()": {
        "notice": "address of vBNB contract"
      }
    },
    "version": 1
  },
  "storageLayout": {
    "storage": [
      {
        "astId": 244,
        "contract": "contracts/ProtocolReserve/ProtocolShareReserve.sol:ProtocolShareReserve",
        "label": "_initialized",
        "offset": 0,
        "slot": "0",
        "type": "t_uint8"
      },
      {
        "astId": 247,
        "contract": "contracts/ProtocolReserve/ProtocolShareReserve.sol:ProtocolShareReserve",
        "label": "_initializing",
        "offset": 1,
        "slot": "0",
        "type": "t_bool"
      },
      {
        "astId": 1478,
        "contract": "contracts/ProtocolReserve/ProtocolShareReserve.sol:ProtocolShareReserve",
        "label": "__gap",
        "offset": 0,
        "slot": "1",
        "type": "t_array(t_uint256)50_storage"
      },
      {
        "astId": 116,
        "contract": "contracts/ProtocolReserve/ProtocolShareReserve.sol:ProtocolShareReserve",
        "label": "_owner",
        "offset": 0,
        "slot": "51",
        "type": "t_address"
      },
      {
        "astId": 236,
        "contract": "contracts/ProtocolReserve/ProtocolShareReserve.sol:ProtocolShareReserve",
        "label": "__gap",
        "offset": 0,
        "slot": "52",
        "type": "t_array(t_uint256)49_storage"
      },
      {
        "astId": 25,
        "contract": "contracts/ProtocolReserve/ProtocolShareReserve.sol:ProtocolShareReserve",
        "label": "_pendingOwner",
        "offset": 0,
        "slot": "101",
        "type": "t_address"
      },
      {
        "astId": 104,
        "contract": "contracts/ProtocolReserve/ProtocolShareReserve.sol:ProtocolShareReserve",
        "label": "__gap",
        "offset": 0,
        "slot": "102",
        "type": "t_array(t_uint256)49_storage"
      },
      {
        "astId": 5417,
        "contract": "contracts/ProtocolReserve/ProtocolShareReserve.sol:ProtocolShareReserve",
        "label": "_accessControlManager",
        "offset": 0,
        "slot": "151",
        "type": "t_contract(IAccessControlManagerV8)5602"
      },
      {
        "astId": 5422,
        "contract": "contracts/ProtocolReserve/ProtocolShareReserve.sol:ProtocolShareReserve",
        "label": "__gap",
        "offset": 0,
        "slot": "152",
        "type": "t_array(t_uint256)49_storage"
      },
      {
        "astId": 547,
        "contract": "contracts/ProtocolReserve/ProtocolShareReserve.sol:ProtocolShareReserve",
        "label": "_status",
        "offset": 0,
        "slot": "201",
        "type": "t_uint256"
      },
      {
        "astId": 616,
        "contract": "contracts/ProtocolReserve/ProtocolShareReserve.sol:ProtocolShareReserve",
        "label": "__gap",
        "offset": 0,
        "slot": "202",
        "type": "t_array(t_uint256)49_storage"
      },
      {
        "astId": 6563,
        "contract": "contracts/ProtocolReserve/ProtocolShareReserve.sol:ProtocolShareReserve",
        "label": "maxLoopsLimit",
        "offset": 0,
        "slot": "251",
        "type": "t_uint256"
      },
      {
        "astId": 6568,
        "contract": "contracts/ProtocolReserve/ProtocolShareReserve.sol:ProtocolShareReserve",
        "label": "__gap",
        "offset": 0,
        "slot": "252",
        "type": "t_array(t_uint256)49_storage"
      },
      {
        "astId": 6966,
        "contract": "contracts/ProtocolReserve/ProtocolShareReserve.sol:ProtocolShareReserve",
        "label": "poolRegistry",
        "offset": 0,
        "slot": "301",
        "type": "t_address"
      },
      {
        "astId": 6979,
        "contract": "contracts/ProtocolReserve/ProtocolShareReserve.sol:ProtocolShareReserve",
        "label": "assetsReserves",
        "offset": 0,
        "slot": "302",
        "type": "t_mapping(t_address,t_mapping(t_address,t_mapping(t_enum(Schema)6945,t_uint256)))"
      },
      {
        "astId": 6984,
        "contract": "contracts/ProtocolReserve/ProtocolShareReserve.sol:ProtocolShareReserve",
        "label": "totalAssetReserve",
        "offset": 0,
        "slot": "303",
        "type": "t_mapping(t_address,t_uint256)"
      },
      {
        "astId": 6989,
        "contract": "contracts/ProtocolReserve/ProtocolShareReserve.sol:ProtocolShareReserve",
        "label": "distributionTargets",
        "offset": 0,
        "slot": "304",
        "type": "t_array(t_struct(DistributionConfig)6954_storage)dyn_storage"
      }
    ],
    "types": {
      "t_address": {
        "encoding": "inplace",
        "label": "address",
        "numberOfBytes": "20"
      },
      "t_array(t_struct(DistributionConfig)6954_storage)dyn_storage": {
        "base": "t_struct(DistributionConfig)6954_storage",
        "encoding": "dynamic_array",
        "label": "struct ProtocolShareReserve.DistributionConfig[]",
        "numberOfBytes": "32"
      },
      "t_array(t_uint256)49_storage": {
        "base": "t_uint256",
        "encoding": "inplace",
        "label": "uint256[49]",
        "numberOfBytes": "1568"
      },
      "t_array(t_uint256)50_storage": {
        "base": "t_uint256",
        "encoding": "inplace",
        "label": "uint256[50]",
        "numberOfBytes": "1600"
      },
      "t_bool": {
        "encoding": "inplace",
        "label": "bool",
        "numberOfBytes": "1"
      },
      "t_contract(IAccessControlManagerV8)5602": {
        "encoding": "inplace",
        "label": "contract IAccessControlManagerV8",
        "numberOfBytes": "20"
      },
      "t_enum(Schema)6945": {
        "encoding": "inplace",
        "label": "enum ProtocolShareReserve.Schema",
        "numberOfBytes": "1"
      },
      "t_mapping(t_address,t_mapping(t_address,t_mapping(t_enum(Schema)6945,t_uint256)))": {
        "encoding": "mapping",
        "key": "t_address",
        "label": "mapping(address => mapping(address => mapping(enum ProtocolShareReserve.Schema => uint256)))",
        "numberOfBytes": "32",
        "value": "t_mapping(t_address,t_mapping(t_enum(Schema)6945,t_uint256))"
      },
      "t_mapping(t_address,t_mapping(t_enum(Schema)6945,t_uint256))": {
        "encoding": "mapping",
        "key": "t_address",
        "label": "mapping(address => mapping(enum ProtocolShareReserve.Schema => uint256))",
        "numberOfBytes": "32",
        "value": "t_mapping(t_enum(Schema)6945,t_uint256)"
      },
      "t_mapping(t_address,t_uint256)": {
        "encoding": "mapping",
        "key": "t_address",
        "label": "mapping(address => uint256)",
        "numberOfBytes": "32",
        "value": "t_uint256"
      },
      "t_mapping(t_enum(Schema)6945,t_uint256)": {
        "encoding": "mapping",
        "key": "t_enum(Schema)6945",
        "label": "mapping(enum ProtocolShareReserve.Schema => uint256)",
        "numberOfBytes": "32",
        "value": "t_uint256"
      },
      "t_struct(DistributionConfig)6954_storage": {
        "encoding": "inplace",
        "label": "struct ProtocolShareReserve.DistributionConfig",
        "members": [
          {
            "astId": 6948,
            "contract": "contracts/ProtocolReserve/ProtocolShareReserve.sol:ProtocolShareReserve",
            "label": "schema",
            "offset": 0,
            "slot": "0",
            "type": "t_enum(Schema)6945"
          },
          {
            "astId": 6951,
            "contract": "contracts/ProtocolReserve/ProtocolShareReserve.sol:ProtocolShareReserve",
            "label": "percentage",
            "offset": 1,
            "slot": "0",
            "type": "t_uint16"
          },
          {
            "astId": 6953,
            "contract": "contracts/ProtocolReserve/ProtocolShareReserve.sol:ProtocolShareReserve",
            "label": "destination",
            "offset": 3,
            "slot": "0",
            "type": "t_address"
          }
        ],
        "numberOfBytes": "32"
      },
      "t_uint16": {
        "encoding": "inplace",
        "label": "uint16",
        "numberOfBytes": "2"
      },
      "t_uint256": {
        "encoding": "inplace",
        "label": "uint256",
        "numberOfBytes": "32"
      },
      "t_uint8": {
        "encoding": "inplace",
        "label": "uint8",
        "numberOfBytes": "1"
      }
    }
  }
}