{
  "address": "0x8D17874CDA682aDCBcDd8eEf8dfE8eeb9D4d6f8D",
  "abi": [
    {
      "inputs": [],
      "stateMutability": "nonpayable",
      "type": "constructor"
    },
    {
      "inputs": [],
      "name": "ConverterAlreadyExists",
      "type": "error"
    },
    {
      "inputs": [],
      "name": "ConverterDoesNotExist",
      "type": "error"
    },
    {
      "inputs": [
        {
          "internalType": "uint256",
          "name": "loopsLimit",
          "type": "uint256"
        }
      ],
      "name": "InvalidMaxLoopsLimit",
      "type": "error"
    },
    {
      "inputs": [],
      "name": "InvalidTokenConverterAddress",
      "type": "error"
    },
    {
      "inputs": [
        {
          "internalType": "uint256",
          "name": "loopsLimit",
          "type": "uint256"
        },
        {
          "internalType": "uint256",
          "name": "requiredLoops",
          "type": "uint256"
        }
      ],
      "name": "MaxLoopsLimitExceeded",
      "type": "error"
    },
    {
      "inputs": [
        {
          "internalType": "address",
          "name": "sender",
          "type": "address"
        },
        {
          "internalType": "address",
          "name": "calledContract",
          "type": "address"
        },
        {
          "internalType": "string",
          "name": "methodSignature",
          "type": "string"
        }
      ],
      "name": "Unauthorized",
      "type": "error"
    },
    {
      "inputs": [],
      "name": "ZeroAddressNotAllowed",
      "type": "error"
    },
    {
      "anonymous": false,
      "inputs": [
        {
          "indexed": true,
          "internalType": "address",
          "name": "converter",
          "type": "address"
        }
      ],
      "name": "ConverterAdded",
      "type": "event"
    },
    {
      "anonymous": false,
      "inputs": [
        {
          "indexed": true,
          "internalType": "address",
          "name": "converter",
          "type": "address"
        }
      ],
      "name": "ConverterRemoved",
      "type": "event"
    },
    {
      "anonymous": false,
      "inputs": [
        {
          "indexed": false,
          "internalType": "uint8",
          "name": "version",
          "type": "uint8"
        }
      ],
      "name": "Initialized",
      "type": "event"
    },
    {
      "anonymous": false,
      "inputs": [
        {
          "indexed": false,
          "internalType": "uint256",
          "name": "oldMaxLoopsLimit",
          "type": "uint256"
        },
        {
          "indexed": false,
          "internalType": "uint256",
          "name": "newmaxLoopsLimit",
          "type": "uint256"
        }
      ],
      "name": "MaxLoopsLimitUpdated",
      "type": "event"
    },
    {
      "anonymous": false,
      "inputs": [
        {
          "indexed": false,
          "internalType": "address",
          "name": "oldAccessControlManager",
          "type": "address"
        },
        {
          "indexed": false,
          "internalType": "address",
          "name": "newAccessControlManager",
          "type": "address"
        }
      ],
      "name": "NewAccessControlManager",
      "type": "event"
    },
    {
      "anonymous": false,
      "inputs": [
        {
          "indexed": true,
          "internalType": "address",
          "name": "previousOwner",
          "type": "address"
        },
        {
          "indexed": true,
          "internalType": "address",
          "name": "newOwner",
          "type": "address"
        }
      ],
      "name": "OwnershipTransferStarted",
      "type": "event"
    },
    {
      "anonymous": false,
      "inputs": [
        {
          "indexed": true,
          "internalType": "address",
          "name": "previousOwner",
          "type": "address"
        },
        {
          "indexed": true,
          "internalType": "address",
          "name": "newOwner",
          "type": "address"
        }
      ],
      "name": "OwnershipTransferred",
      "type": "event"
    },
    {
      "inputs": [],
      "name": "acceptOwnership",
      "outputs": [],
      "stateMutability": "nonpayable",
      "type": "function"
    },
    {
      "inputs": [],
      "name": "accessControlManager",
      "outputs": [
        {
          "internalType": "contract IAccessControlManagerV8",
          "name": "",
          "type": "address"
        }
      ],
      "stateMutability": "view",
      "type": "function"
    },
    {
      "inputs": [
        {
          "internalType": "contract IAbstractTokenConverter",
          "name": "_tokenConverter",
          "type": "address"
        }
      ],
      "name": "addTokenConverter",
      "outputs": [],
      "stateMutability": "nonpayable",
      "type": "function"
    },
    {
      "inputs": [
        {
          "internalType": "uint256",
          "name": "",
          "type": "uint256"
        }
      ],
      "name": "allConverters",
      "outputs": [
        {
          "internalType": "contract IAbstractTokenConverter",
          "name": "",
          "type": "address"
        }
      ],
      "stateMutability": "view",
      "type": "function"
    },
    {
      "inputs": [
        {
          "internalType": "address",
          "name": "_tokenAddressIn",
          "type": "address"
        },
        {
          "internalType": "address",
          "name": "_tokenAddressOut",
          "type": "address"
        }
      ],
      "name": "findTokenConverters",
      "outputs": [
        {
          "internalType": "address[]",
          "name": "converters",
          "type": "address[]"
        },
        {
          "internalType": "uint256[]",
          "name": "convertersBalance",
          "type": "uint256[]"
        }
      ],
      "stateMutability": "nonpayable",
      "type": "function"
    },
    {
      "inputs": [
        {
          "internalType": "address",
          "name": "_tokenAddressIn",
          "type": "address"
        },
        {
          "internalType": "address",
          "name": "_tokenAddressOut",
          "type": "address"
        }
      ],
      "name": "findTokenConvertersForConverters",
      "outputs": [
        {
          "internalType": "address[]",
          "name": "converters",
          "type": "address[]"
        },
        {
          "internalType": "uint256[]",
          "name": "convertersBalance",
          "type": "uint256[]"
        }
      ],
      "stateMutability": "nonpayable",
      "type": "function"
    },
    {
      "inputs": [],
      "name": "getAllConverters",
      "outputs": [
        {
          "internalType": "contract IAbstractTokenConverter[]",
          "name": "converters",
          "type": "address[]"
        }
      ],
      "stateMutability": "view",
      "type": "function"
    },
    {
      "inputs": [
        {
          "internalType": "address",
          "name": "_accessControlManager",
          "type": "address"
        },
        {
          "internalType": "uint256",
          "name": "_loopsLimit",
          "type": "uint256"
        }
      ],
      "name": "initialize",
      "outputs": [],
      "stateMutability": "nonpayable",
      "type": "function"
    },
    {
      "inputs": [
        {
          "internalType": "address",
          "name": "_tokenConverter",
          "type": "address"
        }
      ],
      "name": "isTokenConverter",
      "outputs": [
        {
          "internalType": "bool",
          "name": "isConverter",
          "type": "bool"
        }
      ],
      "stateMutability": "view",
      "type": "function"
    },
    {
      "inputs": [],
      "name": "maxLoopsLimit",
      "outputs": [
        {
          "internalType": "uint256",
          "name": "",
          "type": "uint256"
        }
      ],
      "stateMutability": "view",
      "type": "function"
    },
    {
      "inputs": [],
      "name": "owner",
      "outputs": [
        {
          "internalType": "address",
          "name": "",
          "type": "address"
        }
      ],
      "stateMutability": "view",
      "type": "function"
    },
    {
      "inputs": [],
      "name": "pendingOwner",
      "outputs": [
        {
          "internalType": "address",
          "name": "",
          "type": "address"
        }
      ],
      "stateMutability": "view",
      "type": "function"
    },
    {
      "inputs": [
        {
          "internalType": "contract IAbstractTokenConverter",
          "name": "_tokenConverter",
          "type": "address"
        }
      ],
      "name": "removeTokenConverter",
      "outputs": [],
      "stateMutability": "nonpayable",
      "type": "function"
    },
    {
      "inputs": [],
      "name": "renounceOwnership",
      "outputs": [],
      "stateMutability": "nonpayable",
      "type": "function"
    },
    {
      "inputs": [
        {
          "internalType": "address",
          "name": "accessControlManager_",
          "type": "address"
        }
      ],
      "name": "setAccessControlManager",
      "outputs": [],
      "stateMutability": "nonpayable",
      "type": "function"
    },
    {
      "inputs": [
        {
          "internalType": "uint256",
          "name": "limit",
          "type": "uint256"
        }
      ],
      "name": "setMaxLoopsLimit",
      "outputs": [],
      "stateMutability": "nonpayable",
      "type": "function"
    },
    {
      "inputs": [
        {
          "internalType": "address",
          "name": "newOwner",
          "type": "address"
        }
      ],
      "name": "transferOwnership",
      "outputs": [],
      "stateMutability": "nonpayable",
      "type": "function"
    }
  ],
  "transactionHash": "0xc65bb840fd5c79f7fa7d9b1a1ae0512de28caefcc7f41bc23b7d551307478c60",
  "args": [],
  "numDeployments": 1,
  "solcInputHash": "ee8827a99e03cdf6f6a94fb8782ddf44",
  "bytecode": "0x608060405234801561001057600080fd5b5061001961001e565b6100dd565b600054610100900460ff161561008a5760405162461bcd60e51b815260206004820152602760248201527f496e697469616c697a61626c653a20636f6e747261637420697320696e697469604482015266616c697a696e6760c81b606482015260840160405180910390fd5b60005460ff908116146100db576000805460ff191660ff9081179091556040519081527f7f26b83ff96e1f2b6a682f133852f6798a09c465da95921460cefb38474024989060200160405180910390a15b565b6120b880620000ed6000396000f3fe608060405234801561001057600080fd5b506004361061011b5760003560e01c806380d45a2d116100b2578063be26317e11610081578063e30c397811610066578063e30c39781461027e578063f2fde38b1461029c578063f49e746f146102af57600080fd5b8063be26317e14610254578063cd6dc6871461026b57600080fd5b806380d45a2d146101f25780638da5cb5b14610205578063932fd98514610223578063b4a0bdf31461023657600080fd5b80634e9f8f39116100ee5780634e9f8f39146101ac5780636c059fb1146101bf578063715018a6146101e257806379ba5097146101ea57600080fd5b80630e32cb861461012057806325a31b6b14610135578063285510e9146101535780633119e7c71461018b575b600080fd5b61013361012e366004611b9f565b6102c2565b005b61013d6102d6565b60405161014a9190611bc3565b60405180910390f35b610166610161366004611c1d565b610345565b60405173ffffffffffffffffffffffffffffffffffffffff909116815260200161014a565b61019e610199366004611c36565b61037c565b60405161014a929190611c6f565b61019e6101ba366004611c36565b610396565b6101d26101cd366004611b9f565b6103a5565b604051901515815260200161014a565b6101336103d7565b6101336103eb565b610133610200366004611c1d565b6104a2565b60335473ffffffffffffffffffffffffffffffffffffffff16610166565b610133610231366004611b9f565b6104ff565b60975473ffffffffffffffffffffffffffffffffffffffff16610166565b61025d60c95481565b60405190815260200161014a565b610133610279366004611d00565b610546565b60655473ffffffffffffffffffffffffffffffffffffffff16610166565b6101336102aa366004611b9f565b610739565b6101336102bd366004611b9f565b6107e9565b6102ca610a00565b6102d381610a81565b50565b606060fb80548060200260200160405190810160405280929190818152602001828054801561033b57602002820191906000526020600020905b815473ffffffffffffffffffffffffffffffffffffffff168152600190910190602001808311610310575b5050505050905090565b60fb818154811061035557600080fd5b60009182526020909120015473ffffffffffffffffffffffffffffffffffffffff16905081565b60608061038b84846000610bab565b909590945092505050565b60608061038b84846001610bab565b6000806103b183611100565b90506fffffffffffffffffffffffffffffffff808216146103d157600191505b50919050565b6103df610a00565b6103e960006111ba565b565b606554339073ffffffffffffffffffffffffffffffffffffffff168114610499576040517f08c379a000000000000000000000000000000000000000000000000000000000815260206004820152602960248201527f4f776e61626c6532537465703a2063616c6c6572206973206e6f74207468652060448201527f6e6577206f776e6572000000000000000000000000000000000000000000000060648201526084015b60405180910390fd5b6102d3816111ba565b6104aa610a00565b6fffffffffffffffffffffffffffffffff81106104f6576040517f132515e000000000000000000000000000000000000000000000000000000000815260048101829052602401610490565b6102d3816111eb565b61053d6040518060400160405280601a81526020017f616464546f6b656e436f6e7665727465722861646472657373290000000000008152506112ba565b6102d381611397565b600054610100900460ff16158080156105665750600054600160ff909116105b806105805750303b158015610580575060005460ff166001145b61060c576040517f08c379a000000000000000000000000000000000000000000000000000000000815260206004820152602e60248201527f496e697469616c697a61626c653a20636f6e747261637420697320616c72656160448201527f647920696e697469616c697a65640000000000000000000000000000000000006064820152608401610490565b600080547fffffffffffffffffffffffffffffffffffffffffffffffffffffffffffffff00166001179055801561066a57600080547fffffffffffffffffffffffffffffffffffffffffffffffffffffffffffff00ff166101001790555b610673836115a3565b61067c836115f0565b6fffffffffffffffffffffffffffffffff82106106c8576040517f132515e000000000000000000000000000000000000000000000000000000000815260048101839052602401610490565b6106d1826111eb565b801561073457600080547fffffffffffffffffffffffffffffffffffffffffffffffffffffffffffff00ff169055604051600181527f7f26b83ff96e1f2b6a682f133852f6798a09c465da95921460cefb38474024989060200160405180910390a15b505050565b610741610a00565b6065805473ffffffffffffffffffffffffffffffffffffffff83167fffffffffffffffffffffffff000000000000000000000000000000000000000090911681179091556107a460335473ffffffffffffffffffffffffffffffffffffffff1690565b73ffffffffffffffffffffffffffffffffffffffff167f38d16b8cac22d99fc7c124b9cd0de2d3fa1faef420bfe791d8c362d765e2270060405160405180910390a350565b6108276040518060400160405280601d81526020017f72656d6f7665546f6b656e436f6e7665727465722861646472657373290000008152506112ba565b600061083282611100565b90507fffffffffffffffffffffffffffffffff000000000000000000000000000000016fffffffffffffffffffffffffffffffff82160161089f576040517f2516fa2900000000000000000000000000000000000000000000000000000000815260040160405180910390fd5b60fb80546108af90600190611d5b565b815481106108bf576108bf611d72565b60009182526020909120015460fb805473ffffffffffffffffffffffffffffffffffffffff909216916fffffffffffffffffffffffffffffffff841690811061090a5761090a611d72565b9060005260206000200160006101000a81548173ffffffffffffffffffffffffffffffffffffffff021916908373ffffffffffffffffffffffffffffffffffffffff16021790555060fb80548061096357610963611da1565b60008281526020812082017fffffffffffffffffffffffffffffffffffffffffffffffffffffffffffffffff90810180547fffffffffffffffffffffffff000000000000000000000000000000000000000016905590910190915560405173ffffffffffffffffffffffffffffffffffffffff8416917febba5edf297d79cea0ec18d97adacf578cc3152240bd112e8d7da26ba65700d191a25050565b60335473ffffffffffffffffffffffffffffffffffffffff1633146103e9576040517f08c379a000000000000000000000000000000000000000000000000000000000815260206004820181905260248201527f4f776e61626c653a2063616c6c6572206973206e6f7420746865206f776e65726044820152606401610490565b73ffffffffffffffffffffffffffffffffffffffff8116610b24576040517f08c379a000000000000000000000000000000000000000000000000000000000815260206004820152602560248201527f696e76616c696420616365737320636f6e74726f6c206d616e6167657220616460448201527f64726573730000000000000000000000000000000000000000000000000000006064820152608401610490565b6097805473ffffffffffffffffffffffffffffffffffffffff8381167fffffffffffffffffffffffff000000000000000000000000000000000000000083168117909355604080519190921680825260208201939093527f66fd58e82f7b31a2a5c30e0888f3093efe4e111b00cd2b0c31fe014601293aa091015b60405180910390a15050565b60fb5460609081906fffffffffffffffffffffffffffffffff811667ffffffffffffffff811115610bde57610bde611dd0565b604051908082528060200260200182016040528015610c07578160200160208202803683370190505b509250806fffffffffffffffffffffffffffffffff1667ffffffffffffffff811115610c3557610c35611dd0565b604051908082528060200260200182016040528015610c5e578160200160208202803683370190505b5091506000805b826fffffffffffffffffffffffffffffffff16816fffffffffffffffffffffffffffffffff1610156110e557600060fb826fffffffffffffffffffffffffffffffff1681548110610cb857610cb8611d72565b9060005260206000200160009054906101000a900473ffffffffffffffffffffffffffffffffffffffff1690508160010191503073ffffffffffffffffffffffffffffffffffffffff168173ffffffffffffffffffffffffffffffffffffffff166301e201786040518163ffffffff1660e01b81526004016020604051808303816000875af1158015610d4f573d6000803e3d6000fd5b505050506040513d601f19601f82011682018060405250810190610d739190611dff565b73ffffffffffffffffffffffffffffffffffffffff16141580610dab57503373ffffffffffffffffffffffffffffffffffffffff8216145b15610db65750610c65565b6040517fb491ddf700000000000000000000000000000000000000000000000000000000815273ffffffffffffffffffffffffffffffffffffffff8a8116600483015289811660248301526000919083169063b491ddf79060440160408051808303816000875af1158015610e2f573d6000803e3d6000fd5b505050506040513d601f19601f82011682018060405250810190610e539190611e1c565b915060019050816003811115610e6b57610e6b611e45565b03610f73578187856fffffffffffffffffffffffffffffffff1681518110610e9557610e95611d72565b73ffffffffffffffffffffffffffffffffffffffff92831660209182029290920101526040517f70a082310000000000000000000000000000000000000000000000000000000081528a82166004820152908316906370a0823190602401602060405180830381865afa158015610f10573d6000803e3d6000fd5b505050506040513d601f19601f82011682018060405250810190610f349190611e74565b86856fffffffffffffffffffffffffffffffff1681518110610f5857610f58611d72565b6020908102919091010152610f6c84611e8d565b93506110de565b878015610f9157506002816003811115610f8f57610f8f611e45565b145b15610fbb578187856fffffffffffffffffffffffffffffffff1681518110610e9557610e95611d72565b87158015610fda57506003816003811115610fd857610fd8611e45565b145b156110de578187856fffffffffffffffffffffffffffffffff168151811061100457611004611d72565b73ffffffffffffffffffffffffffffffffffffffff92831660209182029290920101526040517f70a082310000000000000000000000000000000000000000000000000000000081528a82166004820152908316906370a0823190602401602060405180830381865afa15801561107f573d6000803e3d6000fd5b505050506040513d601f19601f820116820180604052508101906110a39190611e74565b86856fffffffffffffffffffffffffffffffff16815181106110c7576110c7611d72565b60209081029190910101526110db84611e8d565b93505b5050610c65565b508084528083526110f68385611698565b5050935093915050565b60fb546fffffffffffffffffffffffffffffffff9060005b816fffffffffffffffffffffffffffffffff16816fffffffffffffffffffffffffffffffff1610156111b3578373ffffffffffffffffffffffffffffffffffffffff1660fb826fffffffffffffffffffffffffffffffff168154811061118057611180611d72565b60009182526020909120015473ffffffffffffffffffffffffffffffffffffffff16036111ab578092505b600101611118565b5050919050565b606580547fffffffffffffffffffffffff00000000000000000000000000000000000000001690556102d3816116bc565b60c954811161127c576040517f08c379a000000000000000000000000000000000000000000000000000000000815260206004820152602260248201527f436f6d7074726f6c6c65723a20496e76616c6964206d61784c6f6f70734c696d60448201527f69740000000000000000000000000000000000000000000000000000000000006064820152608401610490565b60c980549082905560408051828152602081018490527fc2d09fef144f7c8a86f71ea459f8fc17f675768eb1ae369cbd77fb31d467aafa9101610b9f565b6097546040517f18c5e8ab00000000000000000000000000000000000000000000000000000000815260009173ffffffffffffffffffffffffffffffffffffffff16906318c5e8ab906113139033908690600401611f27565b602060405180830381865afa158015611330573d6000803e3d6000fd5b505050506040513d601f19601f820116820180604052508101906113549190611f5e565b905080611393573330836040517f4a3fa29300000000000000000000000000000000000000000000000000000000815260040161049093929190611f80565b5050565b73ffffffffffffffffffffffffffffffffffffffff8116158061145657503073ffffffffffffffffffffffffffffffffffffffff168173ffffffffffffffffffffffffffffffffffffffff166301e201786040518163ffffffff1660e01b81526004016020604051808303816000875af1158015611419573d6000803e3d6000fd5b505050506040513d601f19601f8201168201806040525081019061143d9190611dff565b73ffffffffffffffffffffffffffffffffffffffff1614155b1561148d576040517f36e7473200000000000000000000000000000000000000000000000000000000815260040160405180910390fd5b600061149882611100565b90506fffffffffffffffffffffffffffffffff808216146114e5576040517f0aef5e8600000000000000000000000000000000000000000000000000000000815260040160405180910390fd5b60fb805460018101825560008290527f3e7257b7272bb46d49cd6019b04ddee20da7c0cb13f7c1ec3391291b2ccebabc0180547fffffffffffffffffffffffff00000000000000000000000000000000000000001673ffffffffffffffffffffffffffffffffffffffff85161790555461155e90611733565b60405173ffffffffffffffffffffffffffffffffffffffff8316907fa0a158044a2552256f6415ce60c2ef0d6983a67f58e491cd7af6e48ae2abe25f90600090a25050565b73ffffffffffffffffffffffffffffffffffffffff81166102d3576040517f8579befe00000000000000000000000000000000000000000000000000000000815260040160405180910390fd5b600054610100900460ff16611687576040517f08c379a000000000000000000000000000000000000000000000000000000000815260206004820152602b60248201527f496e697469616c697a61626c653a20636f6e7472616374206973206e6f74206960448201527f6e697469616c697a696e670000000000000000000000000000000000000000006064820152608401610490565b61168f61177d565b6102d38161181c565b6001825111156113935761139382826000600186516116b79190611d5b565b6118b3565b6033805473ffffffffffffffffffffffffffffffffffffffff8381167fffffffffffffffffffffffff0000000000000000000000000000000000000000831681179093556040519116919082907f8be0079c531659141344cd1fd0a4f28419497f9722a3daafe3b4186f6b6457e090600090a35050565b60c9548111156102d35760c9546040517ff257f636000000000000000000000000000000000000000000000000000000008152600481019190915260248101829052604401610490565b600054610100900460ff16611814576040517f08c379a000000000000000000000000000000000000000000000000000000000815260206004820152602b60248201527f496e697469616c697a61626c653a20636f6e7472616374206973206e6f74206960448201527f6e697469616c697a696e670000000000000000000000000000000000000000006064820152608401610490565b6103e9611add565b600054610100900460ff166102ca576040517f08c379a000000000000000000000000000000000000000000000000000000000815260206004820152602b60248201527f496e697469616c697a61626c653a20636f6e7472616374206973206e6f74206960448201527f6e697469616c697a696e670000000000000000000000000000000000000000006064820152608401610490565b80821015611ad75760008460026118ca8486611fc2565b6118d49190611fda565b815181106118e4576118e4611d72565b6020908102919091010151905082825b80821015611aa4575b8287838151811061191057611910611d72565b6020026020010151111561192e5761192782612015565b91506118fd565b8287828151811061194157611941611d72565b6020026020010151101561195f576119588161204d565b905061192e565b86818151811061197157611971611d72565b602002602001015187838151811061198b5761198b611d72565b60200260200101511015611a94578681815181106119ab576119ab611d72565b60200260200101518783815181106119c5576119c5611d72565b60200260200101518884815181106119df576119df611d72565b602002602001018984815181106119f8576119f8611d72565b6020026020010182815250828152505050858181518110611a1b57611a1b611d72565b6020026020010151868381518110611a3557611a35611d72565b6020026020010151878481518110611a4f57611a4f611d72565b60200260200101888481518110611a6857611a68611d72565b73ffffffffffffffffffffffffffffffffffffffff9384166020918202929092010152911690526118f4565b611a9d82612015565b91506118f4565b84811115611abd57611abd8787876116b7600186611d5b565b611ad38787611acd846001611fc2565b876118b3565b5050505b50505050565b600054610100900460ff16611b74576040517f08c379a000000000000000000000000000000000000000000000000000000000815260206004820152602b60248201527f496e697469616c697a61626c653a20636f6e7472616374206973206e6f74206960448201527f6e697469616c697a696e670000000000000000000000000000000000000000006064820152608401610490565b6103e9336111ba565b73ffffffffffffffffffffffffffffffffffffffff811681146102d357600080fd5b600060208284031215611bb157600080fd5b8135611bbc81611b7d565b9392505050565b6020808252825182820181905260009190848201906040850190845b81811015611c1157835173ffffffffffffffffffffffffffffffffffffffff1683529284019291840191600101611bdf565b50909695505050505050565b600060208284031215611c2f57600080fd5b5035919050565b60008060408385031215611c4957600080fd5b8235611c5481611b7d565b91506020830135611c6481611b7d565b809150509250929050565b604080825283519082018190526000906020906060840190828701845b82811015611cbe57815173ffffffffffffffffffffffffffffffffffffffff1684529284019290840190600101611c8c565b5050508381038285015284518082528583019183019060005b81811015611cf357835183529284019291840191600101611cd7565b5090979650505050505050565b60008060408385031215611d1357600080fd5b8235611d1e81611b7d565b946020939093013593505050565b7f4e487b7100000000000000000000000000000000000000000000000000000000600052601160045260246000fd5b600082821015611d6d57611d6d611d2c565b500390565b7f4e487b7100000000000000000000000000000000000000000000000000000000600052603260045260246000fd5b7f4e487b7100000000000000000000000000000000000000000000000000000000600052603160045260246000fd5b7f4e487b7100000000000000000000000000000000000000000000000000000000600052604160045260246000fd5b600060208284031215611e1157600080fd5b8151611bbc81611b7d565b60008060408385031215611e2f57600080fd5b82519150602083015160048110611c6457600080fd5b7f4e487b7100000000000000000000000000000000000000000000000000000000600052602160045260246000fd5b600060208284031215611e8657600080fd5b5051919050565b60006fffffffffffffffffffffffffffffffff808316818103611eb257611eb2611d2c565b6001019392505050565b6000815180845260005b81811015611ee257602081850181015186830182015201611ec6565b81811115611ef4576000602083870101525b50601f017fffffffffffffffffffffffffffffffffffffffffffffffffffffffffffffffe0169290920160200192915050565b73ffffffffffffffffffffffffffffffffffffffff83168152604060208201526000611f566040830184611ebc565b949350505050565b600060208284031215611f7057600080fd5b81518015158114611bbc57600080fd5b600073ffffffffffffffffffffffffffffffffffffffff808616835280851660208401525060606040830152611fb96060830184611ebc565b95945050505050565b60008219821115611fd557611fd5611d2c565b500190565b600082612010577f4e487b7100000000000000000000000000000000000000000000000000000000600052601260045260246000fd5b500490565b60007fffffffffffffffffffffffffffffffffffffffffffffffffffffffffffffffff820361204657612046611d2c565b5060010190565b60008161205c5761205c611d2c565b507fffffffffffffffffffffffffffffffffffffffffffffffffffffffffffffffff019056fea26469706673582212202738b19603d6dcbc4b0fae78d3390d46eb3896405ef8b09805eb5a08ea1fdeaf64736f6c634300080d0033",
  "devdoc": {
    "author": "Venus",
    "custom:security-contact": "https://github.com/VenusProtocol/protocol-reserve#discussion",
    "kind": "dev",
    "methods": {
      "acceptOwnership()": {
        "details": "The new owner accepts the ownership transfer."
      },
      "addTokenConverter(address)": {
        "custom:access": "Only Governance",
        "custom:event": "ConverterAdded is emitted on success",
        "params": {
          "_tokenConverter": "Address of the token converter"
        }
      },
      "constructor": {
        "custom:oz-upgrades-unsafe-allow": "constructor"
      },
      "findTokenConverters(address,address)": {
        "params": {
          "_tokenAddressIn": "Address of tokenIn",
          "_tokenAddressOut": "Address of tokenOut"
        },
        "returns": {
          "converters": "Array of the conveters on the basis of the tokens pair",
          "convertersBalance": "Array of balances with respect to token out"
        }
      },
      "findTokenConvertersForConverters(address,address)": {
        "params": {
          "_tokenAddressIn": "Address of tokenIn",
          "_tokenAddressOut": "Address of tokenOut"
        },
        "returns": {
          "converters": "Array of the conveters on the basis of the tokens pair",
          "convertersBalance": "Array of balances with respect to token out"
        }
      },
      "getAllConverters()": {
        "returns": {
          "converters": "Array containing all the converters addresses"
        }
      },
      "initialize(address,uint256)": {
        "custom:error": "InvalidMaxLoopsLimit is thrown when when loops limit is invalid",
        "custom:event": "ConverterAdded is emitted for each converter added on success",
        "params": {
          "_accessControlManager": "The address of ACM contract",
          "_loopsLimit": "Limit for the loops in the contract to avoid DOS"
        }
      },
      "isTokenConverter(address)": {
        "params": {
          "_tokenConverter": "Address of the token converter"
        },
        "returns": {
          "isConverter": "true if given address is converter otherwise false"
        }
      },
      "owner()": {
        "details": "Returns the address of the current owner."
      },
      "pendingOwner()": {
        "details": "Returns the address of the pending owner."
      },
      "removeTokenConverter(address)": {
        "custom:access": "Only Governance",
        "custom:error": "ConverterDoesNotExist is thrown when converter to remove does not exist",
        "custom:event": "ConverterRemoved is emitted on success",
        "params": {
          "_tokenConverter": "Address of the token converter"
        }
      },
      "renounceOwnership()": {
        "details": "Leaves the contract without owner. It will not be possible to call `onlyOwner` functions. Can only be called by the current owner. NOTE: Renouncing ownership will leave the contract without an owner, thereby disabling any functionality that is only available to the owner."
      },
      "setAccessControlManager(address)": {
        "custom:access": "Only Governance",
        "custom:event": "Emits NewAccessControlManager event",
        "details": "Admin function to set address of AccessControlManager",
        "params": {
          "accessControlManager_": "The new address of the AccessControlManager"
        }
      },
      "setMaxLoopsLimit(uint256)": {
        "custom:access": "Only owner",
        "custom:error": "InvalidMaxLoopsLimit is thrown when when loops limit is invalid",
        "params": {
          "limit": "Limit for the max loops can execute at a time"
        }
      },
      "transferOwnership(address)": {
        "details": "Starts the ownership transfer of the contract to a new account. Replaces the pending transfer if there is one. Can only be called by the current owner."
      }
    },
    "title": "ConverterNetwork",
    "version": 1
  },
  "userdoc": {
    "errors": {
      "ConverterAlreadyExists()": [
        {
          "notice": "Error thrown when converter already exists"
        }
      ],
      "ConverterDoesNotExist()": [
        {
          "notice": "Error thrown converter does not exist"
        }
      ],
      "InvalidMaxLoopsLimit(uint256)": [
        {
          "notice": "Error thrown when loops limit is invalid"
        }
      ],
      "InvalidTokenConverterAddress()": [
        {
          "notice": "Error thrown when converter address is invalid"
        }
      ],
      "MaxLoopsLimitExceeded(uint256,uint256)": [
        {
          "notice": "Thrown an error on maxLoopsLimit exceeds for any loop"
        }
      ],
      "Unauthorized(address,address,string)": [
        {
          "notice": "Thrown when the action is prohibited by AccessControlManager"
        }
      ],
      "ZeroAddressNotAllowed()": [
        {
          "notice": "Thrown if the supplied address is a zero address where it is not allowed"
        }
      ]
    },
    "events": {
      "ConverterAdded(address)": {
        "notice": "Emitted when new converter is added"
      },
      "ConverterRemoved(address)": {
        "notice": "Emitted when converter is removed"
      },
      "MaxLoopsLimitUpdated(uint256,uint256)": {
        "notice": "Emitted when max loops limit is set"
      },
      "NewAccessControlManager(address,address)": {
        "notice": "Emitted when access control manager contract address is changed"
      }
    },
    "kind": "user",
    "methods": {
      "accessControlManager()": {
        "notice": "Returns the address of the access control manager contract"
      },
      "addTokenConverter(address)": {
        "notice": "Adds new converter to the array"
      },
      "allConverters(uint256)": {
        "notice": "Array holding all the converters"
      },
      "findTokenConverters(address,address)": {
        "notice": "Used to get the array of converters supporting conversions, arranged in descending order based on token balances It will return the converters which are open to users for conversion"
      },
      "findTokenConvertersForConverters(address,address)": {
        "notice": "Used to get the array of converters supporting conversions, arranged in descending order based on token balances It will return the converters which are open to converters for conversion."
      },
      "getAllConverters()": {
        "notice": "This function returns the array containing all the converters addresses"
      },
      "initialize(address,uint256)": {
        "notice": "ConverterNetwork initializer"
      },
      "isTokenConverter(address)": {
        "notice": "This function checks if the given address is a converter or not"
      },
      "removeTokenConverter(address)": {
        "notice": "Removes converter from the array"
      },
      "setAccessControlManager(address)": {
        "notice": "Sets the address of AccessControlManager"
      },
      "setMaxLoopsLimit(uint256)": {
        "notice": "Set the limit for the loops can iterate to avoid the DOS"
      }
    },
    "notice": "ConverterNetwork keeps track of all the converters and is used to fetch valid converters which provide conversions according to token addresses provided",
    "version": 1
  },
  "storageLayout": {
    "storage": [
      {
        "astId": 244,
        "contract": "contracts/TokenConverter/ConverterNetwork.sol:ConverterNetwork",
        "label": "_initialized",
        "offset": 0,
        "slot": "0",
        "type": "t_uint8"
      },
      {
        "astId": 247,
        "contract": "contracts/TokenConverter/ConverterNetwork.sol:ConverterNetwork",
        "label": "_initializing",
        "offset": 1,
        "slot": "0",
        "type": "t_bool"
      },
      {
        "astId": 1478,
        "contract": "contracts/TokenConverter/ConverterNetwork.sol:ConverterNetwork",
        "label": "__gap",
        "offset": 0,
        "slot": "1",
        "type": "t_array(t_uint256)50_storage"
      },
      {
        "astId": 116,
        "contract": "contracts/TokenConverter/ConverterNetwork.sol:ConverterNetwork",
        "label": "_owner",
        "offset": 0,
        "slot": "51",
        "type": "t_address"
      },
      {
        "astId": 236,
        "contract": "contracts/TokenConverter/ConverterNetwork.sol:ConverterNetwork",
        "label": "__gap",
        "offset": 0,
        "slot": "52",
        "type": "t_array(t_uint256)49_storage"
      },
      {
        "astId": 25,
        "contract": "contracts/TokenConverter/ConverterNetwork.sol:ConverterNetwork",
        "label": "_pendingOwner",
        "offset": 0,
        "slot": "101",
        "type": "t_address"
      },
      {
        "astId": 104,
        "contract": "contracts/TokenConverter/ConverterNetwork.sol:ConverterNetwork",
        "label": "__gap",
        "offset": 0,
        "slot": "102",
        "type": "t_array(t_uint256)49_storage"
      },
      {
        "astId": 4921,
        "contract": "contracts/TokenConverter/ConverterNetwork.sol:ConverterNetwork",
        "label": "_accessControlManager",
        "offset": 0,
        "slot": "151",
        "type": "t_contract(IAccessControlManagerV8)5106"
      },
      {
        "astId": 4926,
        "contract": "contracts/TokenConverter/ConverterNetwork.sol:ConverterNetwork",
        "label": "__gap",
        "offset": 0,
        "slot": "152",
        "type": "t_array(t_uint256)49_storage"
      },
      {
        "astId": 6066,
        "contract": "contracts/TokenConverter/ConverterNetwork.sol:ConverterNetwork",
        "label": "maxLoopsLimit",
        "offset": 0,
        "slot": "201",
        "type": "t_uint256"
      },
      {
        "astId": 6071,
        "contract": "contracts/TokenConverter/ConverterNetwork.sol:ConverterNetwork",
        "label": "__gap",
        "offset": 0,
        "slot": "202",
        "type": "t_array(t_uint256)49_storage"
      },
      {
        "astId": 11459,
        "contract": "contracts/TokenConverter/ConverterNetwork.sol:ConverterNetwork",
        "label": "allConverters",
        "offset": 0,
        "slot": "251",
        "type": "t_array(t_contract(IAbstractTokenConverter)12230)dyn_storage"
      }
    ],
    "types": {
      "t_address": {
        "encoding": "inplace",
        "label": "address",
        "numberOfBytes": "20"
      },
      "t_array(t_contract(IAbstractTokenConverter)12230)dyn_storage": {
        "base": "t_contract(IAbstractTokenConverter)12230",
        "encoding": "dynamic_array",
        "label": "contract IAbstractTokenConverter[]",
        "numberOfBytes": "32"
      },
      "t_array(t_uint256)49_storage": {
        "base": "t_uint256",
        "encoding": "inplace",
        "label": "uint256[49]",
        "numberOfBytes": "1568"
      },
      "t_array(t_uint256)50_storage": {
        "base": "t_uint256",
        "encoding": "inplace",
        "label": "uint256[50]",
        "numberOfBytes": "1600"
      },
      "t_bool": {
        "encoding": "inplace",
        "label": "bool",
        "numberOfBytes": "1"
      },
      "t_contract(IAbstractTokenConverter)12230": {
        "encoding": "inplace",
        "label": "contract IAbstractTokenConverter",
        "numberOfBytes": "20"
      },
      "t_contract(IAccessControlManagerV8)5106": {
        "encoding": "inplace",
        "label": "contract IAccessControlManagerV8",
        "numberOfBytes": "20"
      },
      "t_uint256": {
        "encoding": "inplace",
        "label": "uint256",
        "numberOfBytes": "32"
      },
      "t_uint8": {
        "encoding": "inplace",
        "label": "uint8",
        "numberOfBytes": "1"
      }
    }
  }
}