{
  "address": "0xb9603C22904c5FaB1dEf93df60CAb9F673655BC5",
  "abi": [
    {
      "inputs": [
        {
          "internalType": "address",
          "name": "_corePoolComptroller",
          "type": "address"
        },
        {
          "internalType": "address",
          "name": "_wbnb",
          "type": "address"
        },
        {
          "internalType": "address",
          "name": "_vbnb",
          "type": "address"
        }
      ],
      "stateMutability": "nonpayable",
      "type": "constructor"
    },
    {
      "inputs": [],
      "name": "InvalidAddress",
      "type": "error"
    },
    {
      "inputs": [],
      "name": "InvalidTotalPercentage",
      "type": "error"
    },
    {
      "inputs": [
        {
          "internalType": "uint256",
          "name": "loopsLimit",
          "type": "uint256"
        },
        {
          "internalType": "uint256",
          "name": "requiredLoops",
          "type": "uint256"
        }
      ],
      "name": "MaxLoopsLimitExceeded",
      "type": "error"
    },
    {
      "inputs": [
        {
          "internalType": "address",
          "name": "sender",
          "type": "address"
        },
        {
          "internalType": "address",
          "name": "calledContract",
          "type": "address"
        },
        {
          "internalType": "string",
          "name": "methodSignature",
          "type": "string"
        }
      ],
      "name": "Unauthorized",
      "type": "error"
    },
    {
      "anonymous": false,
      "inputs": [
        {
          "indexed": true,
          "internalType": "address",
          "name": "destination",
          "type": "address"
        },
        {
          "indexed": true,
          "internalType": "address",
          "name": "asset",
          "type": "address"
        },
        {
          "indexed": false,
          "internalType": "enum ProtocolShareReserve.Schema",
          "name": "schema",
          "type": "uint8"
        },
        {
          "indexed": false,
          "internalType": "uint256",
          "name": "percent",
          "type": "uint256"
        },
        {
          "indexed": false,
          "internalType": "uint256",
          "name": "amount",
          "type": "uint256"
        }
      ],
      "name": "AssetReleased",
      "type": "event"
    },
    {
      "anonymous": false,
      "inputs": [
        {
          "indexed": true,
          "internalType": "address",
          "name": "comptroller",
          "type": "address"
        },
        {
          "indexed": true,
          "internalType": "address",
          "name": "asset",
          "type": "address"
        },
        {
          "indexed": false,
          "internalType": "uint256",
          "name": "amount",
          "type": "uint256"
        },
        {
          "indexed": false,
          "internalType": "enum IProtocolShareReserve.IncomeType",
          "name": "incomeType",
          "type": "uint8"
        },
        {
          "indexed": false,
          "internalType": "enum ProtocolShareReserve.Schema",
          "name": "schema",
          "type": "uint8"
        }
      ],
      "name": "AssetsReservesUpdated",
      "type": "event"
    },
    {
      "anonymous": false,
      "inputs": [
        {
          "indexed": true,
          "internalType": "address",
          "name": "destination",
          "type": "address"
        },
        {
          "indexed": false,
          "internalType": "uint8",
          "name": "percentage",
          "type": "uint8"
        },
        {
          "indexed": false,
          "internalType": "enum ProtocolShareReserve.Schema",
          "name": "schema",
          "type": "uint8"
        }
      ],
      "name": "DistributionConfigAdded",
      "type": "event"
    },
    {
      "anonymous": false,
      "inputs": [
        {
          "indexed": true,
          "internalType": "address",
          "name": "destination",
          "type": "address"
        },
        {
          "indexed": false,
          "internalType": "uint8",
          "name": "percentage",
          "type": "uint8"
        },
        {
          "indexed": false,
          "internalType": "enum ProtocolShareReserve.Schema",
          "name": "schema",
          "type": "uint8"
        }
      ],
      "name": "DistributionConfigRemoved",
      "type": "event"
    },
    {
      "anonymous": false,
      "inputs": [
        {
          "indexed": true,
          "internalType": "address",
          "name": "destination",
          "type": "address"
        },
        {
          "indexed": false,
          "internalType": "uint8",
          "name": "oldPercentage",
          "type": "uint8"
        },
        {
          "indexed": false,
          "internalType": "uint8",
          "name": "newPercentage",
          "type": "uint8"
        },
        {
          "indexed": false,
          "internalType": "enum ProtocolShareReserve.Schema",
          "name": "schema",
          "type": "uint8"
        }
      ],
      "name": "DistributionConfigUpdated",
      "type": "event"
    },
    {
      "anonymous": false,
      "inputs": [
        {
          "indexed": false,
          "internalType": "uint8",
          "name": "version",
          "type": "uint8"
        }
      ],
      "name": "Initialized",
      "type": "event"
    },
    {
      "anonymous": false,
      "inputs": [
        {
          "indexed": false,
          "internalType": "uint256",
          "name": "oldMaxLoopsLimit",
          "type": "uint256"
        },
        {
          "indexed": false,
          "internalType": "uint256",
          "name": "newmaxLoopsLimit",
          "type": "uint256"
        }
      ],
      "name": "MaxLoopsLimitUpdated",
      "type": "event"
    },
    {
      "anonymous": false,
      "inputs": [
        {
          "indexed": false,
          "internalType": "address",
          "name": "oldAccessControlManager",
          "type": "address"
        },
        {
          "indexed": false,
          "internalType": "address",
          "name": "newAccessControlManager",
          "type": "address"
        }
      ],
      "name": "NewAccessControlManager",
      "type": "event"
    },
    {
      "anonymous": false,
      "inputs": [
        {
          "indexed": true,
          "internalType": "address",
          "name": "previousOwner",
          "type": "address"
        },
        {
          "indexed": true,
          "internalType": "address",
          "name": "newOwner",
          "type": "address"
        }
      ],
      "name": "OwnershipTransferStarted",
      "type": "event"
    },
    {
      "anonymous": false,
      "inputs": [
        {
          "indexed": true,
          "internalType": "address",
          "name": "previousOwner",
          "type": "address"
        },
        {
          "indexed": true,
          "internalType": "address",
          "name": "newOwner",
          "type": "address"
        }
      ],
      "name": "OwnershipTransferred",
      "type": "event"
    },
    {
      "anonymous": false,
      "inputs": [
        {
          "indexed": true,
          "internalType": "address",
          "name": "oldPoolRegistry",
          "type": "address"
        },
        {
          "indexed": true,
          "internalType": "address",
          "name": "newPoolRegistry",
          "type": "address"
        }
      ],
      "name": "PoolRegistryUpdated",
      "type": "event"
    },
    {
      "anonymous": false,
      "inputs": [
        {
          "indexed": true,
          "internalType": "address",
          "name": "asset",
          "type": "address"
        },
        {
          "indexed": false,
          "internalType": "bool",
          "name": "isPrimeAsset",
          "type": "bool"
        }
      ],
      "name": "PrimeAssetUpdated",
      "type": "event"
    },
    {
      "anonymous": false,
      "inputs": [
        {
          "indexed": true,
          "internalType": "address",
          "name": "oldPrime",
          "type": "address"
        },
        {
          "indexed": true,
          "internalType": "address",
          "name": "newPrime",
          "type": "address"
        }
      ],
      "name": "PrimeUpdated",
      "type": "event"
    },
    {
      "anonymous": false,
      "inputs": [
        {
          "indexed": true,
          "internalType": "address",
          "name": "comptroller",
          "type": "address"
        },
        {
          "indexed": true,
          "internalType": "address",
          "name": "asset",
          "type": "address"
        },
        {
          "indexed": false,
          "internalType": "enum ProtocolShareReserve.Schema",
          "name": "schema",
          "type": "uint8"
        },
        {
          "indexed": false,
          "internalType": "uint256",
          "name": "oldBalance",
          "type": "uint256"
        },
        {
          "indexed": false,
          "internalType": "uint256",
          "name": "newBalance",
          "type": "uint256"
        }
      ],
      "name": "ReservesUpdated",
      "type": "event"
    },
    {
      "inputs": [],
      "name": "CORE_POOL_COMPTROLLER",
      "outputs": [
        {
          "internalType": "address",
          "name": "",
          "type": "address"
        }
      ],
      "stateMutability": "view",
      "type": "function"
    },
    {
      "inputs": [],
      "name": "MAX_PERCENT",
      "outputs": [
        {
          "internalType": "uint8",
          "name": "",
          "type": "uint8"
        }
      ],
      "stateMutability": "view",
      "type": "function"
    },
    {
      "inputs": [],
      "name": "WBNB",
      "outputs": [
        {
          "internalType": "address",
          "name": "",
          "type": "address"
        }
      ],
      "stateMutability": "view",
      "type": "function"
    },
    {
      "inputs": [],
      "name": "acceptOwnership",
      "outputs": [],
      "stateMutability": "nonpayable",
      "type": "function"
    },
    {
      "inputs": [],
      "name": "accessControlManager",
      "outputs": [
        {
          "internalType": "contract IAccessControlManagerV8",
          "name": "",
          "type": "address"
        }
      ],
      "stateMutability": "view",
      "type": "function"
    },
    {
      "inputs": [
        {
          "internalType": "address",
          "name": "asset",
          "type": "address"
        },
        {
          "internalType": "bool",
          "name": "isPrimeAsset",
          "type": "bool"
        }
      ],
      "name": "addOrRemoveAssetFromPrime",
      "outputs": [],
      "stateMutability": "nonpayable",
      "type": "function"
    },
    {
      "inputs": [
        {
          "components": [
            {
              "internalType": "enum ProtocolShareReserve.Schema",
              "name": "schema",
              "type": "uint8"
            },
            {
              "internalType": "uint8",
              "name": "percentage",
              "type": "uint8"
            },
            {
              "internalType": "address",
              "name": "destination",
              "type": "address"
            }
          ],
          "internalType": "struct ProtocolShareReserve.DistributionConfig[]",
          "name": "configs",
          "type": "tuple[]"
        }
      ],
      "name": "addOrUpdateDistributionConfigs",
      "outputs": [],
      "stateMutability": "nonpayable",
      "type": "function"
    },
    {
      "inputs": [
        {
          "internalType": "address",
          "name": "",
          "type": "address"
        },
        {
          "internalType": "address",
          "name": "",
          "type": "address"
        },
        {
          "internalType": "enum ProtocolShareReserve.Schema",
          "name": "",
          "type": "uint8"
        }
      ],
      "name": "assetsReserves",
      "outputs": [
        {
          "internalType": "uint256",
          "name": "",
          "type": "uint256"
        }
      ],
      "stateMutability": "view",
      "type": "function"
    },
    {
      "inputs": [
        {
          "internalType": "uint256",
          "name": "",
          "type": "uint256"
        }
      ],
      "name": "distributionTargets",
      "outputs": [
        {
          "internalType": "enum ProtocolShareReserve.Schema",
          "name": "schema",
          "type": "uint8"
        },
        {
          "internalType": "uint8",
          "name": "percentage",
          "type": "uint8"
        },
        {
          "internalType": "address",
          "name": "destination",
          "type": "address"
        }
      ],
      "stateMutability": "view",
      "type": "function"
    },
    {
      "inputs": [
        {
          "internalType": "address",
          "name": "destination",
          "type": "address"
        },
        {
          "internalType": "enum ProtocolShareReserve.Schema",
          "name": "schema",
          "type": "uint8"
        }
      ],
      "name": "getPercentageDistribution",
      "outputs": [
        {
          "internalType": "uint256",
          "name": "",
          "type": "uint256"
        }
      ],
      "stateMutability": "view",
      "type": "function"
    },
    {
      "inputs": [
        {
          "internalType": "address",
          "name": "comptroller",
          "type": "address"
        },
        {
          "internalType": "enum ProtocolShareReserve.Schema",
          "name": "schema",
          "type": "uint8"
        },
        {
          "internalType": "address",
          "name": "destination",
          "type": "address"
        },
        {
          "internalType": "address",
          "name": "asset",
          "type": "address"
        }
      ],
      "name": "getUnreleasedFunds",
      "outputs": [
        {
          "internalType": "uint256",
          "name": "",
          "type": "uint256"
        }
      ],
      "stateMutability": "view",
      "type": "function"
    },
    {
      "inputs": [
        {
          "internalType": "address",
          "name": "_accessControlManager",
          "type": "address"
        },
        {
          "internalType": "uint256",
          "name": "_loopsLimit",
          "type": "uint256"
        }
      ],
      "name": "initialize",
      "outputs": [],
      "stateMutability": "nonpayable",
      "type": "function"
    },
    {
      "inputs": [
        {
          "internalType": "address",
          "name": "",
          "type": "address"
        }
      ],
      "name": "isInPrime",
      "outputs": [
        {
          "internalType": "bool",
          "name": "",
          "type": "bool"
        }
      ],
      "stateMutability": "view",
      "type": "function"
    },
    {
      "inputs": [],
      "name": "maxLoopsLimit",
      "outputs": [
        {
          "internalType": "uint256",
          "name": "",
          "type": "uint256"
        }
      ],
      "stateMutability": "view",
      "type": "function"
    },
    {
      "inputs": [],
      "name": "owner",
      "outputs": [
        {
          "internalType": "address",
          "name": "",
          "type": "address"
        }
      ],
      "stateMutability": "view",
      "type": "function"
    },
    {
      "inputs": [],
      "name": "pendingOwner",
      "outputs": [
        {
          "internalType": "address",
          "name": "",
          "type": "address"
        }
      ],
      "stateMutability": "view",
      "type": "function"
    },
    {
      "inputs": [],
      "name": "poolRegistry",
      "outputs": [
        {
          "internalType": "address",
          "name": "",
          "type": "address"
        }
      ],
      "stateMutability": "view",
      "type": "function"
    },
    {
      "inputs": [],
      "name": "prime",
      "outputs": [
        {
          "internalType": "address",
          "name": "",
          "type": "address"
        }
      ],
      "stateMutability": "view",
      "type": "function"
    },
    {
      "inputs": [
        {
          "internalType": "address",
          "name": "comptroller",
          "type": "address"
        },
        {
          "internalType": "address[]",
          "name": "assets",
          "type": "address[]"
        }
      ],
      "name": "releaseFunds",
      "outputs": [],
      "stateMutability": "nonpayable",
      "type": "function"
    },
    {
      "inputs": [
        {
          "internalType": "enum ProtocolShareReserve.Schema",
          "name": "schema",
          "type": "uint8"
        },
        {
          "internalType": "address",
          "name": "destination",
          "type": "address"
        }
      ],
      "name": "removeDistributionConfig",
      "outputs": [],
      "stateMutability": "nonpayable",
      "type": "function"
    },
    {
      "inputs": [],
      "name": "renounceOwnership",
      "outputs": [],
      "stateMutability": "nonpayable",
      "type": "function"
    },
    {
      "inputs": [
        {
          "internalType": "address",
          "name": "accessControlManager_",
          "type": "address"
        }
      ],
      "name": "setAccessControlManager",
      "outputs": [],
      "stateMutability": "nonpayable",
      "type": "function"
    },
    {
      "inputs": [
        {
          "internalType": "address",
          "name": "_poolRegistry",
          "type": "address"
        }
      ],
      "name": "setPoolRegistry",
      "outputs": [],
      "stateMutability": "nonpayable",
      "type": "function"
    },
    {
      "inputs": [
        {
          "internalType": "address",
          "name": "_prime",
          "type": "address"
        }
      ],
      "name": "setPrime",
      "outputs": [],
      "stateMutability": "nonpayable",
      "type": "function"
    },
    {
      "inputs": [
        {
          "internalType": "address",
          "name": "",
          "type": "address"
        }
      ],
      "name": "totalAssetReserve",
      "outputs": [
        {
          "internalType": "uint256",
          "name": "",
          "type": "uint256"
        }
      ],
      "stateMutability": "view",
      "type": "function"
    },
    {
      "inputs": [],
      "name": "totalDistributions",
      "outputs": [
        {
          "internalType": "uint256",
          "name": "",
          "type": "uint256"
        }
      ],
      "stateMutability": "view",
      "type": "function"
    },
    {
      "inputs": [
        {
          "internalType": "address",
          "name": "newOwner",
          "type": "address"
        }
      ],
      "name": "transferOwnership",
      "outputs": [],
      "stateMutability": "nonpayable",
      "type": "function"
    },
    {
      "inputs": [
        {
          "internalType": "address",
          "name": "comptroller",
          "type": "address"
        },
        {
          "internalType": "address",
          "name": "asset",
          "type": "address"
        },
        {
          "internalType": "enum IProtocolShareReserve.IncomeType",
          "name": "incomeType",
          "type": "uint8"
        }
      ],
      "name": "updateAssetsState",
      "outputs": [],
      "stateMutability": "nonpayable",
      "type": "function"
    },
    {
      "inputs": [],
      "name": "vBNB",
      "outputs": [
        {
          "internalType": "address",
          "name": "",
          "type": "address"
        }
      ],
      "stateMutability": "view",
      "type": "function"
    }
  ],
  "transactionHash": "0xb4f081b411b4a19b670ed6efe1508cc9101f581490ea3bcca5429d0348869493",
  "args": [
    "0xfD36E2c2a6789Db23113685031d7F16329158384",
    "0xbb4CdB9CBd36B01bD1cBaEBF2De08d9173bc095c",
    "0xA07c5b74C9B40447a954e1466938b865b6BBea36"
  ],
  "numDeployments": 1,
  "solcInputHash": "c87a4970e440c0598abee31750358915",
  "bytecode": "0x60e06040523480156200001157600080fd5b50604051620037cc380380620037cc8339810160408190526200003491620001b6565b6001600160a01b0383166200005c5760405163e6c4247b60e01b815260040160405180910390fd5b6001600160a01b038216620000845760405163e6c4247b60e01b815260040160405180910390fd5b6001600160a01b038116620000ac5760405163e6c4247b60e01b815260040160405180910390fd5b6001600160a01b0380841660805282811660a052811660c052620000cf620000d8565b50505062000200565b600054610100900460ff1615620001455760405162461bcd60e51b815260206004820152602760248201527f496e697469616c697a61626c653a20636f6e747261637420697320696e697469604482015266616c697a696e6760c81b606482015260840160405180910390fd5b60005460ff9081161462000197576000805460ff191660ff9081179091556040519081527f7f26b83ff96e1f2b6a682f133852f6798a09c465da95921460cefb38474024989060200160405180910390a15b565b80516001600160a01b0381168114620001b157600080fd5b919050565b600080600060608486031215620001cc57600080fd5b620001d78462000199565b9250620001e76020850162000199565b9150620001f76040850162000199565b90509250925092565b60805160a05160c0516135796200025360003960008181610233015261271501526000818161037a015261274f0152600081816104610152818161058b0152818161187f0152611d1e01526135796000f3fe608060405234801561001057600080fd5b50600436106101cf5760003560e01c80638d904e8911610104578063be26317e116100a2578063e30c397811610071578063e30c397814610438578063f2fde38b14610449578063fa7b81a01461045c578063fc31116a1461048357600080fd5b8063be26317e146103f5578063c7ee005e146103fe578063c9e18c6f14610412578063cd6dc6871461042557600080fd5b8063966961f0116100de578063966961f01461039c578063aea21121146103af578063afcff50f146103d0578063b4a0bdf3146103e457600080fd5b80638d904e89146103305780638da5cb5b146103645780638dd950021461037557600080fd5b80635db6da12116101715780637b77cd6a1161014b5780637b77cd6a146102e4578063814d9446146102f7578063840a05e01461030a578063893ffe981461031d57600080fd5b80635db6da12146102a2578063715018a6146102d457806379ba5097146102dc57600080fd5b806316faecec116101ad57806316faecec1461021b57806333e1567f1461022e578063392ee7121461026d5780634f429f361461028f57600080fd5b80630e32cb86146101d45780631036bbe2146101e9578063163db71b14610208575b600080fd5b6101e76101e2366004612c7a565b610496565b005b6101f1606481565b60405160ff90911681526020015b60405180910390f35b610131545b6040519081526020016101ff565b6101e7610229366004612ca4565b6104aa565b6102557f000000000000000000000000000000000000000000000000000000000000000081565b6040516001600160a01b0390911681526020016101ff565b61028061027b366004612cef565b610859565b6040516101ff93929190612d6e565b6101e761029d366004612d9b565b610896565b61020d6102b0366004612ca4565b61012f60209081526000938452604080852082529284528284209052825290205481565b6101e7610bd3565b6101e7610be7565b6101e76102f2366004612c7a565b610c77565b6101e7610305366004612de2565b610d35565b6101e7610318366004612e10565b610e25565b61020d61032b366004612e85565b61116f565b61035461033e366004612c7a565b6101326020526000908152604090205460ff1681565b60405190151581526020016101ff565b6033546001600160a01b0316610255565b6102557f000000000000000000000000000000000000000000000000000000000000000081565b61020d6103aa366004612ee1565b61128e565b61020d6103bd366004612c7a565b6101306020526000908152604090205481565b61012e54610255906001600160a01b031681565b6097546001600160a01b0316610255565b61020d60fb5481565b61012d54610255906001600160a01b031681565b6101e7610420366004612c7a565b611380565b6101e7610433366004612f0f565b61143e565b6065546001600160a01b0316610255565b6101e7610457366004612c7a565b6115c9565b6102557f000000000000000000000000000000000000000000000000000000000000000081565b6101e7610491366004612f3b565b611652565b61049e6116b0565b6104a78161170a565b50565b6104b2611800565b826001600160a01b0316627e3dd26040518163ffffffff1660e01b8152600401602060405180830381865afa1580156104ef573d6000803e3d6000fd5b505050506040513d601f19601f820116820180604052508101906105139190612fc3565b610549576040517fe6c4247b00000000000000000000000000000000000000000000000000000000815260040160405180910390fd5b6001600160a01b038216610589576040517fe6c4247b00000000000000000000000000000000000000000000000000000000815260040160405180910390fd5b7f00000000000000000000000000000000000000000000000000000000000000006001600160a01b0316836001600160a01b031614158015610662575061012e546040517f266e0a7f0000000000000000000000000000000000000000000000000000000081526001600160a01b0385811660048301528481166024830152600092169063266e0a7f90604401602060405180830381865afa158015610633573d6000803e3d6000fd5b505050506040513d601f19601f820116820180604052508101906106579190612fe0565b6001600160a01b0316145b15610699576040517fe6c4247b00000000000000000000000000000000000000000000000000000000815260040160405180910390fd5b60006106a6848484611859565b6040517f70a082310000000000000000000000000000000000000000000000000000000081523060048201529091506000906001600160a01b038516906370a0823190602401602060405180830381865afa158015610709573d6000803e3d6000fd5b505050506040513d601f19601f8201168201806040525081019061072d9190612ffd565b6001600160a01b0385166000908152610130602052604090205490915080821115610847576001600160a01b03808716600090815261012f6020908152604080832093891683529290529081208284039182919086600181111561079357610793612d08565b60018111156107a4576107a4612d08565b815260200190815260200160002060008282546107c19190613045565b90915550506001600160a01b03861660009081526101306020526040812080548392906107ef908490613045565b92505081905550856001600160a01b0316876001600160a01b03167fa46b2431e663cf7b50c9d5129aff85d2394ecfd447b7ccba83986510a9d945ea83888860405161083d9392919061305d565b60405180910390a3505b505050610854600160c955565b505050565b610131818154811061086a57600080fd5b60009182526020909120015460ff8082169250610100820416906201000090046001600160a01b031683565b6108b76040518060600160405280602881526020016134e8602891396118e7565b600080805b6101315481101561096057600061013182815481106108dd576108dd61308a565b6000918252602090912001805490915060ff16600181111561090157610901612d08565b86600181111561091357610913612d08565b148015610932575080546001600160a01b038681166201000090920416145b801561094557508054610100900460ff16155b15610957576001925081935050610960565b506001016108bc565b508015610bc557610131828154811061097b5761097b61308a565b9060005260206000200160000160029054906101000a90046001600160a01b03166001600160a01b03167f1ac2d5fa1b44dc6086053de4a872e5bcdf9a98e5069a325572aef982a1b743bb61013184815481106109da576109da61308a565b9060005260206000200160000160019054906101000a900460ff166101318581548110610a0957610a0961308a565b600091825260209091200154604051610a26929160ff16906130b9565b60405180910390a26101318054610a3f906001906130d9565b81548110610a4f57610a4f61308a565b906000526020600020016101318381548110610a6d57610a6d61308a565b60009182526020909120825491018054909160ff169082907fffffffffffffffffffffffffffffffffffffffffffffffffffffffffffffff001660018381811115610aba57610aba612d08565b02179055508154815460ff61010092839004169091027fffffffffffffffffffffffffffffffffffffffffffffffffffffffffffff00ff82168117835592546001600160a01b03620100009182900416027fffffffffffffffffffff0000000000000000000000000000000000000000ffff9093167fffffffffffffffffffff000000000000000000000000000000000000000000ff90911617919091179055610131805480610b6c57610b6c6130f0565b60008281526020902081017fffffffffffffffffffffffffffffffffffffffffffffffffffffffffffffffff90810180547fffffffffffffffffffff000000000000000000000000000000000000000000001690550190555b610bcd6119b3565b50505050565b610bdb6116b0565b610be56000611b84565b565b60655433906001600160a01b03168114610c6e5760405162461bcd60e51b815260206004820152602960248201527f4f776e61626c6532537465703a2063616c6c6572206973206e6f74207468652060448201527f6e6577206f776e6572000000000000000000000000000000000000000000000060648201526084015b60405180910390fd5b6104a781611b84565b610c7f6116b0565b6001600160a01b038116610cbf576040517fe6c4247b00000000000000000000000000000000000000000000000000000000815260040160405180910390fd5b61012e546040516001600160a01b038084169216907fa87b964d321035d2165e484ff4b722dd6eae30606c0b98887d2ed1a34e594bfe90600090a361012e80547fffffffffffffffffffffffff0000000000000000000000000000000000000000166001600160a01b0392909216919091179055565b610d566040518060600160405280602781526020016134c1602791396118e7565b6001600160a01b038216610d96576040517fe6c4247b00000000000000000000000000000000000000000000000000000000815260040160405180910390fd5b816001600160a01b03167fd3bc3456781fe4eb5565e91d1e1898b62fc4404636e2deb9e9d76f5a956ff3ac82604051610dd3911515815260200190565b60405180910390a26001600160a01b039190911660009081526101326020526040902080547fffffffffffffffffffffffffffffffffffffffffffffffffffffffffffffff0016911515919091179055565b610e2d611800565b610e4e604051806060016040528060348152602001613510603491396118e7565b610e56611bb5565b60005b8181101561114b576000838383818110610e7557610e7561308a565b905060600201803603810190610e8b919061319d565b60408101519091506001600160a01b0316610ed2576040517fe6c4247b00000000000000000000000000000000000000000000000000000000815260040160405180910390fd5b61013154600090815b81811015610ffd5760006101318281548110610ef957610ef961308a565b6000918252602090912001805490915060ff166001811115610f1d57610f1d612d08565b85516001811115610f3057610f30612d08565b148015610f545750604085015181546201000090046001600160a01b039081169116145b15610ff45760408581015182546020880151885193516001600160a01b03909316937f7b9512a7d53862cbbb1d78873d1809728aa9241f63fdf818e3525869ab0d03ce93610fac93610100900460ff16929190613215565b60405180910390a26020850151815460ff909116610100027fffffffffffffffffffffffffffffffffffffffffffffffffffffffffffff00ff90911617905560019250610ffd565b50600101610edb565b508161113d5761013180546001818101835560009290925284517fbd987ad6ccdb7c7567f7335ea839f95dc944431abcf935b6924f70215963db739091018054869391929183917fffffffffffffffffffffffffffffffffffffffffffffffffffffffffffffff001690838181111561107857611078612d08565b021790555060208281015182546040948501517fffffffffffffffffffff000000000000000000000000000000000000000000ff90911661010060ff909316929092027fffffffffffffffffffff0000000000000000000000000000000000000000ffff1691909117620100006001600160a01b03928316021790925585830151908601518651935191909216927fc4584834cab3196e27e1b931e874fecbfada0785b639b02ed649d08c8e3ca85792611134929091906130b9565b60405180910390a25b836001019350505050610e59565b506111546119b3565b6101315461116190611d4f565b61116b600160c955565b5050565b61013154600090815b8181101561128357600061013182815481106111965761119661308a565b9060005260206000200190508660018111156111b4576111b4612d08565b815460ff1660018111156111ca576111ca612d08565b1480156111e9575080546001600160a01b038781166201000090920416145b1561127a576001600160a01b03808916600090815261012f6020908152604080832093891683529290529081208189600181111561122957611229612d08565b600181111561123a5761123a612d08565b8152602081019190915260400160002054825490915060649061126590610100900460ff1683613230565b61126f919061326d565b945050505050611286565b50600101611178565b50505b949350505050565b61013154600090815b8181101561137757600061013182815481106112b5576112b561308a565b60009182526020909120604080516060810190915291018054829060ff1660018111156112e4576112e4612d08565b60018111156112f5576112f5612d08565b81529054610100810460ff1660208301526201000090046001600160a01b03908116604092830152908201519192508781169116148015611358575084600181111561134357611343612d08565b8151600181111561135657611356612d08565b145b1561136e576020015160ff16925061137a915050565b50600101611297565b50505b92915050565b6113886116b0565b6001600160a01b0381166113c8576040517fe6c4247b00000000000000000000000000000000000000000000000000000000815260040160405180910390fd5b61012d546040516001600160a01b038084169216907f229f487e93a5313f6898190adf00c62e8b5d4c9c46249d31a9cd8a8024007bce90600090a361012d80547fffffffffffffffffffffffff0000000000000000000000000000000000000000166001600160a01b0392909216919091179055565b600054610100900460ff161580801561145e5750600054600160ff909116105b806114785750303b158015611478575060005460ff166001145b6114ea5760405162461bcd60e51b815260206004820152602e60248201527f496e697469616c697a61626c653a20636f6e747261637420697320616c72656160448201527f647920696e697469616c697a65640000000000000000000000000000000000006064820152608401610c65565b600080547fffffffffffffffffffffffffffffffffffffffffffffffffffffffffffffff00166001179055801561154857600080547fffffffffffffffffffffffffffffffffffffffffffffffffffffffffffff00ff166101001790555b61155183611d99565b611559611e27565b61156282611eac565b801561085457600080547fffffffffffffffffffffffffffffffffffffffffffffffffffffffffffff00ff169055604051600181527f7f26b83ff96e1f2b6a682f133852f6798a09c465da95921460cefb38474024989060200160405180910390a1505050565b6115d16116b0565b606580546001600160a01b0383167fffffffffffffffffffffffff0000000000000000000000000000000000000000909116811790915561161a6033546001600160a01b031690565b6001600160a01b03167f38d16b8cac22d99fc7c124b9cd0de2d3fa1faef420bfe791d8c362d765e2270060405160405180910390a350565b61165a611800565b611662611f61565b60005b818110156116a55761169d848484848181106116835761168361308a565b90506020020160208101906116989190612c7a565b6120d1565b600101611665565b50610854600160c955565b6033546001600160a01b03163314610be55760405162461bcd60e51b815260206004820181905260248201527f4f776e61626c653a2063616c6c6572206973206e6f7420746865206f776e65726044820152606401610c65565b6001600160a01b0381166117865760405162461bcd60e51b815260206004820152602560248201527f696e76616c696420616365737320636f6e74726f6c206d616e6167657220616460448201527f64726573730000000000000000000000000000000000000000000000000000006064820152608401610c65565b609780546001600160a01b038381167fffffffffffffffffffffffff000000000000000000000000000000000000000083168117909355604080519190921680825260208201939093527f66fd58e82f7b31a2a5c30e0888f3093efe4e111b00cd2b0c31fe014601293aa091015b60405180910390a15050565b600260c954036118525760405162461bcd60e51b815260206004820152601f60248201527f5265656e7472616e637947756172643a207265656e7472616e742063616c6c006044820152606401610c65565b600260c955565b6001600160a01b0382166000908152610132602052604081205460ff1680156118b357507f00000000000000000000000000000000000000000000000000000000000000006001600160a01b0316846001600160a01b0316145b80156118d0575060008260018111156118ce576118ce612d08565b145b156118d9575060015b9392505050565b600160c955565b6097546040517f18c5e8ab0000000000000000000000000000000000000000000000000000000081526000916001600160a01b0316906318c5e8ab90611933903390869060040161331e565b602060405180830381865afa158015611950573d6000803e3d6000fd5b505050506040513d601f19601f820116820180604052508101906119749190612fc3565b90508061116b573330836040517f4a3fa293000000000000000000000000000000000000000000000000000000008152600401610c6593929190613340565b60006119c0600180613045565b905060008167ffffffffffffffff8111156119dd576119dd61311f565b604051908082528060200260200182016040528015611a06578160200160208202803683370190505b506101315490915060005b81811015611aec5760006101318281548110611a2f57611a2f61308a565b60009182526020909120604080516060810190915291018054829060ff166001811115611a5e57611a5e612d08565b6001811115611a6f57611a6f612d08565b81529054610100810460ff16602080840191909152620100009091046001600160a01b031660409092019190915281015181519192509085906001811115611ab957611ab9612d08565b81518110611ac957611ac961308a565b60200260200101818151611add9190613375565b60ff1690525050600101611a11565b5060005b83811015610bcd57606460ff16838281518110611b0f57611b0f61308a565b602002602001015160ff1614158015611b455750828181518110611b3557611b3561308a565b602002602001015160ff16600014155b15611b7c576040517f0b8ad7f100000000000000000000000000000000000000000000000000000000815260040160405180910390fd5b600101611af0565b606580547fffffffffffffffffffffffff00000000000000000000000000000000000000001690556104a7816126a7565b61012d546001600160a01b0316611bc857565b61012d54604080517fb0772d0b00000000000000000000000000000000000000000000000000000000815290516000926001600160a01b03169163b0772d0b91600480830192869291908290030181865afa158015611c2b573d6000803e3d6000fd5b505050506040513d6000823e601f3d9081017fffffffffffffffffffffffffffffffffffffffffffffffffffffffffffffffe0168201604052611c71919081019061339a565b905060005b815181101561116b576000828281518110611c9357611c9361308a565b602090810291909101015161012d546040517f9198e5150000000000000000000000000000000000000000000000000000000081526001600160a01b038084166004830152929350911690639198e51590602401600060405180830381600087803b158015611d0157600080fd5b505af1158015611d15573d6000803e3d6000fd5b50505050611d467f000000000000000000000000000000000000000000000000000000000000000061169883612711565b50600101611c76565b60fb548111156104a75760fb546040517ff257f636000000000000000000000000000000000000000000000000000000008152600481019190915260248101829052604401610c65565b600054610100900460ff16611e165760405162461bcd60e51b815260206004820152602b60248201527f496e697469616c697a61626c653a20636f6e7472616374206973206e6f74206960448201527f6e697469616c697a696e670000000000000000000000000000000000000000006064820152608401610c65565b611e1e6127d5565b6104a78161285a565b600054610100900460ff16611ea45760405162461bcd60e51b815260206004820152602b60248201527f496e697469616c697a61626c653a20636f6e7472616374206973206e6f74206960448201527f6e697469616c697a696e670000000000000000000000000000000000000000006064820152608401610c65565b610be56128d7565b60fb548111611f235760405162461bcd60e51b815260206004820152602260248201527f436f6d7074726f6c6c65723a20496e76616c6964206d61784c6f6f70734c696d60448201527f69740000000000000000000000000000000000000000000000000000000000006064820152608401610c65565b60fb80549082905560408051828152602081018490527fc2d09fef144f7c8a86f71ea459f8fc17f675768eb1ae369cbd77fb31d467aafa91016117f4565b61012d546001600160a01b0316611f7457565b61012d54604080517fb0772d0b00000000000000000000000000000000000000000000000000000000815290516000926001600160a01b03169163b0772d0b91600480830192869291908290030181865afa158015611fd7573d6000803e3d6000fd5b505050506040513d6000823e601f3d9081017fffffffffffffffffffffffffffffffffffffffffffffffffffffffffffffffe016820160405261201d919081019061339a565b905060005b815181101561116b57600082828151811061203f5761203f61308a565b602090810291909101015161012d546040517f9198e5150000000000000000000000000000000000000000000000000000000081526001600160a01b038084166004830152929350911690639198e51590602401600060405180830381600087803b1580156120ad57600080fd5b505af11580156120c1573d6000803e3d6000fd5b5050505081600101915050612022565b60006120de600180613045565b905060008167ffffffffffffffff8111156120fb576120fb61311f565b604051908082528060200260200182016040528015612124578160200160208202803683370190505b5090506000805b838110156121ec576001600160a01b03808716600090815261012f6020908152604080832093891683529290529081209082600181111561216e5761216e612d08565b600181111561217f5761217f612d08565b600181111561219057612190612d08565b8152602001908152602001600020548382815181106121b1576121b161308a565b6020026020010181815250508281815181106121cf576121cf61308a565b6020026020010151826121e29190613045565b915060010161212b565b50806000036121fc575050505050565b60008367ffffffffffffffff8111156122175761221761311f565b604051908082528060200260200182016040528015612240578160200160208202803683370190505b50905060005b6101315481101561247257600061013182815481106122675761226761308a565b60009182526020909120604080516060810190915291018054829060ff16600181111561229657612296612d08565b60018111156122a7576122a7612d08565b81529054610100810460ff908116602080850191909152620100009092046001600160a01b031660409093019290925282015182519293506000926064929190911690889060018111156122fd576122fd612d08565b8151811061230d5761230d61308a565b602002602001015161231f9190613230565b612329919061326d565b905080848360000151600181111561234357612343612d08565b815181106123535761235361308a565b602002602001018181516123679190613045565b905250801561246857604082015161238a906001600160a01b038a169083612954565b60408083015190517faac59a750000000000000000000000000000000000000000000000000000000081526001600160a01b038b811660048301528a811660248301529091169063aac59a7590604401600060405180830381600087803b1580156123f457600080fd5b505af1158015612408573d6000803e3d6000fd5b50505050876001600160a01b031682604001516001600160a01b03167f09f71e7b22d78540ee9a42f09917a9d62f46735cb0dfa70d6bab27866d9cb500846000015185602001518560405161245f9392919061344c565b60405180910390a35b5050600101612246565b5060008467ffffffffffffffff81111561248e5761248e61311f565b6040519080825280602002602001820160405280156124b7578160200160208202803683370190505b50905060005b8581101561269d578281815181106124d7576124d761308a565b60200260200101518582815181106124f1576124f161308a565b602002602001015161250391906130d9565b8282815181106125155761251561308a565b6020026020010181815250508181815181106125335761253361308a565b6020908102919091018101516001600160a01b03808b16600090815261012f84526040808220928c168252919093528220909183600181111561257857612578612d08565b600181111561258957612589612d08565b600181111561259a5761259a612d08565b8152602001908152602001600020819055508281815181106125be576125be61308a565b60200260200101516101306000896001600160a01b03166001600160a01b03168152602001908152602001600020546125f791906130d9565b6001600160a01b038089166000818152610130602052604090209290925589167f7d881f3d6246a6a2b97b121b8ba093c17497912c68e8b2bca6108528e91df3ca83600181111561264a5761264a612d08565b88858151811061265c5761265c61308a565b60200260200101518686815181106126765761267661308a565b602002602001015160405161268d93929190613470565b60405180910390a36001016124bd565b5050505050505050565b603380546001600160a01b038381167fffffffffffffffffffffffff0000000000000000000000000000000000000000831681179093556040519116919082907f8be0079c531659141344cd1fd0a4f28419497f9722a3daafe3b4186f6b6457e090600090a35050565b60007f00000000000000000000000000000000000000000000000000000000000000006001600160a01b0316826001600160a01b03160361277357507f0000000000000000000000000000000000000000000000000000000000000000919050565b816001600160a01b0316636f307dc36040518163ffffffff1660e01b8152600401602060405180830381865afa1580156127b1573d6000803e3d6000fd5b505050506040513d601f19601f8201168201806040525081019061137a9190612fe0565b600054610100900460ff166128525760405162461bcd60e51b815260206004820152602b60248201527f496e697469616c697a61626c653a20636f6e7472616374206973206e6f74206960448201527f6e697469616c697a696e670000000000000000000000000000000000000000006064820152608401610c65565b610be56129d4565b600054610100900460ff1661049e5760405162461bcd60e51b815260206004820152602b60248201527f496e697469616c697a61626c653a20636f6e7472616374206973206e6f74206960448201527f6e697469616c697a696e670000000000000000000000000000000000000000006064820152608401610c65565b600054610100900460ff166118e05760405162461bcd60e51b815260206004820152602b60248201527f496e697469616c697a61626c653a20636f6e7472616374206973206e6f74206960448201527f6e697469616c697a696e670000000000000000000000000000000000000000006064820152608401610c65565b604080516001600160a01b038416602482015260448082018490528251808303909101815260649091019091526020810180517bffffffffffffffffffffffffffffffffffffffffffffffffffffffff167fa9059cbb00000000000000000000000000000000000000000000000000000000179052610854908490612a5a565b600054610100900460ff16612a515760405162461bcd60e51b815260206004820152602b60248201527f496e697469616c697a61626c653a20636f6e7472616374206973206e6f74206960448201527f6e697469616c697a696e670000000000000000000000000000000000000000006064820152608401610c65565b610be533611b84565b6000612aaf826040518060400160405280602081526020017f5361666545524332303a206c6f772d6c6576656c2063616c6c206661696c6564815250856001600160a01b0316612b429092919063ffffffff16565b9050805160001480612ad0575080806020019051810190612ad09190612fc3565b6108545760405162461bcd60e51b815260206004820152602a60248201527f5361666545524332303a204552433230206f7065726174696f6e20646964206e60448201527f6f742073756363656564000000000000000000000000000000000000000000006064820152608401610c65565b6060611286848460008585600080866001600160a01b03168587604051612b699190613491565b60006040518083038185875af1925050503d8060008114612ba6576040519150601f19603f3d011682016040523d82523d6000602084013e612bab565b606091505b5091509150612bbc87838387612bc7565b979650505050505050565b60608315612c36578251600003612c2f576001600160a01b0385163b612c2f5760405162461bcd60e51b815260206004820152601d60248201527f416464726573733a2063616c6c20746f206e6f6e2d636f6e74726163740000006044820152606401610c65565b5081611286565b6112868383815115612c4b5781518083602001fd5b8060405162461bcd60e51b8152600401610c6591906134ad565b6001600160a01b03811681146104a757600080fd5b600060208284031215612c8c57600080fd5b81356118d981612c65565b600281106104a757600080fd5b600080600060608486031215612cb957600080fd5b8335612cc481612c65565b92506020840135612cd481612c65565b91506040840135612ce481612c97565b809150509250925092565b600060208284031215612d0157600080fd5b5035919050565b7f4e487b7100000000000000000000000000000000000000000000000000000000600052602160045260246000fd5b600281106104a7577f4e487b7100000000000000000000000000000000000000000000000000000000600052602160045260246000fd5b60608101612d7b85612d37565b93815260ff9290921660208301526001600160a01b031660409091015290565b60008060408385031215612dae57600080fd5b8235612db981612c97565b91506020830135612dc981612c65565b809150509250929050565b80151581146104a757600080fd5b60008060408385031215612df557600080fd5b8235612e0081612c65565b91506020830135612dc981612dd4565b60008060208385031215612e2357600080fd5b823567ffffffffffffffff80821115612e3b57600080fd5b818501915085601f830112612e4f57600080fd5b813581811115612e5e57600080fd5b866020606083028501011115612e7357600080fd5b60209290920196919550909350505050565b60008060008060808587031215612e9b57600080fd5b8435612ea681612c65565b93506020850135612eb681612c97565b92506040850135612ec681612c65565b91506060850135612ed681612c65565b939692955090935050565b60008060408385031215612ef457600080fd5b8235612eff81612c65565b91506020830135612dc981612c97565b60008060408385031215612f2257600080fd5b8235612f2d81612c65565b946020939093013593505050565b600080600060408486031215612f5057600080fd5b8335612f5b81612c65565b9250602084013567ffffffffffffffff80821115612f7857600080fd5b818601915086601f830112612f8c57600080fd5b813581811115612f9b57600080fd5b8760208260051b8501011115612fb057600080fd5b6020830194508093505050509250925092565b600060208284031215612fd557600080fd5b81516118d981612dd4565b600060208284031215612ff257600080fd5b81516118d981612c65565b60006020828403121561300f57600080fd5b5051919050565b7f4e487b7100000000000000000000000000000000000000000000000000000000600052601160045260246000fd5b6000821982111561305857613058613016565b500190565b8381526060810161306d84612d37565b83602083015261307c83612d37565b826040830152949350505050565b7f4e487b7100000000000000000000000000000000000000000000000000000000600052603260045260246000fd5b60ff83168152604081016130cc83612d37565b8260208301529392505050565b6000828210156130eb576130eb613016565b500390565b7f4e487b7100000000000000000000000000000000000000000000000000000000600052603160045260246000fd5b7f4e487b7100000000000000000000000000000000000000000000000000000000600052604160045260246000fd5b604051601f82017fffffffffffffffffffffffffffffffffffffffffffffffffffffffffffffffe016810167ffffffffffffffff811182821017156131955761319561311f565b604052919050565b6000606082840312156131af57600080fd5b6040516060810181811067ffffffffffffffff821117156131d2576131d261311f565b60405282356131e081612c97565b8152602083013560ff811681146131f657600080fd5b6020820152604083013561320981612c65565b60408201529392505050565b60ff8481168252831660208201526060810161307c83612d37565b6000817fffffffffffffffffffffffffffffffffffffffffffffffffffffffffffffffff048311821515161561326857613268613016565b500290565b6000826132a3577f4e487b7100000000000000000000000000000000000000000000000000000000600052601260045260246000fd5b500490565b60005b838110156132c35781810151838201526020016132ab565b83811115610bcd5750506000910152565b600081518084526132ec8160208601602086016132a8565b601f017fffffffffffffffffffffffffffffffffffffffffffffffffffffffffffffffe0169290920160200192915050565b6001600160a01b038316815260406020820152600061128660408301846132d4565b60006001600160a01b0380861683528085166020840152506060604083015261336c60608301846132d4565b95945050505050565b600060ff821660ff84168060ff0382111561339257613392613016565b019392505050565b600060208083850312156133ad57600080fd5b825167ffffffffffffffff808211156133c557600080fd5b818501915085601f8301126133d957600080fd5b8151818111156133eb576133eb61311f565b8060051b91506133fc84830161314e565b818152918301840191848101908884111561341657600080fd5b938501935b83851015613440578451925061343083612c65565b828252938501939085019061341b565b98975050505050505050565b6060810161345985612d37565b93815260ff92909216602083015260409091015290565b6060810161347d85612d37565b938152602081019290925260409091015290565b600082516134a38184602087016132a8565b9190910192915050565b6020815260006118d960208301846132d456fe6164644f7252656d6f7665417373657446726f6d5072696d6528616464726573732c626f6f6c2972656d6f7665446973747269627574696f6e436f6e66696728536368656d612c61646472657373296164644f72557064617465446973747269627574696f6e436f6e6669677328446973747269627574696f6e436f6e6669675b5d29a26469706673582212208bb4482cad30547fb577da774e50c3d50a3c8ab4cd8158ba9cd50e4f2b86e61e64736f6c634300080d0033",
  "devdoc": {
    "kind": "dev",
    "methods": {
      "acceptOwnership()": {
        "details": "The new owner accepts the ownership transfer."
      },
      "addOrRemoveAssetFromPrime(address,bool)": {
        "details": "Add/Remove asset to prime program.",
        "params": {
          "asset": "Address of the asset",
          "isPrimeAsset": "Boolean to add/remove asset from prime program"
        }
      },
      "addOrUpdateDistributionConfigs((uint8,uint8,address)[])": {
        "details": "Add or update destination targets based on destination address",
        "params": {
          "configs": "configurations of the destinations."
        }
      },
      "constructor": {
        "custom:oz-upgrades-unsafe-allow": "constructor"
      },
      "getPercentageDistribution(address,uint8)": {
        "details": "Used to find out the percentage distribution for a particular destination based on schema",
        "params": {
          "destination": "the destination address of the distribution target",
          "schema": "the schema of the distribution target"
        },
        "returns": {
          "_0": "percentage percentage distribution"
        }
      },
      "getUnreleasedFunds(address,uint8,address,address)": {
        "details": "Used to find out the amount of funds that's going to be released when release funds is called.",
        "params": {
          "asset": "the asset address which will be released",
          "comptroller": "the comptroller address of the pool",
          "destination": "the destination address of the distribution target",
          "schema": "the schema of the distribution target"
        }
      },
      "initialize(address,uint256)": {
        "details": "Initializes the deployer to owner.",
        "params": {
          "_accessControlManager": "The address of ACM contract",
          "_loopsLimit": "Limit for the loops in the contract to avoid DOS"
        }
      },
      "owner()": {
        "details": "Returns the address of the current owner."
      },
      "pendingOwner()": {
        "details": "Returns the address of the pending owner."
      },
      "releaseFunds(address,address[])": {
        "details": "Release funds",
        "params": {
          "assets": "assets to be released to distribution targets",
          "comptroller": "the comptroller address of the pool"
        }
      },
      "removeDistributionConfig(uint8,address)": {
        "details": "Remove destionation target if percentage is 0",
        "params": {
          "destination": "destination address of the configuration",
          "schema": "schema of the configuration"
        }
      },
      "renounceOwnership()": {
        "details": "Leaves the contract without owner. It will not be possible to call `onlyOwner` functions. Can only be called by the current owner. NOTE: Renouncing ownership will leave the contract without an owner, thereby disabling any functionality that is only available to the owner."
      },
      "setAccessControlManager(address)": {
        "custom:access": "Only Governance",
        "custom:event": "Emits NewAccessControlManager event",
        "details": "Admin function to set address of AccessControlManager",
        "params": {
          "accessControlManager_": "The new address of the AccessControlManager"
        }
      },
      "setPoolRegistry(address)": {
        "details": "Pool registry setter.",
        "params": {
          "_poolRegistry": "Address of the pool registry"
        }
      },
      "setPrime(address)": {
        "details": "Prime contract address setter.",
        "params": {
          "_prime": "Address of the prime contract"
        }
      },
      "totalDistributions()": {
        "details": "Returns the total number of distribution targets"
      },
      "transferOwnership(address)": {
        "details": "Starts the ownership transfer of the contract to a new account. Replaces the pending transfer if there is one. Can only be called by the current owner."
      },
      "updateAssetsState(address,address,uint8)": {
        "details": "Update the reserve of the asset for the specific pool after transferring to the protocol share reserve.",
        "params": {
          "asset": "Asset address.",
          "comptroller": "Comptroller address(pool)",
          "incomeType": "type of income"
        }
      }
    },
    "stateVariables": {
      "CORE_POOL_COMPTROLLER": {
        "custom:oz-upgrades-unsafe-allow": "state-variable-immutable"
      },
      "WBNB": {
        "custom:oz-upgrades-unsafe-allow": "state-variable-immutable"
      },
      "vBNB": {
        "custom:oz-upgrades-unsafe-allow": "state-variable-immutable"
      }
    },
    "version": 1
  },
  "userdoc": {
    "errors": {
      "MaxLoopsLimitExceeded(uint256,uint256)": [
        {
          "notice": "Thrown an error on maxLoopsLimit exceeds for any loop"
        }
      ],
      "Unauthorized(address,address,string)": [
        {
          "notice": "Thrown when the action is prohibited by AccessControlManager"
        }
      ]
    },
    "events": {
      "AssetReleased(address,address,uint8,uint256,uint256)": {
        "notice": "Event emitted when an asset is released to a target"
      },
      "AssetsReservesUpdated(address,address,uint256,uint8,uint8)": {
        "notice": "Event emitted after the updation of the assets reserves."
      },
      "DistributionConfigAdded(address,uint8,uint8)": {
        "notice": "Event emitted when distribution configuration is added"
      },
      "DistributionConfigRemoved(address,uint8,uint8)": {
        "notice": "Event emitted when distribution configuration is removed"
      },
      "DistributionConfigUpdated(address,uint8,uint8,uint8)": {
        "notice": "Event emitted when distribution configuration is updated"
      },
      "MaxLoopsLimitUpdated(uint256,uint256)": {
        "notice": "Emitted when max loops limit is set"
      },
      "NewAccessControlManager(address,address)": {
        "notice": "Emitted when access control manager contract address is changed"
      },
      "PoolRegistryUpdated(address,address)": {
        "notice": "Emitted when pool registry address is updated"
      },
      "PrimeAssetUpdated(address,bool)": {
        "notice": "Emitted when an asset is added to prime program"
      },
      "PrimeUpdated(address,address)": {
        "notice": "Emitted when prime address is updated"
      },
      "ReservesUpdated(address,address,uint8,uint256,uint256)": {
        "notice": "Event emitted when asset reserves state is updated"
      }
    },
    "kind": "user",
    "methods": {
      "CORE_POOL_COMPTROLLER()": {
        "notice": "address of core pool comptroller contract"
      },
      "WBNB()": {
        "notice": "address of WBNB contract"
      },
      "accessControlManager()": {
        "notice": "Returns the address of the access control manager contract"
      },
      "assetsReserves(address,address,uint8)": {
        "notice": "comptroller => asset => schema => balance"
      },
      "distributionTargets(uint256)": {
        "notice": "configuration for different income distribution targets"
      },
      "isInPrime(address)": {
        "notice": "asset => boolean"
      },
      "poolRegistry()": {
        "notice": "address of pool registry contract"
      },
      "prime()": {
        "notice": "address of Prime contract"
      },
      "setAccessControlManager(address)": {
        "notice": "Sets the address of AccessControlManager"
      },
      "totalAssetReserve(address)": {
        "notice": "asset => balance"
      },
      "vBNB()": {
        "notice": "address of vBNB contract"
      }
    },
    "version": 1
  },
  "storageLayout": {
    "storage": [
      {
        "astId": 244,
        "contract": "contracts/ProtocolReserve/ProtocolShareReserve.sol:ProtocolShareReserve",
        "label": "_initialized",
        "offset": 0,
        "slot": "0",
        "type": "t_uint8"
      },
      {
        "astId": 247,
        "contract": "contracts/ProtocolReserve/ProtocolShareReserve.sol:ProtocolShareReserve",
        "label": "_initializing",
        "offset": 1,
        "slot": "0",
        "type": "t_bool"
      },
      {
        "astId": 1351,
        "contract": "contracts/ProtocolReserve/ProtocolShareReserve.sol:ProtocolShareReserve",
        "label": "__gap",
        "offset": 0,
        "slot": "1",
        "type": "t_array(t_uint256)50_storage"
      },
      {
        "astId": 116,
        "contract": "contracts/ProtocolReserve/ProtocolShareReserve.sol:ProtocolShareReserve",
        "label": "_owner",
        "offset": 0,
        "slot": "51",
        "type": "t_address"
      },
      {
        "astId": 236,
        "contract": "contracts/ProtocolReserve/ProtocolShareReserve.sol:ProtocolShareReserve",
        "label": "__gap",
        "offset": 0,
        "slot": "52",
        "type": "t_array(t_uint256)49_storage"
      },
      {
        "astId": 25,
        "contract": "contracts/ProtocolReserve/ProtocolShareReserve.sol:ProtocolShareReserve",
        "label": "_pendingOwner",
        "offset": 0,
        "slot": "101",
        "type": "t_address"
      },
      {
        "astId": 104,
        "contract": "contracts/ProtocolReserve/ProtocolShareReserve.sol:ProtocolShareReserve",
        "label": "__gap",
        "offset": 0,
        "slot": "102",
        "type": "t_array(t_uint256)49_storage"
      },
      {
        "astId": 1439,
        "contract": "contracts/ProtocolReserve/ProtocolShareReserve.sol:ProtocolShareReserve",
        "label": "_accessControlManager",
        "offset": 0,
        "slot": "151",
        "type": "t_contract(IAccessControlManagerV8)1624"
      },
      {
        "astId": 1444,
        "contract": "contracts/ProtocolReserve/ProtocolShareReserve.sol:ProtocolShareReserve",
        "label": "__gap",
        "offset": 0,
        "slot": "152",
        "type": "t_array(t_uint256)49_storage"
      },
      {
        "astId": 420,
        "contract": "contracts/ProtocolReserve/ProtocolShareReserve.sol:ProtocolShareReserve",
        "label": "_status",
        "offset": 0,
        "slot": "201",
        "type": "t_uint256"
      },
      {
        "astId": 489,
        "contract": "contracts/ProtocolReserve/ProtocolShareReserve.sol:ProtocolShareReserve",
        "label": "__gap",
        "offset": 0,
        "slot": "202",
        "type": "t_array(t_uint256)49_storage"
      },
      {
        "astId": 1629,
        "contract": "contracts/ProtocolReserve/ProtocolShareReserve.sol:ProtocolShareReserve",
        "label": "maxLoopsLimit",
        "offset": 0,
        "slot": "251",
        "type": "t_uint256"
      },
      {
        "astId": 1634,
        "contract": "contracts/ProtocolReserve/ProtocolShareReserve.sol:ProtocolShareReserve",
        "label": "__gap",
        "offset": 0,
        "slot": "252",
        "type": "t_array(t_uint256)49_storage"
      },
      {
        "astId": 1839,
        "contract": "contracts/ProtocolReserve/ProtocolShareReserve.sol:ProtocolShareReserve",
        "label": "prime",
        "offset": 0,
        "slot": "301",
        "type": "t_address"
      },
      {
        "astId": 1842,
        "contract": "contracts/ProtocolReserve/ProtocolShareReserve.sol:ProtocolShareReserve",
        "label": "poolRegistry",
        "offset": 0,
        "slot": "302",
        "type": "t_address"
      },
      {
        "astId": 1855,
        "contract": "contracts/ProtocolReserve/ProtocolShareReserve.sol:ProtocolShareReserve",
        "label": "assetsReserves",
        "offset": 0,
        "slot": "303",
        "type": "t_mapping(t_address,t_mapping(t_address,t_mapping(t_enum(Schema)1818,t_uint256)))"
      },
      {
        "astId": 1860,
        "contract": "contracts/ProtocolReserve/ProtocolShareReserve.sol:ProtocolShareReserve",
        "label": "totalAssetReserve",
        "offset": 0,
        "slot": "304",
        "type": "t_mapping(t_address,t_uint256)"
      },
      {
        "astId": 1865,
        "contract": "contracts/ProtocolReserve/ProtocolShareReserve.sol:ProtocolShareReserve",
        "label": "distributionTargets",
        "offset": 0,
        "slot": "305",
        "type": "t_array(t_struct(DistributionConfig)1827_storage)dyn_storage"
      },
      {
        "astId": 1870,
        "contract": "contracts/ProtocolReserve/ProtocolShareReserve.sol:ProtocolShareReserve",
        "label": "isInPrime",
        "offset": 0,
        "slot": "306",
        "type": "t_mapping(t_address,t_bool)"
      }
    ],
    "types": {
      "t_address": {
        "encoding": "inplace",
        "label": "address",
        "numberOfBytes": "20"
      },
      "t_array(t_struct(DistributionConfig)1827_storage)dyn_storage": {
        "base": "t_struct(DistributionConfig)1827_storage",
        "encoding": "dynamic_array",
        "label": "struct ProtocolShareReserve.DistributionConfig[]",
        "numberOfBytes": "32"
      },
      "t_array(t_uint256)49_storage": {
        "base": "t_uint256",
        "encoding": "inplace",
        "label": "uint256[49]",
        "numberOfBytes": "1568"
      },
      "t_array(t_uint256)50_storage": {
        "base": "t_uint256",
        "encoding": "inplace",
        "label": "uint256[50]",
        "numberOfBytes": "1600"
      },
      "t_bool": {
        "encoding": "inplace",
        "label": "bool",
        "numberOfBytes": "1"
      },
      "t_contract(IAccessControlManagerV8)1624": {
        "encoding": "inplace",
        "label": "contract IAccessControlManagerV8",
        "numberOfBytes": "20"
      },
      "t_enum(Schema)1818": {
        "encoding": "inplace",
        "label": "enum ProtocolShareReserve.Schema",
        "numberOfBytes": "1"
      },
      "t_mapping(t_address,t_bool)": {
        "encoding": "mapping",
        "key": "t_address",
        "label": "mapping(address => bool)",
        "numberOfBytes": "32",
        "value": "t_bool"
      },
      "t_mapping(t_address,t_mapping(t_address,t_mapping(t_enum(Schema)1818,t_uint256)))": {
        "encoding": "mapping",
        "key": "t_address",
        "label": "mapping(address => mapping(address => mapping(enum ProtocolShareReserve.Schema => uint256)))",
        "numberOfBytes": "32",
        "value": "t_mapping(t_address,t_mapping(t_enum(Schema)1818,t_uint256))"
      },
      "t_mapping(t_address,t_mapping(t_enum(Schema)1818,t_uint256))": {
        "encoding": "mapping",
        "key": "t_address",
        "label": "mapping(address => mapping(enum ProtocolShareReserve.Schema => uint256))",
        "numberOfBytes": "32",
        "value": "t_mapping(t_enum(Schema)1818,t_uint256)"
      },
      "t_mapping(t_address,t_uint256)": {
        "encoding": "mapping",
        "key": "t_address",
        "label": "mapping(address => uint256)",
        "numberOfBytes": "32",
        "value": "t_uint256"
      },
      "t_mapping(t_enum(Schema)1818,t_uint256)": {
        "encoding": "mapping",
        "key": "t_enum(Schema)1818",
        "label": "mapping(enum ProtocolShareReserve.Schema => uint256)",
        "numberOfBytes": "32",
        "value": "t_uint256"
      },
      "t_struct(DistributionConfig)1827_storage": {
        "encoding": "inplace",
        "label": "struct ProtocolShareReserve.DistributionConfig",
        "members": [
          {
            "astId": 1821,
            "contract": "contracts/ProtocolReserve/ProtocolShareReserve.sol:ProtocolShareReserve",
            "label": "schema",
            "offset": 0,
            "slot": "0",
            "type": "t_enum(Schema)1818"
          },
          {
            "astId": 1824,
            "contract": "contracts/ProtocolReserve/ProtocolShareReserve.sol:ProtocolShareReserve",
            "label": "percentage",
            "offset": 1,
            "slot": "0",
            "type": "t_uint8"
          },
          {
            "astId": 1826,
            "contract": "contracts/ProtocolReserve/ProtocolShareReserve.sol:ProtocolShareReserve",
            "label": "destination",
            "offset": 2,
            "slot": "0",
            "type": "t_address"
          }
        ],
        "numberOfBytes": "32"
      },
      "t_uint256": {
        "encoding": "inplace",
        "label": "uint256",
        "numberOfBytes": "32"
      },
      "t_uint8": {
        "encoding": "inplace",
        "label": "uint8",
        "numberOfBytes": "1"
      }
    }
  }
}