{
  "address": "0x7Ef5ABbcC9A701e728BeB7Afd4fb5747fAB15A28",
  "abi": [
    {
      "inputs": [],
      "name": "InsufficientBalance",
      "type": "error"
    },
    {
      "inputs": [
        {
          "internalType": "address",
          "name": "comptroller",
          "type": "address"
        },
        {
          "internalType": "uint256",
          "name": "amount",
          "type": "uint256"
        },
        {
          "internalType": "uint256",
          "name": "poolReserve",
          "type": "uint256"
        }
      ],
      "name": "InsufficientPoolReserve",
      "type": "error"
    },
    {
      "inputs": [],
      "name": "InvalidRiskFundConverter",
      "type": "error"
    },
    {
      "inputs": [],
      "name": "InvalidShortfallAddress",
      "type": "error"
    },
    {
      "inputs": [
        {
          "internalType": "address",
          "name": "sender",
          "type": "address"
        },
        {
          "internalType": "address",
          "name": "calledContract",
          "type": "address"
        },
        {
          "internalType": "string",
          "name": "methodSignature",
          "type": "string"
        }
      ],
      "name": "Unauthorized",
      "type": "error"
    },
    {
      "inputs": [],
      "name": "ZeroAddressNotAllowed",
      "type": "error"
    },
    {
      "inputs": [],
      "name": "ZeroValueNotAllowed",
      "type": "error"
    },
    {
      "anonymous": false,
      "inputs": [
        {
          "indexed": true,
          "internalType": "address",
          "name": "oldConvertibleBaseAsset",
          "type": "address"
        },
        {
          "indexed": true,
          "internalType": "address",
          "name": "newConvertibleBaseAsset",
          "type": "address"
        }
      ],
      "name": "ConvertibleBaseAssetUpdated",
      "type": "event"
    },
    {
      "anonymous": false,
      "inputs": [
        {
          "indexed": false,
          "internalType": "uint8",
          "name": "version",
          "type": "uint8"
        }
      ],
      "name": "Initialized",
      "type": "event"
    },
    {
      "anonymous": false,
      "inputs": [
        {
          "indexed": false,
          "internalType": "address",
          "name": "oldAccessControlManager",
          "type": "address"
        },
        {
          "indexed": false,
          "internalType": "address",
          "name": "newAccessControlManager",
          "type": "address"
        }
      ],
      "name": "NewAccessControlManager",
      "type": "event"
    },
    {
      "anonymous": false,
      "inputs": [
        {
          "indexed": true,
          "internalType": "address",
          "name": "previousOwner",
          "type": "address"
        },
        {
          "indexed": true,
          "internalType": "address",
          "name": "newOwner",
          "type": "address"
        }
      ],
      "name": "OwnershipTransferStarted",
      "type": "event"
    },
    {
      "anonymous": false,
      "inputs": [
        {
          "indexed": true,
          "internalType": "address",
          "name": "previousOwner",
          "type": "address"
        },
        {
          "indexed": true,
          "internalType": "address",
          "name": "newOwner",
          "type": "address"
        }
      ],
      "name": "OwnershipTransferred",
      "type": "event"
    },
    {
      "anonymous": false,
      "inputs": [
        {
          "indexed": true,
          "internalType": "address",
          "name": "comptroller",
          "type": "address"
        },
        {
          "indexed": true,
          "internalType": "address",
          "name": "asset",
          "type": "address"
        },
        {
          "indexed": false,
          "internalType": "uint256",
          "name": "amount",
          "type": "uint256"
        }
      ],
      "name": "PoolAssetsDecreased",
      "type": "event"
    },
    {
      "anonymous": false,
      "inputs": [
        {
          "indexed": true,
          "internalType": "address",
          "name": "comptroller",
          "type": "address"
        },
        {
          "indexed": true,
          "internalType": "address",
          "name": "asset",
          "type": "address"
        },
        {
          "indexed": false,
          "internalType": "uint256",
          "name": "amount",
          "type": "uint256"
        }
      ],
      "name": "PoolAssetsIncreased",
      "type": "event"
    },
    {
      "anonymous": false,
      "inputs": [
        {
          "indexed": true,
          "internalType": "address",
          "name": "oldRiskFundConverter",
          "type": "address"
        },
        {
          "indexed": true,
          "internalType": "address",
          "name": "newRiskFundConverter",
          "type": "address"
        }
      ],
      "name": "RiskFundConverterUpdated",
      "type": "event"
    },
    {
      "anonymous": false,
      "inputs": [
        {
          "indexed": true,
          "internalType": "address",
          "name": "oldShortfallContract",
          "type": "address"
        },
        {
          "indexed": true,
          "internalType": "address",
          "name": "newShortfallContract",
          "type": "address"
        }
      ],
      "name": "ShortfallContractUpdated",
      "type": "event"
    },
    {
      "anonymous": false,
      "inputs": [
        {
          "indexed": true,
          "internalType": "address",
          "name": "token",
          "type": "address"
        },
        {
          "indexed": true,
          "internalType": "address",
          "name": "to",
          "type": "address"
        },
        {
          "indexed": false,
          "internalType": "uint256",
          "name": "amount",
          "type": "uint256"
        }
      ],
      "name": "SweepToken",
      "type": "event"
    },
    {
      "anonymous": false,
      "inputs": [
        {
          "indexed": true,
          "internalType": "address",
          "name": "token",
          "type": "address"
        },
        {
          "indexed": true,
          "internalType": "address",
          "name": "comptroller",
          "type": "address"
        },
        {
          "indexed": false,
          "internalType": "uint256",
          "name": "amount",
          "type": "uint256"
        }
      ],
      "name": "SweepTokenFromPool",
      "type": "event"
    },
    {
      "anonymous": false,
      "inputs": [
        {
          "indexed": true,
          "internalType": "address",
          "name": "comptroller",
          "type": "address"
        },
        {
          "indexed": false,
          "internalType": "uint256",
          "name": "amount",
          "type": "uint256"
        }
      ],
      "name": "TransferredReserveForAuction",
      "type": "event"
    },
    {
      "inputs": [],
      "name": "acceptOwnership",
      "outputs": [],
      "stateMutability": "nonpayable",
      "type": "function"
    },
    {
      "inputs": [],
      "name": "accessControlManager",
      "outputs": [
        {
          "internalType": "contract IAccessControlManagerV8",
          "name": "",
          "type": "address"
        }
      ],
      "stateMutability": "view",
      "type": "function"
    },
    {
      "inputs": [],
      "name": "convertibleBaseAsset",
      "outputs": [
        {
          "internalType": "address",
          "name": "",
          "type": "address"
        }
      ],
      "stateMutability": "view",
      "type": "function"
    },
    {
      "inputs": [
        {
          "internalType": "address",
          "name": "comptroller",
          "type": "address"
        }
      ],
      "name": "getPoolsBaseAssetReserves",
      "outputs": [
        {
          "internalType": "uint256",
          "name": "",
          "type": "uint256"
        }
      ],
      "stateMutability": "view",
      "type": "function"
    },
    {
      "inputs": [],
      "name": "maxLoopsLimit",
      "outputs": [
        {
          "internalType": "uint256",
          "name": "",
          "type": "uint256"
        }
      ],
      "stateMutability": "view",
      "type": "function"
    },
    {
      "inputs": [],
      "name": "owner",
      "outputs": [
        {
          "internalType": "address",
          "name": "",
          "type": "address"
        }
      ],
      "stateMutability": "view",
      "type": "function"
    },
    {
      "inputs": [],
      "name": "pendingOwner",
      "outputs": [
        {
          "internalType": "address",
          "name": "",
          "type": "address"
        }
      ],
      "stateMutability": "view",
      "type": "function"
    },
    {
      "inputs": [
        {
          "internalType": "address",
          "name": "",
          "type": "address"
        },
        {
          "internalType": "address",
          "name": "",
          "type": "address"
        }
      ],
      "name": "poolAssetsFunds",
      "outputs": [
        {
          "internalType": "uint256",
          "name": "",
          "type": "uint256"
        }
      ],
      "stateMutability": "view",
      "type": "function"
    },
    {
      "inputs": [],
      "name": "renounceOwnership",
      "outputs": [],
      "stateMutability": "nonpayable",
      "type": "function"
    },
    {
      "inputs": [],
      "name": "riskFundConverter",
      "outputs": [
        {
          "internalType": "address",
          "name": "",
          "type": "address"
        }
      ],
      "stateMutability": "view",
      "type": "function"
    },
    {
      "inputs": [
        {
          "internalType": "address",
          "name": "accessControlManager_",
          "type": "address"
        }
      ],
      "name": "setAccessControlManager",
      "outputs": [],
      "stateMutability": "nonpayable",
      "type": "function"
    },
    {
      "inputs": [
        {
          "internalType": "address",
          "name": "convertibleBaseAsset_",
          "type": "address"
        }
      ],
      "name": "setConvertibleBaseAsset",
      "outputs": [],
      "stateMutability": "nonpayable",
      "type": "function"
    },
    {
      "inputs": [
        {
          "internalType": "address",
          "name": "riskFundConverter_",
          "type": "address"
        }
      ],
      "name": "setRiskFundConverter",
      "outputs": [],
      "stateMutability": "nonpayable",
      "type": "function"
    },
    {
      "inputs": [
        {
          "internalType": "address",
          "name": "shortfallContractAddress_",
          "type": "address"
        }
      ],
      "name": "setShortfallContractAddress",
      "outputs": [],
      "stateMutability": "nonpayable",
      "type": "function"
    },
    {
      "inputs": [],
      "name": "shortfall",
      "outputs": [
        {
          "internalType": "address",
          "name": "",
          "type": "address"
        }
      ],
      "stateMutability": "view",
      "type": "function"
    },
    {
      "inputs": [
        {
          "internalType": "address",
          "name": "tokenAddress",
          "type": "address"
        },
        {
          "internalType": "address",
          "name": "to",
          "type": "address"
        },
        {
          "internalType": "uint256",
          "name": "amount",
          "type": "uint256"
        }
      ],
      "name": "sweepToken",
      "outputs": [],
      "stateMutability": "nonpayable",
      "type": "function"
    },
    {
      "inputs": [
        {
          "internalType": "address",
          "name": "tokenAddress",
          "type": "address"
        },
        {
          "internalType": "address",
          "name": "comptroller",
          "type": "address"
        },
        {
          "internalType": "address",
          "name": "receiver",
          "type": "address"
        },
        {
          "internalType": "uint256",
          "name": "amount",
          "type": "uint256"
        }
      ],
      "name": "sweepTokenFromPool",
      "outputs": [],
      "stateMutability": "nonpayable",
      "type": "function"
    },
    {
      "inputs": [
        {
          "internalType": "address",
          "name": "newOwner",
          "type": "address"
        }
      ],
      "name": "transferOwnership",
      "outputs": [],
      "stateMutability": "nonpayable",
      "type": "function"
    },
    {
      "inputs": [
        {
          "internalType": "address",
          "name": "comptroller",
          "type": "address"
        },
        {
          "internalType": "uint256",
          "name": "amount",
          "type": "uint256"
        }
      ],
      "name": "transferReserveForAuction",
      "outputs": [
        {
          "internalType": "uint256",
          "name": "",
          "type": "uint256"
        }
      ],
      "stateMutability": "nonpayable",
      "type": "function"
    },
    {
      "inputs": [
        {
          "internalType": "address",
          "name": "comptroller",
          "type": "address"
        },
        {
          "internalType": "address",
          "name": "asset",
          "type": "address"
        },
        {
          "internalType": "uint256",
          "name": "amount",
          "type": "uint256"
        }
      ],
      "name": "updatePoolState",
      "outputs": [],
      "stateMutability": "nonpayable",
      "type": "function"
    }
  ],
  "transactionHash": "0x55f79834b5c7b102a30f5cda26208119ca3cf4acd2f4575a68f6fb3acabe1e16",
  "args": [],
  "numDeployments": 3,
  "solcInputHash": "bc6ad826a18af16b32a27323ee929a4d",
  "bytecode": "0x6080604052348015600f57600080fd5b50611a968061001f6000396000f3fe608060405234801561001057600080fd5b506004361061016c5760003560e01c806377d4937f116100cd578063b4a0bdf311610081578063c8ecc0d311610066578063c8ecc0d3146102ff578063e30c397814610313578063f2fde38b1461032457600080fd5b8063b4a0bdf3146102e5578063be26317e146102f657600080fd5b80638da5cb5b116100b25780638da5cb5b14610286578063998f607114610297578063a69bd19e146102aa57600080fd5b806377d4937f1461026b57806379ba50971461027e57600080fd5b806353ac353711610124578063601bb5a911610109578063601bb5a91461023d57806364aff9ec14610250578063715018a61461026357600080fd5b806353ac3537146101ff5780635dbe35331461021257600080fd5b806319b1faef1161015557806319b1faef146101ac5780632e688141146101d85780632eef9172146101eb57600080fd5b80630a9837c5146101715780630e32cb8614610197575b600080fd5b61018461017f3660046115eb565b610337565b6040519081526020015b60405180910390f35b6101aa6101a5366004611617565b610499565b005b61012e546101c0906001600160a01b031681565b6040516001600160a01b03909116815260200161018e565b6101aa6101e6366004611617565b6104ad565b610163546101c0906001600160a01b031681565b6101aa61020d36600461163b565b610534565b61018461022036600461167c565b60ca60209081526000928352604080842090915290825290205481565b6101aa61024b366004611617565b610609565b6101aa61025e36600461163b565b610690565b6101aa610738565b6101aa610279366004611617565b61074c565b6101aa6107d3565b6033546001600160a01b03166101c0565b6101aa6102a53660046116b5565b610878565b6101846102b8366004611617565b6001600160a01b03908116600090815260ca6020908152604080832061012d549094168352929052205490565b6097546001600160a01b03166101c0565b61018460fb5481565b61012d546101c0906001600160a01b031681565b6065546001600160a01b03166101c0565b6101aa610332366004611617565b6109d5565b6000610341610a5e565b6001600160a01b03838116600090815260ca6020908152604080832061012d548516845290915290205461012e5490911633146103aa576040517fe7792c3b00000000000000000000000000000000000000000000000000000000815260040160405180910390fd5b80831115610402576040517f5f1b50b80000000000000000000000000000000000000000000000000000000081526001600160a01b038516600482015260248101849052604481018290526064015b60405180910390fd5b6001600160a01b03808516600090815260ca6020908152604080832061012d8054861685529252909120858403905561012e54905461044692908116911685610ad3565b836001600160a01b03167fc8d0a37ed16dfaa43514df00e18f478b60d5cc7b4bfc687103948b9020f737fd8460405161048191815260200190565b60405180910390a25050600161013155805b92915050565b6104a1610b53565b6104aa81610bc7565b50565b6104b5610b53565b6104be81610cd6565b61012d546040516001600160a01b038084169216907f5fa61583da12070720613fefdd68cc6c0e464a71e009742526bd2b2e0ac62cd290600090a361012d80547fffffffffffffffffffffffff0000000000000000000000000000000000000000166001600160a01b0392909216919091179055565b610163546001600160a01b03163314610579576040517fece95bc800000000000000000000000000000000000000000000000000000000815260040160405180910390fd5b6001600160a01b03808416600090815260ca60209081526040808320938616835292905290812080548392906105b0908490611735565b92505081905550816001600160a01b0316836001600160a01b03167f17452316fd883c456b01c6722a103031ccd3cf17a1dabdbf96cd1109652d6110836040516105fc91815260200190565b60405180910390a3505050565b610611610b53565b61061a81610cd6565b610163546040516001600160a01b038084169216907f49ca267ed5631dd7b16589efad418137b8fb106674777fc37d2cb82e853dbd2790600090a361016380547fffffffffffffffffffffffff0000000000000000000000000000000000000000166001600160a01b0392909216919091179055565b610698610b53565b6106a0610a5e565b6106a983610cd6565b6106b282610cd6565b6106bb81610d16565b826106c68183610d50565b6106da6001600160a01b0382168484610ad3565b826001600160a01b0316846001600160a01b03167f6d25be279134f4ecaa4770aff0c3d916d9e7c5ef37b65ed95dbdba411f5d54d58460405161071f91815260200190565b60405180910390a350610733600161013155565b505050565b610740610b53565b61074a6000611174565b565b610754610b53565b61075d81610cd6565b61012e546040516001600160a01b038084169216907fb6e5fcf02f7fbb8acfbaa3bac4fd5abf9ff51e3f2e8884b5498927179b211b2890600090a361012e80547fffffffffffffffffffffffff0000000000000000000000000000000000000000166001600160a01b0392909216919091179055565b60655433906001600160a01b0316811461086f576040517f08c379a000000000000000000000000000000000000000000000000000000000815260206004820152602960248201527f4f776e61626c6532537465703a2063616c6c6572206973206e6f74207468652060448201527f6e6577206f776e6572000000000000000000000000000000000000000000000060648201526084016103f9565b6104aa81611174565b610880610a5e565b6108a1604051806060016040528060338152602001611a2e603391396111a5565b6108aa84610cd6565b6108b383610cd6565b6108bc82610cd6565b6108c581610d16565b6001600160a01b03808416600090815260ca60209081526040808320938816835292905220548082111561093e576040517f5f1b50b80000000000000000000000000000000000000000000000000000000081526001600160a01b038516600482015260248101839052604481018290526064016103f9565b6001600160a01b03808516600090815260ca602090815260408083209389168084529390915290208383039055610976908484610ad3565b836001600160a01b0316856001600160a01b03167f0e8a97dff226f3ada9da954f9bd38f73280b03ef851bfc7c97db1343f07bdbdc846040516109bb91815260200190565b60405180910390a3506109cf600161013155565b50505050565b6109dd610b53565b606580546001600160a01b0383167fffffffffffffffffffffffff00000000000000000000000000000000000000009091168117909155610a266033546001600160a01b031690565b6001600160a01b03167f38d16b8cac22d99fc7c124b9cd0de2d3fa1faef420bfe791d8c362d765e2270060405160405180910390a350565b60026101315403610acb576040517f08c379a000000000000000000000000000000000000000000000000000000000815260206004820152601f60248201527f5265656e7472616e637947756172643a207265656e7472616e742063616c6c0060448201526064016103f9565b600261013155565b604080516001600160a01b038416602482015260448082018490528251808303909101815260649091019091526020810180517bffffffffffffffffffffffffffffffffffffffffffffffffffffffff167fa9059cbb00000000000000000000000000000000000000000000000000000000179052610733908490611275565b6033546001600160a01b0316331461074a576040517f08c379a000000000000000000000000000000000000000000000000000000000815260206004820181905260248201527f4f776e61626c653a2063616c6c6572206973206e6f7420746865206f776e657260448201526064016103f9565b6001600160a01b038116610c5d576040517f08c379a000000000000000000000000000000000000000000000000000000000815260206004820152602560248201527f696e76616c696420616365737320636f6e74726f6c206d616e6167657220616460448201527f647265737300000000000000000000000000000000000000000000000000000060648201526084016103f9565b609780546001600160a01b038381167fffffffffffffffffffffffff000000000000000000000000000000000000000083168117909355604080519190921680825260208201939093527f66fd58e82f7b31a2a5c30e0888f3093efe4e111b00cd2b0c31fe014601293aa0910160405180910390a15050565b6001600160a01b0381166104aa576040517f8579befe00000000000000000000000000000000000000000000000000000000815260040160405180910390fd5b806000036104aa576040517f9cf8540c00000000000000000000000000000000000000000000000000000000815260040160405180910390fd5b6040517f70a082310000000000000000000000000000000000000000000000000000000081523060048201526000906001600160a01b038416906370a0823190602401602060405180830381865afa158015610db0573d6000803e3d6000fd5b505050506040513d601f19601f82011682018060405250810190610dd49190611748565b905080821115610e10576040517ff4d678b800000000000000000000000000000000000000000000000000000000815260040160405180910390fd5b610163546040517f5c39f4670000000000000000000000000000000000000000000000000000000081526001600160a01b0385811660048301526000921690635c39f46790602401600060405180830381865afa158015610e75573d6000803e3d6000fd5b505050506040513d6000823e601f3d9081017fffffffffffffffffffffffffffffffffffffffffffffffffffffffffffffffe0168201604052610ebb91908101906117a0565b8051909150600090815b81811015610f445760ca6000858381518110610ee357610ee3611883565b60200260200101516001600160a01b03166001600160a01b031681526020019081526020016000206000886001600160a01b03166001600160a01b031681526020019081526020016000205483610f3a9190611735565b9250600101610ec5565b506000610f5183866118b2565b90508581101561116b578086036000805b848110156111675760ca6000888381518110610f8057610f80611883565b60200260200101516001600160a01b03166001600160a01b0316815260200190815260200160002060008b6001600160a01b03166001600160a01b031681526020019081526020016000205460001461115f576000610fe06001876118b2565b82101561107257868a60ca60008b8681518110610fff57610fff611883565b60200260200101516001600160a01b03166001600160a01b0316815260200190815260200160002060008e6001600160a01b03166001600160a01b031681526020019081526020016000205461105591906118c5565b61105f91906118dc565b905061106b8184611735565b925061107f565b61107c83856118b2565b90505b8060ca60008a858151811061109657611096611883565b60200260200101516001600160a01b03166001600160a01b0316815260200190815260200160002060008d6001600160a01b03166001600160a01b0316815260200190815260200160002060008282546110f091906118b2565b925050819055508a6001600160a01b031688838151811061111357611113611883565b60200260200101516001600160a01b03167fdfbd88fdb255ea04a0084e45259969bdf724b3fbd610a114da4a0dd51bd843208360405161115591815260200190565b60405180910390a3505b600101610f62565b5050505b50505050505050565b606580547fffffffffffffffffffffffff00000000000000000000000000000000000000001690556104aa81611377565b6097546040517f18c5e8ab0000000000000000000000000000000000000000000000000000000081526000916001600160a01b0316906318c5e8ab906111f19033908690600401611985565b602060405180830381865afa15801561120e573d6000803e3d6000fd5b505050506040513d601f19601f8201168201806040525081019061123291906119a7565b905080611271573330836040517f4a3fa2930000000000000000000000000000000000000000000000000000000081526004016103f9939291906119c9565b5050565b60006112ca826040518060400160405280602081526020017f5361666545524332303a206c6f772d6c6576656c2063616c6c206661696c6564815250856001600160a01b03166113e19092919063ffffffff16565b90508051600014806112eb5750808060200190518101906112eb91906119a7565b610733576040517f08c379a000000000000000000000000000000000000000000000000000000000815260206004820152602a60248201527f5361666545524332303a204552433230206f7065726174696f6e20646964206e60448201527f6f7420737563636565640000000000000000000000000000000000000000000060648201526084016103f9565b603380546001600160a01b038381167fffffffffffffffffffffffff0000000000000000000000000000000000000000831681179093556040519116919082907f8be0079c531659141344cd1fd0a4f28419497f9722a3daafe3b4186f6b6457e090600090a35050565b60606113f084846000856113f8565b949350505050565b60608247101561148a576040517f08c379a000000000000000000000000000000000000000000000000000000000815260206004820152602660248201527f416464726573733a20696e73756666696369656e742062616c616e636520666f60448201527f722063616c6c000000000000000000000000000000000000000000000000000060648201526084016103f9565b600080866001600160a01b031685876040516114a691906119fe565b60006040518083038185875af1925050503d80600081146114e3576040519150601f19603f3d011682016040523d82523d6000602084013e6114e8565b606091505b50915091506114f987838387611504565b979650505050505050565b6060831561158d578251600003611586576001600160a01b0385163b611586576040517f08c379a000000000000000000000000000000000000000000000000000000000815260206004820152601d60248201527f416464726573733a2063616c6c20746f206e6f6e2d636f6e747261637400000060448201526064016103f9565b50816113f0565b6113f083838151156115a25781518083602001fd5b806040517f08c379a00000000000000000000000000000000000000000000000000000000081526004016103f99190611a1a565b6001600160a01b03811681146104aa57600080fd5b600080604083850312156115fe57600080fd5b8235611609816115d6565b946020939093013593505050565b60006020828403121561162957600080fd5b8135611634816115d6565b9392505050565b60008060006060848603121561165057600080fd5b833561165b816115d6565b9250602084013561166b816115d6565b929592945050506040919091013590565b6000806040838503121561168f57600080fd5b823561169a816115d6565b915060208301356116aa816115d6565b809150509250929050565b600080600080608085870312156116cb57600080fd5b84356116d6816115d6565b935060208501356116e6816115d6565b925060408501356116f6816115d6565b9396929550929360600135925050565b7f4e487b7100000000000000000000000000000000000000000000000000000000600052601160045260246000fd5b8082018082111561049357610493611706565b60006020828403121561175a57600080fd5b5051919050565b7f4e487b7100000000000000000000000000000000000000000000000000000000600052604160045260246000fd5b805161179b816115d6565b919050565b600060208083850312156117b357600080fd5b825167ffffffffffffffff808211156117cb57600080fd5b818501915085601f8301126117df57600080fd5b8151818111156117f1576117f1611761565b8060051b6040517fffffffffffffffffffffffffffffffffffffffffffffffffffffffffffffffe0603f8301168101818110858211171561183457611834611761565b60405291825284820192508381018501918883111561185257600080fd5b938501935b828510156118775761186885611790565b84529385019392850192611857565b98975050505050505050565b7f4e487b7100000000000000000000000000000000000000000000000000000000600052603260045260246000fd5b8181038181111561049357610493611706565b808202811582820484141761049357610493611706565b600082611912577f4e487b7100000000000000000000000000000000000000000000000000000000600052601260045260246000fd5b500490565b60005b8381101561193257818101518382015260200161191a565b50506000910152565b60008151808452611953816020860160208601611917565b601f017fffffffffffffffffffffffffffffffffffffffffffffffffffffffffffffffe0169290920160200192915050565b6001600160a01b03831681526040602082015260006113f0604083018461193b565b6000602082840312156119b957600080fd5b8151801515811461163457600080fd5b60006001600160a01b038086168352808516602084015250606060408301526119f5606083018461193b565b95945050505050565b60008251611a10818460208701611917565b9190910192915050565b602081526000611634602083018461193b56fe7377656570546f6b656e46726f6d506f6f6c28616464726573732c616464726573732c616464726573732c75696e7432353629a26469706673582212207268f12e5d884181603caedc5638d2976e89a7e80f6012d777c153529e317e1564736f6c63430008190033",
  "devdoc": {
    "author": "Venus",
    "custom:security-contact": "https://github.com/VenusProtocol/protocol-reserve#discussion",
    "details": "This contract does not support BNB",
    "events": {
      "Initialized(uint8)": {
        "details": "Triggered when the contract has been initialized or reinitialized."
      }
    },
    "kind": "dev",
    "methods": {
      "acceptOwnership()": {
        "details": "The new owner accepts the ownership transfer."
      },
      "getPoolsBaseAssetReserves(address)": {
        "params": {
          "comptroller": "Comptroller address(pool)."
        },
        "returns": {
          "_0": "Base Asset's reserve in risk fund."
        }
      },
      "owner()": {
        "details": "Returns the address of the current owner."
      },
      "pendingOwner()": {
        "details": "Returns the address of the pending owner."
      },
      "renounceOwnership()": {
        "details": "Leaves the contract without owner. It will not be possible to call `onlyOwner` functions. Can only be called by the current owner. NOTE: Renouncing ownership will leave the contract without an owner, thereby disabling any functionality that is only available to the owner."
      },
      "setAccessControlManager(address)": {
        "custom:access": "Only Governance",
        "custom:event": "Emits NewAccessControlManager event",
        "details": "Admin function to set address of AccessControlManager",
        "params": {
          "accessControlManager_": "The new address of the AccessControlManager"
        }
      },
      "setConvertibleBaseAsset(address)": {
        "custom:access": "Only Governance",
        "custom:error": "ZeroAddressNotAllowed is thrown when convertible base asset address is zero",
        "custom:event": "ConvertibleBaseAssetUpdated emit on success",
        "details": "Convertible base asset setter",
        "params": {
          "convertibleBaseAsset_": "Address of the convertible base asset"
        }
      },
      "setRiskFundConverter(address)": {
        "custom:access": "Only Governance",
        "custom:error": "ZeroAddressNotAllowed is thrown when risk fund converter address is zero",
        "custom:event": "RiskFundConverterUpdated emit on success",
        "details": "Risk fund converter setter",
        "params": {
          "riskFundConverter_": "Address of the risk fund converter"
        }
      },
      "setShortfallContractAddress(address)": {
        "custom:access": "Only Governance",
        "custom:error": "ZeroAddressNotAllowed is thrown when shortfall contract address is zero",
        "custom:event": "ShortfallContractUpdated emit on success",
        "details": "Shortfall contract address setter",
        "params": {
          "shortfallContractAddress_": "Address of the auction contract"
        }
      },
      "sweepToken(address,address,uint256)": {
        "custom:access": "Only Governance",
        "custom:error": "ZeroAddressNotAllowed is thrown when tokenAddress/to address is zeroZeroValueNotAllowed is thrown when amount is zero",
        "custom:event": "Emits SweepToken event on success",
        "params": {
          "amount": "Amount need to sweep for the pool",
          "to": "Address to which assets will be transferred",
          "tokenAddress": "Address of the asset(token)"
        }
      },
      "sweepTokenFromPool(address,address,address,uint256)": {
        "custom:access": "Only Governance",
        "custom:error": "ZeroAddressNotAllowed is thrown when tokenAddress/comptroller address is zeroZeroValueNotAllowed is thrown when amount is zero",
        "custom:event": "Emits sweepTokenFromPool event on success",
        "params": {
          "amount": "Amount need to sweep from the pool",
          "comptroller": "Pool address that the assets belong to",
          "receiver": "The receiver of the funds",
          "tokenAddress": "Address of the asset(token)"
        }
      },
      "transferOwnership(address)": {
        "details": "Starts the ownership transfer of the contract to a new account. Replaces the pending transfer if there is one. Can only be called by the current owner."
      },
      "transferReserveForAuction(address,uint256)": {
        "custom:access": "Only Shortfall contract",
        "custom:error": "InvalidShortfallAddress is thrown when caller is not shortfall contractInsufficientPoolReserve is thrown when pool reserve is less than the amount needed",
        "custom:event": "TransferredReserveForAuction emit on success",
        "details": "Transfer tokens for auction to shortfall contract",
        "params": {
          "amount": "Amount to be transferred to the shortfall",
          "comptroller": "Comptroller of the pool"
        },
        "returns": {
          "_0": "Amount of tokens transferred to the shortfall"
        }
      },
      "updatePoolState(address,address,uint256)": {
        "custom:access": "Only RiskFundConverter contract",
        "custom:error": "InvalidRiskFundConverter is thrown if caller is not riskFundConverter contract",
        "custom:event": "PoolAssetsIncreased emits on success",
        "details": "Update the reserve of the asset for the specific pool after transferring to risk fund",
        "params": {
          "amount": "Amount transferred for the pool",
          "asset": "Address of the asset(token)",
          "comptroller": "Comptroller address (pool)"
        }
      }
    },
    "title": "RiskFundV2",
    "version": 1
  },
  "userdoc": {
    "errors": {
      "InsufficientBalance()": [
        {
          "notice": "thrown when amount entered is greater than balance"
        }
      ],
      "InsufficientPoolReserve(address,uint256,uint256)": [
        {
          "notice": "Error is thrown when pool reserve is less than the amount needed"
        }
      ],
      "InvalidRiskFundConverter()": [
        {
          "notice": "Error is thrown when updatePoolState is not called by riskFundConverter"
        }
      ],
      "InvalidShortfallAddress()": [
        {
          "notice": "Error is thrown when transferReserveForAuction is called by non shortfall address"
        }
      ],
      "Unauthorized(address,address,string)": [
        {
          "notice": "Thrown when the action is prohibited by AccessControlManager"
        }
      ],
      "ZeroAddressNotAllowed()": [
        {
          "notice": "Thrown if the supplied address is a zero address where it is not allowed"
        }
      ],
      "ZeroValueNotAllowed()": [
        {
          "notice": "Thrown if the supplied value is 0 where it is not allowed"
        }
      ]
    },
    "events": {
      "ConvertibleBaseAssetUpdated(address,address)": {
        "notice": "Emitted when convertible base asset address is updated"
      },
      "NewAccessControlManager(address,address)": {
        "notice": "Emitted when access control manager contract address is changed"
      },
      "PoolAssetsDecreased(address,address,uint256)": {
        "notice": "Emitted when pool asset states is updated with amount transferred from this contract on sweeping tokens"
      },
      "PoolAssetsIncreased(address,address,uint256)": {
        "notice": "Emitted when pool asset states is updated with amount transferred to this contract"
      },
      "RiskFundConverterUpdated(address,address)": {
        "notice": "Emitted when risk fund converter address is updated"
      },
      "ShortfallContractUpdated(address,address)": {
        "notice": "Emitted when shortfall contract address is updated"
      },
      "SweepToken(address,address,uint256)": {
        "notice": "Event emitted when tokens are swept"
      },
      "SweepTokenFromPool(address,address,uint256)": {
        "notice": "Event emitted when tokens are swept and transferred from pool"
      },
      "TransferredReserveForAuction(address,uint256)": {
        "notice": "Emitted when reserves are transferred for auction"
      }
    },
    "kind": "user",
    "methods": {
      "accessControlManager()": {
        "notice": "Returns the address of the access control manager contract"
      },
      "convertibleBaseAsset()": {
        "notice": "Address of base asset"
      },
      "getPoolsBaseAssetReserves(address)": {
        "notice": "Get the Amount of the Base asset in the risk fund for the specific pool."
      },
      "maxLoopsLimit()": {
        "notice": "Limit for the loops to avoid the DOSThis state is deprecated, using it to prevent storage collision"
      },
      "poolAssetsFunds(address,address)": {
        "notice": "Available asset's fund per pool in RiskFund Comptroller(pool) -> Asset -> amount"
      },
      "riskFundConverter()": {
        "notice": "Risk fund converter address"
      },
      "setAccessControlManager(address)": {
        "notice": "Sets the address of AccessControlManager"
      },
      "shortfall()": {
        "notice": "Address of shortfall contract"
      },
      "sweepToken(address,address,uint256)": {
        "notice": "Function to sweep baseAsset for pool, Tokens are sent to address(to)"
      },
      "sweepTokenFromPool(address,address,address,uint256)": {
        "notice": "Function to sweep token from pool"
      }
    },
    "notice": "Contract with basic features to hold base asset for different Comptrollers",
    "version": 1
  },
  "storageLayout": {
    "storage": [
      {
        "astId": 244,
        "contract": "contracts/ProtocolReserve/RiskFundV2.sol:RiskFundV2",
        "label": "_initialized",
        "offset": 0,
        "slot": "0",
        "type": "t_uint8"
      },
      {
        "astId": 247,
        "contract": "contracts/ProtocolReserve/RiskFundV2.sol:RiskFundV2",
        "label": "_initializing",
        "offset": 1,
        "slot": "0",
        "type": "t_bool"
      },
      {
        "astId": 1351,
        "contract": "contracts/ProtocolReserve/RiskFundV2.sol:RiskFundV2",
        "label": "__gap",
        "offset": 0,
        "slot": "1",
        "type": "t_array(t_uint256)50_storage"
      },
      {
        "astId": 116,
        "contract": "contracts/ProtocolReserve/RiskFundV2.sol:RiskFundV2",
        "label": "_owner",
        "offset": 0,
        "slot": "51",
        "type": "t_address"
      },
      {
        "astId": 236,
        "contract": "contracts/ProtocolReserve/RiskFundV2.sol:RiskFundV2",
        "label": "__gap",
        "offset": 0,
        "slot": "52",
        "type": "t_array(t_uint256)49_storage"
      },
      {
        "astId": 25,
        "contract": "contracts/ProtocolReserve/RiskFundV2.sol:RiskFundV2",
        "label": "_pendingOwner",
        "offset": 0,
        "slot": "101",
        "type": "t_address"
      },
      {
        "astId": 104,
        "contract": "contracts/ProtocolReserve/RiskFundV2.sol:RiskFundV2",
        "label": "__gap",
        "offset": 0,
        "slot": "102",
        "type": "t_array(t_uint256)49_storage"
      },
      {
        "astId": 1439,
        "contract": "contracts/ProtocolReserve/RiskFundV2.sol:RiskFundV2",
        "label": "_accessControlManager",
        "offset": 0,
        "slot": "151",
        "type": "t_contract(IAccessControlManagerV8)1624"
      },
      {
        "astId": 1444,
        "contract": "contracts/ProtocolReserve/RiskFundV2.sol:RiskFundV2",
        "label": "__gap",
        "offset": 0,
        "slot": "152",
        "type": "t_array(t_uint256)49_storage"
      },
      {
        "astId": 1731,
        "contract": "contracts/ProtocolReserve/RiskFundV2.sol:RiskFundV2",
        "label": "__deprecatedSlot1",
        "offset": 0,
        "slot": "201",
        "type": "t_bytes32"
      },
      {
        "astId": 1738,
        "contract": "contracts/ProtocolReserve/RiskFundV2.sol:RiskFundV2",
        "label": "poolAssetsFunds",
        "offset": 0,
        "slot": "202",
        "type": "t_mapping(t_address,t_mapping(t_address,t_uint256))"
      },
      {
        "astId": 1741,
        "contract": "contracts/ProtocolReserve/RiskFundV2.sol:RiskFundV2",
        "label": "__deprecatedSlot2",
        "offset": 0,
        "slot": "203",
        "type": "t_bytes32"
      },
      {
        "astId": 1744,
        "contract": "contracts/ProtocolReserve/RiskFundV2.sol:RiskFundV2",
        "label": "__deprecatedSlot3",
        "offset": 0,
        "slot": "204",
        "type": "t_bytes32"
      },
      {
        "astId": 1749,
        "contract": "contracts/ProtocolReserve/RiskFundV2.sol:RiskFundV2",
        "label": "__gap",
        "offset": 0,
        "slot": "205",
        "type": "t_array(t_uint256)46_storage"
      },
      {
        "astId": 1754,
        "contract": "contracts/ProtocolReserve/RiskFundV2.sol:RiskFundV2",
        "label": "maxLoopsLimit",
        "offset": 0,
        "slot": "251",
        "type": "t_uint256"
      },
      {
        "astId": 1759,
        "contract": "contracts/ProtocolReserve/RiskFundV2.sol:RiskFundV2",
        "label": "__gap",
        "offset": 0,
        "slot": "252",
        "type": "t_array(t_uint256)49_storage"
      },
      {
        "astId": 1768,
        "contract": "contracts/ProtocolReserve/RiskFundV2.sol:RiskFundV2",
        "label": "convertibleBaseAsset",
        "offset": 0,
        "slot": "301",
        "type": "t_address"
      },
      {
        "astId": 1771,
        "contract": "contracts/ProtocolReserve/RiskFundV2.sol:RiskFundV2",
        "label": "shortfall",
        "offset": 0,
        "slot": "302",
        "type": "t_address"
      },
      {
        "astId": 1774,
        "contract": "contracts/ProtocolReserve/RiskFundV2.sol:RiskFundV2",
        "label": "pancakeSwapRouter",
        "offset": 0,
        "slot": "303",
        "type": "t_address"
      },
      {
        "astId": 1777,
        "contract": "contracts/ProtocolReserve/RiskFundV2.sol:RiskFundV2",
        "label": "minAmountToConvert",
        "offset": 0,
        "slot": "304",
        "type": "t_uint256"
      },
      {
        "astId": 420,
        "contract": "contracts/ProtocolReserve/RiskFundV2.sol:RiskFundV2",
        "label": "_status",
        "offset": 0,
        "slot": "305",
        "type": "t_uint256"
      },
      {
        "astId": 489,
        "contract": "contracts/ProtocolReserve/RiskFundV2.sol:RiskFundV2",
        "label": "__gap",
        "offset": 0,
        "slot": "306",
        "type": "t_array(t_uint256)49_storage"
      },
      {
        "astId": 1786,
        "contract": "contracts/ProtocolReserve/RiskFundV2.sol:RiskFundV2",
        "label": "riskFundConverter",
        "offset": 0,
        "slot": "355",
        "type": "t_address"
      }
    ],
    "types": {
      "t_address": {
        "encoding": "inplace",
        "label": "address",
        "numberOfBytes": "20"
      },
      "t_array(t_uint256)46_storage": {
        "base": "t_uint256",
        "encoding": "inplace",
        "label": "uint256[46]",
        "numberOfBytes": "1472"
      },
      "t_array(t_uint256)49_storage": {
        "base": "t_uint256",
        "encoding": "inplace",
        "label": "uint256[49]",
        "numberOfBytes": "1568"
      },
      "t_array(t_uint256)50_storage": {
        "base": "t_uint256",
        "encoding": "inplace",
        "label": "uint256[50]",
        "numberOfBytes": "1600"
      },
      "t_bool": {
        "encoding": "inplace",
        "label": "bool",
        "numberOfBytes": "1"
      },
      "t_bytes32": {
        "encoding": "inplace",
        "label": "bytes32",
        "numberOfBytes": "32"
      },
      "t_contract(IAccessControlManagerV8)1624": {
        "encoding": "inplace",
        "label": "contract IAccessControlManagerV8",
        "numberOfBytes": "20"
      },
      "t_mapping(t_address,t_mapping(t_address,t_uint256))": {
        "encoding": "mapping",
        "key": "t_address",
        "label": "mapping(address => mapping(address => uint256))",
        "numberOfBytes": "32",
        "value": "t_mapping(t_address,t_uint256)"
      },
      "t_mapping(t_address,t_uint256)": {
        "encoding": "mapping",
        "key": "t_address",
        "label": "mapping(address => uint256)",
        "numberOfBytes": "32",
        "value": "t_uint256"
      },
      "t_uint256": {
        "encoding": "inplace",
        "label": "uint256",
        "numberOfBytes": "32"
      },
      "t_uint8": {
        "encoding": "inplace",
        "label": "uint8",
        "numberOfBytes": "1"
      }
    }
  }
}