{
  "address": "0x3AD53bDAD07302259B72C34b111C37a0486f68C2",
  "abi": [
    {
      "inputs": [
        {
          "internalType": "address",
          "name": "xvsAddress_",
          "type": "address"
        }
      ],
      "stateMutability": "nonpayable",
      "type": "constructor"
    },
    {
      "inputs": [],
      "name": "InsufficientBalance",
      "type": "error"
    },
    {
      "inputs": [
        {
          "internalType": "address",
          "name": "sender",
          "type": "address"
        },
        {
          "internalType": "address",
          "name": "calledContract",
          "type": "address"
        },
        {
          "internalType": "string",
          "name": "methodSignature",
          "type": "string"
        }
      ],
      "name": "Unauthorized",
      "type": "error"
    },
    {
      "inputs": [],
      "name": "ZeroAddressNotAllowed",
      "type": "error"
    },
    {
      "inputs": [],
      "name": "ZeroValueNotAllowed",
      "type": "error"
    },
    {
      "anonymous": false,
      "inputs": [
        {
          "indexed": true,
          "internalType": "address",
          "name": "xvsStore",
          "type": "address"
        },
        {
          "indexed": false,
          "internalType": "uint256",
          "name": "amountMantissa",
          "type": "uint256"
        }
      ],
      "name": "FundsTransferredToXVSStore",
      "type": "event"
    },
    {
      "anonymous": false,
      "inputs": [
        {
          "indexed": false,
          "internalType": "uint8",
          "name": "version",
          "type": "uint8"
        }
      ],
      "name": "Initialized",
      "type": "event"
    },
    {
      "anonymous": false,
      "inputs": [
        {
          "indexed": false,
          "internalType": "address",
          "name": "oldAccessControlManager",
          "type": "address"
        },
        {
          "indexed": false,
          "internalType": "address",
          "name": "newAccessControlManager",
          "type": "address"
        }
      ],
      "name": "NewAccessControlManager",
      "type": "event"
    },
    {
      "anonymous": false,
      "inputs": [
        {
          "indexed": true,
          "internalType": "address",
          "name": "previousOwner",
          "type": "address"
        },
        {
          "indexed": true,
          "internalType": "address",
          "name": "newOwner",
          "type": "address"
        }
      ],
      "name": "OwnershipTransferStarted",
      "type": "event"
    },
    {
      "anonymous": false,
      "inputs": [
        {
          "indexed": true,
          "internalType": "address",
          "name": "previousOwner",
          "type": "address"
        },
        {
          "indexed": true,
          "internalType": "address",
          "name": "newOwner",
          "type": "address"
        }
      ],
      "name": "OwnershipTransferred",
      "type": "event"
    },
    {
      "anonymous": false,
      "inputs": [
        {
          "indexed": true,
          "internalType": "address",
          "name": "token",
          "type": "address"
        },
        {
          "indexed": true,
          "internalType": "address",
          "name": "to",
          "type": "address"
        },
        {
          "indexed": false,
          "internalType": "uint256",
          "name": "amount",
          "type": "uint256"
        }
      ],
      "name": "SweepToken",
      "type": "event"
    },
    {
      "anonymous": false,
      "inputs": [
        {
          "indexed": true,
          "internalType": "address",
          "name": "oldXVSVault",
          "type": "address"
        },
        {
          "indexed": true,
          "internalType": "address",
          "name": "newXVSVault",
          "type": "address"
        }
      ],
      "name": "XVSVaultUpdated",
      "type": "event"
    },
    {
      "inputs": [],
      "name": "XVS_ADDRESS",
      "outputs": [
        {
          "internalType": "address",
          "name": "",
          "type": "address"
        }
      ],
      "stateMutability": "view",
      "type": "function"
    },
    {
      "inputs": [],
      "name": "acceptOwnership",
      "outputs": [],
      "stateMutability": "nonpayable",
      "type": "function"
    },
    {
      "inputs": [],
      "name": "accessControlManager",
      "outputs": [
        {
          "internalType": "contract IAccessControlManagerV8",
          "name": "",
          "type": "address"
        }
      ],
      "stateMutability": "view",
      "type": "function"
    },
    {
      "inputs": [
        {
          "internalType": "uint256",
          "name": "amountMantissa",
          "type": "uint256"
        }
      ],
      "name": "fundXVSVault",
      "outputs": [],
      "stateMutability": "nonpayable",
      "type": "function"
    },
    {
      "inputs": [
        {
          "internalType": "address",
          "name": "accessControlManager_",
          "type": "address"
        },
        {
          "internalType": "address",
          "name": "xvsVault_",
          "type": "address"
        }
      ],
      "name": "initialize",
      "outputs": [],
      "stateMutability": "nonpayable",
      "type": "function"
    },
    {
      "inputs": [],
      "name": "owner",
      "outputs": [
        {
          "internalType": "address",
          "name": "",
          "type": "address"
        }
      ],
      "stateMutability": "view",
      "type": "function"
    },
    {
      "inputs": [],
      "name": "pendingOwner",
      "outputs": [
        {
          "internalType": "address",
          "name": "",
          "type": "address"
        }
      ],
      "stateMutability": "view",
      "type": "function"
    },
    {
      "inputs": [],
      "name": "renounceOwnership",
      "outputs": [],
      "stateMutability": "nonpayable",
      "type": "function"
    },
    {
      "inputs": [
        {
          "internalType": "address",
          "name": "accessControlManager_",
          "type": "address"
        }
      ],
      "name": "setAccessControlManager",
      "outputs": [],
      "stateMutability": "nonpayable",
      "type": "function"
    },
    {
      "inputs": [
        {
          "internalType": "address",
          "name": "xvsVault_",
          "type": "address"
        }
      ],
      "name": "setXVSVault",
      "outputs": [],
      "stateMutability": "nonpayable",
      "type": "function"
    },
    {
      "inputs": [
        {
          "internalType": "address",
          "name": "tokenAddress",
          "type": "address"
        },
        {
          "internalType": "address",
          "name": "to",
          "type": "address"
        },
        {
          "internalType": "uint256",
          "name": "amount",
          "type": "uint256"
        }
      ],
      "name": "sweepToken",
      "outputs": [],
      "stateMutability": "nonpayable",
      "type": "function"
    },
    {
      "inputs": [
        {
          "internalType": "address",
          "name": "newOwner",
          "type": "address"
        }
      ],
      "name": "transferOwnership",
      "outputs": [],
      "stateMutability": "nonpayable",
      "type": "function"
    },
    {
      "inputs": [],
      "name": "xvsVault",
      "outputs": [
        {
          "internalType": "address",
          "name": "",
          "type": "address"
        }
      ],
      "stateMutability": "view",
      "type": "function"
    }
  ],
  "transactionHash": "0xa63332044195c36d9f8d4993f710df9451b48a404347046cdf815dba014ab5f5",
  "args": [
    "0x0000000000000000000000000000000000000001"
  ],
  "numDeployments": 2,
  "solcInputHash": "f56c48e0e517617d548c496f99aa8709",
  "bytecode": "0x60a06040523480156200001157600080fd5b506040516200177538038062001775833981016040819052620000349162000149565b6200003f816200005d565b6001600160a01b0381166080526200005662000088565b506200017b565b6001600160a01b03811662000085576040516342bcdf7f60e11b815260040160405180910390fd5b50565b600054610100900460ff1615620000f55760405162461bcd60e51b815260206004820152602760248201527f496e697469616c697a61626c653a20636f6e747261637420697320696e697469604482015266616c697a696e6760c81b606482015260840160405180910390fd5b60005460ff9081161462000147576000805460ff191660ff9081179091556040519081527f7f26b83ff96e1f2b6a682f133852f6798a09c465da95921460cefb38474024989060200160405180910390a15b565b6000602082840312156200015c57600080fd5b81516001600160a01b03811681146200017457600080fd5b9392505050565b6080516115d0620001a56000396000818161016d015281816105d3015261074801526115d06000f3fe608060405234801561001057600080fd5b50600436106100df5760003560e01c8063715018a61161008c5780639a02c39a116100665780639a02c39a146101d0578063b4a0bdf3146101e3578063e30c397814610201578063f2fde38b1461021f57600080fd5b8063715018a6146101a257806379ba5097146101aa5780638da5cb5b146101b257600080fd5b8063485cc955116100bd578063485cc9551461015557806354a617ed1461016857806364aff9ec1461018f57600080fd5b80630e32cb86146100e457806314d35a63146100f95780631b9ce5751461010c575b600080fd5b6100f76100f2366004611371565b610232565b005b6100f7610107366004611371565b610246565b60fb5461012c9073ffffffffffffffffffffffffffffffffffffffff1681565b60405173ffffffffffffffffffffffffffffffffffffffff909116815260200160405180910390f35b6100f7610163366004611395565b610257565b61012c7f000000000000000000000000000000000000000000000000000000000000000081565b6100f761019d3660046113ce565b6103e8565b6100f76104a7565b6100f76104bb565b60335473ffffffffffffffffffffffffffffffffffffffff1661012c565b6100f76101de36600461140f565b610553565b60975473ffffffffffffffffffffffffffffffffffffffff1661012c565b60655473ffffffffffffffffffffffffffffffffffffffff1661012c565b6100f761022d366004611371565b6107cb565b61023a61087b565b610243816108e2565b50565b61024e61087b565b610243816109f1565b600054610100900460ff16158080156102775750600054600160ff909116105b806102915750303b158015610291575060005460ff166001145b6103085760405162461bcd60e51b815260206004820152602e60248201527f496e697469616c697a61626c653a20636f6e747261637420697320616c72656160448201527f647920696e697469616c697a656400000000000000000000000000000000000060648201526084015b60405180910390fd5b600080547fffffffffffffffffffffffffffffffffffffffffffffffffffffffffffffff00166001179055801561036657600080547fffffffffffffffffffffffffffffffffffffffffffffffffffffffffffff00ff166101001790555b61036f83610a88565b610377610b16565b610380826109f1565b80156103e357600080547fffffffffffffffffffffffffffffffffffffffffffffffffffffffffffff00ff169055604051600181527f7f26b83ff96e1f2b6a682f133852f6798a09c465da95921460cefb38474024989060200160405180910390a15b505050565b6103f061087b565b6103f8610b9b565b61040183610bf4565b61040a82610bf4565b61041381610c41565b8261043573ffffffffffffffffffffffffffffffffffffffff82168484610c7b565b8273ffffffffffffffffffffffffffffffffffffffff168473ffffffffffffffffffffffffffffffffffffffff167f6d25be279134f4ecaa4770aff0c3d916d9e7c5ef37b65ed95dbdba411f5d54d58460405161049491815260200190565b60405180910390a3506103e3600160c955565b6104af61087b565b6104b96000610d0f565b565b606554339073ffffffffffffffffffffffffffffffffffffffff16811461054a5760405162461bcd60e51b815260206004820152602960248201527f4f776e61626c6532537465703a2063616c6c6572206973206e6f74207468652060448201527f6e6577206f776e6572000000000000000000000000000000000000000000000060648201526084016102ff565b61024381610d0f565b61055b610b9b565b6105996040518060400160405280601581526020017f66756e645856535661756c742875696e74323536290000000000000000000000815250610d40565b6105a281610c41565b6040517f70a082310000000000000000000000000000000000000000000000000000000081523060048201526000907f000000000000000000000000000000000000000000000000000000000000000073ffffffffffffffffffffffffffffffffffffffff16906370a0823190602401602060405180830381865afa15801561062f573d6000803e3d6000fd5b505050506040513d601f19601f820116820180604052508101906106539190611428565b90508181101561068f576040517ff4d678b800000000000000000000000000000000000000000000000000000000815260040160405180910390fd5b60fb54604080517f24f52bbf000000000000000000000000000000000000000000000000000000008152905160009273ffffffffffffffffffffffffffffffffffffffff16916324f52bbf9160048083019260209291908290030181865afa1580156106ff573d6000803e3d6000fd5b505050506040513d601f19601f820116820180604052508101906107239190611441565b905061072e81610bf4565b61076f73ffffffffffffffffffffffffffffffffffffffff7f0000000000000000000000000000000000000000000000000000000000000000168285610c7b565b8073ffffffffffffffffffffffffffffffffffffffff167f15daab32014613a1f6e3f4500519c6ae9f7b172530faeac09157815d4f395381846040516107b791815260200190565b60405180910390a25050610243600160c955565b6107d361087b565b6065805473ffffffffffffffffffffffffffffffffffffffff83167fffffffffffffffffffffffff0000000000000000000000000000000000000000909116811790915561083660335473ffffffffffffffffffffffffffffffffffffffff1690565b73ffffffffffffffffffffffffffffffffffffffff167f38d16b8cac22d99fc7c124b9cd0de2d3fa1faef420bfe791d8c362d765e2270060405160405180910390a350565b60335473ffffffffffffffffffffffffffffffffffffffff1633146104b95760405162461bcd60e51b815260206004820181905260248201527f4f776e61626c653a2063616c6c6572206973206e6f7420746865206f776e657260448201526064016102ff565b73ffffffffffffffffffffffffffffffffffffffff811661096b5760405162461bcd60e51b815260206004820152602560248201527f696e76616c696420616365737320636f6e74726f6c206d616e6167657220616460448201527f647265737300000000000000000000000000000000000000000000000000000060648201526084016102ff565b6097805473ffffffffffffffffffffffffffffffffffffffff8381167fffffffffffffffffffffffff000000000000000000000000000000000000000083168117909355604080519190921680825260208201939093527f66fd58e82f7b31a2a5c30e0888f3093efe4e111b00cd2b0c31fe014601293aa0910160405180910390a15050565b6109fa81610bf4565b60fb5460405173ffffffffffffffffffffffffffffffffffffffff8084169216907f3bf9abe00ba7558b8031adf12ba72290510a001068b251cd4931a4199a78068a90600090a360fb80547fffffffffffffffffffffffff00000000000000000000000000000000000000001673ffffffffffffffffffffffffffffffffffffffff92909216919091179055565b600054610100900460ff16610b055760405162461bcd60e51b815260206004820152602b60248201527f496e697469616c697a61626c653a20636f6e7472616374206973206e6f74206960448201527f6e697469616c697a696e6700000000000000000000000000000000000000000060648201526084016102ff565b610b0d610e1d565b61024381610ea2565b600054610100900460ff16610b935760405162461bcd60e51b815260206004820152602b60248201527f496e697469616c697a61626c653a20636f6e7472616374206973206e6f74206960448201527f6e697469616c697a696e6700000000000000000000000000000000000000000060648201526084016102ff565b6104b9610f1f565b600260c95403610bed5760405162461bcd60e51b815260206004820152601f60248201527f5265656e7472616e637947756172643a207265656e7472616e742063616c6c0060448201526064016102ff565b600260c955565b73ffffffffffffffffffffffffffffffffffffffff8116610243576040517f8579befe00000000000000000000000000000000000000000000000000000000815260040160405180910390fd5b80600003610243576040517f9cf8540c00000000000000000000000000000000000000000000000000000000815260040160405180910390fd5b6040805173ffffffffffffffffffffffffffffffffffffffff8416602482015260448082018490528251808303909101815260649091019091526020810180517bffffffffffffffffffffffffffffffffffffffffffffffffffffffff167fa9059cbb000000000000000000000000000000000000000000000000000000001790526103e3908490610f9c565b600160c955565b606580547fffffffffffffffffffffffff000000000000000000000000000000000000000016905561024381611091565b6097546040517f18c5e8ab00000000000000000000000000000000000000000000000000000000815260009173ffffffffffffffffffffffffffffffffffffffff16906318c5e8ab90610d9990339086906004016114d8565b602060405180830381865afa158015610db6573d6000803e3d6000fd5b505050506040513d601f19601f82011682018060405250810190610dda9190611507565b905080610e19573330836040517f4a3fa2930000000000000000000000000000000000000000000000000000000081526004016102ff93929190611529565b5050565b600054610100900460ff16610e9a5760405162461bcd60e51b815260206004820152602b60248201527f496e697469616c697a61626c653a20636f6e7472616374206973206e6f74206960448201527f6e697469616c697a696e6700000000000000000000000000000000000000000060648201526084016102ff565b6104b9611108565b600054610100900460ff1661023a5760405162461bcd60e51b815260206004820152602b60248201527f496e697469616c697a61626c653a20636f6e7472616374206973206e6f74206960448201527f6e697469616c697a696e6700000000000000000000000000000000000000000060648201526084016102ff565b600054610100900460ff16610d085760405162461bcd60e51b815260206004820152602b60248201527f496e697469616c697a61626c653a20636f6e7472616374206973206e6f74206960448201527f6e697469616c697a696e6700000000000000000000000000000000000000000060648201526084016102ff565b6000610ffe826040518060400160405280602081526020017f5361666545524332303a206c6f772d6c6576656c2063616c6c206661696c65648152508573ffffffffffffffffffffffffffffffffffffffff1661118e9092919063ffffffff16565b905080516000148061101f57508080602001905181019061101f9190611507565b6103e35760405162461bcd60e51b815260206004820152602a60248201527f5361666545524332303a204552433230206f7065726174696f6e20646964206e60448201527f6f7420737563636565640000000000000000000000000000000000000000000060648201526084016102ff565b6033805473ffffffffffffffffffffffffffffffffffffffff8381167fffffffffffffffffffffffff0000000000000000000000000000000000000000831681179093556040519116919082907f8be0079c531659141344cd1fd0a4f28419497f9722a3daafe3b4186f6b6457e090600090a35050565b600054610100900460ff166111855760405162461bcd60e51b815260206004820152602b60248201527f496e697469616c697a61626c653a20636f6e7472616374206973206e6f74206960448201527f6e697469616c697a696e6700000000000000000000000000000000000000000060648201526084016102ff565b6104b933610d0f565b606061119d84846000856111a5565b949350505050565b60608247101561121d5760405162461bcd60e51b815260206004820152602660248201527f416464726573733a20696e73756666696369656e742062616c616e636520666f60448201527f722063616c6c000000000000000000000000000000000000000000000000000060648201526084016102ff565b6000808673ffffffffffffffffffffffffffffffffffffffff168587604051611246919061156b565b60006040518083038185875af1925050503d8060008114611283576040519150601f19603f3d011682016040523d82523d6000602084013e611288565b606091505b5091509150611299878383876112a4565b979650505050505050565b606083156113205782516000036113195773ffffffffffffffffffffffffffffffffffffffff85163b6113195760405162461bcd60e51b815260206004820152601d60248201527f416464726573733a2063616c6c20746f206e6f6e2d636f6e747261637400000060448201526064016102ff565b508161119d565b61119d83838151156113355781518083602001fd5b8060405162461bcd60e51b81526004016102ff9190611587565b73ffffffffffffffffffffffffffffffffffffffff8116811461024357600080fd5b60006020828403121561138357600080fd5b813561138e8161134f565b9392505050565b600080604083850312156113a857600080fd5b82356113b38161134f565b915060208301356113c38161134f565b809150509250929050565b6000806000606084860312156113e357600080fd5b83356113ee8161134f565b925060208401356113fe8161134f565b929592945050506040919091013590565b60006020828403121561142157600080fd5b5035919050565b60006020828403121561143a57600080fd5b5051919050565b60006020828403121561145357600080fd5b815161138e8161134f565b60005b83811015611479578181015183820152602001611461565b83811115611488576000848401525b50505050565b600081518084526114a681602086016020860161145e565b601f017fffffffffffffffffffffffffffffffffffffffffffffffffffffffffffffffe0169290920160200192915050565b73ffffffffffffffffffffffffffffffffffffffff8316815260406020820152600061119d604083018461148e565b60006020828403121561151957600080fd5b8151801515811461138e57600080fd5b600073ffffffffffffffffffffffffffffffffffffffff808616835280851660208401525060606040830152611562606083018461148e565b95945050505050565b6000825161157d81846020870161145e565b9190910192915050565b60208152600061138e602083018461148e56fea2646970667358221220239b948dcbf38526f71bfb9dad314eef1ad9589c6516f6b7fbb50ca0abf361f864736f6c634300080d0033",
  "devdoc": {
    "author": "Venus",
    "custom:security-contact": "https://github.com/VenusProtocol/protocol-reserve#discussion",
    "kind": "dev",
    "methods": {
      "acceptOwnership()": {
        "details": "The new owner accepts the ownership transfer."
      },
      "constructor": {
        "custom:oz-upgrades-unsafe-allow": "constructor",
        "params": {
          "xvsAddress_": "XVS token address"
        }
      },
      "fundXVSVault(uint256)": {
        "custom:access": "Restricted by ACM",
        "custom:error": "InsufficientBalance is thrown when amount entered is greater than balance",
        "custom:event": "FundsTransferredToXVSStore emits on success",
        "params": {
          "amountMantissa": "Amount to be sent to XVS vault"
        }
      },
      "initialize(address,address)": {
        "custom:error": "ZeroAddressNotAllowed is thrown when XVS vault address is zero",
        "custom:event": "XVSVaultUpdated emits on success",
        "params": {
          "accessControlManager_": "Access control manager contract address",
          "xvsVault_": "XVSVault address"
        }
      },
      "owner()": {
        "details": "Returns the address of the current owner."
      },
      "pendingOwner()": {
        "details": "Returns the address of the pending owner."
      },
      "renounceOwnership()": {
        "details": "Leaves the contract without owner. It will not be possible to call `onlyOwner` functions. Can only be called by the current owner. NOTE: Renouncing ownership will leave the contract without an owner, thereby disabling any functionality that is only available to the owner."
      },
      "setAccessControlManager(address)": {
        "custom:access": "Only Governance",
        "custom:event": "Emits NewAccessControlManager event",
        "details": "Admin function to set address of AccessControlManager",
        "params": {
          "accessControlManager_": "The new address of the AccessControlManager"
        }
      },
      "setXVSVault(address)": {
        "custom:error": "ZeroAddressNotAllowed is thrown when XVS vault address is zero",
        "custom:event": "XVSVaultUpdated emits on success",
        "details": "XVS vault setter",
        "params": {
          "xvsVault_": "Address of the XVS vault"
        }
      },
      "sweepToken(address,address,uint256)": {
        "custom:access": "Only Governance",
        "custom:error": "ZeroAddressNotAllowed is thrown when tokenAddress/to address is zeroZeroValueNotAllowed is thrown when amount is zero",
        "custom:event": "Emits SweepToken event on success",
        "params": {
          "amount": "Amount need to sweep for the contract",
          "to": "Address to which assets will be transferred",
          "tokenAddress": "Address of the asset(token)"
        }
      },
      "transferOwnership(address)": {
        "details": "Starts the ownership transfer of the contract to a new account. Replaces the pending transfer if there is one. Can only be called by the current owner."
      }
    },
    "stateVariables": {
      "XVS_ADDRESS": {
        "custom:oz-upgrades-unsafe-allow": "state-variable-immutable"
      }
    },
    "title": "XVSVaultTreasury",
    "version": 1
  },
  "userdoc": {
    "errors": {
      "InsufficientBalance()": [
        {
          "notice": "Thrown when given input amount is zero"
        }
      ],
      "Unauthorized(address,address,string)": [
        {
          "notice": "Thrown when the action is prohibited by AccessControlManager"
        }
      ],
      "ZeroAddressNotAllowed()": [
        {
          "notice": "Thrown if the supplied address is a zero address where it is not allowed"
        }
      ],
      "ZeroValueNotAllowed()": [
        {
          "notice": "Thrown if the supplied value is 0 where it is not allowed"
        }
      ]
    },
    "events": {
      "FundsTransferredToXVSStore(address,uint256)": {
        "notice": "Emitted when funds transferred to XVSStore address"
      },
      "NewAccessControlManager(address,address)": {
        "notice": "Emitted when access control manager contract address is changed"
      },
      "SweepToken(address,address,uint256)": {
        "notice": "Event emitted when tokens are swept"
      },
      "XVSVaultUpdated(address,address)": {
        "notice": "Emitted when XVS vault address is updated"
      }
    },
    "kind": "user",
    "methods": {
      "XVS_ADDRESS()": {
        "notice": "The xvs token address"
      },
      "accessControlManager()": {
        "notice": "Returns the address of the access control manager contract"
      },
      "fundXVSVault(uint256)": {
        "notice": "This function transfers funds to the XVS vault"
      },
      "setAccessControlManager(address)": {
        "notice": "Sets the address of AccessControlManager"
      },
      "sweepToken(address,address,uint256)": {
        "notice": "Function to sweep tokens from the contract"
      },
      "xvsVault()": {
        "notice": "The xvsvault address"
      }
    },
    "notice": "XVSVaultTreasury stores the tokens sent by SingleTokenConverter(XVS) and funds XVSVault",
    "version": 1
  },
  "storageLayout": {
    "storage": [
      {
        "astId": 244,
        "contract": "contracts/ProtocolReserve/XVSVaultTreasury.sol:XVSVaultTreasury",
        "label": "_initialized",
        "offset": 0,
        "slot": "0",
        "type": "t_uint8"
      },
      {
        "astId": 247,
        "contract": "contracts/ProtocolReserve/XVSVaultTreasury.sol:XVSVaultTreasury",
        "label": "_initializing",
        "offset": 1,
        "slot": "0",
        "type": "t_bool"
      },
      {
        "astId": 1478,
        "contract": "contracts/ProtocolReserve/XVSVaultTreasury.sol:XVSVaultTreasury",
        "label": "__gap",
        "offset": 0,
        "slot": "1",
        "type": "t_array(t_uint256)50_storage"
      },
      {
        "astId": 116,
        "contract": "contracts/ProtocolReserve/XVSVaultTreasury.sol:XVSVaultTreasury",
        "label": "_owner",
        "offset": 0,
        "slot": "51",
        "type": "t_address"
      },
      {
        "astId": 236,
        "contract": "contracts/ProtocolReserve/XVSVaultTreasury.sol:XVSVaultTreasury",
        "label": "__gap",
        "offset": 0,
        "slot": "52",
        "type": "t_array(t_uint256)49_storage"
      },
      {
        "astId": 25,
        "contract": "contracts/ProtocolReserve/XVSVaultTreasury.sol:XVSVaultTreasury",
        "label": "_pendingOwner",
        "offset": 0,
        "slot": "101",
        "type": "t_address"
      },
      {
        "astId": 104,
        "contract": "contracts/ProtocolReserve/XVSVaultTreasury.sol:XVSVaultTreasury",
        "label": "__gap",
        "offset": 0,
        "slot": "102",
        "type": "t_array(t_uint256)49_storage"
      },
      {
        "astId": 5417,
        "contract": "contracts/ProtocolReserve/XVSVaultTreasury.sol:XVSVaultTreasury",
        "label": "_accessControlManager",
        "offset": 0,
        "slot": "151",
        "type": "t_contract(IAccessControlManagerV8)5602"
      },
      {
        "astId": 5422,
        "contract": "contracts/ProtocolReserve/XVSVaultTreasury.sol:XVSVaultTreasury",
        "label": "__gap",
        "offset": 0,
        "slot": "152",
        "type": "t_array(t_uint256)49_storage"
      },
      {
        "astId": 547,
        "contract": "contracts/ProtocolReserve/XVSVaultTreasury.sol:XVSVaultTreasury",
        "label": "_status",
        "offset": 0,
        "slot": "201",
        "type": "t_uint256"
      },
      {
        "astId": 616,
        "contract": "contracts/ProtocolReserve/XVSVaultTreasury.sol:XVSVaultTreasury",
        "label": "__gap",
        "offset": 0,
        "slot": "202",
        "type": "t_array(t_uint256)49_storage"
      },
      {
        "astId": 8734,
        "contract": "contracts/ProtocolReserve/XVSVaultTreasury.sol:XVSVaultTreasury",
        "label": "xvsVault",
        "offset": 0,
        "slot": "251",
        "type": "t_address"
      }
    ],
    "types": {
      "t_address": {
        "encoding": "inplace",
        "label": "address",
        "numberOfBytes": "20"
      },
      "t_array(t_uint256)49_storage": {
        "base": "t_uint256",
        "encoding": "inplace",
        "label": "uint256[49]",
        "numberOfBytes": "1568"
      },
      "t_array(t_uint256)50_storage": {
        "base": "t_uint256",
        "encoding": "inplace",
        "label": "uint256[50]",
        "numberOfBytes": "1600"
      },
      "t_bool": {
        "encoding": "inplace",
        "label": "bool",
        "numberOfBytes": "1"
      },
      "t_contract(IAccessControlManagerV8)5602": {
        "encoding": "inplace",
        "label": "contract IAccessControlManagerV8",
        "numberOfBytes": "20"
      },
      "t_uint256": {
        "encoding": "inplace",
        "label": "uint256",
        "numberOfBytes": "32"
      },
      "t_uint8": {
        "encoding": "inplace",
        "label": "uint8",
        "numberOfBytes": "1"
      }
    }
  }
}