{
  "address": "0xCbaB2a9956517BA04F332EFEE2E63386082aAe40",
  "abi": [
    {
      "inputs": [
        {
          "internalType": "address",
          "name": "_corePoolComptroller",
          "type": "address"
        },
        {
          "internalType": "address",
          "name": "_wbnb",
          "type": "address"
        },
        {
          "internalType": "address",
          "name": "_vbnb",
          "type": "address"
        }
      ],
      "stateMutability": "nonpayable",
      "type": "constructor"
    },
    {
      "inputs": [],
      "name": "InvalidAddress",
      "type": "error"
    },
    {
      "inputs": [],
      "name": "InvalidTotalPercentage",
      "type": "error"
    },
    {
      "inputs": [
        {
          "internalType": "uint256",
          "name": "loopsLimit",
          "type": "uint256"
        },
        {
          "internalType": "uint256",
          "name": "requiredLoops",
          "type": "uint256"
        }
      ],
      "name": "MaxLoopsLimitExceeded",
      "type": "error"
    },
    {
      "inputs": [
        {
          "internalType": "address",
          "name": "sender",
          "type": "address"
        },
        {
          "internalType": "address",
          "name": "calledContract",
          "type": "address"
        },
        {
          "internalType": "string",
          "name": "methodSignature",
          "type": "string"
        }
      ],
      "name": "Unauthorized",
      "type": "error"
    },
    {
      "anonymous": false,
      "inputs": [
        {
          "indexed": true,
          "internalType": "address",
          "name": "destination",
          "type": "address"
        },
        {
          "indexed": true,
          "internalType": "address",
          "name": "asset",
          "type": "address"
        },
        {
          "indexed": false,
          "internalType": "enum ProtocolShareReserve.Schema",
          "name": "schema",
          "type": "uint8"
        },
        {
          "indexed": false,
          "internalType": "uint256",
          "name": "percent",
          "type": "uint256"
        },
        {
          "indexed": false,
          "internalType": "uint256",
          "name": "amount",
          "type": "uint256"
        }
      ],
      "name": "AssetReleased",
      "type": "event"
    },
    {
      "anonymous": false,
      "inputs": [
        {
          "indexed": true,
          "internalType": "address",
          "name": "comptroller",
          "type": "address"
        },
        {
          "indexed": true,
          "internalType": "address",
          "name": "asset",
          "type": "address"
        },
        {
          "indexed": false,
          "internalType": "uint256",
          "name": "amount",
          "type": "uint256"
        },
        {
          "indexed": false,
          "internalType": "enum IProtocolShareReserve.IncomeType",
          "name": "incomeType",
          "type": "uint8"
        },
        {
          "indexed": false,
          "internalType": "enum ProtocolShareReserve.Schema",
          "name": "schema",
          "type": "uint8"
        }
      ],
      "name": "AssetsReservesUpdated",
      "type": "event"
    },
    {
      "anonymous": false,
      "inputs": [
        {
          "indexed": true,
          "internalType": "address",
          "name": "destination",
          "type": "address"
        },
        {
          "indexed": false,
          "internalType": "uint8",
          "name": "percentage",
          "type": "uint8"
        },
        {
          "indexed": false,
          "internalType": "enum ProtocolShareReserve.Schema",
          "name": "schema",
          "type": "uint8"
        }
      ],
      "name": "DistributionConfigAdded",
      "type": "event"
    },
    {
      "anonymous": false,
      "inputs": [
        {
          "indexed": true,
          "internalType": "address",
          "name": "destination",
          "type": "address"
        },
        {
          "indexed": false,
          "internalType": "uint8",
          "name": "percentage",
          "type": "uint8"
        },
        {
          "indexed": false,
          "internalType": "enum ProtocolShareReserve.Schema",
          "name": "schema",
          "type": "uint8"
        }
      ],
      "name": "DistributionConfigRemoved",
      "type": "event"
    },
    {
      "anonymous": false,
      "inputs": [
        {
          "indexed": true,
          "internalType": "address",
          "name": "destination",
          "type": "address"
        },
        {
          "indexed": false,
          "internalType": "uint8",
          "name": "oldPercentage",
          "type": "uint8"
        },
        {
          "indexed": false,
          "internalType": "uint8",
          "name": "newPercentage",
          "type": "uint8"
        },
        {
          "indexed": false,
          "internalType": "enum ProtocolShareReserve.Schema",
          "name": "schema",
          "type": "uint8"
        }
      ],
      "name": "DistributionConfigUpdated",
      "type": "event"
    },
    {
      "anonymous": false,
      "inputs": [
        {
          "indexed": false,
          "internalType": "uint8",
          "name": "version",
          "type": "uint8"
        }
      ],
      "name": "Initialized",
      "type": "event"
    },
    {
      "anonymous": false,
      "inputs": [
        {
          "indexed": false,
          "internalType": "uint256",
          "name": "oldMaxLoopsLimit",
          "type": "uint256"
        },
        {
          "indexed": false,
          "internalType": "uint256",
          "name": "newmaxLoopsLimit",
          "type": "uint256"
        }
      ],
      "name": "MaxLoopsLimitUpdated",
      "type": "event"
    },
    {
      "anonymous": false,
      "inputs": [
        {
          "indexed": false,
          "internalType": "address",
          "name": "oldAccessControlManager",
          "type": "address"
        },
        {
          "indexed": false,
          "internalType": "address",
          "name": "newAccessControlManager",
          "type": "address"
        }
      ],
      "name": "NewAccessControlManager",
      "type": "event"
    },
    {
      "anonymous": false,
      "inputs": [
        {
          "indexed": true,
          "internalType": "address",
          "name": "previousOwner",
          "type": "address"
        },
        {
          "indexed": true,
          "internalType": "address",
          "name": "newOwner",
          "type": "address"
        }
      ],
      "name": "OwnershipTransferStarted",
      "type": "event"
    },
    {
      "anonymous": false,
      "inputs": [
        {
          "indexed": true,
          "internalType": "address",
          "name": "previousOwner",
          "type": "address"
        },
        {
          "indexed": true,
          "internalType": "address",
          "name": "newOwner",
          "type": "address"
        }
      ],
      "name": "OwnershipTransferred",
      "type": "event"
    },
    {
      "anonymous": false,
      "inputs": [
        {
          "indexed": true,
          "internalType": "address",
          "name": "oldPoolRegistry",
          "type": "address"
        },
        {
          "indexed": true,
          "internalType": "address",
          "name": "newPoolRegistry",
          "type": "address"
        }
      ],
      "name": "PoolRegistryUpdated",
      "type": "event"
    },
    {
      "anonymous": false,
      "inputs": [
        {
          "indexed": false,
          "internalType": "address",
          "name": "asset",
          "type": "address"
        },
        {
          "indexed": false,
          "internalType": "bool",
          "name": "isPrimeAsset",
          "type": "bool"
        }
      ],
      "name": "PrimeAssetUpdated",
      "type": "event"
    },
    {
      "anonymous": false,
      "inputs": [
        {
          "indexed": true,
          "internalType": "address",
          "name": "oldPrime",
          "type": "address"
        },
        {
          "indexed": true,
          "internalType": "address",
          "name": "newPrime",
          "type": "address"
        }
      ],
      "name": "PrimeUpdated",
      "type": "event"
    },
    {
      "anonymous": false,
      "inputs": [
        {
          "indexed": true,
          "internalType": "address",
          "name": "comptroller",
          "type": "address"
        },
        {
          "indexed": true,
          "internalType": "address",
          "name": "asset",
          "type": "address"
        },
        {
          "indexed": false,
          "internalType": "enum ProtocolShareReserve.Schema",
          "name": "schema",
          "type": "uint8"
        },
        {
          "indexed": false,
          "internalType": "uint256",
          "name": "oldBalance",
          "type": "uint256"
        },
        {
          "indexed": false,
          "internalType": "uint256",
          "name": "newBalance",
          "type": "uint256"
        }
      ],
      "name": "ReservesUpdated",
      "type": "event"
    },
    {
      "inputs": [],
      "name": "CORE_POOL_COMPTROLLER",
      "outputs": [
        {
          "internalType": "address",
          "name": "",
          "type": "address"
        }
      ],
      "stateMutability": "view",
      "type": "function"
    },
    {
      "inputs": [],
      "name": "WBNB",
      "outputs": [
        {
          "internalType": "address",
          "name": "",
          "type": "address"
        }
      ],
      "stateMutability": "view",
      "type": "function"
    },
    {
      "inputs": [],
      "name": "acceptOwnership",
      "outputs": [],
      "stateMutability": "nonpayable",
      "type": "function"
    },
    {
      "inputs": [],
      "name": "accessControlManager",
      "outputs": [
        {
          "internalType": "contract IAccessControlManagerV8",
          "name": "",
          "type": "address"
        }
      ],
      "stateMutability": "view",
      "type": "function"
    },
    {
      "inputs": [
        {
          "internalType": "address",
          "name": "asset",
          "type": "address"
        },
        {
          "internalType": "bool",
          "name": "isPrimeAsset",
          "type": "bool"
        }
      ],
      "name": "addOrRemoveAssetFromPrime",
      "outputs": [],
      "stateMutability": "nonpayable",
      "type": "function"
    },
    {
      "inputs": [
        {
          "components": [
            {
              "internalType": "enum ProtocolShareReserve.Schema",
              "name": "schema",
              "type": "uint8"
            },
            {
              "internalType": "uint8",
              "name": "percentage",
              "type": "uint8"
            },
            {
              "internalType": "address",
              "name": "destination",
              "type": "address"
            }
          ],
          "internalType": "struct ProtocolShareReserve.DistributionConfig[]",
          "name": "configs",
          "type": "tuple[]"
        }
      ],
      "name": "addOrUpdateDistributionConfigs",
      "outputs": [],
      "stateMutability": "nonpayable",
      "type": "function"
    },
    {
      "inputs": [
        {
          "internalType": "address",
          "name": "",
          "type": "address"
        },
        {
          "internalType": "address",
          "name": "",
          "type": "address"
        },
        {
          "internalType": "enum ProtocolShareReserve.Schema",
          "name": "",
          "type": "uint8"
        }
      ],
      "name": "assetsReserves",
      "outputs": [
        {
          "internalType": "uint256",
          "name": "",
          "type": "uint256"
        }
      ],
      "stateMutability": "view",
      "type": "function"
    },
    {
      "inputs": [
        {
          "internalType": "uint256",
          "name": "",
          "type": "uint256"
        }
      ],
      "name": "distributionTargets",
      "outputs": [
        {
          "internalType": "enum ProtocolShareReserve.Schema",
          "name": "schema",
          "type": "uint8"
        },
        {
          "internalType": "uint8",
          "name": "percentage",
          "type": "uint8"
        },
        {
          "internalType": "address",
          "name": "destination",
          "type": "address"
        }
      ],
      "stateMutability": "view",
      "type": "function"
    },
    {
      "inputs": [
        {
          "internalType": "address",
          "name": "destination",
          "type": "address"
        },
        {
          "internalType": "enum ProtocolShareReserve.Schema",
          "name": "schema",
          "type": "uint8"
        }
      ],
      "name": "getPercentageDistribution",
      "outputs": [
        {
          "internalType": "uint256",
          "name": "",
          "type": "uint256"
        }
      ],
      "stateMutability": "view",
      "type": "function"
    },
    {
      "inputs": [
        {
          "internalType": "address",
          "name": "comptroller",
          "type": "address"
        },
        {
          "internalType": "enum ProtocolShareReserve.Schema",
          "name": "schema",
          "type": "uint8"
        },
        {
          "internalType": "address",
          "name": "destination",
          "type": "address"
        },
        {
          "internalType": "address",
          "name": "asset",
          "type": "address"
        }
      ],
      "name": "getUnreleasedFunds",
      "outputs": [
        {
          "internalType": "uint256",
          "name": "",
          "type": "uint256"
        }
      ],
      "stateMutability": "view",
      "type": "function"
    },
    {
      "inputs": [
        {
          "internalType": "address",
          "name": "_accessControlManager",
          "type": "address"
        },
        {
          "internalType": "uint256",
          "name": "_loopsLimit",
          "type": "uint256"
        }
      ],
      "name": "initialize",
      "outputs": [],
      "stateMutability": "nonpayable",
      "type": "function"
    },
    {
      "inputs": [
        {
          "internalType": "address",
          "name": "",
          "type": "address"
        }
      ],
      "name": "isInPrime",
      "outputs": [
        {
          "internalType": "bool",
          "name": "",
          "type": "bool"
        }
      ],
      "stateMutability": "view",
      "type": "function"
    },
    {
      "inputs": [],
      "name": "maxLoopsLimit",
      "outputs": [
        {
          "internalType": "uint256",
          "name": "",
          "type": "uint256"
        }
      ],
      "stateMutability": "view",
      "type": "function"
    },
    {
      "inputs": [],
      "name": "owner",
      "outputs": [
        {
          "internalType": "address",
          "name": "",
          "type": "address"
        }
      ],
      "stateMutability": "view",
      "type": "function"
    },
    {
      "inputs": [],
      "name": "pendingOwner",
      "outputs": [
        {
          "internalType": "address",
          "name": "",
          "type": "address"
        }
      ],
      "stateMutability": "view",
      "type": "function"
    },
    {
      "inputs": [],
      "name": "poolRegistry",
      "outputs": [
        {
          "internalType": "address",
          "name": "",
          "type": "address"
        }
      ],
      "stateMutability": "view",
      "type": "function"
    },
    {
      "inputs": [],
      "name": "prime",
      "outputs": [
        {
          "internalType": "address",
          "name": "",
          "type": "address"
        }
      ],
      "stateMutability": "view",
      "type": "function"
    },
    {
      "inputs": [
        {
          "internalType": "address",
          "name": "comptroller",
          "type": "address"
        },
        {
          "internalType": "address[]",
          "name": "assets",
          "type": "address[]"
        }
      ],
      "name": "releaseFunds",
      "outputs": [],
      "stateMutability": "nonpayable",
      "type": "function"
    },
    {
      "inputs": [
        {
          "internalType": "enum ProtocolShareReserve.Schema",
          "name": "schema",
          "type": "uint8"
        },
        {
          "internalType": "address",
          "name": "destination",
          "type": "address"
        }
      ],
      "name": "removeDistributionConfig",
      "outputs": [],
      "stateMutability": "nonpayable",
      "type": "function"
    },
    {
      "inputs": [],
      "name": "renounceOwnership",
      "outputs": [],
      "stateMutability": "nonpayable",
      "type": "function"
    },
    {
      "inputs": [
        {
          "internalType": "address",
          "name": "accessControlManager_",
          "type": "address"
        }
      ],
      "name": "setAccessControlManager",
      "outputs": [],
      "stateMutability": "nonpayable",
      "type": "function"
    },
    {
      "inputs": [
        {
          "internalType": "address",
          "name": "_poolRegistry",
          "type": "address"
        }
      ],
      "name": "setPoolRegistry",
      "outputs": [],
      "stateMutability": "nonpayable",
      "type": "function"
    },
    {
      "inputs": [
        {
          "internalType": "address",
          "name": "_prime",
          "type": "address"
        }
      ],
      "name": "setPrime",
      "outputs": [],
      "stateMutability": "nonpayable",
      "type": "function"
    },
    {
      "inputs": [
        {
          "internalType": "address",
          "name": "",
          "type": "address"
        }
      ],
      "name": "totalAssetReserve",
      "outputs": [
        {
          "internalType": "uint256",
          "name": "",
          "type": "uint256"
        }
      ],
      "stateMutability": "view",
      "type": "function"
    },
    {
      "inputs": [],
      "name": "totalDistributions",
      "outputs": [
        {
          "internalType": "uint256",
          "name": "",
          "type": "uint256"
        }
      ],
      "stateMutability": "view",
      "type": "function"
    },
    {
      "inputs": [
        {
          "internalType": "address",
          "name": "newOwner",
          "type": "address"
        }
      ],
      "name": "transferOwnership",
      "outputs": [],
      "stateMutability": "nonpayable",
      "type": "function"
    },
    {
      "inputs": [
        {
          "internalType": "address",
          "name": "comptroller",
          "type": "address"
        },
        {
          "internalType": "address",
          "name": "asset",
          "type": "address"
        },
        {
          "internalType": "enum IProtocolShareReserve.IncomeType",
          "name": "incomeType",
          "type": "uint8"
        }
      ],
      "name": "updateAssetsState",
      "outputs": [],
      "stateMutability": "nonpayable",
      "type": "function"
    },
    {
      "inputs": [],
      "name": "vBNB",
      "outputs": [
        {
          "internalType": "address",
          "name": "",
          "type": "address"
        }
      ],
      "stateMutability": "view",
      "type": "function"
    }
  ],
  "transactionHash": "0x02b7dc934f9d18278d8b31067099e03feab744352ecf59dafa247391722f5792",
  "args": [
    "0xfd301ad2503b25a7670a45b11a043c20b04ee896",
    "0xae13d989daC2f0dEbFf460aC112a837C89BAa7cd",
    "0x2E7222e51c0f6e98610A1543Aa3836E092CDe62c"
  ],
  "numDeployments": 1,
  "solcInputHash": "aee5f1db1180ece295e59c8f036fe600",
  "bytecode": "0x60e06040523480156200001157600080fd5b5060405162003794380380620037948339810160408190526200003491620001b6565b6001600160a01b0383166200005c5760405163e6c4247b60e01b815260040160405180910390fd5b6001600160a01b038216620000845760405163e6c4247b60e01b815260040160405180910390fd5b6001600160a01b038116620000ac5760405163e6c4247b60e01b815260040160405180910390fd5b6001600160a01b0380841660805282811660a052811660c052620000cf620000d8565b50505062000200565b600054610100900460ff1615620001455760405162461bcd60e51b815260206004820152602760248201527f496e697469616c697a61626c653a20636f6e747261637420697320696e697469604482015266616c697a696e6760c81b606482015260840160405180910390fd5b60005460ff9081161462000197576000805460ff191660ff9081179091556040519081527f7f26b83ff96e1f2b6a682f133852f6798a09c465da95921460cefb38474024989060200160405180910390a15b565b80516001600160a01b0381168114620001b157600080fd5b919050565b600080600060608486031215620001cc57600080fd5b620001d78462000199565b9250620001e76020850162000199565b9150620001f76040850162000199565b90509250925092565b60805160a05160c051613541620002536000396000818161020e0152612704015260008181610355015261273e01526000818161043c01528181610566015281816118750152611d1401526135416000f3fe608060405234801561001057600080fd5b50600436106101c45760003560e01c80638da5cb5b116100f9578063c7ee005e11610097578063e30c397811610071578063e30c397814610413578063f2fde38b14610424578063fa7b81a014610437578063fc31116a1461045e57600080fd5b8063c7ee005e146103d9578063c9e18c6f146103ed578063cd6dc6871461040057600080fd5b8063aea21121116100d3578063aea211211461038a578063afcff50f146103ab578063b4a0bdf3146103bf578063be26317e146103d057600080fd5b80638da5cb5b1461033f5780638dd9500214610350578063966961f01461037757600080fd5b8063715018a611610166578063814d944611610140578063814d9446146102d2578063840a05e0146102e5578063893ffe98146102f85780638d904e891461030b57600080fd5b8063715018a6146102af57806379ba5097146102b75780637b77cd6a146102bf57600080fd5b806333e1567f116101a257806333e1567f14610209578063392ee712146102485780634f429f361461026a5780635db6da121461027d57600080fd5b80630e32cb86146101c9578063163db71b146101de57806316faecec146101f6575b600080fd5b6101dc6101d7366004612c69565b610471565b005b610131545b6040519081526020015b60405180910390f35b6101dc610204366004612c93565b610485565b6102307f000000000000000000000000000000000000000000000000000000000000000081565b6040516001600160a01b0390911681526020016101ed565b61025b610256366004612cde565b610834565b6040516101ed93929190612d5d565b6101dc610278366004612d8a565b610871565b6101e361028b366004612c93565b61012f60209081526000938452604080852082529284528284209052825290205481565b6101dc610bae565b6101dc610bc2565b6101dc6102cd366004612c69565b610c52565b6101dc6102e0366004612dd1565b610d10565b6101dc6102f3366004612dff565b610e1b565b6101e3610306366004612e74565b611165565b61032f610319366004612c69565b6101326020526000908152604090205460ff1681565b60405190151581526020016101ed565b6033546001600160a01b0316610230565b6102307f000000000000000000000000000000000000000000000000000000000000000081565b6101e3610385366004612ed0565b611284565b6101e3610398366004612c69565b6101306020526000908152604090205481565b61012e54610230906001600160a01b031681565b6097546001600160a01b0316610230565b6101e360fb5481565b61012d54610230906001600160a01b031681565b6101dc6103fb366004612c69565b611376565b6101dc61040e366004612efe565b611434565b6065546001600160a01b0316610230565b6101dc610432366004612c69565b6115bf565b6102307f000000000000000000000000000000000000000000000000000000000000000081565b6101dc61046c366004612f2a565b611648565b6104796116a6565b61048281611700565b50565b61048d6117f6565b826001600160a01b0316627e3dd26040518163ffffffff1660e01b8152600401602060405180830381865afa1580156104ca573d6000803e3d6000fd5b505050506040513d601f19601f820116820180604052508101906104ee9190612fb2565b610524576040517fe6c4247b00000000000000000000000000000000000000000000000000000000815260040160405180910390fd5b6001600160a01b038216610564576040517fe6c4247b00000000000000000000000000000000000000000000000000000000815260040160405180910390fd5b7f00000000000000000000000000000000000000000000000000000000000000006001600160a01b0316836001600160a01b03161415801561063d575061012e546040517f266e0a7f0000000000000000000000000000000000000000000000000000000081526001600160a01b0385811660048301528481166024830152600092169063266e0a7f90604401602060405180830381865afa15801561060e573d6000803e3d6000fd5b505050506040513d601f19601f820116820180604052508101906106329190612fcf565b6001600160a01b0316145b15610674576040517fe6c4247b00000000000000000000000000000000000000000000000000000000815260040160405180910390fd5b600061068184848461184f565b6040517f70a082310000000000000000000000000000000000000000000000000000000081523060048201529091506000906001600160a01b038516906370a0823190602401602060405180830381865afa1580156106e4573d6000803e3d6000fd5b505050506040513d601f19601f820116820180604052508101906107089190612fec565b6001600160a01b0385166000908152610130602052604090205490915080821115610822576001600160a01b03808716600090815261012f6020908152604080832093891683529290529081208284039182919086600181111561076e5761076e612cf7565b600181111561077f5761077f612cf7565b8152602001908152602001600020600082825461079c9190613034565b90915550506001600160a01b03861660009081526101306020526040812080548392906107ca908490613034565b92505081905550856001600160a01b0316876001600160a01b03167fa46b2431e663cf7b50c9d5129aff85d2394ecfd447b7ccba83986510a9d945ea8388886040516108189392919061304c565b60405180910390a3505b50505061082f600160c955565b505050565b610131818154811061084557600080fd5b60009182526020909120015460ff8082169250610100820416906201000090046001600160a01b031683565b6108926040518060600160405280602881526020016134b0602891396118dd565b600080805b6101315481101561093b57600061013182815481106108b8576108b8613079565b6000918252602090912001805490915060ff1660018111156108dc576108dc612cf7565b8660018111156108ee576108ee612cf7565b14801561090d575080546001600160a01b038681166201000090920416145b801561092057508054610100900460ff16155b1561093257600192508193505061093b565b50600101610897565b508015610ba057610131828154811061095657610956613079565b9060005260206000200160000160029054906101000a90046001600160a01b03166001600160a01b03167f1ac2d5fa1b44dc6086053de4a872e5bcdf9a98e5069a325572aef982a1b743bb61013184815481106109b5576109b5613079565b9060005260206000200160000160019054906101000a900460ff1661013185815481106109e4576109e4613079565b600091825260209091200154604051610a01929160ff16906130a8565b60405180910390a26101318054610a1a906001906130c8565b81548110610a2a57610a2a613079565b906000526020600020016101318381548110610a4857610a48613079565b60009182526020909120825491018054909160ff169082907fffffffffffffffffffffffffffffffffffffffffffffffffffffffffffffff001660018381811115610a9557610a95612cf7565b02179055508154815460ff61010092839004169091027fffffffffffffffffffffffffffffffffffffffffffffffffffffffffffff00ff82168117835592546001600160a01b03620100009182900416027fffffffffffffffffffff0000000000000000000000000000000000000000ffff9093167fffffffffffffffffffff000000000000000000000000000000000000000000ff90911617919091179055610131805480610b4757610b476130df565b60008281526020902081017fffffffffffffffffffffffffffffffffffffffffffffffffffffffffffffffff90810180547fffffffffffffffffffff000000000000000000000000000000000000000000001690550190555b610ba86119a9565b50505050565b610bb66116a6565b610bc06000611b7a565b565b60655433906001600160a01b03168114610c495760405162461bcd60e51b815260206004820152602960248201527f4f776e61626c6532537465703a2063616c6c6572206973206e6f74207468652060448201527f6e6577206f776e6572000000000000000000000000000000000000000000000060648201526084015b60405180910390fd5b61048281611b7a565b610c5a6116a6565b6001600160a01b038116610c9a576040517fe6c4247b00000000000000000000000000000000000000000000000000000000815260040160405180910390fd5b61012e546040516001600160a01b038084169216907fa87b964d321035d2165e484ff4b722dd6eae30606c0b98887d2ed1a34e594bfe90600090a361012e80547fffffffffffffffffffffffff0000000000000000000000000000000000000000166001600160a01b0392909216919091179055565b610d4e6040518060400160405280601a81526020017f746f67676c655072696d654d61726b65742861646472657373290000000000008152506118dd565b6001600160a01b038216610d8e576040517fe6c4247b00000000000000000000000000000000000000000000000000000000815260040160405180910390fd5b604080516001600160a01b038416815282151560208201527fd3bc3456781fe4eb5565e91d1e1898b62fc4404636e2deb9e9d76f5a956ff3ac910160405180910390a16001600160a01b039190911660009081526101326020526040902080547fffffffffffffffffffffffffffffffffffffffffffffffffffffffffffffff0016911515919091179055565b610e236117f6565b610e446040518060600160405280603481526020016134d8603491396118dd565b610e4c611bab565b60005b81811015611141576000838383818110610e6b57610e6b613079565b905060600201803603810190610e81919061318c565b60408101519091506001600160a01b0316610ec8576040517fe6c4247b00000000000000000000000000000000000000000000000000000000815260040160405180910390fd5b61013154600090815b81811015610ff35760006101318281548110610eef57610eef613079565b6000918252602090912001805490915060ff166001811115610f1357610f13612cf7565b85516001811115610f2657610f26612cf7565b148015610f4a5750604085015181546201000090046001600160a01b039081169116145b15610fea5760408581015182546020880151885193516001600160a01b03909316937f7b9512a7d53862cbbb1d78873d1809728aa9241f63fdf818e3525869ab0d03ce93610fa293610100900460ff16929190613204565b60405180910390a26020850151815460ff909116610100027fffffffffffffffffffffffffffffffffffffffffffffffffffffffffffff00ff90911617905560019250610ff3565b50600101610ed1565b50816111335761013180546001818101835560009290925284517fbd987ad6ccdb7c7567f7335ea839f95dc944431abcf935b6924f70215963db739091018054869391929183917fffffffffffffffffffffffffffffffffffffffffffffffffffffffffffffff001690838181111561106e5761106e612cf7565b021790555060208281015182546040948501517fffffffffffffffffffff000000000000000000000000000000000000000000ff90911661010060ff909316929092027fffffffffffffffffffff0000000000000000000000000000000000000000ffff1691909117620100006001600160a01b03928316021790925585830151908601518651935191909216927fc4584834cab3196e27e1b931e874fecbfada0785b639b02ed649d08c8e3ca8579261112a929091906130a8565b60405180910390a25b836001019350505050610e4f565b5061114a6119a9565b6101315461115790611d45565b611161600160c955565b5050565b61013154600090815b81811015611279576000610131828154811061118c5761118c613079565b9060005260206000200190508660018111156111aa576111aa612cf7565b815460ff1660018111156111c0576111c0612cf7565b1480156111df575080546001600160a01b038781166201000090920416145b15611270576001600160a01b03808916600090815261012f6020908152604080832093891683529290529081208189600181111561121f5761121f612cf7565b600181111561123057611230612cf7565b8152602081019190915260400160002054825490915060649061125b90610100900460ff168361321f565b611265919061325c565b94505050505061127c565b5060010161116e565b50505b949350505050565b61013154600090815b8181101561136d57600061013182815481106112ab576112ab613079565b60009182526020909120604080516060810190915291018054829060ff1660018111156112da576112da612cf7565b60018111156112eb576112eb612cf7565b81529054610100810460ff1660208301526201000090046001600160a01b0390811660409283015290820151919250878116911614801561134e575084600181111561133957611339612cf7565b8151600181111561134c5761134c612cf7565b145b15611364576020015160ff169250611370915050565b5060010161128d565b50505b92915050565b61137e6116a6565b6001600160a01b0381166113be576040517fe6c4247b00000000000000000000000000000000000000000000000000000000815260040160405180910390fd5b61012d546040516001600160a01b038084169216907f229f487e93a5313f6898190adf00c62e8b5d4c9c46249d31a9cd8a8024007bce90600090a361012d80547fffffffffffffffffffffffff0000000000000000000000000000000000000000166001600160a01b0392909216919091179055565b600054610100900460ff16158080156114545750600054600160ff909116105b8061146e5750303b15801561146e575060005460ff166001145b6114e05760405162461bcd60e51b815260206004820152602e60248201527f496e697469616c697a61626c653a20636f6e747261637420697320616c72656160448201527f647920696e697469616c697a65640000000000000000000000000000000000006064820152608401610c40565b600080547fffffffffffffffffffffffffffffffffffffffffffffffffffffffffffffff00166001179055801561153e57600080547fffffffffffffffffffffffffffffffffffffffffffffffffffffffffffff00ff166101001790555b61154783611d8f565b61154f611e1d565b61155882611ea2565b801561082f57600080547fffffffffffffffffffffffffffffffffffffffffffffffffffffffffffff00ff169055604051600181527f7f26b83ff96e1f2b6a682f133852f6798a09c465da95921460cefb38474024989060200160405180910390a1505050565b6115c76116a6565b606580546001600160a01b0383167fffffffffffffffffffffffff000000000000000000000000000000000000000090911681179091556116106033546001600160a01b031690565b6001600160a01b03167f38d16b8cac22d99fc7c124b9cd0de2d3fa1faef420bfe791d8c362d765e2270060405160405180910390a350565b6116506117f6565b611658611f57565b60005b8181101561169b576116938484848481811061167957611679613079565b905060200201602081019061168e9190612c69565b6120c7565b60010161165b565b5061082f600160c955565b6033546001600160a01b03163314610bc05760405162461bcd60e51b815260206004820181905260248201527f4f776e61626c653a2063616c6c6572206973206e6f7420746865206f776e65726044820152606401610c40565b6001600160a01b03811661177c5760405162461bcd60e51b815260206004820152602560248201527f696e76616c696420616365737320636f6e74726f6c206d616e6167657220616460448201527f64726573730000000000000000000000000000000000000000000000000000006064820152608401610c40565b609780546001600160a01b038381167fffffffffffffffffffffffff000000000000000000000000000000000000000083168117909355604080519190921680825260208201939093527f66fd58e82f7b31a2a5c30e0888f3093efe4e111b00cd2b0c31fe014601293aa091015b60405180910390a15050565b600260c954036118485760405162461bcd60e51b815260206004820152601f60248201527f5265656e7472616e637947756172643a207265656e7472616e742063616c6c006044820152606401610c40565b600260c955565b6001600160a01b0382166000908152610132602052604081205460ff1680156118a957507f00000000000000000000000000000000000000000000000000000000000000006001600160a01b0316846001600160a01b0316145b80156118c6575060008260018111156118c4576118c4612cf7565b145b156118cf575060015b9392505050565b600160c955565b6097546040517f18c5e8ab0000000000000000000000000000000000000000000000000000000081526000916001600160a01b0316906318c5e8ab90611929903390869060040161330d565b602060405180830381865afa158015611946573d6000803e3d6000fd5b505050506040513d601f19601f8201168201806040525081019061196a9190612fb2565b905080611161573330836040517f4a3fa293000000000000000000000000000000000000000000000000000000008152600401610c409392919061332f565b60006119b6600180613034565b905060008167ffffffffffffffff8111156119d3576119d361310e565b6040519080825280602002602001820160405280156119fc578160200160208202803683370190505b506101315490915060005b81811015611ae25760006101318281548110611a2557611a25613079565b60009182526020909120604080516060810190915291018054829060ff166001811115611a5457611a54612cf7565b6001811115611a6557611a65612cf7565b81529054610100810460ff16602080840191909152620100009091046001600160a01b031660409092019190915281015181519192509085906001811115611aaf57611aaf612cf7565b81518110611abf57611abf613079565b60200260200101818151611ad39190613364565b60ff1690525050600101611a07565b5060005b83811015610ba857606460ff16838281518110611b0557611b05613079565b602002602001015160ff1614158015611b3b5750828181518110611b2b57611b2b613079565b602002602001015160ff16600014155b15611b72576040517f0b8ad7f100000000000000000000000000000000000000000000000000000000815260040160405180910390fd5b600101611ae6565b606580547fffffffffffffffffffffffff000000000000000000000000000000000000000016905561048281612696565b61012d546001600160a01b0316611bbe57565b61012d54604080517fb0772d0b00000000000000000000000000000000000000000000000000000000815290516000926001600160a01b03169163b0772d0b91600480830192869291908290030181865afa158015611c21573d6000803e3d6000fd5b505050506040513d6000823e601f3d9081017fffffffffffffffffffffffffffffffffffffffffffffffffffffffffffffffe0168201604052611c679190810190613389565b905060005b8151811015611161576000828281518110611c8957611c89613079565b602090810291909101015161012d546040517f9198e5150000000000000000000000000000000000000000000000000000000081526001600160a01b038084166004830152929350911690639198e51590602401600060405180830381600087803b158015611cf757600080fd5b505af1158015611d0b573d6000803e3d6000fd5b50505050611d3c7f000000000000000000000000000000000000000000000000000000000000000061168e83612700565b50600101611c6c565b60fb548111156104825760fb546040517ff257f636000000000000000000000000000000000000000000000000000000008152600481019190915260248101829052604401610c40565b600054610100900460ff16611e0c5760405162461bcd60e51b815260206004820152602b60248201527f496e697469616c697a61626c653a20636f6e7472616374206973206e6f74206960448201527f6e697469616c697a696e670000000000000000000000000000000000000000006064820152608401610c40565b611e146127c4565b61048281612849565b600054610100900460ff16611e9a5760405162461bcd60e51b815260206004820152602b60248201527f496e697469616c697a61626c653a20636f6e7472616374206973206e6f74206960448201527f6e697469616c697a696e670000000000000000000000000000000000000000006064820152608401610c40565b610bc06128c6565b60fb548111611f195760405162461bcd60e51b815260206004820152602260248201527f436f6d7074726f6c6c65723a20496e76616c6964206d61784c6f6f70734c696d60448201527f69740000000000000000000000000000000000000000000000000000000000006064820152608401610c40565b60fb80549082905560408051828152602081018490527fc2d09fef144f7c8a86f71ea459f8fc17f675768eb1ae369cbd77fb31d467aafa91016117ea565b61012d546001600160a01b0316611f6a57565b61012d54604080517fb0772d0b00000000000000000000000000000000000000000000000000000000815290516000926001600160a01b03169163b0772d0b91600480830192869291908290030181865afa158015611fcd573d6000803e3d6000fd5b505050506040513d6000823e601f3d9081017fffffffffffffffffffffffffffffffffffffffffffffffffffffffffffffffe01682016040526120139190810190613389565b905060005b815181101561116157600082828151811061203557612035613079565b602090810291909101015161012d546040517f9198e5150000000000000000000000000000000000000000000000000000000081526001600160a01b038084166004830152929350911690639198e51590602401600060405180830381600087803b1580156120a357600080fd5b505af11580156120b7573d6000803e3d6000fd5b5050505081600101915050612018565b60006120d4600180613034565b905060008167ffffffffffffffff8111156120f1576120f161310e565b60405190808252806020026020018201604052801561211a578160200160208202803683370190505b5090506000805b838110156121e2576001600160a01b03808716600090815261012f6020908152604080832093891683529290529081209082600181111561216457612164612cf7565b600181111561217557612175612cf7565b600181111561218657612186612cf7565b8152602001908152602001600020548382815181106121a7576121a7613079565b6020026020010181815250508281815181106121c5576121c5613079565b6020026020010151826121d89190613034565b9150600101612121565b50806000036121f2575050505050565b60008367ffffffffffffffff81111561220d5761220d61310e565b604051908082528060200260200182016040528015612236578160200160208202803683370190505b50905060005b61013154811015612461576000610131828154811061225d5761225d613079565b60009182526020909120604080516060810190915291018054829060ff16600181111561228c5761228c612cf7565b600181111561229d5761229d612cf7565b81529054610100810460ff908116602080850191909152620100009092046001600160a01b031660409093019290925282015182519293506000926064929190911690889060018111156122f3576122f3612cf7565b8151811061230357612303613079565b6020026020010151612315919061321f565b61231f919061325c565b905080848360000151600181111561233957612339612cf7565b8151811061234957612349613079565b6020026020010181815161235d9190613034565b905250604082015161237a906001600160a01b038a169083612943565b60408083015190517faac59a750000000000000000000000000000000000000000000000000000000081526001600160a01b038b811660048301528a811660248301529091169063aac59a7590604401600060405180830381600087803b1580156123e457600080fd5b505af11580156123f8573d6000803e3d6000fd5b50505050876001600160a01b031682604001516001600160a01b03167f09f71e7b22d78540ee9a42f09917a9d62f46735cb0dfa70d6bab27866d9cb500846000015185602001518560405161244f9392919061343b565b60405180910390a3505060010161223c565b5060008467ffffffffffffffff81111561247d5761247d61310e565b6040519080825280602002602001820160405280156124a6578160200160208202803683370190505b50905060005b8581101561268c578281815181106124c6576124c6613079565b60200260200101518582815181106124e0576124e0613079565b60200260200101516124f291906130c8565b82828151811061250457612504613079565b60200260200101818152505081818151811061252257612522613079565b6020908102919091018101516001600160a01b03808b16600090815261012f84526040808220928c168252919093528220909183600181111561256757612567612cf7565b600181111561257857612578612cf7565b600181111561258957612589612cf7565b8152602001908152602001600020819055508281815181106125ad576125ad613079565b60200260200101516101306000896001600160a01b03166001600160a01b03168152602001908152602001600020546125e691906130c8565b6001600160a01b038089166000818152610130602052604090209290925589167f7d881f3d6246a6a2b97b121b8ba093c17497912c68e8b2bca6108528e91df3ca83600181111561263957612639612cf7565b88858151811061264b5761264b613079565b602002602001015186868151811061266557612665613079565b602002602001015160405161267c9392919061345f565b60405180910390a36001016124ac565b5050505050505050565b603380546001600160a01b038381167fffffffffffffffffffffffff0000000000000000000000000000000000000000831681179093556040519116919082907f8be0079c531659141344cd1fd0a4f28419497f9722a3daafe3b4186f6b6457e090600090a35050565b60007f00000000000000000000000000000000000000000000000000000000000000006001600160a01b0316826001600160a01b03160361276257507f0000000000000000000000000000000000000000000000000000000000000000919050565b816001600160a01b0316636f307dc36040518163ffffffff1660e01b8152600401602060405180830381865afa1580156127a0573d6000803e3d6000fd5b505050506040513d601f19601f820116820180604052508101906113709190612fcf565b600054610100900460ff166128415760405162461bcd60e51b815260206004820152602b60248201527f496e697469616c697a61626c653a20636f6e7472616374206973206e6f74206960448201527f6e697469616c697a696e670000000000000000000000000000000000000000006064820152608401610c40565b610bc06129c3565b600054610100900460ff166104795760405162461bcd60e51b815260206004820152602b60248201527f496e697469616c697a61626c653a20636f6e7472616374206973206e6f74206960448201527f6e697469616c697a696e670000000000000000000000000000000000000000006064820152608401610c40565b600054610100900460ff166118d65760405162461bcd60e51b815260206004820152602b60248201527f496e697469616c697a61626c653a20636f6e7472616374206973206e6f74206960448201527f6e697469616c697a696e670000000000000000000000000000000000000000006064820152608401610c40565b604080516001600160a01b038416602482015260448082018490528251808303909101815260649091019091526020810180517bffffffffffffffffffffffffffffffffffffffffffffffffffffffff167fa9059cbb0000000000000000000000000000000000000000000000000000000017905261082f908490612a49565b600054610100900460ff16612a405760405162461bcd60e51b815260206004820152602b60248201527f496e697469616c697a61626c653a20636f6e7472616374206973206e6f74206960448201527f6e697469616c697a696e670000000000000000000000000000000000000000006064820152608401610c40565b610bc033611b7a565b6000612a9e826040518060400160405280602081526020017f5361666545524332303a206c6f772d6c6576656c2063616c6c206661696c6564815250856001600160a01b0316612b319092919063ffffffff16565b9050805160001480612abf575080806020019051810190612abf9190612fb2565b61082f5760405162461bcd60e51b815260206004820152602a60248201527f5361666545524332303a204552433230206f7065726174696f6e20646964206e60448201527f6f742073756363656564000000000000000000000000000000000000000000006064820152608401610c40565b606061127c848460008585600080866001600160a01b03168587604051612b589190613480565b60006040518083038185875af1925050503d8060008114612b95576040519150601f19603f3d011682016040523d82523d6000602084013e612b9a565b606091505b5091509150612bab87838387612bb6565b979650505050505050565b60608315612c25578251600003612c1e576001600160a01b0385163b612c1e5760405162461bcd60e51b815260206004820152601d60248201527f416464726573733a2063616c6c20746f206e6f6e2d636f6e74726163740000006044820152606401610c40565b508161127c565b61127c8383815115612c3a5781518083602001fd5b8060405162461bcd60e51b8152600401610c40919061349c565b6001600160a01b038116811461048257600080fd5b600060208284031215612c7b57600080fd5b81356118cf81612c54565b6002811061048257600080fd5b600080600060608486031215612ca857600080fd5b8335612cb381612c54565b92506020840135612cc381612c54565b91506040840135612cd381612c86565b809150509250925092565b600060208284031215612cf057600080fd5b5035919050565b7f4e487b7100000000000000000000000000000000000000000000000000000000600052602160045260246000fd5b60028110610482577f4e487b7100000000000000000000000000000000000000000000000000000000600052602160045260246000fd5b60608101612d6a85612d26565b93815260ff9290921660208301526001600160a01b031660409091015290565b60008060408385031215612d9d57600080fd5b8235612da881612c86565b91506020830135612db881612c54565b809150509250929050565b801515811461048257600080fd5b60008060408385031215612de457600080fd5b8235612def81612c54565b91506020830135612db881612dc3565b60008060208385031215612e1257600080fd5b823567ffffffffffffffff80821115612e2a57600080fd5b818501915085601f830112612e3e57600080fd5b813581811115612e4d57600080fd5b866020606083028501011115612e6257600080fd5b60209290920196919550909350505050565b60008060008060808587031215612e8a57600080fd5b8435612e9581612c54565b93506020850135612ea581612c86565b92506040850135612eb581612c54565b91506060850135612ec581612c54565b939692955090935050565b60008060408385031215612ee357600080fd5b8235612eee81612c54565b91506020830135612db881612c86565b60008060408385031215612f1157600080fd5b8235612f1c81612c54565b946020939093013593505050565b600080600060408486031215612f3f57600080fd5b8335612f4a81612c54565b9250602084013567ffffffffffffffff80821115612f6757600080fd5b818601915086601f830112612f7b57600080fd5b813581811115612f8a57600080fd5b8760208260051b8501011115612f9f57600080fd5b6020830194508093505050509250925092565b600060208284031215612fc457600080fd5b81516118cf81612dc3565b600060208284031215612fe157600080fd5b81516118cf81612c54565b600060208284031215612ffe57600080fd5b5051919050565b7f4e487b7100000000000000000000000000000000000000000000000000000000600052601160045260246000fd5b6000821982111561304757613047613005565b500190565b8381526060810161305c84612d26565b83602083015261306b83612d26565b826040830152949350505050565b7f4e487b7100000000000000000000000000000000000000000000000000000000600052603260045260246000fd5b60ff83168152604081016130bb83612d26565b8260208301529392505050565b6000828210156130da576130da613005565b500390565b7f4e487b7100000000000000000000000000000000000000000000000000000000600052603160045260246000fd5b7f4e487b7100000000000000000000000000000000000000000000000000000000600052604160045260246000fd5b604051601f82017fffffffffffffffffffffffffffffffffffffffffffffffffffffffffffffffe016810167ffffffffffffffff811182821017156131845761318461310e565b604052919050565b60006060828403121561319e57600080fd5b6040516060810181811067ffffffffffffffff821117156131c1576131c161310e565b60405282356131cf81612c86565b8152602083013560ff811681146131e557600080fd5b602082015260408301356131f881612c54565b60408201529392505050565b60ff8481168252831660208201526060810161306b83612d26565b6000817fffffffffffffffffffffffffffffffffffffffffffffffffffffffffffffffff048311821515161561325757613257613005565b500290565b600082613292577f4e487b7100000000000000000000000000000000000000000000000000000000600052601260045260246000fd5b500490565b60005b838110156132b257818101518382015260200161329a565b83811115610ba85750506000910152565b600081518084526132db816020860160208601613297565b601f017fffffffffffffffffffffffffffffffffffffffffffffffffffffffffffffffe0169290920160200192915050565b6001600160a01b038316815260406020820152600061127c60408301846132c3565b60006001600160a01b0380861683528085166020840152506060604083015261335b60608301846132c3565b95945050505050565b600060ff821660ff84168060ff0382111561338157613381613005565b019392505050565b6000602080838503121561339c57600080fd5b825167ffffffffffffffff808211156133b457600080fd5b818501915085601f8301126133c857600080fd5b8151818111156133da576133da61310e565b8060051b91506133eb84830161313d565b818152918301840191848101908884111561340557600080fd5b938501935b8385101561342f578451925061341f83612c54565b828252938501939085019061340a565b98975050505050505050565b6060810161344885612d26565b93815260ff92909216602083015260409091015290565b6060810161346c85612d26565b938152602081019290925260409091015290565b60008251613492818460208701613297565b9190910192915050565b6020815260006118cf60208301846132c356fe72656d6f7665446973747269627574696f6e436f6e66696728536368656d612c61646472657373296164644f72557064617465446973747269627574696f6e436f6e6669677328446973747269627574696f6e436f6e6669675b5d29a26469706673582212209f2b8ef518b6ef6e766e935280cff93fb9ede00701c5072c34fd83c2edd647a464736f6c634300080d0033",
  "devdoc": {
    "kind": "dev",
    "methods": {
      "acceptOwnership()": {
        "details": "The new owner accepts the ownership transfer."
      },
      "addOrRemoveAssetFromPrime(address,bool)": {
        "details": "Add/Remove asset to prime program.",
        "params": {
          "asset": "Address of the asset",
          "isPrimeAsset": "Boolean to add/remove asset from prime program"
        }
      },
      "addOrUpdateDistributionConfigs((uint8,uint8,address)[])": {
        "details": "Add or update destination targets based on destination address",
        "params": {
          "configs": "configurations of the destinations."
        }
      },
      "constructor": {
        "custom:oz-upgrades-unsafe-allow": "constructor"
      },
      "getPercentageDistribution(address,uint8)": {
        "details": "Used to find out the percentage distribution for a particular destination based on schema",
        "params": {
          "destination": "the destination address of the distribution target",
          "schema": "the schema of the distribution target"
        },
        "returns": {
          "_0": "percentage percentage distribution"
        }
      },
      "getUnreleasedFunds(address,uint8,address,address)": {
        "details": "Used to find out the amount of funds that's going to be released when release funds is called.",
        "params": {
          "asset": "the asset address which will be released",
          "comptroller": "the comptroller address of the pool",
          "destination": "the destination address of the distribution target",
          "schema": "the schema of the distribution target"
        }
      },
      "initialize(address,uint256)": {
        "details": "Initializes the deployer to owner.",
        "params": {
          "_accessControlManager": "The address of ACM contract",
          "_loopsLimit": "Limit for the loops in the contract to avoid DOS"
        }
      },
      "owner()": {
        "details": "Returns the address of the current owner."
      },
      "pendingOwner()": {
        "details": "Returns the address of the pending owner."
      },
      "releaseFunds(address,address[])": {
        "details": "Release funds",
        "params": {
          "assets": "assets to be released to distribution targets",
          "comptroller": "the comptroller address of the pool"
        }
      },
      "removeDistributionConfig(uint8,address)": {
        "details": "Remove destionation target if percentage is 0",
        "params": {
          "destination": "destination address of the configuration",
          "schema": "schema of the configuration"
        }
      },
      "renounceOwnership()": {
        "details": "Leaves the contract without owner. It will not be possible to call `onlyOwner` functions. Can only be called by the current owner. NOTE: Renouncing ownership will leave the contract without an owner, thereby disabling any functionality that is only available to the owner."
      },
      "setAccessControlManager(address)": {
        "custom:access": "Only Governance",
        "custom:event": "Emits NewAccessControlManager event",
        "details": "Admin function to set address of AccessControlManager",
        "params": {
          "accessControlManager_": "The new address of the AccessControlManager"
        }
      },
      "setPoolRegistry(address)": {
        "details": "Pool registry setter.",
        "params": {
          "_poolRegistry": "Address of the pool registry"
        }
      },
      "setPrime(address)": {
        "details": "Prime contract address setter.",
        "params": {
          "_prime": "Address of the prime contract"
        }
      },
      "totalDistributions()": {
        "details": "Returns the total number of distribution targets"
      },
      "transferOwnership(address)": {
        "details": "Starts the ownership transfer of the contract to a new account. Replaces the pending transfer if there is one. Can only be called by the current owner."
      },
      "updateAssetsState(address,address,uint8)": {
        "details": "Update the reserve of the asset for the specific pool after transferring to the protocol share reserve.",
        "params": {
          "asset": "Asset address.",
          "comptroller": "Comptroller address(pool)",
          "incomeType": "type of income"
        }
      }
    },
    "stateVariables": {
      "CORE_POOL_COMPTROLLER": {
        "custom:oz-upgrades-unsafe-allow": "state-variable-immutable"
      },
      "WBNB": {
        "custom:oz-upgrades-unsafe-allow": "state-variable-immutable"
      },
      "vBNB": {
        "custom:oz-upgrades-unsafe-allow": "state-variable-immutable"
      }
    },
    "version": 1
  },
  "userdoc": {
    "errors": {
      "MaxLoopsLimitExceeded(uint256,uint256)": [
        {
          "notice": "Thrown an error on maxLoopsLimit exceeds for any loop"
        }
      ],
      "Unauthorized(address,address,string)": [
        {
          "notice": "Thrown when the action is prohibited by AccessControlManager"
        }
      ]
    },
    "events": {
      "AssetReleased(address,address,uint8,uint256,uint256)": {
        "notice": "Event emitted when an asset is released to a target"
      },
      "AssetsReservesUpdated(address,address,uint256,uint8,uint8)": {
        "notice": "Event emitted after the updation of the assets reserves."
      },
      "DistributionConfigAdded(address,uint8,uint8)": {
        "notice": "Event emitted when distribution configuration is added"
      },
      "DistributionConfigRemoved(address,uint8,uint8)": {
        "notice": "Event emitted when distribution configuration is removed"
      },
      "DistributionConfigUpdated(address,uint8,uint8,uint8)": {
        "notice": "Event emitted when distribution configuration is updated"
      },
      "MaxLoopsLimitUpdated(uint256,uint256)": {
        "notice": "Emitted when max loops limit is set"
      },
      "NewAccessControlManager(address,address)": {
        "notice": "Emitted when access control manager contract address is changed"
      },
      "PoolRegistryUpdated(address,address)": {
        "notice": "Emitted when pool registry address is updated"
      },
      "PrimeAssetUpdated(address,bool)": {
        "notice": "Emitted when an asset is added to prime program"
      },
      "PrimeUpdated(address,address)": {
        "notice": "Emitted when prime address is updated"
      },
      "ReservesUpdated(address,address,uint8,uint256,uint256)": {
        "notice": "Event emitted when asset reserves state is updated"
      }
    },
    "kind": "user",
    "methods": {
      "CORE_POOL_COMPTROLLER()": {
        "notice": "address of core pool comptroller contract"
      },
      "WBNB()": {
        "notice": "address of WBNB contract"
      },
      "accessControlManager()": {
        "notice": "Returns the address of the access control manager contract"
      },
      "assetsReserves(address,address,uint8)": {
        "notice": "comptroller => asset => schema => balance"
      },
      "distributionTargets(uint256)": {
        "notice": "configuration for different income distribution targets"
      },
      "isInPrime(address)": {
        "notice": "asset => boolean"
      },
      "poolRegistry()": {
        "notice": "address of pool registry contract"
      },
      "prime()": {
        "notice": "address of Prime contract"
      },
      "setAccessControlManager(address)": {
        "notice": "Sets the address of AccessControlManager"
      },
      "totalAssetReserve(address)": {
        "notice": "asset => balance"
      },
      "vBNB()": {
        "notice": "address of vBNB contract"
      }
    },
    "version": 1
  },
  "storageLayout": {
    "storage": [
      {
        "astId": 244,
        "contract": "contracts/ProtocolReserve/ProtocolShareReserve.sol:ProtocolShareReserve",
        "label": "_initialized",
        "offset": 0,
        "slot": "0",
        "type": "t_uint8"
      },
      {
        "astId": 247,
        "contract": "contracts/ProtocolReserve/ProtocolShareReserve.sol:ProtocolShareReserve",
        "label": "_initializing",
        "offset": 1,
        "slot": "0",
        "type": "t_bool"
      },
      {
        "astId": 1351,
        "contract": "contracts/ProtocolReserve/ProtocolShareReserve.sol:ProtocolShareReserve",
        "label": "__gap",
        "offset": 0,
        "slot": "1",
        "type": "t_array(t_uint256)50_storage"
      },
      {
        "astId": 116,
        "contract": "contracts/ProtocolReserve/ProtocolShareReserve.sol:ProtocolShareReserve",
        "label": "_owner",
        "offset": 0,
        "slot": "51",
        "type": "t_address"
      },
      {
        "astId": 236,
        "contract": "contracts/ProtocolReserve/ProtocolShareReserve.sol:ProtocolShareReserve",
        "label": "__gap",
        "offset": 0,
        "slot": "52",
        "type": "t_array(t_uint256)49_storage"
      },
      {
        "astId": 25,
        "contract": "contracts/ProtocolReserve/ProtocolShareReserve.sol:ProtocolShareReserve",
        "label": "_pendingOwner",
        "offset": 0,
        "slot": "101",
        "type": "t_address"
      },
      {
        "astId": 104,
        "contract": "contracts/ProtocolReserve/ProtocolShareReserve.sol:ProtocolShareReserve",
        "label": "__gap",
        "offset": 0,
        "slot": "102",
        "type": "t_array(t_uint256)49_storage"
      },
      {
        "astId": 1439,
        "contract": "contracts/ProtocolReserve/ProtocolShareReserve.sol:ProtocolShareReserve",
        "label": "_accessControlManager",
        "offset": 0,
        "slot": "151",
        "type": "t_contract(IAccessControlManagerV8)1623"
      },
      {
        "astId": 1444,
        "contract": "contracts/ProtocolReserve/ProtocolShareReserve.sol:ProtocolShareReserve",
        "label": "__gap",
        "offset": 0,
        "slot": "152",
        "type": "t_array(t_uint256)49_storage"
      },
      {
        "astId": 420,
        "contract": "contracts/ProtocolReserve/ProtocolShareReserve.sol:ProtocolShareReserve",
        "label": "_status",
        "offset": 0,
        "slot": "201",
        "type": "t_uint256"
      },
      {
        "astId": 489,
        "contract": "contracts/ProtocolReserve/ProtocolShareReserve.sol:ProtocolShareReserve",
        "label": "__gap",
        "offset": 0,
        "slot": "202",
        "type": "t_array(t_uint256)49_storage"
      },
      {
        "astId": 1628,
        "contract": "contracts/ProtocolReserve/ProtocolShareReserve.sol:ProtocolShareReserve",
        "label": "maxLoopsLimit",
        "offset": 0,
        "slot": "251",
        "type": "t_uint256"
      },
      {
        "astId": 1633,
        "contract": "contracts/ProtocolReserve/ProtocolShareReserve.sol:ProtocolShareReserve",
        "label": "__gap",
        "offset": 0,
        "slot": "252",
        "type": "t_array(t_uint256)49_storage"
      },
      {
        "astId": 1838,
        "contract": "contracts/ProtocolReserve/ProtocolShareReserve.sol:ProtocolShareReserve",
        "label": "prime",
        "offset": 0,
        "slot": "301",
        "type": "t_address"
      },
      {
        "astId": 1841,
        "contract": "contracts/ProtocolReserve/ProtocolShareReserve.sol:ProtocolShareReserve",
        "label": "poolRegistry",
        "offset": 0,
        "slot": "302",
        "type": "t_address"
      },
      {
        "astId": 1854,
        "contract": "contracts/ProtocolReserve/ProtocolShareReserve.sol:ProtocolShareReserve",
        "label": "assetsReserves",
        "offset": 0,
        "slot": "303",
        "type": "t_mapping(t_address,t_mapping(t_address,t_mapping(t_enum(Schema)1817,t_uint256)))"
      },
      {
        "astId": 1859,
        "contract": "contracts/ProtocolReserve/ProtocolShareReserve.sol:ProtocolShareReserve",
        "label": "totalAssetReserve",
        "offset": 0,
        "slot": "304",
        "type": "t_mapping(t_address,t_uint256)"
      },
      {
        "astId": 1864,
        "contract": "contracts/ProtocolReserve/ProtocolShareReserve.sol:ProtocolShareReserve",
        "label": "distributionTargets",
        "offset": 0,
        "slot": "305",
        "type": "t_array(t_struct(DistributionConfig)1826_storage)dyn_storage"
      },
      {
        "astId": 1869,
        "contract": "contracts/ProtocolReserve/ProtocolShareReserve.sol:ProtocolShareReserve",
        "label": "isInPrime",
        "offset": 0,
        "slot": "306",
        "type": "t_mapping(t_address,t_bool)"
      }
    ],
    "types": {
      "t_address": {
        "encoding": "inplace",
        "label": "address",
        "numberOfBytes": "20"
      },
      "t_array(t_struct(DistributionConfig)1826_storage)dyn_storage": {
        "base": "t_struct(DistributionConfig)1826_storage",
        "encoding": "dynamic_array",
        "label": "struct ProtocolShareReserve.DistributionConfig[]",
        "numberOfBytes": "32"
      },
      "t_array(t_uint256)49_storage": {
        "base": "t_uint256",
        "encoding": "inplace",
        "label": "uint256[49]",
        "numberOfBytes": "1568"
      },
      "t_array(t_uint256)50_storage": {
        "base": "t_uint256",
        "encoding": "inplace",
        "label": "uint256[50]",
        "numberOfBytes": "1600"
      },
      "t_bool": {
        "encoding": "inplace",
        "label": "bool",
        "numberOfBytes": "1"
      },
      "t_contract(IAccessControlManagerV8)1623": {
        "encoding": "inplace",
        "label": "contract IAccessControlManagerV8",
        "numberOfBytes": "20"
      },
      "t_enum(Schema)1817": {
        "encoding": "inplace",
        "label": "enum ProtocolShareReserve.Schema",
        "numberOfBytes": "1"
      },
      "t_mapping(t_address,t_bool)": {
        "encoding": "mapping",
        "key": "t_address",
        "label": "mapping(address => bool)",
        "numberOfBytes": "32",
        "value": "t_bool"
      },
      "t_mapping(t_address,t_mapping(t_address,t_mapping(t_enum(Schema)1817,t_uint256)))": {
        "encoding": "mapping",
        "key": "t_address",
        "label": "mapping(address => mapping(address => mapping(enum ProtocolShareReserve.Schema => uint256)))",
        "numberOfBytes": "32",
        "value": "t_mapping(t_address,t_mapping(t_enum(Schema)1817,t_uint256))"
      },
      "t_mapping(t_address,t_mapping(t_enum(Schema)1817,t_uint256))": {
        "encoding": "mapping",
        "key": "t_address",
        "label": "mapping(address => mapping(enum ProtocolShareReserve.Schema => uint256))",
        "numberOfBytes": "32",
        "value": "t_mapping(t_enum(Schema)1817,t_uint256)"
      },
      "t_mapping(t_address,t_uint256)": {
        "encoding": "mapping",
        "key": "t_address",
        "label": "mapping(address => uint256)",
        "numberOfBytes": "32",
        "value": "t_uint256"
      },
      "t_mapping(t_enum(Schema)1817,t_uint256)": {
        "encoding": "mapping",
        "key": "t_enum(Schema)1817",
        "label": "mapping(enum ProtocolShareReserve.Schema => uint256)",
        "numberOfBytes": "32",
        "value": "t_uint256"
      },
      "t_struct(DistributionConfig)1826_storage": {
        "encoding": "inplace",
        "label": "struct ProtocolShareReserve.DistributionConfig",
        "members": [
          {
            "astId": 1820,
            "contract": "contracts/ProtocolReserve/ProtocolShareReserve.sol:ProtocolShareReserve",
            "label": "schema",
            "offset": 0,
            "slot": "0",
            "type": "t_enum(Schema)1817"
          },
          {
            "astId": 1823,
            "contract": "contracts/ProtocolReserve/ProtocolShareReserve.sol:ProtocolShareReserve",
            "label": "percentage",
            "offset": 1,
            "slot": "0",
            "type": "t_uint8"
          },
          {
            "astId": 1825,
            "contract": "contracts/ProtocolReserve/ProtocolShareReserve.sol:ProtocolShareReserve",
            "label": "destination",
            "offset": 2,
            "slot": "0",
            "type": "t_address"
          }
        ],
        "numberOfBytes": "32"
      },
      "t_uint256": {
        "encoding": "inplace",
        "label": "uint256",
        "numberOfBytes": "32"
      },
      "t_uint8": {
        "encoding": "inplace",
        "label": "uint8",
        "numberOfBytes": "1"
      }
    }
  }
}