{
  "address": "0xDCE951479649C8b99ea09a157f2dC136C2b31b82",
  "abi": [
    {
      "inputs": [
        {
          "internalType": "address",
          "name": "corePoolComptroller_",
          "type": "address"
        },
        {
          "internalType": "address",
          "name": "vBNB_",
          "type": "address"
        },
        {
          "internalType": "address",
          "name": "nativeWrapped_",
          "type": "address"
        }
      ],
      "stateMutability": "nonpayable",
      "type": "constructor"
    },
    {
      "inputs": [
        {
          "internalType": "uint256",
          "name": "amountInMantissa",
          "type": "uint256"
        },
        {
          "internalType": "uint256",
          "name": "amountInMaxMantissa",
          "type": "uint256"
        }
      ],
      "name": "AmountInHigherThanMax",
      "type": "error"
    },
    {
      "inputs": [],
      "name": "AmountInMismatched",
      "type": "error"
    },
    {
      "inputs": [
        {
          "internalType": "uint256",
          "name": "amountOutMantissa",
          "type": "uint256"
        },
        {
          "internalType": "uint256",
          "name": "amountOutMinMantissa",
          "type": "uint256"
        }
      ],
      "name": "AmountOutLowerThanMinRequired",
      "type": "error"
    },
    {
      "inputs": [],
      "name": "AmountOutMismatched",
      "type": "error"
    },
    {
      "inputs": [],
      "name": "ConversionConfigNotEnabled",
      "type": "error"
    },
    {
      "inputs": [],
      "name": "ConversionEnabledOnlyForPrivateConversions",
      "type": "error"
    },
    {
      "inputs": [],
      "name": "ConversionTokensActive",
      "type": "error"
    },
    {
      "inputs": [],
      "name": "ConversionTokensPaused",
      "type": "error"
    },
    {
      "inputs": [],
      "name": "DeflationaryTokenNotSupported",
      "type": "error"
    },
    {
      "inputs": [
        {
          "internalType": "uint256",
          "name": "incentive",
          "type": "uint256"
        },
        {
          "internalType": "uint256",
          "name": "maxIncentive",
          "type": "uint256"
        }
      ],
      "name": "IncentiveTooHigh",
      "type": "error"
    },
    {
      "inputs": [],
      "name": "InputLengthMisMatch",
      "type": "error"
    },
    {
      "inputs": [],
      "name": "InsufficientBalance",
      "type": "error"
    },
    {
      "inputs": [],
      "name": "InsufficientInputAmount",
      "type": "error"
    },
    {
      "inputs": [],
      "name": "InsufficientOutputAmount",
      "type": "error"
    },
    {
      "inputs": [],
      "name": "InsufficientPoolLiquidity",
      "type": "error"
    },
    {
      "inputs": [],
      "name": "InvalidArguments",
      "type": "error"
    },
    {
      "inputs": [],
      "name": "InvalidConverterNetwork",
      "type": "error"
    },
    {
      "inputs": [],
      "name": "InvalidMinimumAmountToConvert",
      "type": "error"
    },
    {
      "inputs": [],
      "name": "InvalidToAddress",
      "type": "error"
    },
    {
      "inputs": [],
      "name": "InvalidTokenConfigAddresses",
      "type": "error"
    },
    {
      "inputs": [
        {
          "internalType": "address",
          "name": "comptroller",
          "type": "address"
        },
        {
          "internalType": "address",
          "name": "asset",
          "type": "address"
        }
      ],
      "name": "MarketNotExistInPool",
      "type": "error"
    },
    {
      "inputs": [],
      "name": "NonZeroIncentiveForPrivateConversion",
      "type": "error"
    },
    {
      "inputs": [],
      "name": "ReentrancyGuardError",
      "type": "error"
    },
    {
      "inputs": [
        {
          "internalType": "address",
          "name": "sender",
          "type": "address"
        },
        {
          "internalType": "address",
          "name": "calledContract",
          "type": "address"
        },
        {
          "internalType": "string",
          "name": "methodSignature",
          "type": "string"
        }
      ],
      "name": "Unauthorized",
      "type": "error"
    },
    {
      "inputs": [],
      "name": "ZeroAddressNotAllowed",
      "type": "error"
    },
    {
      "inputs": [],
      "name": "ZeroValueNotAllowed",
      "type": "error"
    },
    {
      "anonymous": false,
      "inputs": [
        {
          "indexed": true,
          "internalType": "address",
          "name": "receiver",
          "type": "address"
        },
        {
          "indexed": true,
          "internalType": "address",
          "name": "comptroller",
          "type": "address"
        },
        {
          "indexed": true,
          "internalType": "address",
          "name": "asset",
          "type": "address"
        },
        {
          "indexed": false,
          "internalType": "uint256",
          "name": "amount",
          "type": "uint256"
        }
      ],
      "name": "AssetTransferredToDestination",
      "type": "event"
    },
    {
      "anonymous": false,
      "inputs": [
        {
          "indexed": true,
          "internalType": "address",
          "name": "comptroller",
          "type": "address"
        },
        {
          "indexed": true,
          "internalType": "address",
          "name": "asset",
          "type": "address"
        },
        {
          "indexed": false,
          "internalType": "uint256",
          "name": "amount",
          "type": "uint256"
        }
      ],
      "name": "AssetsReservesUpdated",
      "type": "event"
    },
    {
      "anonymous": false,
      "inputs": [
        {
          "indexed": true,
          "internalType": "address",
          "name": "tokenAddressIn",
          "type": "address"
        },
        {
          "indexed": true,
          "internalType": "address",
          "name": "tokenAddressOut",
          "type": "address"
        },
        {
          "indexed": false,
          "internalType": "uint256",
          "name": "oldIncentive",
          "type": "uint256"
        },
        {
          "indexed": false,
          "internalType": "uint256",
          "name": "newIncentive",
          "type": "uint256"
        },
        {
          "indexed": false,
          "internalType": "enum IAbstractTokenConverter.ConversionAccessibility",
          "name": "oldAccess",
          "type": "uint8"
        },
        {
          "indexed": false,
          "internalType": "enum IAbstractTokenConverter.ConversionAccessibility",
          "name": "newAccess",
          "type": "uint8"
        }
      ],
      "name": "ConversionConfigUpdated",
      "type": "event"
    },
    {
      "anonymous": false,
      "inputs": [
        {
          "indexed": true,
          "internalType": "address",
          "name": "sender",
          "type": "address"
        }
      ],
      "name": "ConversionPaused",
      "type": "event"
    },
    {
      "anonymous": false,
      "inputs": [
        {
          "indexed": true,
          "internalType": "address",
          "name": "sender",
          "type": "address"
        }
      ],
      "name": "ConversionResumed",
      "type": "event"
    },
    {
      "anonymous": false,
      "inputs": [
        {
          "indexed": true,
          "internalType": "address",
          "name": "sender",
          "type": "address"
        },
        {
          "indexed": true,
          "internalType": "address",
          "name": "receiver",
          "type": "address"
        },
        {
          "indexed": false,
          "internalType": "address",
          "name": "tokenAddressIn",
          "type": "address"
        },
        {
          "indexed": true,
          "internalType": "address",
          "name": "tokenAddressOut",
          "type": "address"
        },
        {
          "indexed": false,
          "internalType": "uint256",
          "name": "amountIn",
          "type": "uint256"
        },
        {
          "indexed": false,
          "internalType": "uint256",
          "name": "amountOut",
          "type": "uint256"
        }
      ],
      "name": "ConvertedExactTokens",
      "type": "event"
    },
    {
      "anonymous": false,
      "inputs": [
        {
          "indexed": true,
          "internalType": "address",
          "name": "sender",
          "type": "address"
        },
        {
          "indexed": true,
          "internalType": "address",
          "name": "receiver",
          "type": "address"
        },
        {
          "indexed": false,
          "internalType": "address",
          "name": "tokenAddressIn",
          "type": "address"
        },
        {
          "indexed": true,
          "internalType": "address",
          "name": "tokenAddressOut",
          "type": "address"
        },
        {
          "indexed": false,
          "internalType": "uint256",
          "name": "amountIn",
          "type": "uint256"
        },
        {
          "indexed": false,
          "internalType": "uint256",
          "name": "amountOut",
          "type": "uint256"
        }
      ],
      "name": "ConvertedExactTokensSupportingFeeOnTransferTokens",
      "type": "event"
    },
    {
      "anonymous": false,
      "inputs": [
        {
          "indexed": true,
          "internalType": "address",
          "name": "sender",
          "type": "address"
        },
        {
          "indexed": true,
          "internalType": "address",
          "name": "receiver",
          "type": "address"
        },
        {
          "indexed": false,
          "internalType": "address",
          "name": "tokenAddressIn",
          "type": "address"
        },
        {
          "indexed": true,
          "internalType": "address",
          "name": "tokenAddressOut",
          "type": "address"
        },
        {
          "indexed": false,
          "internalType": "uint256",
          "name": "amountIn",
          "type": "uint256"
        },
        {
          "indexed": false,
          "internalType": "uint256",
          "name": "amountOut",
          "type": "uint256"
        }
      ],
      "name": "ConvertedForExactTokens",
      "type": "event"
    },
    {
      "anonymous": false,
      "inputs": [
        {
          "indexed": true,
          "internalType": "address",
          "name": "sender",
          "type": "address"
        },
        {
          "indexed": true,
          "internalType": "address",
          "name": "receiver",
          "type": "address"
        },
        {
          "indexed": false,
          "internalType": "address",
          "name": "tokenAddressIn",
          "type": "address"
        },
        {
          "indexed": true,
          "internalType": "address",
          "name": "tokenAddressOut",
          "type": "address"
        },
        {
          "indexed": false,
          "internalType": "uint256",
          "name": "amountIn",
          "type": "uint256"
        },
        {
          "indexed": false,
          "internalType": "uint256",
          "name": "amountOut",
          "type": "uint256"
        }
      ],
      "name": "ConvertedForExactTokensSupportingFeeOnTransferTokens",
      "type": "event"
    },
    {
      "anonymous": false,
      "inputs": [
        {
          "indexed": true,
          "internalType": "address",
          "name": "oldConverterNetwork",
          "type": "address"
        },
        {
          "indexed": true,
          "internalType": "address",
          "name": "converterNetwork",
          "type": "address"
        }
      ],
      "name": "ConverterNetworkAddressUpdated",
      "type": "event"
    },
    {
      "anonymous": false,
      "inputs": [
        {
          "indexed": true,
          "internalType": "address",
          "name": "oldDestinationAddress",
          "type": "address"
        },
        {
          "indexed": true,
          "internalType": "address",
          "name": "destinationAddress",
          "type": "address"
        }
      ],
      "name": "DestinationAddressUpdated",
      "type": "event"
    },
    {
      "anonymous": false,
      "inputs": [
        {
          "indexed": false,
          "internalType": "uint8",
          "name": "version",
          "type": "uint8"
        }
      ],
      "name": "Initialized",
      "type": "event"
    },
    {
      "anonymous": false,
      "inputs": [
        {
          "indexed": false,
          "internalType": "uint256",
          "name": "oldMinAmountToConvert",
          "type": "uint256"
        },
        {
          "indexed": false,
          "internalType": "uint256",
          "name": "newMinAmountToConvert",
          "type": "uint256"
        }
      ],
      "name": "MinAmountToConvertUpdated",
      "type": "event"
    },
    {
      "anonymous": false,
      "inputs": [
        {
          "indexed": false,
          "internalType": "address",
          "name": "oldAccessControlManager",
          "type": "address"
        },
        {
          "indexed": false,
          "internalType": "address",
          "name": "newAccessControlManager",
          "type": "address"
        }
      ],
      "name": "NewAccessControlManager",
      "type": "event"
    },
    {
      "anonymous": false,
      "inputs": [
        {
          "indexed": true,
          "internalType": "address",
          "name": "previousOwner",
          "type": "address"
        },
        {
          "indexed": true,
          "internalType": "address",
          "name": "newOwner",
          "type": "address"
        }
      ],
      "name": "OwnershipTransferStarted",
      "type": "event"
    },
    {
      "anonymous": false,
      "inputs": [
        {
          "indexed": true,
          "internalType": "address",
          "name": "previousOwner",
          "type": "address"
        },
        {
          "indexed": true,
          "internalType": "address",
          "name": "newOwner",
          "type": "address"
        }
      ],
      "name": "OwnershipTransferred",
      "type": "event"
    },
    {
      "anonymous": false,
      "inputs": [
        {
          "indexed": true,
          "internalType": "address",
          "name": "comptroller",
          "type": "address"
        },
        {
          "indexed": true,
          "internalType": "address",
          "name": "asset",
          "type": "address"
        },
        {
          "indexed": false,
          "internalType": "bool",
          "name": "value",
          "type": "bool"
        }
      ],
      "name": "PoolAssetsDirectTransferUpdated",
      "type": "event"
    },
    {
      "anonymous": false,
      "inputs": [
        {
          "indexed": true,
          "internalType": "address",
          "name": "oldPoolRegistry",
          "type": "address"
        },
        {
          "indexed": true,
          "internalType": "address",
          "name": "newPoolRegistry",
          "type": "address"
        }
      ],
      "name": "PoolRegistryUpdated",
      "type": "event"
    },
    {
      "anonymous": false,
      "inputs": [
        {
          "indexed": true,
          "internalType": "contract ResilientOracle",
          "name": "oldPriceOracle",
          "type": "address"
        },
        {
          "indexed": true,
          "internalType": "contract ResilientOracle",
          "name": "priceOracle",
          "type": "address"
        }
      ],
      "name": "PriceOracleUpdated",
      "type": "event"
    },
    {
      "anonymous": false,
      "inputs": [
        {
          "indexed": true,
          "internalType": "address",
          "name": "token",
          "type": "address"
        },
        {
          "indexed": true,
          "internalType": "address",
          "name": "to",
          "type": "address"
        },
        {
          "indexed": false,
          "internalType": "uint256",
          "name": "amount",
          "type": "uint256"
        }
      ],
      "name": "SweepToken",
      "type": "event"
    },
    {
      "inputs": [],
      "name": "CORE_POOL_COMPTROLLER",
      "outputs": [
        {
          "internalType": "address",
          "name": "",
          "type": "address"
        }
      ],
      "stateMutability": "view",
      "type": "function"
    },
    {
      "inputs": [],
      "name": "MAX_INCENTIVE",
      "outputs": [
        {
          "internalType": "uint256",
          "name": "",
          "type": "uint256"
        }
      ],
      "stateMutability": "view",
      "type": "function"
    },
    {
      "inputs": [],
      "name": "NATIVE_WRAPPED",
      "outputs": [
        {
          "internalType": "address",
          "name": "",
          "type": "address"
        }
      ],
      "stateMutability": "view",
      "type": "function"
    },
    {
      "inputs": [],
      "name": "VBNB",
      "outputs": [
        {
          "internalType": "address",
          "name": "",
          "type": "address"
        }
      ],
      "stateMutability": "view",
      "type": "function"
    },
    {
      "inputs": [],
      "name": "acceptOwnership",
      "outputs": [],
      "stateMutability": "nonpayable",
      "type": "function"
    },
    {
      "inputs": [],
      "name": "accessControlManager",
      "outputs": [
        {
          "internalType": "contract IAccessControlManagerV8",
          "name": "",
          "type": "address"
        }
      ],
      "stateMutability": "view",
      "type": "function"
    },
    {
      "inputs": [
        {
          "internalType": "address",
          "name": "tokenAddress",
          "type": "address"
        }
      ],
      "name": "balanceOf",
      "outputs": [
        {
          "internalType": "uint256",
          "name": "tokenBalance",
          "type": "uint256"
        }
      ],
      "stateMutability": "view",
      "type": "function"
    },
    {
      "inputs": [
        {
          "internalType": "address",
          "name": "",
          "type": "address"
        },
        {
          "internalType": "address",
          "name": "",
          "type": "address"
        }
      ],
      "name": "conversionConfigurations",
      "outputs": [
        {
          "internalType": "uint256",
          "name": "incentive",
          "type": "uint256"
        },
        {
          "internalType": "enum IAbstractTokenConverter.ConversionAccessibility",
          "name": "conversionAccess",
          "type": "uint8"
        }
      ],
      "stateMutability": "view",
      "type": "function"
    },
    {
      "inputs": [],
      "name": "conversionPaused",
      "outputs": [
        {
          "internalType": "bool",
          "name": "",
          "type": "bool"
        }
      ],
      "stateMutability": "view",
      "type": "function"
    },
    {
      "inputs": [
        {
          "internalType": "uint256",
          "name": "amountInMantissa",
          "type": "uint256"
        },
        {
          "internalType": "uint256",
          "name": "amountOutMinMantissa",
          "type": "uint256"
        },
        {
          "internalType": "address",
          "name": "tokenAddressIn",
          "type": "address"
        },
        {
          "internalType": "address",
          "name": "tokenAddressOut",
          "type": "address"
        },
        {
          "internalType": "address",
          "name": "to",
          "type": "address"
        }
      ],
      "name": "convertExactTokens",
      "outputs": [
        {
          "internalType": "uint256",
          "name": "actualAmountIn",
          "type": "uint256"
        },
        {
          "internalType": "uint256",
          "name": "actualAmountOut",
          "type": "uint256"
        }
      ],
      "stateMutability": "nonpayable",
      "type": "function"
    },
    {
      "inputs": [
        {
          "internalType": "uint256",
          "name": "amountInMantissa",
          "type": "uint256"
        },
        {
          "internalType": "uint256",
          "name": "amountOutMinMantissa",
          "type": "uint256"
        },
        {
          "internalType": "address",
          "name": "tokenAddressIn",
          "type": "address"
        },
        {
          "internalType": "address",
          "name": "tokenAddressOut",
          "type": "address"
        },
        {
          "internalType": "address",
          "name": "to",
          "type": "address"
        }
      ],
      "name": "convertExactTokensSupportingFeeOnTransferTokens",
      "outputs": [
        {
          "internalType": "uint256",
          "name": "actualAmountIn",
          "type": "uint256"
        },
        {
          "internalType": "uint256",
          "name": "actualAmountOut",
          "type": "uint256"
        }
      ],
      "stateMutability": "nonpayable",
      "type": "function"
    },
    {
      "inputs": [
        {
          "internalType": "uint256",
          "name": "amountInMaxMantissa",
          "type": "uint256"
        },
        {
          "internalType": "uint256",
          "name": "amountOutMantissa",
          "type": "uint256"
        },
        {
          "internalType": "address",
          "name": "tokenAddressIn",
          "type": "address"
        },
        {
          "internalType": "address",
          "name": "tokenAddressOut",
          "type": "address"
        },
        {
          "internalType": "address",
          "name": "to",
          "type": "address"
        }
      ],
      "name": "convertForExactTokens",
      "outputs": [
        {
          "internalType": "uint256",
          "name": "actualAmountIn",
          "type": "uint256"
        },
        {
          "internalType": "uint256",
          "name": "actualAmountOut",
          "type": "uint256"
        }
      ],
      "stateMutability": "nonpayable",
      "type": "function"
    },
    {
      "inputs": [
        {
          "internalType": "uint256",
          "name": "amountInMaxMantissa",
          "type": "uint256"
        },
        {
          "internalType": "uint256",
          "name": "amountOutMantissa",
          "type": "uint256"
        },
        {
          "internalType": "address",
          "name": "tokenAddressIn",
          "type": "address"
        },
        {
          "internalType": "address",
          "name": "tokenAddressOut",
          "type": "address"
        },
        {
          "internalType": "address",
          "name": "to",
          "type": "address"
        }
      ],
      "name": "convertForExactTokensSupportingFeeOnTransferTokens",
      "outputs": [
        {
          "internalType": "uint256",
          "name": "actualAmountIn",
          "type": "uint256"
        },
        {
          "internalType": "uint256",
          "name": "actualAmountOut",
          "type": "uint256"
        }
      ],
      "stateMutability": "nonpayable",
      "type": "function"
    },
    {
      "inputs": [],
      "name": "converterNetwork",
      "outputs": [
        {
          "internalType": "contract IConverterNetwork",
          "name": "",
          "type": "address"
        }
      ],
      "stateMutability": "view",
      "type": "function"
    },
    {
      "inputs": [],
      "name": "destinationAddress",
      "outputs": [
        {
          "internalType": "address",
          "name": "",
          "type": "address"
        }
      ],
      "stateMutability": "view",
      "type": "function"
    },
    {
      "inputs": [
        {
          "internalType": "uint256",
          "name": "amountOutMantissa",
          "type": "uint256"
        },
        {
          "internalType": "address",
          "name": "tokenAddressIn",
          "type": "address"
        },
        {
          "internalType": "address",
          "name": "tokenAddressOut",
          "type": "address"
        }
      ],
      "name": "getAmountIn",
      "outputs": [
        {
          "internalType": "uint256",
          "name": "amountConvertedMantissa",
          "type": "uint256"
        },
        {
          "internalType": "uint256",
          "name": "amountInMantissa",
          "type": "uint256"
        }
      ],
      "stateMutability": "view",
      "type": "function"
    },
    {
      "inputs": [
        {
          "internalType": "uint256",
          "name": "amountInMantissa",
          "type": "uint256"
        },
        {
          "internalType": "address",
          "name": "tokenAddressIn",
          "type": "address"
        },
        {
          "internalType": "address",
          "name": "tokenAddressOut",
          "type": "address"
        }
      ],
      "name": "getAmountOut",
      "outputs": [
        {
          "internalType": "uint256",
          "name": "amountConvertedMantissa",
          "type": "uint256"
        },
        {
          "internalType": "uint256",
          "name": "amountOutMantissa",
          "type": "uint256"
        }
      ],
      "stateMutability": "view",
      "type": "function"
    },
    {
      "inputs": [
        {
          "internalType": "address",
          "name": "comptroller",
          "type": "address"
        },
        {
          "internalType": "address",
          "name": "asset",
          "type": "address"
        }
      ],
      "name": "getPoolAssetReserve",
      "outputs": [
        {
          "internalType": "uint256",
          "name": "reserves",
          "type": "uint256"
        }
      ],
      "stateMutability": "view",
      "type": "function"
    },
    {
      "inputs": [
        {
          "internalType": "address",
          "name": "tokenAddress",
          "type": "address"
        }
      ],
      "name": "getPools",
      "outputs": [
        {
          "internalType": "address[]",
          "name": "poolsWithCore",
          "type": "address[]"
        }
      ],
      "stateMutability": "view",
      "type": "function"
    },
    {
      "inputs": [
        {
          "internalType": "uint256",
          "name": "amountOutMantissa",
          "type": "uint256"
        },
        {
          "internalType": "address",
          "name": "tokenAddressIn",
          "type": "address"
        },
        {
          "internalType": "address",
          "name": "tokenAddressOut",
          "type": "address"
        }
      ],
      "name": "getUpdatedAmountIn",
      "outputs": [
        {
          "internalType": "uint256",
          "name": "amountConvertedMantissa",
          "type": "uint256"
        },
        {
          "internalType": "uint256",
          "name": "amountInMantissa",
          "type": "uint256"
        }
      ],
      "stateMutability": "nonpayable",
      "type": "function"
    },
    {
      "inputs": [
        {
          "internalType": "uint256",
          "name": "amountInMantissa",
          "type": "uint256"
        },
        {
          "internalType": "address",
          "name": "tokenAddressIn",
          "type": "address"
        },
        {
          "internalType": "address",
          "name": "tokenAddressOut",
          "type": "address"
        }
      ],
      "name": "getUpdatedAmountOut",
      "outputs": [
        {
          "internalType": "uint256",
          "name": "amountConvertedMantissa",
          "type": "uint256"
        },
        {
          "internalType": "uint256",
          "name": "amountOutMantissa",
          "type": "uint256"
        }
      ],
      "stateMutability": "nonpayable",
      "type": "function"
    },
    {
      "inputs": [
        {
          "internalType": "address",
          "name": "accessControlManager_",
          "type": "address"
        },
        {
          "internalType": "contract ResilientOracle",
          "name": "priceOracle_",
          "type": "address"
        },
        {
          "internalType": "address",
          "name": "destinationAddress_",
          "type": "address"
        },
        {
          "internalType": "address",
          "name": "poolRegistry_",
          "type": "address"
        },
        {
          "internalType": "uint256",
          "name": "minAmountToConvert_",
          "type": "uint256"
        },
        {
          "internalType": "address[]",
          "name": "comptrollers",
          "type": "address[]"
        },
        {
          "internalType": "address[][]",
          "name": "assets",
          "type": "address[][]"
        },
        {
          "internalType": "bool[][]",
          "name": "values",
          "type": "bool[][]"
        }
      ],
      "name": "initialize",
      "outputs": [],
      "stateMutability": "nonpayable",
      "type": "function"
    },
    {
      "inputs": [],
      "name": "minAmountToConvert",
      "outputs": [
        {
          "internalType": "uint256",
          "name": "",
          "type": "uint256"
        }
      ],
      "stateMutability": "view",
      "type": "function"
    },
    {
      "inputs": [],
      "name": "owner",
      "outputs": [
        {
          "internalType": "address",
          "name": "",
          "type": "address"
        }
      ],
      "stateMutability": "view",
      "type": "function"
    },
    {
      "inputs": [],
      "name": "pauseConversion",
      "outputs": [],
      "stateMutability": "nonpayable",
      "type": "function"
    },
    {
      "inputs": [],
      "name": "pendingOwner",
      "outputs": [
        {
          "internalType": "address",
          "name": "",
          "type": "address"
        }
      ],
      "stateMutability": "view",
      "type": "function"
    },
    {
      "inputs": [],
      "name": "poolRegistry",
      "outputs": [
        {
          "internalType": "address",
          "name": "",
          "type": "address"
        }
      ],
      "stateMutability": "view",
      "type": "function"
    },
    {
      "inputs": [
        {
          "internalType": "address",
          "name": "",
          "type": "address"
        },
        {
          "internalType": "address",
          "name": "",
          "type": "address"
        }
      ],
      "name": "poolsAssetsDirectTransfer",
      "outputs": [
        {
          "internalType": "bool",
          "name": "",
          "type": "bool"
        }
      ],
      "stateMutability": "view",
      "type": "function"
    },
    {
      "inputs": [],
      "name": "priceOracle",
      "outputs": [
        {
          "internalType": "contract ResilientOracle",
          "name": "",
          "type": "address"
        }
      ],
      "stateMutability": "view",
      "type": "function"
    },
    {
      "inputs": [],
      "name": "renounceOwnership",
      "outputs": [],
      "stateMutability": "nonpayable",
      "type": "function"
    },
    {
      "inputs": [],
      "name": "resumeConversion",
      "outputs": [],
      "stateMutability": "nonpayable",
      "type": "function"
    },
    {
      "inputs": [
        {
          "internalType": "address",
          "name": "accessControlManager_",
          "type": "address"
        }
      ],
      "name": "setAccessControlManager",
      "outputs": [],
      "stateMutability": "nonpayable",
      "type": "function"
    },
    {
      "inputs": [
        {
          "internalType": "address",
          "name": "tokenAddressIn",
          "type": "address"
        },
        {
          "internalType": "address",
          "name": "tokenAddressOut",
          "type": "address"
        },
        {
          "components": [
            {
              "internalType": "uint256",
              "name": "incentive",
              "type": "uint256"
            },
            {
              "internalType": "enum IAbstractTokenConverter.ConversionAccessibility",
              "name": "conversionAccess",
              "type": "uint8"
            }
          ],
          "internalType": "struct IAbstractTokenConverter.ConversionConfig",
          "name": "conversionConfig",
          "type": "tuple"
        }
      ],
      "name": "setConversionConfig",
      "outputs": [],
      "stateMutability": "nonpayable",
      "type": "function"
    },
    {
      "inputs": [
        {
          "internalType": "address",
          "name": "tokenAddressIn",
          "type": "address"
        },
        {
          "internalType": "address[]",
          "name": "tokenAddressesOut",
          "type": "address[]"
        },
        {
          "components": [
            {
              "internalType": "uint256",
              "name": "incentive",
              "type": "uint256"
            },
            {
              "internalType": "enum IAbstractTokenConverter.ConversionAccessibility",
              "name": "conversionAccess",
              "type": "uint8"
            }
          ],
          "internalType": "struct IAbstractTokenConverter.ConversionConfig[]",
          "name": "conversionConfigs",
          "type": "tuple[]"
        }
      ],
      "name": "setConversionConfigs",
      "outputs": [],
      "stateMutability": "nonpayable",
      "type": "function"
    },
    {
      "inputs": [
        {
          "internalType": "contract IConverterNetwork",
          "name": "converterNetwork_",
          "type": "address"
        }
      ],
      "name": "setConverterNetwork",
      "outputs": [],
      "stateMutability": "nonpayable",
      "type": "function"
    },
    {
      "inputs": [
        {
          "internalType": "address",
          "name": "destinationAddress_",
          "type": "address"
        }
      ],
      "name": "setDestination",
      "outputs": [],
      "stateMutability": "nonpayable",
      "type": "function"
    },
    {
      "inputs": [
        {
          "internalType": "uint256",
          "name": "minAmountToConvert_",
          "type": "uint256"
        }
      ],
      "name": "setMinAmountToConvert",
      "outputs": [],
      "stateMutability": "nonpayable",
      "type": "function"
    },
    {
      "inputs": [
        {
          "internalType": "address",
          "name": "poolRegistry_",
          "type": "address"
        }
      ],
      "name": "setPoolRegistry",
      "outputs": [],
      "stateMutability": "nonpayable",
      "type": "function"
    },
    {
      "inputs": [
        {
          "internalType": "address[]",
          "name": "comptrollers",
          "type": "address[]"
        },
        {
          "internalType": "address[][]",
          "name": "assets",
          "type": "address[][]"
        },
        {
          "internalType": "bool[][]",
          "name": "values",
          "type": "bool[][]"
        }
      ],
      "name": "setPoolsAssetsDirectTransfer",
      "outputs": [],
      "stateMutability": "nonpayable",
      "type": "function"
    },
    {
      "inputs": [
        {
          "internalType": "contract ResilientOracle",
          "name": "priceOracle_",
          "type": "address"
        }
      ],
      "name": "setPriceOracle",
      "outputs": [],
      "stateMutability": "nonpayable",
      "type": "function"
    },
    {
      "inputs": [
        {
          "internalType": "address",
          "name": "tokenAddress",
          "type": "address"
        },
        {
          "internalType": "address",
          "name": "to",
          "type": "address"
        },
        {
          "internalType": "uint256",
          "name": "amount",
          "type": "uint256"
        }
      ],
      "name": "sweepToken",
      "outputs": [],
      "stateMutability": "nonpayable",
      "type": "function"
    },
    {
      "inputs": [
        {
          "internalType": "address",
          "name": "newOwner",
          "type": "address"
        }
      ],
      "name": "transferOwnership",
      "outputs": [],
      "stateMutability": "nonpayable",
      "type": "function"
    },
    {
      "inputs": [
        {
          "internalType": "address",
          "name": "comptroller",
          "type": "address"
        },
        {
          "internalType": "address",
          "name": "asset",
          "type": "address"
        }
      ],
      "name": "updateAssetsState",
      "outputs": [],
      "stateMutability": "nonpayable",
      "type": "function"
    }
  ],
  "transactionHash": "0x6a55bd8e3e261f2a91696a44b9ccf29b0f0efee341bad4fb8b425f015aadc7d3",
  "args": [
    "0x94d1820b2D1c7c7452A163983Dc888CEC546b77D",
    "0x2E7222e51c0f6e98610A1543Aa3836E092CDe62c",
    "0xae13d989daC2f0dEbFf460aC112a837C89BAa7cd"
  ],
  "numDeployments": 1,
  "solcInputHash": "5d85b28b6a601f301b9d986a9cab69e1",
  "bytecode": "0x60e06040523480156200001157600080fd5b5060405162005ac638038062005ac683398101604081905262000034916200018a565b6200003f8362000081565b6200004a8262000081565b620000558162000081565b6001600160a01b0380841660805282811660a052811660c05262000078620000ac565b505050620001d4565b6001600160a01b038116620000a9576040516342bcdf7f60e11b815260040160405180910390fd5b50565b600054610100900460ff1615620001195760405162461bcd60e51b815260206004820152602760248201527f496e697469616c697a61626c653a20636f6e747261637420697320696e697469604482015266616c697a696e6760c81b606482015260840160405180910390fd5b60005460ff908116146200016b576000805460ff191660ff9081179091556040519081527f7f26b83ff96e1f2b6a682f133852f6798a09c465da95921460cefb38474024989060200160405180910390a15b565b80516001600160a01b03811681146200018557600080fd5b919050565b600080600060608486031215620001a057600080fd5b620001ab846200016d565b9250620001bb602085016200016d565b9150620001cb604085016200016d565b90509250925092565b60805160a05160c05161589f62000227600039600081816103e20152612d470152600081816103bb0152612c840152600081816106c501528181610dbd01528181612bcb01526134a4015261589f6000f3fe608060405234801561001057600080fd5b50600436106102e95760003560e01c806370a0823111610191578063b6828c57116100e3578063e30c397811610097578063f2fde38b11610071578063f2fde38b146106ad578063fa7b81a0146106c0578063fe3da984146106e757600080fd5b8063e30c397814610676578063f04c318714610687578063f0dc7e9d1461069a57600080fd5b8063c0654646116100c8578063c065464614610641578063ca32546914610654578063e2ff7ea21461066757600080fd5b8063b6828c5714610626578063bc368b041461063957600080fd5b80638da5cb5b11610145578063afcff50f1161011f578063afcff50f146105be578063b491ddf7146105d2578063b4a0bdf31461061557600080fd5b80638da5cb5b1461058757806390fa7b5414610598578063aac59a75146105ab57600080fd5b8063746460a911610176578063746460a91461055957806379ba50971461056c5780637b77cd6a1461057457600080fd5b806370a0823114610527578063715018a61461055157600080fd5b806352e21a181161024a5780635c39f467116101fe5780636daa463b116101d85780636daa463b146104e05780636f1a30a8146104f35780636fb052751461050657600080fd5b80635c39f4671461049a5780635e1e6325146104ba57806364aff9ec146104cd57600080fd5b8063553745221161022f578063553745221461046c578063556bbd8a1461047f57806358b904df1461049257600080fd5b806352e21a1814610446578063530e784f1461045957600080fd5b80632630c12f116102a1578063362b679511610286578063362b6795146103dd578063439727a514610404578063454900fe1461041757600080fd5b80632630c12f146103a35780633421fc52146103b657600080fd5b80630a0a05e6116102d25780630a0a05e6146103535780630a9a2b72146103685780630e32cb861461039057600080fd5b806301e20178146102ee57806307aa239e1461031e575b600080fd5b60ff54610301906001600160a01b031681565b6040516001600160a01b0390911681526020015b60405180910390f35b60fe546103439074010000000000000000000000000000000000000000900460ff1681565b6040519015158152602001610315565b610366610361366004614df0565b6106f0565b005b61037b610376366004614e0d565b610704565b60408051928352602083019190915201610315565b61036661039e366004614df0565b610802565b60fc54610301906001600160a01b031681565b6103017f000000000000000000000000000000000000000000000000000000000000000081565b6103017f000000000000000000000000000000000000000000000000000000000000000081565b61037b610412366004614e4f565b610813565b610343610425366004614eae565b61013060209081526000928352604080842090915290825290205460ff1681565b610366610454366004614df0565b61095d565b610366610467366004614df0565b61096e565b61036661047a366004614f33565b61097f565b61036661048d366004614fcd565b6109b6565b610366610b8d565b6104ad6104a8366004614df0565b610c73565b60405161031591906150ba565b61037b6104c8366004614e0d565b610e0f565b6103666104db366004615107565b610f09565b61037b6104ee366004614e0d565b610fb0565b61037b610501366004614e0d565b6110b9565b610519610514366004614eae565b6111b8565b604051908152602001610315565b610519610535366004614df0565b6001600160a01b0316600090815261012d602052604090205490565b61036661127d565b610366610567366004615148565b611291565b6103666112d8565b610366610582366004614df0565b611363565b6033546001600160a01b0316610301565b61037b6105a6366004614e4f565b6113ea565b6103666105b9366004614eae565b6114e0565b61012f54610301906001600160a01b031681565b6106076105e0366004614eae565b60fd6020908152600092835260408084209091529082529020805460019091015460ff1682565b6040516103159291906151cb565b6097546001600160a01b0316610301565b61037b610634366004614e4f565b611516565b61036661160c565b61036661064f3660046151df565b6116be565b60fe54610301906001600160a01b031681565b6105196706f05b59d3b2000081565b6065546001600160a01b0316610301565b61037b610695366004614e4f565b61175c565b6103666106a836600461528f565b61188b565b6103666106bb366004614df0565b611c34565b6103017f000000000000000000000000000000000000000000000000000000000000000081565b61051960fb5481565b6106f8611cbd565b61070181611d17565b50565b60008060026001600160a01b03808616600090815260fd602090815260408083209388168352929052206001015460ff16600381111561074657610746615161565b0361077d576040517f03410cd100000000000000000000000000000000000000000000000000000000815260040160405180910390fd5b849150600061078d868686611d94565b909250905060006107b4856001600160a01b0316600090815261012d602052604090205490565b9050868110156107f857816001816107d4670de0b6b3a76400008561532f565b6107de919061536c565b6107e89190615384565b6107f2919061539b565b92508093505b5050935093915050565b61080a611cbd565b610701816120b8565b6000808285856108216121ad565b61082a83612202565b816001600160a01b0316836001600160a01b0316148061085b5750806001600160a01b0316836001600160a01b0316145b15610892576040517f8aa3a72f00000000000000000000000000000000000000000000000000000000815260040160405180910390fd5b61089a612242565b6108a78a8a8a8a8a61229b565b90955093508985146108e5576040517fc214279600000000000000000000000000000000000000000000000000000000815260040160405180910390fd5b6108f18888878761231b565b604080516001600160a01b038a81168252602082018890529181018690528189169188169033907f795a235be939acb902ac69562805f86e1341a9b019c351b996e2aa2dfc34c67c906060015b60405180910390a4610950600160c955565b5050509550959350505050565b610965611cbd565b61070181612696565b610976611cbd565b61070181612713565b6109a06040518060600160405280603c815260200161582e603c9139612790565b6109ae86868686868661285c565b505050505050565b600054610100900460ff16158080156109d65750600054600160ff909116105b806109f05750303b1580156109f0575060005460ff166001145b610a675760405162461bcd60e51b815260206004820152602e60248201527f496e697469616c697a61626c653a20636f6e747261637420697320616c72656160448201527f647920696e697469616c697a656400000000000000000000000000000000000060648201526084015b60405180910390fd5b600080547fffffffffffffffffffffffffffffffffffffffffffffffffffffffffffffff001660011790558015610ac557600080547fffffffffffffffffffffffffffffffffffffffffffffffffffffffffffff00ff166101001790555b610ad18c8c8c8b612b2d565b610ada89612202565b61012f80547fffffffffffffffffffffffff0000000000000000000000000000000000000000166001600160a01b038b16179055610b1c87878787878761285c565b8015610b7f57600080547fffffffffffffffffffffffffffffffffffffffffffffffffffffffffffff00ff169055604051600181527f7f26b83ff96e1f2b6a682f133852f6798a09c465da95921460cefb38474024989060200160405180910390a15b505050505050505050505050565b610bcb6040518060400160405280601281526020017f726573756d65436f6e76657273696f6e28290000000000000000000000000000815250612790565b60fe5474010000000000000000000000000000000000000000900460ff16610c1e576040517e6d8dbb00000000000000000000000000000000000000000000000000000000815260040160405180910390fd5b60fe80547fffffffffffffffffffffff00ffffffffffffffffffffffffffffffffffffffff16905560405133907f89b79206f08dadd78502cff5075d2b094fa0abea0b063cfafe4475e2a380c51f90600090a2565b61012f546040517ff36dba380000000000000000000000000000000000000000000000000000000081526001600160a01b038381166004830152606092169063f36dba3890602401600060405180830381865afa158015610cd8573d6000803e3d6000fd5b505050506040513d6000823e601f3d908101601f19168201604052610d0091908101906154ce565b9050610d0b82612bc6565b15610e0a5780516000610d1f82600161536c565b67ffffffffffffffff811115610d3757610d376153d6565b604051908082528060200260200182016040528015610d60578160200160208202803683370190505b50905060005b82811015610dba57838181518110610d8057610d80615503565b6020026020010151828281518110610d9a57610d9a615503565b6001600160a01b0390921660209283029190910190910152600101610d66565b507f0000000000000000000000000000000000000000000000000000000000000000818381518110610dee57610dee615503565b6001600160a01b03909216602092830291909101909101529150505b919050565b60008060026001600160a01b03808616600090815260fd602090815260408083209388168352929052206001015460ff166003811115610e5157610e51615161565b03610e88576040517f03410cd100000000000000000000000000000000000000000000000000000000815260040160405180910390fd5b8491506000610e98868686612d92565b90925090506000610ebf856001600160a01b0316600090815261012d602052604090205490565b9050828110156107f85781600181610edf670de0b6b3a76400008561532f565b610ee9919061536c565b610ef39190615384565b610efd919061539b565b97909650945050505050565b610f11611cbd565b610f19612242565b610f2283612202565b610f2b82612202565b610f34816130b3565b82610f3f81836130ed565b610f536001600160a01b03821684846133f7565b826001600160a01b0316846001600160a01b03167f6d25be279134f4ecaa4770aff0c3d916d9e7c5ef37b65ed95dbdba411f5d54d584604051610f9891815260200190565b60405180910390a350610fab600160c955565b505050565b60fc546040517fb62cad690000000000000000000000000000000000000000000000000000000081526001600160a01b038481166004830152600092839291169063b62cad6990602401600060405180830381600087803b15801561101457600080fd5b505af1158015611028573d6000803e3d6000fd5b505060fc546040517fb62cad690000000000000000000000000000000000000000000000000000000081526001600160a01b038781166004830152909116925063b62cad699150602401600060405180830381600087803b15801561108c57600080fd5b505af11580156110a0573d6000803e3d6000fd5b505050506110af858585612d92565b5094959350505050565b60fc546040517fb62cad690000000000000000000000000000000000000000000000000000000081526001600160a01b038481166004830152600092839291169063b62cad6990602401600060405180830381600087803b15801561111d57600080fd5b505af1158015611131573d6000803e3d6000fd5b505060fc546040517fb62cad690000000000000000000000000000000000000000000000000000000081526001600160a01b038781166004830152909116925063b62cad699150602401600060405180830381600087803b15801561119557600080fd5b505af11580156111a9573d6000803e3d6000fd5b505050506110af858585611d94565b60006111c660c95460021490565b156111fd576040517f9a050fe700000000000000000000000000000000000000000000000000000000815260040160405180910390fd5b61120783836134a0565b611250576040517f983f1fb50000000000000000000000000000000000000000000000000000000081526001600160a01b03808516600483015283166024820152604401610a5e565b506001600160a01b03918216600090815261012e6020908152604080832093909416825291909152205490565b611285611cbd565b61128f6000613590565b565b6112cf6040518060400160405280601e81526020017f7365744d696e416d6f756e74546f436f6e766572742875696e74323536290000815250612790565b610701816135c1565b60655433906001600160a01b0316811461135a5760405162461bcd60e51b815260206004820152602960248201527f4f776e61626c6532537465703a2063616c6c6572206973206e6f74207468652060448201527f6e6577206f776e657200000000000000000000000000000000000000000000006064820152608401610a5e565b61070181613590565b61136b611cbd565b61137481612202565b61012f546040516001600160a01b038084169216907fa87b964d321035d2165e484ff4b722dd6eae30606c0b98887d2ed1a34e594bfe90600090a361012f80547fffffffffffffffffffffffff0000000000000000000000000000000000000000166001600160a01b0392909216919091179055565b6000808285856113f86121ad565b61140183612202565b816001600160a01b0316836001600160a01b031614806114325750806001600160a01b0316836001600160a01b0316145b15611469576040517f8aa3a72f00000000000000000000000000000000000000000000000000000000815260040160405180910390fd5b611471612242565b61147e8a8a8a8a8a61229b565b909550935061148f8888878761231b565b604080516001600160a01b038a81168252602082018890529181018690528189169188169033907f93b7ba2a2b0e36320375853d7466af5685c07567804b871b4fdfd31e3bb771549060600161093e565b6114e8612242565b60006114f4838361360b565b9050801561150757611507838383613968565b50611512600160c955565b5050565b6000808285856115246121ad565b61152d83612202565b816001600160a01b0316836001600160a01b0316148061155e5750806001600160a01b0316836001600160a01b0316145b15611595576040517f8aa3a72f00000000000000000000000000000000000000000000000000000000815260040160405180910390fd5b61159d612242565b6115aa8a8a8a8a8a613e04565b90955093506115bb8888878761231b565b604080516001600160a01b038a81168252602082018890529181018690528189169188169033907f9b7dc1d7d2974d015b4fc39889a09f3a3923add808f5863158f3162d997d4e829060600161093e565b61164a6040518060400160405280601181526020017f7061757365436f6e76657273696f6e2829000000000000000000000000000000815250612790565b6116526121ad565b60fe80547fffffffffffffffffffffff00ffffffffffffffffffffffffffffffffffffffff167401000000000000000000000000000000000000000017905560405133907f490bc639fd0d96f19c8adf77bc98d17fbefdee2e1e1864d21f041360d0ee065a90600090a2565b828181146116f8576040517f4d5590f300000000000000000000000000000000000000000000000000000000815260040160405180910390fd5b60005b818110156117535761174b8787878481811061171957611719615503565b905060200201602081019061172e9190614df0565b86868581811061174057611740615503565b90506040020161188b565b6001016116fb565b50505050505050565b60008082858561176a6121ad565b61177383612202565b816001600160a01b0316836001600160a01b031614806117a45750806001600160a01b0316836001600160a01b0316145b156117db576040517f8aa3a72f00000000000000000000000000000000000000000000000000000000815260040160405180910390fd5b6117e3612242565b6117f08a8a8a8a8a613e96565b909550935088841461182e576040517fa8dc653c00000000000000000000000000000000000000000000000000000000815260040160405180910390fd5b61183a8888878761231b565b604080516001600160a01b038a81168252602082018890529181018690528189169188169033907fcb4ea7de8d069b0f443b792cba6c6df5096508951bbc75c04ac42c9251efe0769060600161093e565b6118ac6040518060600160405280603581526020016157f960359139612790565b6118b583612202565b6118be82612202565b6706f05b59d3b2000081351115611912576040517f9770caee000000000000000000000000000000000000000000000000000000008152813560048201526706f05b59d3b200006024820152604401610a5e565b816001600160a01b0316836001600160a01b0316148061194b5750611935613f53565b6001600160a01b0316836001600160a01b031614155b80611993575060006001600160a01b03808416600090815260fd602090815260408083209388168352929052206001015460ff16600381111561199057611990615161565b14155b156119ca576040517feebb5ac600000000000000000000000000000000000000000000000000000000815260040160405180910390fd5b60026119dc6040830160208401615532565b60038111156119ed576119ed615161565b1480156119fa5750803515155b15611a31576040517fd0d4aabe00000000000000000000000000000000000000000000000000000000815260040160405180910390fd5b6002611a436040830160208401615532565b6003811115611a5457611a54615161565b1480611a8057506001611a6d6040830160208401615532565b6003811115611a7e57611a7e615161565b145b8015611a95575060ff546001600160a01b0316155b15611acc576040517fe7c2c99400000000000000000000000000000000000000000000000000000000815260040160405180910390fd5b6001600160a01b03808416600081815260fd602090815260408083209487168084529482529182902080546001820154919594937f39fbfdd5da133303ed31b1b65e30a0ddf7a9236573368c66c859dceccc1dd12a93919288359260ff90911691611b3c91908a01908a01615532565b604051611b4c9493929190615553565b60405180910390a36000611b666040840160208501615532565b6003811115611b7757611b77615161565b03611bd4576001600160a01b03808516600090815260fd60209081526040808320938716835292905290812090815560010180547fffffffffffffffffffffffffffffffffffffffffffffffffffffffffffffff00169055611c2e565b81358155611be86040830160208401615532565b6001808301805490917fffffffffffffffffffffffffffffffffffffffffffffffffffffffffffffff0090911690836003811115611c2857611c28615161565b02179055505b50505050565b611c3c611cbd565b606580546001600160a01b0383167fffffffffffffffffffffffff00000000000000000000000000000000000000009091168117909155611c856033546001600160a01b031690565b6001600160a01b03167f38d16b8cac22d99fc7c124b9cd0de2d3fa1faef420bfe791d8c362d765e2270060405160405180910390a350565b6033546001600160a01b0316331461128f5760405162461bcd60e51b815260206004820181905260248201527f4f776e61626c653a2063616c6c6572206973206e6f7420746865206f776e65726044820152606401610a5e565b611d2081612202565b60fe546040516001600160a01b038084169216907f9be3097b5c8b276786be52a244ee90d66efd34805d9eb16f168fb2b4aaae9a2b90600090a360fe80547fffffffffffffffffffffffff0000000000000000000000000000000000000000166001600160a01b0392909216919091179055565b60008084600003611dd1576040517f42301c2300000000000000000000000000000000000000000000000000000000815260040160405180910390fd5b6001600160a01b03808516600090815260fd6020908152604080832093871683529281528282208351808501909452805484526001810154929392909183019060ff166003811115611e2557611e25615161565b6003811115611e3657611e36615161565b9052509050600081602001516003811115611e5357611e53615161565b03611e8a576040517f618ce59700000000000000000000000000000000000000000000000000000000815260040160405180910390fd5b60fc546040517f41976e090000000000000000000000000000000000000000000000000000000081526001600160a01b03878116600483015260009216906341976e0990602401602060405180830381865afa158015611eee573d6000803e3d6000fd5b505050506040513d601f19601f82011682018060405250810190611f129190615584565b60fc546040517f41976e090000000000000000000000000000000000000000000000000000000081526001600160a01b038881166004830152929350600092909116906341976e0990602401602060405180830381865afa158015611f7b573d6000803e3d6000fd5b505050506040513d601f19601f82011682018060405250810190611f9f9190615584565b835160ff54919250906001600160a01b03161580159061203f575060ff546040517f6c059fb10000000000000000000000000000000000000000000000000000000081523360048201526001600160a01b0390911690636c059fb190602401602060405180830381865afa15801561201b573d6000803e3d6000fd5b505050506040513d601f19601f8201168201806040525081019061203f919061559d565b15612048575060005b600061205c82670de0b6b3a764000061536c565b905082612069828661532f565b612073919061539b565b95508560018161208b670de0b6b3a76400008e61532f565b612095919061536c565b61209f9190615384565b6120a9919061539b565b96505050505050935093915050565b6001600160a01b0381166121345760405162461bcd60e51b815260206004820152602560248201527f696e76616c696420616365737320636f6e74726f6c206d616e6167657220616460448201527f64726573730000000000000000000000000000000000000000000000000000006064820152608401610a5e565b609780546001600160a01b038381167fffffffffffffffffffffffff000000000000000000000000000000000000000083168117909355604080519190921680825260208201939093527f66fd58e82f7b31a2a5c30e0888f3093efe4e111b00cd2b0c31fe014601293aa0910160405180910390a15050565b60fe5474010000000000000000000000000000000000000000900460ff161561128f576040517f952bcf7f00000000000000000000000000000000000000000000000000000000815260040160405180910390fd5b6001600160a01b038116610701576040517f8579befe00000000000000000000000000000000000000000000000000000000815260040160405180910390fd5b600260c954036122945760405162461bcd60e51b815260206004820152601f60248201527f5265656e7472616e637947756172643a207265656e7472616e742063616c6c006044820152606401610a5e565b600260c955565b6000806122a88585613fdf565b6122b285886140ff565b91506122bf828686610fb0565b91505085811015612306576040517f228f8c110000000000000000000000000000000000000000000000000000000081526004810182905260248101879052604401610a5e565b61231184848361424a565b9550959350505050565b600061232684610c73565b6001600160a01b038516600090815261012d60205260408120549192509061234f90849061536c565b905061235a816130b3565b815160008080805b8481101561268257600061012e600089848151811061238357612383615503565b60200260200101516001600160a01b03166001600160a01b0316815260200190815260200160002060008c6001600160a01b03166001600160a01b0316815260200190815260200160002054905080600014612679576123e4600187615384565b8210156124445761241088838151811061240057612400615503565b60200260200101518c8b8a6142c4565b61241a908661536c565b945086612427828c61532f565b612431919061539b565b935061243d848461536c565b925061253f565b6000612450868b615384565b90508061012e60008b868151811061246a5761246a615503565b60200260200101516001600160a01b03166001600160a01b0316815260200190815260200160002060008e6001600160a01b03166001600160a01b0316815260200190815260200160002060008282546124c49190615384565b925050819055508b6001600160a01b03168984815181106124e7576124e7615503565b60200260200101516001600160a01b03167fc39e3e80c0219fde334a8cb5d8468b628482e23388b6e809c90cb00c63c8ce388360405161252991815260200190565b60405180910390a361253b848c615384565b9450505b8b6001600160a01b031688838151811061255b5761255b615503565b60200260200101516001600160a01b031660fe60009054906101000a90046001600160a01b03166001600160a01b03167fadc20ad416881f76b4304665c35f5be8592297bcdfe4f0bb087b9d254222af55876040516125bc91815260200190565b60405180910390a460fe5488516001600160a01b03909116906353ac3537908a90859081106125ed576125ed615503565b60209081029190910101516040517fffffffff0000000000000000000000000000000000000000000000000000000060e084901b1681526001600160a01b039182166004820152908f16602482015260448101879052606401600060405180830381600087803b15801561266057600080fd5b505af1158015612674573d6000803e3d6000fd5b505050505b50600101612362565b5050505050505050505050565b600160c955565b61269f81612202565b60ff546040516001600160a01b038084169216907f50f1a16bf24734355b14ff800d132cc0a934808b8621d5623b41bc67f204881790600090a360ff80547fffffffffffffffffffffffff0000000000000000000000000000000000000000166001600160a01b0392909216919091179055565b61271c81612202565b60fc546040516001600160a01b038084169216907f56b5f80d8cac1479698aa7d01605fd6111e90b15fc4d2b377417f46034876cbd90600090a360fc80547fffffffffffffffffffffffff0000000000000000000000000000000000000000166001600160a01b0392909216919091179055565b6097546040517f18c5e8ab0000000000000000000000000000000000000000000000000000000081526000916001600160a01b0316906318c5e8ab906127dc9033908690600401615617565b602060405180830381865afa1580156127f9573d6000803e3d6000fd5b505050506040513d601f19601f8201168201806040525081019061281d919061559d565b905080611512573330836040517f4a3fa293000000000000000000000000000000000000000000000000000000008152600401610a5e93929190615639565b84838114158061286c5750808214155b156128a3576040517f5f6f132c00000000000000000000000000000000000000000000000000000000815260040160405180910390fd5b60005b81811015612b235760008686838181106128c2576128c2615503565b90506020028101906128d49190615665565b80806020026020016040519081016040528093929190818152602001838360200280828437600092018290525093945088925087915085905081811061291c5761291c615503565b905060200281019061292e9190615665565b80806020026020016040519081016040528093929190818152602001838360200280828437600092019190915250508451835193945092831491506129a19050576040517f5f6f132c00000000000000000000000000000000000000000000000000000000815260040160405180910390fd5b60005b81811015612b14578281815181106129be576129be615503565b602002602001015161013060008e8e898181106129dd576129dd615503565b90506020020160208101906129f29190614df0565b6001600160a01b03166001600160a01b031681526020019081526020016000206000868481518110612a2657612a26615503565b60200260200101516001600160a01b03166001600160a01b0316815260200190815260200160002060006101000a81548160ff021916908315150217905550838181518110612a7757612a77615503565b60200260200101516001600160a01b03168c8c87818110612a9a57612a9a615503565b9050602002016020810190612aaf9190614df0565b6001600160a01b03167f6333c55c3657aafc9b39e2586076d198ed0250804559126489c852f28d51280c858481518110612aeb57612aeb615503565b6020026020010151604051612b04911515815260200190565b60405180910390a36001016129a4565b508360010193505050506128a6565b5050505050505050565b600054610100900460ff16612baa5760405162461bcd60e51b815260206004820152602b60248201527f496e697469616c697a61626c653a20636f6e7472616374206973206e6f74206960448201527f6e697469616c697a696e670000000000000000000000000000000000000000006064820152608401610a5e565b612bb38461439d565b612bbb61442b565b611c2e8383836144b0565b6000807f00000000000000000000000000000000000000000000000000000000000000006001600160a01b031663b0772d0b6040518163ffffffff1660e01b8152600401600060405180830381865afa158015612c27573d6000803e3d6000fd5b505050506040513d6000823e601f3d908101601f19168201604052612c4f91908101906154ce565b805190915060005b81811015612d8a57828181518110612c7157612c71615503565b60200260200101516001600160a01b03167f00000000000000000000000000000000000000000000000000000000000000006001600160a01b031614612d4557846001600160a01b0316838281518110612ccd57612ccd615503565b60200260200101516001600160a01b0316636f307dc36040518163ffffffff1660e01b8152600401602060405180830381865afa158015612d12573d6000803e3d6000fd5b505050506040513d601f19601f82011682018060405250810190612d3691906156cd565b6001600160a01b031614612d7b565b7f00000000000000000000000000000000000000000000000000000000000000006001600160a01b0316856001600160a01b0316145b935083612d8a57600101612c57565b505050919050565b60008084600003612dcf576040517f098fb56100000000000000000000000000000000000000000000000000000000815260040160405180910390fd5b6001600160a01b03808516600090815260fd6020908152604080832093871683529281528282208351808501909452805484526001810154929392909183019060ff166003811115612e2357612e23615161565b6003811115612e3457612e34615161565b9052509050600081602001516003811115612e5157612e51615161565b03612e88576040517f618ce59700000000000000000000000000000000000000000000000000000000815260040160405180910390fd5b60fc546040517f41976e090000000000000000000000000000000000000000000000000000000081526001600160a01b03878116600483015260009216906341976e0990602401602060405180830381865afa158015612eec573d6000803e3d6000fd5b505050506040513d601f19601f82011682018060405250810190612f109190615584565b60fc546040517f41976e090000000000000000000000000000000000000000000000000000000081526001600160a01b038881166004830152929350600092909116906341976e0990602401602060405180830381865afa158015612f79573d6000803e3d6000fd5b505050506040513d601f19601f82011682018060405250810190612f9d9190615584565b835160ff54919250906001600160a01b03161580159061303d575060ff546040517f6c059fb10000000000000000000000000000000000000000000000000000000081523360048201526001600160a01b0390911690636c059fb190602401602060405180830381865afa158015613019573d6000803e3d6000fd5b505050506040513d601f19601f8201168201806040525081019061303d919061559d565b15613046575060005b600061305a82670de0b6b3a764000061536c565b905061306e670de0b6b3a76400008461532f565b81613079868d61532f565b613083919061532f565b61308d919061539b565b96508261309a828661532f565b6130a4919061539b565b95505050505050935093915050565b80600003610701576040517f9cf8540c00000000000000000000000000000000000000000000000000000000815260040160405180910390fd5b6040517f70a082310000000000000000000000000000000000000000000000000000000081523060048201526000906001600160a01b038416906370a0823190602401602060405180830381865afa15801561314d573d6000803e3d6000fd5b505050506040513d601f19601f820116820180604052508101906131719190615584565b9050808211156131ad576040517ff4d678b800000000000000000000000000000000000000000000000000000000815260040160405180910390fd5b6001600160a01b038316600090815261012d60205260408120546131d19083615384565b905082811015611c2e5780830360006131e986610c73565b6001600160a01b038716600090815261012d602052604081205482519293509190805b828110156133bd5761012e600086838151811061322b5761322b615503565b60200260200101516001600160a01b03166001600160a01b0316815260200190815260200160002060008b6001600160a01b03166001600160a01b03168152602001908152602001600020546000146133b557613289600184615384565b8110156132c6576132b58582815181106132a5576132a5615503565b60200260200101518b88876142c4565b6132bf908361536c565b91506133b5565b60006132d28388615384565b90508061012e60008885815181106132ec576132ec615503565b60200260200101516001600160a01b03166001600160a01b0316815260200190815260200160002060008d6001600160a01b03166001600160a01b0316815260200190815260200160002060008282546133469190615384565b925050819055508a6001600160a01b031686838151811061336957613369615503565b60200260200101516001600160a01b03167fc39e3e80c0219fde334a8cb5d8468b628482e23388b6e809c90cb00c63c8ce38836040516133ab91815260200190565b60405180910390a3505b60010161320c565b506001600160a01b038916600090815261012d6020526040812080548792906133e7908490615384565b9091555050505050505050505050565b6040516001600160a01b038316602482015260448101829052610fab9084907fa9059cbb00000000000000000000000000000000000000000000000000000000906064015b60408051601f198184030181529190526020810180517bffffffffffffffffffffffffffffffffffffffffffffffffffffffff167fffffffff0000000000000000000000000000000000000000000000000000000090931692909217909152614575565b60007f00000000000000000000000000000000000000000000000000000000000000006001600160a01b0316836001600160a01b0316036134eb576134e482612bc6565b905061358a565b61012f546040517f266e0a7f0000000000000000000000000000000000000000000000000000000081526001600160a01b0385811660048301528481166024830152600092169063266e0a7f90604401602060405180830381865afa158015613558573d6000803e3d6000fd5b505050506040513d601f19601f8201168201806040525081019061357c91906156cd565b6001600160a01b0316141590505b92915050565b606580547fffffffffffffffffffffffff00000000000000000000000000000000000000001690556107018161465d565b6135ca816130b3565b60fb5460408051918252602082018390527fada67d0d38fa20c8ae6a5c17cb9d60b0fe7f2d4e4f27ac9ee55e54ac88de9d8d910160405180910390a160fb55565b600061361783836134a0565b613660576040517f983f1fb50000000000000000000000000000000000000000000000000000000081526001600160a01b03808516600483015283166024820152604401610a5e565b6040517f70a0823100000000000000000000000000000000000000000000000000000000815230600482015282906000906001600160a01b038316906370a0823190602401602060405180830381865afa1580156136c2573d6000803e3d6000fd5b505050506040513d601f19601f820116820180604052508101906136e69190615584565b6001600160a01b038516600090815261012d60205260409020549091508082111561395f576001600160a01b0380871660009081526101306020908152604080832093891683529290522054818303945060ff161561395f5760fe546040517f70a082310000000000000000000000000000000000000000000000000000000081526001600160a01b0391821660048201526000918516906370a0823190602401602060405180830381865afa1580156137a4573d6000803e3d6000fd5b505050506040513d601f19601f820116820180604052508101906137c89190615584565b60fe549091506137e5906001600160a01b038681169116876133f7565b60fe546040517f70a082310000000000000000000000000000000000000000000000000000000081526001600160a01b0391821660048201526000918616906370a0823190602401602060405180830381865afa15801561384a573d6000803e3d6000fd5b505050506040513d601f19601f8201168201806040525081019061386e9190615584565b60fe546040518881529192506001600160a01b03898116928b82169291909116907fadc20ad416881f76b4304665c35f5be8592297bcdfe4f0bb087b9d254222af559060200160405180910390a460fe546001600160a01b03166353ac353789896138d98686615384565b6040517fffffffff0000000000000000000000000000000000000000000000000000000060e086901b1681526001600160a01b0393841660048201529290911660248301526044820152606401600060405180830381600087803b15801561394057600080fd5b505af1158015613954573d6000803e3d6000fd5b505050506000955050505b50505092915050565b6000613972613f53565b60fe5460ff549192506001600160a01b03908116916000911615613df75760ff546040517f4e9f8f390000000000000000000000000000000000000000000000000000000081526001600160a01b03878116600483015285811660248301526000928392911690634e9f8f39906044016000604051808303816000875af1158015613a01573d6000803e3d6000fd5b505050506040513d6000823e601f3d908101601f19168201604052613a2991908101906156ea565b8151919350915060005b81811015613df257828181518110613a4d57613a4d615503565b602002602001015160000315613df2576000848281518110613a7157613a71615503565b60200260200101516001600160a01b0316636f1a30a8858481518110613a9957613a99615503565b60200260200101518c8b6040518463ffffffff1660e01b8152600401613adb939291909283526001600160a01b03918216602084015216604082015260600190565b60408051808303816000875af1158015613af9573d6000803e3d6000fd5b505050506040513d601f19601f82011682018060405250810190613b1d91906157a5565b91505088811115613b2b5750875b613b35818b6146c7565b613b3f5750613df2565b6040517f70a082310000000000000000000000000000000000000000000000000000000081526001600160a01b038881166004830152600091908a16906370a0823190602401602060405180830381865afa158015613ba2573d6000803e3d6000fd5b505050506040513d601f19601f82011682018060405250810190613bc69190615584565b90508a6001600160a01b031663095ea7b3878581518110613be957613be9615503565b6020026020010151846040518363ffffffff1660e01b8152600401613c239291906001600160a01b03929092168252602082015260400190565b6020604051808303816000875af1158015613c42573d6000803e3d6000fd5b505050506040513d601f19601f82011682018060405250810190613c66919061559d565b50858381518110613c7957613c79615503565b60209081029190910101516040517f439727a500000000000000000000000000000000000000000000000000000000815260048101849052600060248201526001600160a01b038d811660448301528b811660648301528a811660848301529091169063439727a59060a40160408051808303816000875af1158015613d03573d6000803e3d6000fd5b505050506040513d601f19601f82011682018060405250810190613d2791906157a5565b50506040517f70a082310000000000000000000000000000000000000000000000000000000081526001600160a01b038981166004830152600091908b16906370a0823190602401602060405180830381865afa158015613d8c573d6000803e3d6000fd5b505050506040513d601f19601f82011682018060405250810190613db09190615584565b9050613dbc838c615384565b9a50613dc88282615384565b613dd2908961536c565b97508a600003613de457505050613df2565b836001019350505050613a33565b505050505b6109ae86848388886147ff565b600080613e118585613fdf565b6000613e1e8787876110b9565b91505087811115613e65576040517f71b5f0c10000000000000000000000000000000000000000000000000000000081526004810182905260248101899052604401610a5e565b613e6f86826140ff565b9250613e7c838787610fb0565b9250613e8b905085858461424a565b509550959350505050565b600080613ea38585613fdf565b6000613eb08787876110b9565b915050613ebd86826140ff565b9250808314613ef8576040517f0c5c1c2000000000000000000000000000000000000000000000000000000000815260040160405180910390fd5b87831115613f3c576040517f71b5f0c10000000000000000000000000000000000000000000000000000000081526004810182905260248101899052604401610a5e565b613f4785858961424a565b50909694955050505050565b60fe54604080517fc8ecc0d300000000000000000000000000000000000000000000000000000000815290516000926001600160a01b03169163c8ecc0d39160048083019260209291908290030181865afa158015613fb6573d6000803e3d6000fd5b505050506040513d601f19601f82011682018060405250810190613fda91906156cd565b905090565b60ff546000906001600160a01b03161580159061407c575060ff546040517f6c059fb10000000000000000000000000000000000000000000000000000000081523360048201526001600160a01b0390911690636c059fb190602401602060405180830381865afa158015614058573d6000803e3d6000fd5b505050506040513d601f19601f8201168201806040525081019061407c919061559d565b9050801580156140c8575060026001600160a01b03808516600090815260fd602090815260408083209387168352929052206001015460ff1660038111156140c6576140c6615161565b145b15610fab576040517f03410cd100000000000000000000000000000000000000000000000000000000815260040160405180910390fd5b60fe546040517f70a082310000000000000000000000000000000000000000000000000000000081526001600160a01b039182166004820152600091849183918316906370a0823190602401602060405180830381865afa158015614168573d6000803e3d6000fd5b505050506040513d601f19601f8201168201806040525081019061418c9190615584565b60fe549091506141ab906001600160a01b03848116913391168761499d565b60fe546040517f70a082310000000000000000000000000000000000000000000000000000000081526001600160a01b0391821660048201526000918416906370a0823190602401602060405180830381865afa158015614210573d6000803e3d6000fd5b505050506040513d601f19601f820116820180604052508101906142349190615584565b90506142408282615384565b9695505050505050565b6001600160a01b038316600090815261012d60205260409020548181101561429e576040517f6bb2792900000000000000000000000000000000000000000000000000000000815260040160405180910390fd5b6142a884836149ee565b836142bd6001600160a01b03821685856133f7565b5050505050565b6001600160a01b03808516600090815261012e6020908152604080832093871683529290529081205482906142fa90859061532f565b614304919061539b565b6001600160a01b03808716600090815261012e60209081526040808320938916835292905290812080549293508392909190614341908490615384565b92505081905550836001600160a01b0316856001600160a01b03167fc39e3e80c0219fde334a8cb5d8468b628482e23388b6e809c90cb00c63c8ce388360405161438d91815260200190565b60405180910390a3949350505050565b600054610100900460ff1661441a5760405162461bcd60e51b815260206004820152602b60248201527f496e697469616c697a61626c653a20636f6e7472616374206973206e6f74206960448201527f6e697469616c697a696e670000000000000000000000000000000000000000006064820152608401610a5e565b614422614a20565b61070181614aa5565b600054610100900460ff166144a85760405162461bcd60e51b815260206004820152602b60248201527f496e697469616c697a61626c653a20636f6e7472616374206973206e6f74206960448201527f6e697469616c697a696e670000000000000000000000000000000000000000006064820152608401610a5e565b61128f614b22565b600054610100900460ff1661452d5760405162461bcd60e51b815260206004820152602b60248201527f496e697469616c697a61626c653a20636f6e7472616374206973206e6f74206960448201527f6e697469616c697a696e670000000000000000000000000000000000000000006064820152608401610a5e565b61453683612713565b61453f82611d17565b614548816135c1565b505060fe80547fffffffffffffffffffffff00ffffffffffffffffffffffffffffffffffffffff16905550565b60006145ca826040518060400160405280602081526020017f5361666545524332303a206c6f772d6c6576656c2063616c6c206661696c6564815250856001600160a01b0316614b9f9092919063ffffffff16565b90508051600014806145eb5750808060200190518101906145eb919061559d565b610fab5760405162461bcd60e51b815260206004820152602a60248201527f5361666545524332303a204552433230206f7065726174696f6e20646964206e60448201527f6f742073756363656564000000000000000000000000000000000000000000006064820152608401610a5e565b603380546001600160a01b038381167fffffffffffffffffffffffff0000000000000000000000000000000000000000831681179093556040519116919082907f8be0079c531659141344cd1fd0a4f28419497f9722a3daafe3b4186f6b6457e090600090a35050565b60fc546040517fb62cad690000000000000000000000000000000000000000000000000000000081526001600160a01b038381166004830152600092169063b62cad6990602401600060405180830381600087803b15801561472857600080fd5b505af115801561473c573d6000803e3d6000fd5b505060fc546040517f41976e090000000000000000000000000000000000000000000000000000000081526001600160a01b03868116600483015260009450670de0b6b3a76400009350879216906341976e0990602401602060405180830381865afa1580156147b0573d6000803e3d6000fd5b505050506040513d601f19601f820116820180604052508101906147d49190615584565b6147de919061532f565b6147e8919061539b565b905060fb5481106147f857600191505b5092915050565b82156148d65760fe546040518481526001600160a01b0386811692888216929116907fadc20ad416881f76b4304665c35f5be8592297bcdfe4f0bb087b9d254222af559060200160405180910390a460fe546040517f53ac35370000000000000000000000000000000000000000000000000000000081526001600160a01b038781166004830152868116602483015260448201869052909116906353ac353790606401600060405180830381600087803b1580156148bd57600080fd5b505af11580156148d1573d6000803e3d6000fd5b505050505b80156142bd576001600160a01b038216600090815261012d60205260408120805483929061490590849061536c565b90915550506001600160a01b03808616600090815261012e602090815260408083209386168352929052908120805483929061494290849061536c565b92505081905550816001600160a01b0316856001600160a01b03167fc39e3e80c0219fde334a8cb5d8468b628482e23388b6e809c90cb00c63c8ce388360405161498e91815260200190565b60405180910390a35050505050565b6040516001600160a01b0380851660248301528316604482015260648101829052611c2e9085907f23b872dd000000000000000000000000000000000000000000000000000000009060840161343c565b6001600160a01b038216600090815261012d602052604081208054839290614a17908490615384565b90915550505050565b600054610100900460ff16614a9d5760405162461bcd60e51b815260206004820152602b60248201527f496e697469616c697a61626c653a20636f6e7472616374206973206e6f74206960448201527f6e697469616c697a696e670000000000000000000000000000000000000000006064820152608401610a5e565b61128f614bb8565b600054610100900460ff1661080a5760405162461bcd60e51b815260206004820152602b60248201527f496e697469616c697a61626c653a20636f6e7472616374206973206e6f74206960448201527f6e697469616c697a696e670000000000000000000000000000000000000000006064820152608401610a5e565b600054610100900460ff1661268f5760405162461bcd60e51b815260206004820152602b60248201527f496e697469616c697a61626c653a20636f6e7472616374206973206e6f74206960448201527f6e697469616c697a696e670000000000000000000000000000000000000000006064820152608401610a5e565b6060614bae8484600085614c3e565b90505b9392505050565b600054610100900460ff16614c355760405162461bcd60e51b815260206004820152602b60248201527f496e697469616c697a61626c653a20636f6e7472616374206973206e6f74206960448201527f6e697469616c697a696e670000000000000000000000000000000000000000006064820152608401610a5e565b61128f33613590565b606082471015614cb65760405162461bcd60e51b815260206004820152602660248201527f416464726573733a20696e73756666696369656e742062616c616e636520666f60448201527f722063616c6c00000000000000000000000000000000000000000000000000006064820152608401610a5e565b600080866001600160a01b03168587604051614cd291906157c9565b60006040518083038185875af1925050503d8060008114614d0f576040519150601f19603f3d011682016040523d82523d6000602084013e614d14565b606091505b5091509150614d2587838387614d32565b925050505b949350505050565b60608315614da1578251600003614d9a576001600160a01b0385163b614d9a5760405162461bcd60e51b815260206004820152601d60248201527f416464726573733a2063616c6c20746f206e6f6e2d636f6e74726163740000006044820152606401610a5e565b5081614d2a565b614d2a8383815115614db65781518083602001fd5b8060405162461bcd60e51b8152600401610a5e91906157e5565b6001600160a01b038116811461070157600080fd5b8035610e0a81614dd0565b600060208284031215614e0257600080fd5b8135614bb181614dd0565b600080600060608486031215614e2257600080fd5b833592506020840135614e3481614dd0565b91506040840135614e4481614dd0565b809150509250925092565b600080600080600060a08688031215614e6757600080fd5b85359450602086013593506040860135614e8081614dd0565b92506060860135614e9081614dd0565b91506080860135614ea081614dd0565b809150509295509295909350565b60008060408385031215614ec157600080fd5b8235614ecc81614dd0565b91506020830135614edc81614dd0565b809150509250929050565b60008083601f840112614ef957600080fd5b50813567ffffffffffffffff811115614f1157600080fd5b6020830191508360208260051b8501011115614f2c57600080fd5b9250929050565b60008060008060008060608789031215614f4c57600080fd5b863567ffffffffffffffff80821115614f6457600080fd5b614f708a838b01614ee7565b90985096506020890135915080821115614f8957600080fd5b614f958a838b01614ee7565b90965094506040890135915080821115614fae57600080fd5b50614fbb89828a01614ee7565b979a9699509497509295939492505050565b60008060008060008060008060008060006101008c8e031215614fef57600080fd5b614ff88c614de5565b9a5061500660208d01614de5565b995061501460408d01614de5565b985061502260608d01614de5565b975060808c0135965067ffffffffffffffff8060a08e0135111561504557600080fd5b6150558e60a08f01358f01614ee7565b909750955060c08d013581101561506b57600080fd5b61507b8e60c08f01358f01614ee7565b909550935060e08d013581101561509157600080fd5b506150a28d60e08e01358e01614ee7565b81935080925050509295989b509295989b9093969950565b6020808252825182820181905260009190848201906040850190845b818110156150fb5783516001600160a01b0316835292840192918401916001016150d6565b50909695505050505050565b60008060006060848603121561511c57600080fd5b833561512781614dd0565b9250602084013561513781614dd0565b929592945050506040919091013590565b60006020828403121561515a57600080fd5b5035919050565b7f4e487b7100000000000000000000000000000000000000000000000000000000600052602160045260246000fd5b600481106151c7577f4e487b7100000000000000000000000000000000000000000000000000000000600052602160045260246000fd5b9052565b82815260408101614bb16020830184615190565b6000806000806000606086880312156151f757600080fd5b853561520281614dd0565b9450602086013567ffffffffffffffff8082111561521f57600080fd5b61522b89838a01614ee7565b9096509450604088013591508082111561524457600080fd5b818801915088601f83011261525857600080fd5b81358181111561526757600080fd5b8960208260061b850101111561527c57600080fd5b9699959850939650602001949392505050565b600080600083850360808112156152a557600080fd5b84356152b081614dd0565b935060208501356152c081614dd0565b925060407fffffffffffffffffffffffffffffffffffffffffffffffffffffffffffffffc0820112156152f257600080fd5b506040840190509250925092565b7f4e487b7100000000000000000000000000000000000000000000000000000000600052601160045260246000fd5b6000817fffffffffffffffffffffffffffffffffffffffffffffffffffffffffffffffff048311821515161561536757615367615300565b500290565b6000821982111561537f5761537f615300565b500190565b60008282101561539657615396615300565b500390565b6000826153d1577f4e487b7100000000000000000000000000000000000000000000000000000000600052601260045260246000fd5b500490565b7f4e487b7100000000000000000000000000000000000000000000000000000000600052604160045260246000fd5b604051601f8201601f1916810167ffffffffffffffff8111828210171561542e5761542e6153d6565b604052919050565b600067ffffffffffffffff821115615450576154506153d6565b5060051b60200190565b600082601f83011261546b57600080fd5b8151602061548061547b83615436565b615405565b82815260059290921b8401810191818101908684111561549f57600080fd5b8286015b848110156154c35780516154b681614dd0565b83529183019183016154a3565b509695505050505050565b6000602082840312156154e057600080fd5b815167ffffffffffffffff8111156154f757600080fd5b614d2a8482850161545a565b7f4e487b7100000000000000000000000000000000000000000000000000000000600052603260045260246000fd5b60006020828403121561554457600080fd5b813560048110614bb157600080fd5b848152602081018490526080810161556e6040830185615190565b61557b6060830184615190565b95945050505050565b60006020828403121561559657600080fd5b5051919050565b6000602082840312156155af57600080fd5b81518015158114614bb157600080fd5b60005b838110156155da5781810151838201526020016155c2565b83811115611c2e5750506000910152565b600081518084526156038160208601602086016155bf565b601f01601f19169290920160200192915050565b6001600160a01b0383168152604060208201526000614bae60408301846155eb565b60006001600160a01b0380861683528085166020840152506060604083015261557b60608301846155eb565b60008083357fffffffffffffffffffffffffffffffffffffffffffffffffffffffffffffffe184360301811261569a57600080fd5b83018035915067ffffffffffffffff8211156156b557600080fd5b6020019150600581901b3603821315614f2c57600080fd5b6000602082840312156156df57600080fd5b8151614bb181614dd0565b600080604083850312156156fd57600080fd5b825167ffffffffffffffff8082111561571557600080fd5b6157218683870161545a565b935060209150818501518181111561573857600080fd5b85019050601f8101861361574b57600080fd5b805161575961547b82615436565b81815260059190911b8201830190838101908883111561577857600080fd5b928401925b828410156157965783518252928401929084019061577d565b80955050505050509250929050565b600080604083850312156157b857600080fd5b505080516020909101519092909150565b600082516157db8184602087016155bf565b9190910192915050565b602081526000614bb160208301846155eb56fe736574436f6e76657273696f6e436f6e66696728616464726573732c616464726573732c436f6e76657273696f6e436f6e66696729736574506f6f6c734173736574734469726563745472616e7366657228616464726573735b5d2c616464726573735b5d5b5d2c626f6f6c5b5d5b5d29a2646970667358221220732a4c3744f7a0da97a8623e2d9bf065ccd0a53c76be2816bc1960f1159a233464736f6c634300080d0033",
  "devdoc": {
    "author": "Venus",
    "custom:security-contact": "https://github.com/VenusProtocol/protocol-reserve#discussion",
    "errors": {
      "ReentrancyGuardError()": [
        {
          "details": "This error is used to safeguard against reentrancy attacks, ensuring that a certain operation cannot be called recursively within the same transaction."
        }
      ]
    },
    "kind": "dev",
    "methods": {
      "acceptOwnership()": {
        "details": "The new owner accepts the ownership transfer."
      },
      "balanceOf(address)": {
        "params": {
          "tokenAddress": "Address of the token"
        },
        "returns": {
          "tokenBalance": "Reserves of the token the contract has"
        }
      },
      "constructor": {
        "custom:oz-upgrades-unsafe-allow": "constructor",
        "params": {
          "corePoolComptroller_": "Address of the Comptroller pool",
          "nativeWrapped_": "Address of the wrapped native currency",
          "vBNB_": "Address of the vBNB"
        }
      },
      "convertExactTokens(uint256,uint256,address,address,address)": {
        "custom:error": "ZeroAddressNotAllowed is thrown when to address is zeroInvalidToAddress error is thrown when address(to) is same as tokenAddressIn or tokenAddressOutAmountOutLowerThanMinRequired error is thrown when amount of output tokenAddressOut is less than amountOutMinMantissaAmountInMismatched error is thrown when amount of output tokenAddressOut is less than amountOutMinMantissa",
        "custom:event": "Emits ConvertedExactTokens event on success",
        "details": "Method does not support deflationary tokens transfer",
        "params": {
          "amountInMantissa": "Amount of tokenAddressIn",
          "amountOutMinMantissa": "Min amount of tokenAddressOut required as output",
          "to": "Address of the tokenAddressOut receiver",
          "tokenAddressIn": "Address of the token to convert",
          "tokenAddressOut": "Address of the token to get after conversion"
        },
        "returns": {
          "actualAmountIn": "Actual amount transferred to destination",
          "actualAmountOut": "Actual amount transferred to user"
        }
      },
      "convertExactTokensSupportingFeeOnTransferTokens(uint256,uint256,address,address,address)": {
        "custom:error": "ZeroAddressNotAllowed is thrown when to address is zeroInvalidToAddress error is thrown when address(to) is same as tokenAddressIn or tokenAddressOutAmountOutLowerThanMinRequired error is thrown when amount of output tokenAddressOut is less than amountOutMinMantissa",
        "custom:event": "Emits ConvertedExactTokensSupportingFeeOnTransferTokens event on success",
        "params": {
          "amountInMantissa": "Amount of tokenAddressIn",
          "amountOutMinMantissa": "Min amount of tokenAddressOut required as output",
          "to": "Address of the tokenAddressOut receiver",
          "tokenAddressIn": "Address of the token to convert",
          "tokenAddressOut": "Address of the token to get after conversion"
        },
        "returns": {
          "actualAmountIn": "Actual amount transferred to destination",
          "actualAmountOut": "Actual amount transferred to user"
        }
      },
      "convertForExactTokens(uint256,uint256,address,address,address)": {
        "custom:error": "ZeroAddressNotAllowed is thrown when to address is zeroInvalidToAddress error is thrown when address(to) is same as tokenAddressIn or tokenAddressOutAmountInHigherThanMax error is thrown when amount of tokenAddressIn is higher than amountInMaxMantissaAmountOutMismatched error is thrown when actualAmountOut is does not match amountOutMantissa",
        "custom:event": "Emits ConvertedForExactTokens event on success",
        "details": "Method does not support deflationary tokens transfer",
        "params": {
          "amountInMaxMantissa": "Max amount of tokenAddressIn",
          "amountOutMantissa": "Amount of tokenAddressOut required as output",
          "to": "Address of the tokenAddressOut receiver",
          "tokenAddressIn": "Address of the token to convert",
          "tokenAddressOut": "Address of the token to get after conversion"
        },
        "returns": {
          "actualAmountIn": "Actual amount transferred to destination",
          "actualAmountOut": "Actual amount transferred to user"
        }
      },
      "convertForExactTokensSupportingFeeOnTransferTokens(uint256,uint256,address,address,address)": {
        "custom:error": "ZeroAddressNotAllowed is thrown when to address is zeroInvalidToAddress error is thrown when address(to) is same as tokenAddressIn or tokenAddressOutAmountInHigherThanMax error is thrown when amount of tokenAddressIn is higher than amountInMaxMantissa",
        "custom:event": "Emits ConvertedForExactTokensSupportingFeeOnTransferTokens event on success",
        "params": {
          "amountInMaxMantissa": "Max amount of tokenAddressIn",
          "amountOutMantissa": "Amount of tokenAddressOut required as output",
          "to": "Address of the tokenAddressOut receiver",
          "tokenAddressIn": "Address of the token to convert",
          "tokenAddressOut": "Address of the token to get after conversion"
        },
        "returns": {
          "actualAmountIn": "Actual amount transferred to destination",
          "actualAmountOut": "Actual amount transferred to user"
        }
      },
      "getAmountIn(uint256,address,address)": {
        "custom:error": "InsufficientInputAmount error is thrown when given input amount is zeroConversionConfigNotEnabled is thrown when conversion is disabled or config does not exist for given pairConversionEnabledOnlyForPrivateConversions is thrown when conversion is only enabled for private conversion",
        "details": "This function retrieves values without altering token prices",
        "params": {
          "amountOutMantissa": "Amount of tokenAddressOut user wants to receive",
          "tokenAddressIn": "Address of the token to convert",
          "tokenAddressOut": "Address of the token to get after conversion"
        },
        "returns": {
          "amountConvertedMantissa": "Amount of tokenAddressOut should be transferred after conversion",
          "amountInMantissa": "Amount of the tokenAddressIn sender would send to contract before conversion"
        }
      },
      "getAmountOut(uint256,address,address)": {
        "custom:error": "InsufficientInputAmount error is thrown when given input amount is zeroConversionConfigNotEnabled is thrown when conversion is disabled or config does not exist for given pairConversionEnabledOnlyForPrivateConversions is thrown when conversion is only enabled for private conversion",
        "details": "This function retrieves values without altering token prices",
        "params": {
          "amountInMantissa": "Amount of tokenAddressIn",
          "tokenAddressIn": "Address of the token to convert",
          "tokenAddressOut": "Address of the token to get after conversion"
        },
        "returns": {
          "amountConvertedMantissa": "Amount of tokenAddressIn should be transferred after conversion",
          "amountOutMantissa": "Amount of the tokenAddressOut sender should receive after conversion"
        }
      },
      "getPoolAssetReserve(address,address)": {
        "custom:error": "MarketNotExistInPool When asset does not exist in the pool(comptroller)ReentrancyGuardError thrown to prevent reentrancy during the function execution",
        "details": "Get the Amount of the asset in the risk fund for the specific pool",
        "params": {
          "asset": "Asset address",
          "comptroller": "Comptroller address (pool)"
        },
        "returns": {
          "reserves": "Asset's reserve in risk fund"
        }
      },
      "getPools(address)": {
        "params": {
          "tokenAddress": "Address of the token"
        },
        "returns": {
          "poolsWithCore": "Array of the pools addresses in which token is available"
        }
      },
      "getUpdatedAmountIn(uint256,address,address)": {
        "custom:error": "InsufficientInputAmount error is thrown when given input amount is zeroConversionConfigNotEnabled is thrown when conversion is disabled or config does not exist for given pair",
        "params": {
          "amountOutMantissa": "Amount of tokenAddressOut user wants to receive",
          "tokenAddressIn": "Address of the token to convert",
          "tokenAddressOut": "Address of the token to get after conversion"
        },
        "returns": {
          "amountConvertedMantissa": "Amount of tokenAddressOut should be transferred after conversion",
          "amountInMantissa": "Amount of the tokenAddressIn sender would send to contract before conversion"
        }
      },
      "getUpdatedAmountOut(uint256,address,address)": {
        "custom:error": "InsufficientInputAmount error is thrown when given input amount is zeroConversionConfigNotEnabled is thrown when conversion is disabled or config does not exist for given pair",
        "params": {
          "amountInMantissa": "Amount of tokenAddressIn",
          "tokenAddressIn": "Address of the token to convert",
          "tokenAddressOut": "Address of the token to get after conversion"
        },
        "returns": {
          "amountConvertedMantissa": "Amount of tokenAddressIn should be transferred after conversion",
          "amountOutMantissa": "Amount of the tokenAddressOut sender should receive after conversion"
        }
      },
      "initialize(address,address,address,address,uint256,address[],address[][],bool[][])": {
        "custom:event": "PoolAssetsDirectTransferUpdated emits on success",
        "params": {
          "accessControlManager_": "Access control manager contract address",
          "assets": "Addresses of the assets need to be added for direct transfer",
          "comptrollers": "Addresses of the pools",
          "destinationAddress_": "Address at all incoming tokens will transferred to",
          "minAmountToConvert_": "minimum amount to convert",
          "poolRegistry_": "Address of the pool registry",
          "priceOracle_": "Resilient oracle address",
          "values": "Boolean value to indicate whether direct transfer is allowed for each asset."
        }
      },
      "owner()": {
        "details": "Returns the address of the current owner."
      },
      "pauseConversion()": {
        "custom:access": "Restricted by ACM",
        "custom:error": "ConversionTokensPaused thrown when conversion is already paused",
        "custom:event": "Emits ConversionPaused on success"
      },
      "pendingOwner()": {
        "details": "Returns the address of the pending owner."
      },
      "renounceOwnership()": {
        "details": "Leaves the contract without owner. It will not be possible to call `onlyOwner` functions. Can only be called by the current owner. NOTE: Renouncing ownership will leave the contract without an owner, thereby disabling any functionality that is only available to the owner."
      },
      "resumeConversion()": {
        "custom:access": "Restricted by ACM",
        "custom:error": "ConversionTokensActive thrown when conversion is already active",
        "custom:event": "Emits ConversionResumed on success"
      },
      "setAccessControlManager(address)": {
        "custom:access": "Only Governance",
        "custom:event": "Emits NewAccessControlManager event",
        "details": "Admin function to set address of AccessControlManager",
        "params": {
          "accessControlManager_": "The new address of the AccessControlManager"
        }
      },
      "setConversionConfig(address,address,(uint256,uint8))": {
        "custom:access": "Controlled by AccessControlManager",
        "custom:error": "Unauthorized error is thrown when the call is not authorized by AccessControlManagerZeroAddressNotAllowed is thrown when pool registry address is zeroNonZeroIncentiveForPrivateConversion is thrown when incentive is non zero for private conversion",
        "custom:event": "Emits ConversionConfigUpdated event on success",
        "params": {
          "conversionConfig": "ConversionConfig config details to update",
          "tokenAddressIn": "Address of tokenIn",
          "tokenAddressOut": "Address of tokenOut"
        }
      },
      "setConversionConfigs(address,address[],(uint256,uint8)[])": {
        "custom:error": "InputLengthMisMatch is thrown when tokenAddressesOut and conversionConfigs array length mismatches",
        "params": {
          "conversionConfigs": "Array of conversionConfig config details to update",
          "tokenAddressIn": "Address of tokenIn",
          "tokenAddressesOut": "Array of addresses of tokenOut"
        }
      },
      "setConverterNetwork(address)": {
        "custom:access": "Only Governance",
        "params": {
          "converterNetwork_": "The converterNetwork address to be set"
        }
      },
      "setDestination(address)": {
        "custom:access": "Only Governance",
        "params": {
          "destinationAddress_": "The new destination address to be set"
        }
      },
      "setMinAmountToConvert(uint256)": {
        "custom:access": "Only Governance",
        "params": {
          "minAmountToConvert_": "Min amount to convert"
        }
      },
      "setPoolRegistry(address)": {
        "custom:access": "Only Governance",
        "custom:error": "ZeroAddressNotAllowed is thrown when pool registry address is zero",
        "custom:event": "PoolRegistryUpdated emits on success",
        "details": "Pool registry setter",
        "params": {
          "poolRegistry_": "Address of the pool registry"
        }
      },
      "setPoolsAssetsDirectTransfer(address[],address[][],bool[][])": {
        "custom:access": "Restricted by ACM",
        "custom:event": "PoolAssetsDirectTransferUpdated emits on success",
        "params": {
          "assets": "Addresses of the assets need to be added for direct transfer",
          "comptrollers": "Addresses of the pools",
          "values": "Boolean value to indicate whether direct transfer is allowed for each asset."
        }
      },
      "setPriceOracle(address)": {
        "custom:access": "Only Governance",
        "params": {
          "priceOracle_": "Address of the new price oracle to set"
        }
      },
      "sweepToken(address,address,uint256)": {
        "custom:access": "Only Governance",
        "custom:error": "ZeroAddressNotAllowed is thrown when tokenAddress/to address is zero",
        "custom:event": "Emits SweepToken event on success",
        "params": {
          "amount": "The amount to transfer",
          "to": "The address to which tokens will be transferred",
          "tokenAddress": "The address of the ERC-20 token to sweep"
        }
      },
      "transferOwnership(address)": {
        "details": "Starts the ownership transfer of the contract to a new account. Replaces the pending transfer if there is one. Can only be called by the current owner."
      },
      "updateAssetsState(address,address)": {
        "details": "This function is called by protocolShareReservecall _updateAssetsState to update the states related to the comptroller and asset transfer to the specific converter then it calls the _privateConversion which will convert the asset into destination's base asset and transfer it to destination address",
        "params": {
          "asset": "Asset address",
          "comptroller": "Comptroller address (pool)"
        }
      }
    },
    "stateVariables": {
      "CORE_POOL_COMPTROLLER": {
        "custom:oz-upgrades-unsafe-allow": "state-variable-immutable"
      },
      "NATIVE_WRAPPED": {
        "custom:oz-upgrades-unsafe-allow": "state-variable-immutable"
      },
      "VBNB": {
        "custom:oz-upgrades-unsafe-allow": "state-variable-immutable",
        "details": "This address is used to include the BNB market while in getPools method"
      },
      "poolsAssetsDirectTransfer": {
        "details": "Comptroller(pool) -> Asset -> bool(should transfer directly on true)"
      },
      "poolsAssetsReserves": {
        "details": "Comptroller(pool) -> Asset -> amount"
      }
    },
    "title": "RiskFundConverter",
    "version": 1
  },
  "userdoc": {
    "errors": {
      "AmountInHigherThanMax(uint256,uint256)": [
        {
          "notice": "Thrown when amountIn is higher than amountInMax"
        }
      ],
      "AmountInMismatched()": [
        {
          "notice": "Thrown when actualAmountIn does not match with amountInMantissa for convertForExactTokens"
        }
      ],
      "AmountOutLowerThanMinRequired(uint256,uint256)": [
        {
          "notice": "Thrown when amountOut is lower than amountOutMin"
        }
      ],
      "AmountOutMismatched()": [
        {
          "notice": "Thrown when actualAmountOut does not match with amountOutMantissa for convertForExactTokens"
        }
      ],
      "ConversionConfigNotEnabled()": [
        {
          "notice": "Thrown when conversion is disabled or config does not exist for given pair"
        }
      ],
      "ConversionEnabledOnlyForPrivateConversions()": [
        {
          "notice": "Thrown when conversion is enabled only for private conversions"
        }
      ],
      "ConversionTokensActive()": [
        {
          "notice": "Thrown when conversion is Active"
        }
      ],
      "ConversionTokensPaused()": [
        {
          "notice": "Thrown when conversion is paused"
        }
      ],
      "DeflationaryTokenNotSupported()": [
        {
          "notice": "Thrown when using convertForExactTokens deflationary tokens"
        }
      ],
      "IncentiveTooHigh(uint256,uint256)": [
        {
          "notice": "Thrown when incentive is higher than the MAX_INCENTIVE"
        }
      ],
      "InputLengthMisMatch()": [
        {
          "notice": "Thrown when there is a mismatch in the length of input arrays"
        }
      ],
      "InsufficientBalance()": [
        {
          "notice": "thrown when amount entered is greater than balance"
        }
      ],
      "InsufficientInputAmount()": [
        {
          "notice": "Thrown when given input amount is zero"
        }
      ],
      "InsufficientOutputAmount()": [
        {
          "notice": "Thrown when given output amount is zero"
        }
      ],
      "InsufficientPoolLiquidity()": [
        {
          "notice": "Thrown when contract has less liquidity for tokenAddressOut than amountOutMantissa"
        }
      ],
      "InvalidConverterNetwork()": [
        {
          "notice": "When address of the ConverterNetwork is not set or Zero address"
        }
      ],
      "InvalidMinimumAmountToConvert()": [
        {
          "notice": "Thrown when minimum amount to convert is zero"
        }
      ],
      "InvalidToAddress()": [
        {
          "notice": "Thrown when address(to) is same as tokenAddressIn or tokenAddressOut"
        }
      ],
      "InvalidTokenConfigAddresses()": [
        {
          "notice": "Thrown when tokenInAddress is same as tokeOutAdress OR tokeInAddress is not the base asset of the destination"
        }
      ],
      "MarketNotExistInPool(address,address)": [
        {
          "notice": "thrown when asset does not exist in the pool"
        }
      ],
      "NonZeroIncentiveForPrivateConversion()": [
        {
          "notice": "Thrown when trying to set non zero incentive for private conversion"
        }
      ],
      "ReentrancyGuardError()": [
        {
          "notice": "thrown to prevent reentrancy"
        }
      ],
      "Unauthorized(address,address,string)": [
        {
          "notice": "Thrown when the action is prohibited by AccessControlManager"
        }
      ],
      "ZeroAddressNotAllowed()": [
        {
          "notice": "Thrown if the supplied address is a zero address where it is not allowed"
        }
      ],
      "ZeroValueNotAllowed()": [
        {
          "notice": "Thrown if the supplied value is 0 where it is not allowed"
        }
      ]
    },
    "events": {
      "AssetTransferredToDestination(address,address,address,uint256)": {
        "notice": "Emmitted after the funds transferred to the destination address"
      },
      "AssetsReservesUpdated(address,address,uint256)": {
        "notice": "Emitted after updating of the assets reserves amount -> reserve increased by amount"
      },
      "ConversionConfigUpdated(address,address,uint256,uint256,uint8,uint8)": {
        "notice": "Emitted when config is updated for tokens pair"
      },
      "ConversionPaused(address)": {
        "notice": "Emitted when conversion is paused"
      },
      "ConversionResumed(address)": {
        "notice": "Emitted when conversion is unpaused"
      },
      "ConvertedExactTokens(address,address,address,address,uint256,uint256)": {
        "notice": "Emitted when exact amount of tokens are converted for tokens"
      },
      "ConvertedExactTokensSupportingFeeOnTransferTokens(address,address,address,address,uint256,uint256)": {
        "notice": "Emitted when exact amount of tokens are converted for tokens, for deflationary tokens"
      },
      "ConvertedForExactTokens(address,address,address,address,uint256,uint256)": {
        "notice": "Emitted when tokens are converted for exact amount of tokens"
      },
      "ConvertedForExactTokensSupportingFeeOnTransferTokens(address,address,address,address,uint256,uint256)": {
        "notice": "Emitted when tokens are converted for exact amount of tokens, for deflationary tokens"
      },
      "ConverterNetworkAddressUpdated(address,address)": {
        "notice": "Emitted when converterNetwork address is updated"
      },
      "DestinationAddressUpdated(address,address)": {
        "notice": "Emitted when destination address is updated"
      },
      "MinAmountToConvertUpdated(uint256,uint256)": {
        "notice": "Emitted when minimum amount to convert is updated"
      },
      "NewAccessControlManager(address,address)": {
        "notice": "Emitted when access control manager contract address is changed"
      },
      "PoolAssetsDirectTransferUpdated(address,address,bool)": {
        "notice": "Emitted after the poolsAssetsDirectTransfer mapping is updated"
      },
      "PoolRegistryUpdated(address,address)": {
        "notice": "Emitted when pool registry address is updated"
      },
      "PriceOracleUpdated(address,address)": {
        "notice": "Emitted when price oracle address is updated"
      },
      "SweepToken(address,address,uint256)": {
        "notice": "Event emitted when tokens are swept"
      }
    },
    "kind": "user",
    "methods": {
      "CORE_POOL_COMPTROLLER()": {
        "notice": "Address of the core pool comptroller"
      },
      "MAX_INCENTIVE()": {
        "notice": "Maximum incentive could be"
      },
      "NATIVE_WRAPPED()": {
        "notice": "Address of the native wrapped currency"
      },
      "VBNB()": {
        "notice": "Address of the vBNB"
      },
      "accessControlManager()": {
        "notice": "Returns the address of the access control manager contract"
      },
      "balanceOf(address)": {
        "notice": "Get the balance for specific token"
      },
      "conversionConfigurations(address,address)": {
        "notice": "conversion configurations for the existing pairs"
      },
      "conversionPaused()": {
        "notice": "Boolean for if conversion is paused"
      },
      "convertExactTokens(uint256,uint256,address,address,address)": {
        "notice": "Converts exact amount of tokenAddressIn for tokenAddressOut if there is enough tokens held by the contract"
      },
      "convertExactTokensSupportingFeeOnTransferTokens(uint256,uint256,address,address,address)": {
        "notice": "Converts exact amount of tokenAddressIn for tokenAddressOut if there is enough tokens held by the contract"
      },
      "convertForExactTokens(uint256,uint256,address,address,address)": {
        "notice": "Converts tokens for tokenAddressIn for exact amount of tokenAddressOut if there is enough tokens held by the contract, otherwise the amount is adjusted"
      },
      "convertForExactTokensSupportingFeeOnTransferTokens(uint256,uint256,address,address,address)": {
        "notice": "Converts tokens for tokenAddressIn for amount of tokenAddressOut calculated on the basis of amount of tokenAddressIn received by the contract, if there is enough tokens held by the contract, otherwise the amount is adjusted. The user will be responsible for bearing any fees associated with token transfers, whether pulling in or pushing out tokens"
      },
      "converterNetwork()": {
        "notice": "Address of the converterNetwork contract"
      },
      "destinationAddress()": {
        "notice": "Address that all incoming tokens are transferred to"
      },
      "getAmountIn(uint256,address,address)": {
        "notice": "To get the amount of tokenAddressIn tokens sender would send on receiving amountOutMantissa tokens of tokenAddressOut. This function does not account for potential token transfer fees(in case of deflationary tokens)"
      },
      "getAmountOut(uint256,address,address)": {
        "notice": "To get the amount of tokenAddressOut tokens sender could receive on providing amountInMantissa tokens of tokenAddressIn. This function does not account for potential token transfer fees(in case of deflationary tokens)"
      },
      "getPools(address)": {
        "notice": "Get the array of all pools addresses"
      },
      "getUpdatedAmountIn(uint256,address,address)": {
        "notice": "To get the amount of tokenAddressIn tokens sender would send on receiving amountOutMantissa tokens of tokenAddressOut"
      },
      "getUpdatedAmountOut(uint256,address,address)": {
        "notice": "To get the amount of tokenAddressOut tokens sender could receive on providing amountInMantissa tokens of tokenAddressIn"
      },
      "minAmountToConvert()": {
        "notice": "Min amount to convert for private conversions. Defined in USD, with 18 decimals"
      },
      "pauseConversion()": {
        "notice": "Pause conversion of tokens"
      },
      "poolRegistry()": {
        "notice": "Address of pool registry contract"
      },
      "poolsAssetsDirectTransfer(address,address)": {
        "notice": "The mapping contains the assets for each pool which are sent to RiskFund directly"
      },
      "priceOracle()": {
        "notice": "Venus price oracle contract"
      },
      "resumeConversion()": {
        "notice": "Resume conversion of tokens."
      },
      "setAccessControlManager(address)": {
        "notice": "Sets the address of AccessControlManager"
      },
      "setConversionConfig(address,address,(uint256,uint8))": {
        "notice": "Set the configuration for new or existing conversion pair"
      },
      "setConversionConfigs(address,address[],(uint256,uint8)[])": {
        "notice": "Batch sets the conversion configurations"
      },
      "setConverterNetwork(address)": {
        "notice": "Sets a converter network contract address"
      },
      "setDestination(address)": {
        "notice": "Sets a new destination address"
      },
      "setMinAmountToConvert(uint256)": {
        "notice": "Min amount to convert setter"
      },
      "setPoolsAssetsDirectTransfer(address[],address[][],bool[][])": {
        "notice": "Update the poolsAssetsDirectTransfer mapping"
      },
      "setPriceOracle(address)": {
        "notice": "Sets a new price oracle"
      },
      "sweepToken(address,address,uint256)": {
        "notice": "To sweep ERC20 tokens and transfer them to user(to address)"
      },
      "updateAssetsState(address,address)": {
        "notice": "This method updated the states of this contract after getting funds from PSR after settling the amount(if any) through privateConversion between converters"
      }
    },
    "notice": "RiskFundConverter used for token conversions and sends received token to RiskFund",
    "version": 1
  },
  "storageLayout": {
    "storage": [
      {
        "astId": 244,
        "contract": "contracts/TokenConverter/RiskFundConverter.sol:RiskFundConverter",
        "label": "_initialized",
        "offset": 0,
        "slot": "0",
        "type": "t_uint8"
      },
      {
        "astId": 247,
        "contract": "contracts/TokenConverter/RiskFundConverter.sol:RiskFundConverter",
        "label": "_initializing",
        "offset": 1,
        "slot": "0",
        "type": "t_bool"
      },
      {
        "astId": 1478,
        "contract": "contracts/TokenConverter/RiskFundConverter.sol:RiskFundConverter",
        "label": "__gap",
        "offset": 0,
        "slot": "1",
        "type": "t_array(t_uint256)50_storage"
      },
      {
        "astId": 116,
        "contract": "contracts/TokenConverter/RiskFundConverter.sol:RiskFundConverter",
        "label": "_owner",
        "offset": 0,
        "slot": "51",
        "type": "t_address"
      },
      {
        "astId": 236,
        "contract": "contracts/TokenConverter/RiskFundConverter.sol:RiskFundConverter",
        "label": "__gap",
        "offset": 0,
        "slot": "52",
        "type": "t_array(t_uint256)49_storage"
      },
      {
        "astId": 25,
        "contract": "contracts/TokenConverter/RiskFundConverter.sol:RiskFundConverter",
        "label": "_pendingOwner",
        "offset": 0,
        "slot": "101",
        "type": "t_address"
      },
      {
        "astId": 104,
        "contract": "contracts/TokenConverter/RiskFundConverter.sol:RiskFundConverter",
        "label": "__gap",
        "offset": 0,
        "slot": "102",
        "type": "t_array(t_uint256)49_storage"
      },
      {
        "astId": 2782,
        "contract": "contracts/TokenConverter/RiskFundConverter.sol:RiskFundConverter",
        "label": "_accessControlManager",
        "offset": 0,
        "slot": "151",
        "type": "t_contract(IAccessControlManagerV8)2967"
      },
      {
        "astId": 2787,
        "contract": "contracts/TokenConverter/RiskFundConverter.sol:RiskFundConverter",
        "label": "__gap",
        "offset": 0,
        "slot": "152",
        "type": "t_array(t_uint256)49_storage"
      },
      {
        "astId": 547,
        "contract": "contracts/TokenConverter/RiskFundConverter.sol:RiskFundConverter",
        "label": "_status",
        "offset": 0,
        "slot": "201",
        "type": "t_uint256"
      },
      {
        "astId": 616,
        "contract": "contracts/TokenConverter/RiskFundConverter.sol:RiskFundConverter",
        "label": "__gap",
        "offset": 0,
        "slot": "202",
        "type": "t_array(t_uint256)49_storage"
      },
      {
        "astId": 4489,
        "contract": "contracts/TokenConverter/RiskFundConverter.sol:RiskFundConverter",
        "label": "minAmountToConvert",
        "offset": 0,
        "slot": "251",
        "type": "t_uint256"
      },
      {
        "astId": 4493,
        "contract": "contracts/TokenConverter/RiskFundConverter.sol:RiskFundConverter",
        "label": "priceOracle",
        "offset": 0,
        "slot": "252",
        "type": "t_contract(ResilientOracle)3858"
      },
      {
        "astId": 4501,
        "contract": "contracts/TokenConverter/RiskFundConverter.sol:RiskFundConverter",
        "label": "conversionConfigurations",
        "offset": 0,
        "slot": "253",
        "type": "t_mapping(t_address,t_mapping(t_address,t_struct(ConversionConfig)7208_storage))"
      },
      {
        "astId": 4504,
        "contract": "contracts/TokenConverter/RiskFundConverter.sol:RiskFundConverter",
        "label": "destinationAddress",
        "offset": 0,
        "slot": "254",
        "type": "t_address"
      },
      {
        "astId": 4507,
        "contract": "contracts/TokenConverter/RiskFundConverter.sol:RiskFundConverter",
        "label": "conversionPaused",
        "offset": 20,
        "slot": "254",
        "type": "t_bool"
      },
      {
        "astId": 4511,
        "contract": "contracts/TokenConverter/RiskFundConverter.sol:RiskFundConverter",
        "label": "converterNetwork",
        "offset": 0,
        "slot": "255",
        "type": "t_contract(IConverterNetwork)4076"
      },
      {
        "astId": 4516,
        "contract": "contracts/TokenConverter/RiskFundConverter.sol:RiskFundConverter",
        "label": "__gap",
        "offset": 0,
        "slot": "256",
        "type": "t_array(t_uint256)45_storage"
      },
      {
        "astId": 7434,
        "contract": "contracts/TokenConverter/RiskFundConverter.sol:RiskFundConverter",
        "label": "assetsReserves",
        "offset": 0,
        "slot": "301",
        "type": "t_mapping(t_address,t_uint256)"
      },
      {
        "astId": 7441,
        "contract": "contracts/TokenConverter/RiskFundConverter.sol:RiskFundConverter",
        "label": "poolsAssetsReserves",
        "offset": 0,
        "slot": "302",
        "type": "t_mapping(t_address,t_mapping(t_address,t_uint256))"
      },
      {
        "astId": 7444,
        "contract": "contracts/TokenConverter/RiskFundConverter.sol:RiskFundConverter",
        "label": "poolRegistry",
        "offset": 0,
        "slot": "303",
        "type": "t_address"
      },
      {
        "astId": 7451,
        "contract": "contracts/TokenConverter/RiskFundConverter.sol:RiskFundConverter",
        "label": "poolsAssetsDirectTransfer",
        "offset": 0,
        "slot": "304",
        "type": "t_mapping(t_address,t_mapping(t_address,t_bool))"
      }
    ],
    "types": {
      "t_address": {
        "encoding": "inplace",
        "label": "address",
        "numberOfBytes": "20"
      },
      "t_array(t_uint256)45_storage": {
        "base": "t_uint256",
        "encoding": "inplace",
        "label": "uint256[45]",
        "numberOfBytes": "1440"
      },
      "t_array(t_uint256)49_storage": {
        "base": "t_uint256",
        "encoding": "inplace",
        "label": "uint256[49]",
        "numberOfBytes": "1568"
      },
      "t_array(t_uint256)50_storage": {
        "base": "t_uint256",
        "encoding": "inplace",
        "label": "uint256[50]",
        "numberOfBytes": "1600"
      },
      "t_bool": {
        "encoding": "inplace",
        "label": "bool",
        "numberOfBytes": "1"
      },
      "t_contract(IAccessControlManagerV8)2967": {
        "encoding": "inplace",
        "label": "contract IAccessControlManagerV8",
        "numberOfBytes": "20"
      },
      "t_contract(IConverterNetwork)4076": {
        "encoding": "inplace",
        "label": "contract IConverterNetwork",
        "numberOfBytes": "20"
      },
      "t_contract(ResilientOracle)3858": {
        "encoding": "inplace",
        "label": "contract ResilientOracle",
        "numberOfBytes": "20"
      },
      "t_enum(ConversionAccessibility)7200": {
        "encoding": "inplace",
        "label": "enum IAbstractTokenConverter.ConversionAccessibility",
        "numberOfBytes": "1"
      },
      "t_mapping(t_address,t_bool)": {
        "encoding": "mapping",
        "key": "t_address",
        "label": "mapping(address => bool)",
        "numberOfBytes": "32",
        "value": "t_bool"
      },
      "t_mapping(t_address,t_mapping(t_address,t_bool))": {
        "encoding": "mapping",
        "key": "t_address",
        "label": "mapping(address => mapping(address => bool))",
        "numberOfBytes": "32",
        "value": "t_mapping(t_address,t_bool)"
      },
      "t_mapping(t_address,t_mapping(t_address,t_struct(ConversionConfig)7208_storage))": {
        "encoding": "mapping",
        "key": "t_address",
        "label": "mapping(address => mapping(address => struct IAbstractTokenConverter.ConversionConfig))",
        "numberOfBytes": "32",
        "value": "t_mapping(t_address,t_struct(ConversionConfig)7208_storage)"
      },
      "t_mapping(t_address,t_mapping(t_address,t_uint256))": {
        "encoding": "mapping",
        "key": "t_address",
        "label": "mapping(address => mapping(address => uint256))",
        "numberOfBytes": "32",
        "value": "t_mapping(t_address,t_uint256)"
      },
      "t_mapping(t_address,t_struct(ConversionConfig)7208_storage)": {
        "encoding": "mapping",
        "key": "t_address",
        "label": "mapping(address => struct IAbstractTokenConverter.ConversionConfig)",
        "numberOfBytes": "32",
        "value": "t_struct(ConversionConfig)7208_storage"
      },
      "t_mapping(t_address,t_uint256)": {
        "encoding": "mapping",
        "key": "t_address",
        "label": "mapping(address => uint256)",
        "numberOfBytes": "32",
        "value": "t_uint256"
      },
      "t_struct(ConversionConfig)7208_storage": {
        "encoding": "inplace",
        "label": "struct IAbstractTokenConverter.ConversionConfig",
        "members": [
          {
            "astId": 7203,
            "contract": "contracts/TokenConverter/RiskFundConverter.sol:RiskFundConverter",
            "label": "incentive",
            "offset": 0,
            "slot": "0",
            "type": "t_uint256"
          },
          {
            "astId": 7207,
            "contract": "contracts/TokenConverter/RiskFundConverter.sol:RiskFundConverter",
            "label": "conversionAccess",
            "offset": 0,
            "slot": "1",
            "type": "t_enum(ConversionAccessibility)7200"
          }
        ],
        "numberOfBytes": "64"
      },
      "t_uint256": {
        "encoding": "inplace",
        "label": "uint256",
        "numberOfBytes": "32"
      },
      "t_uint8": {
        "encoding": "inplace",
        "label": "uint8",
        "numberOfBytes": "1"
      }
    }
  }
}