{
  "address": "0x217a907B0c6a7Dc67a21F769a915722B98136F82",
  "abi": [
    {
      "inputs": [],
      "name": "InsufficientBalance",
      "type": "error"
    },
    {
      "inputs": [
        {
          "internalType": "address",
          "name": "comptroller",
          "type": "address"
        },
        {
          "internalType": "uint256",
          "name": "amount",
          "type": "uint256"
        },
        {
          "internalType": "uint256",
          "name": "poolReserve",
          "type": "uint256"
        }
      ],
      "name": "InsufficientPoolReserve",
      "type": "error"
    },
    {
      "inputs": [],
      "name": "InvalidRiskFundConverter",
      "type": "error"
    },
    {
      "inputs": [],
      "name": "InvalidShortfallAddress",
      "type": "error"
    },
    {
      "inputs": [
        {
          "internalType": "address",
          "name": "sender",
          "type": "address"
        },
        {
          "internalType": "address",
          "name": "calledContract",
          "type": "address"
        },
        {
          "internalType": "string",
          "name": "methodSignature",
          "type": "string"
        }
      ],
      "name": "Unauthorized",
      "type": "error"
    },
    {
      "inputs": [],
      "name": "ZeroAddressNotAllowed",
      "type": "error"
    },
    {
      "inputs": [],
      "name": "ZeroValueNotAllowed",
      "type": "error"
    },
    {
      "anonymous": false,
      "inputs": [
        {
          "indexed": true,
          "internalType": "address",
          "name": "oldConvertibleBaseAsset",
          "type": "address"
        },
        {
          "indexed": true,
          "internalType": "address",
          "name": "newConvertibleBaseAsset",
          "type": "address"
        }
      ],
      "name": "ConvertibleBaseAssetUpdated",
      "type": "event"
    },
    {
      "anonymous": false,
      "inputs": [
        {
          "indexed": false,
          "internalType": "uint8",
          "name": "version",
          "type": "uint8"
        }
      ],
      "name": "Initialized",
      "type": "event"
    },
    {
      "anonymous": false,
      "inputs": [
        {
          "indexed": false,
          "internalType": "address",
          "name": "oldAccessControlManager",
          "type": "address"
        },
        {
          "indexed": false,
          "internalType": "address",
          "name": "newAccessControlManager",
          "type": "address"
        }
      ],
      "name": "NewAccessControlManager",
      "type": "event"
    },
    {
      "anonymous": false,
      "inputs": [
        {
          "indexed": true,
          "internalType": "address",
          "name": "previousOwner",
          "type": "address"
        },
        {
          "indexed": true,
          "internalType": "address",
          "name": "newOwner",
          "type": "address"
        }
      ],
      "name": "OwnershipTransferStarted",
      "type": "event"
    },
    {
      "anonymous": false,
      "inputs": [
        {
          "indexed": true,
          "internalType": "address",
          "name": "previousOwner",
          "type": "address"
        },
        {
          "indexed": true,
          "internalType": "address",
          "name": "newOwner",
          "type": "address"
        }
      ],
      "name": "OwnershipTransferred",
      "type": "event"
    },
    {
      "anonymous": false,
      "inputs": [
        {
          "indexed": true,
          "internalType": "address",
          "name": "comptroller",
          "type": "address"
        },
        {
          "indexed": true,
          "internalType": "address",
          "name": "asset",
          "type": "address"
        },
        {
          "indexed": false,
          "internalType": "uint256",
          "name": "amount",
          "type": "uint256"
        }
      ],
      "name": "PoolAssetsDecreased",
      "type": "event"
    },
    {
      "anonymous": false,
      "inputs": [
        {
          "indexed": true,
          "internalType": "address",
          "name": "comptroller",
          "type": "address"
        },
        {
          "indexed": true,
          "internalType": "address",
          "name": "asset",
          "type": "address"
        },
        {
          "indexed": false,
          "internalType": "uint256",
          "name": "amount",
          "type": "uint256"
        }
      ],
      "name": "PoolAssetsIncreased",
      "type": "event"
    },
    {
      "anonymous": false,
      "inputs": [
        {
          "indexed": true,
          "internalType": "address",
          "name": "oldRiskFundConverter",
          "type": "address"
        },
        {
          "indexed": true,
          "internalType": "address",
          "name": "newRiskFundConverter",
          "type": "address"
        }
      ],
      "name": "RiskFundConverterUpdated",
      "type": "event"
    },
    {
      "anonymous": false,
      "inputs": [
        {
          "indexed": true,
          "internalType": "address",
          "name": "oldShortfallContract",
          "type": "address"
        },
        {
          "indexed": true,
          "internalType": "address",
          "name": "newShortfallContract",
          "type": "address"
        }
      ],
      "name": "ShortfallContractUpdated",
      "type": "event"
    },
    {
      "anonymous": false,
      "inputs": [
        {
          "indexed": true,
          "internalType": "address",
          "name": "token",
          "type": "address"
        },
        {
          "indexed": true,
          "internalType": "address",
          "name": "to",
          "type": "address"
        },
        {
          "indexed": false,
          "internalType": "uint256",
          "name": "amount",
          "type": "uint256"
        }
      ],
      "name": "SweepToken",
      "type": "event"
    },
    {
      "anonymous": false,
      "inputs": [
        {
          "indexed": true,
          "internalType": "address",
          "name": "comptroller",
          "type": "address"
        },
        {
          "indexed": false,
          "internalType": "uint256",
          "name": "amount",
          "type": "uint256"
        }
      ],
      "name": "TransferredReserveForAuction",
      "type": "event"
    },
    {
      "inputs": [],
      "name": "acceptOwnership",
      "outputs": [],
      "stateMutability": "nonpayable",
      "type": "function"
    },
    {
      "inputs": [],
      "name": "accessControlManager",
      "outputs": [
        {
          "internalType": "contract IAccessControlManagerV8",
          "name": "",
          "type": "address"
        }
      ],
      "stateMutability": "view",
      "type": "function"
    },
    {
      "inputs": [],
      "name": "convertibleBaseAsset",
      "outputs": [
        {
          "internalType": "address",
          "name": "",
          "type": "address"
        }
      ],
      "stateMutability": "view",
      "type": "function"
    },
    {
      "inputs": [
        {
          "internalType": "address",
          "name": "comptroller",
          "type": "address"
        }
      ],
      "name": "getPoolsBaseAssetReserves",
      "outputs": [
        {
          "internalType": "uint256",
          "name": "",
          "type": "uint256"
        }
      ],
      "stateMutability": "view",
      "type": "function"
    },
    {
      "inputs": [],
      "name": "maxLoopsLimit",
      "outputs": [
        {
          "internalType": "uint256",
          "name": "",
          "type": "uint256"
        }
      ],
      "stateMutability": "view",
      "type": "function"
    },
    {
      "inputs": [],
      "name": "owner",
      "outputs": [
        {
          "internalType": "address",
          "name": "",
          "type": "address"
        }
      ],
      "stateMutability": "view",
      "type": "function"
    },
    {
      "inputs": [],
      "name": "pendingOwner",
      "outputs": [
        {
          "internalType": "address",
          "name": "",
          "type": "address"
        }
      ],
      "stateMutability": "view",
      "type": "function"
    },
    {
      "inputs": [
        {
          "internalType": "address",
          "name": "",
          "type": "address"
        },
        {
          "internalType": "address",
          "name": "",
          "type": "address"
        }
      ],
      "name": "poolAssetsFunds",
      "outputs": [
        {
          "internalType": "uint256",
          "name": "",
          "type": "uint256"
        }
      ],
      "stateMutability": "view",
      "type": "function"
    },
    {
      "inputs": [],
      "name": "renounceOwnership",
      "outputs": [],
      "stateMutability": "nonpayable",
      "type": "function"
    },
    {
      "inputs": [],
      "name": "riskFundConverter",
      "outputs": [
        {
          "internalType": "address",
          "name": "",
          "type": "address"
        }
      ],
      "stateMutability": "view",
      "type": "function"
    },
    {
      "inputs": [
        {
          "internalType": "address",
          "name": "accessControlManager_",
          "type": "address"
        }
      ],
      "name": "setAccessControlManager",
      "outputs": [],
      "stateMutability": "nonpayable",
      "type": "function"
    },
    {
      "inputs": [
        {
          "internalType": "address",
          "name": "convertibleBaseAsset_",
          "type": "address"
        }
      ],
      "name": "setConvertibleBaseAsset",
      "outputs": [],
      "stateMutability": "nonpayable",
      "type": "function"
    },
    {
      "inputs": [
        {
          "internalType": "address",
          "name": "riskFundConverter_",
          "type": "address"
        }
      ],
      "name": "setRiskFundConverter",
      "outputs": [],
      "stateMutability": "nonpayable",
      "type": "function"
    },
    {
      "inputs": [
        {
          "internalType": "address",
          "name": "shortfallContractAddress_",
          "type": "address"
        }
      ],
      "name": "setShortfallContractAddress",
      "outputs": [],
      "stateMutability": "nonpayable",
      "type": "function"
    },
    {
      "inputs": [],
      "name": "shortfall",
      "outputs": [
        {
          "internalType": "address",
          "name": "",
          "type": "address"
        }
      ],
      "stateMutability": "view",
      "type": "function"
    },
    {
      "inputs": [
        {
          "internalType": "address",
          "name": "tokenAddress",
          "type": "address"
        },
        {
          "internalType": "address",
          "name": "to",
          "type": "address"
        },
        {
          "internalType": "uint256",
          "name": "amount",
          "type": "uint256"
        }
      ],
      "name": "sweepToken",
      "outputs": [],
      "stateMutability": "nonpayable",
      "type": "function"
    },
    {
      "inputs": [
        {
          "internalType": "address",
          "name": "newOwner",
          "type": "address"
        }
      ],
      "name": "transferOwnership",
      "outputs": [],
      "stateMutability": "nonpayable",
      "type": "function"
    },
    {
      "inputs": [
        {
          "internalType": "address",
          "name": "comptroller",
          "type": "address"
        },
        {
          "internalType": "uint256",
          "name": "amount",
          "type": "uint256"
        }
      ],
      "name": "transferReserveForAuction",
      "outputs": [
        {
          "internalType": "uint256",
          "name": "",
          "type": "uint256"
        }
      ],
      "stateMutability": "nonpayable",
      "type": "function"
    },
    {
      "inputs": [
        {
          "internalType": "address",
          "name": "comptroller",
          "type": "address"
        },
        {
          "internalType": "address",
          "name": "asset",
          "type": "address"
        },
        {
          "internalType": "uint256",
          "name": "amount",
          "type": "uint256"
        }
      ],
      "name": "updatePoolState",
      "outputs": [],
      "stateMutability": "nonpayable",
      "type": "function"
    }
  ],
  "transactionHash": "0x3fe9a5954862d5d59799f7ac55f07044d494a1c480dfb1dc7c39baeb328989aa",
  "args": [],
  "numDeployments": 1,
  "solcInputHash": "ddce8674a6dbb661f5732619dd799a66",
  "bytecode": "0x608060405234801561001057600080fd5b5061178c806100206000396000f3fe608060405234801561001057600080fd5b50600436106101515760003560e01c8063715018a6116100cd578063b4a0bdf311610081578063c8ecc0d311610066578063c8ecc0d3146102d1578063e30c3978146102e5578063f2fde38b146102f657600080fd5b8063b4a0bdf3146102b7578063be26317e146102c857600080fd5b806379ba5097116100b257806379ba5097146102635780638da5cb5b1461026b578063a69bd19e1461027c57600080fd5b8063715018a61461024857806377d4937f1461025057600080fd5b80632eef9172116101245780635dbe3533116101095780635dbe3533146101f7578063601bb5a91461022257806364aff9ec1461023557600080fd5b80632eef9172146101d057806353ac3537146101e457600080fd5b80630a9837c5146101565780630e32cb861461017c57806319b1faef146101915780632e688141146101bd575b600080fd5b61016961016436600461138d565b610309565b6040519081526020015b60405180910390f35b61018f61018a3660046113b9565b610468565b005b61012e546101a5906001600160a01b031681565b6040516001600160a01b039091168152602001610173565b61018f6101cb3660046113b9565b61047c565b610163546101a5906001600160a01b031681565b61018f6101f23660046113dd565b610503565b61016961020536600461141e565b60ca60209081526000928352604080842090915290825290205481565b61018f6102303660046113b9565b6105d8565b61018f6102433660046113dd565b61065f565b61018f610707565b61018f61025e3660046113b9565b61071b565b61018f6107a2565b6033546001600160a01b03166101a5565b61016961028a3660046113b9565b6001600160a01b03908116600090815260ca6020908152604080832061012d549094168352929052205490565b6097546001600160a01b03166101a5565b61016960fb5481565b61012d546101a5906001600160a01b031681565b6065546001600160a01b03166101a5565b61018f6103043660046113b9565b610847565b60006103136108d0565b6001600160a01b03838116600090815260ca6020908152604080832061012d548516845290915290205461012e54909116331461037c576040517fe7792c3b00000000000000000000000000000000000000000000000000000000815260040160405180910390fd5b808311156103d4576040517f5f1b50b80000000000000000000000000000000000000000000000000000000081526001600160a01b038516600482015260248101849052604481018290526064015b60405180910390fd5b6001600160a01b03808516600090815260ca6020908152604080832061012d8054861685529252909120858403905561012e54905461041892908116911685610945565b836001600160a01b03167fc8d0a37ed16dfaa43514df00e18f478b60d5cc7b4bfc687103948b9020f737fd8460405161045391815260200190565b60405180910390a25050600161013155919050565b6104706109c5565b61047981610a39565b50565b6104846109c5565b61048d81610b48565b61012d546040516001600160a01b038084169216907f5fa61583da12070720613fefdd68cc6c0e464a71e009742526bd2b2e0ac62cd290600090a361012d80547fffffffffffffffffffffffff0000000000000000000000000000000000000000166001600160a01b0392909216919091179055565b610163546001600160a01b03163314610548576040517fece95bc800000000000000000000000000000000000000000000000000000000815260040160405180910390fd5b6001600160a01b03808416600090815260ca602090815260408083209386168352929052908120805483929061057f908490611486565b92505081905550816001600160a01b0316836001600160a01b03167f17452316fd883c456b01c6722a103031ccd3cf17a1dabdbf96cd1109652d6110836040516105cb91815260200190565b60405180910390a3505050565b6105e06109c5565b6105e981610b48565b610163546040516001600160a01b038084169216907f49ca267ed5631dd7b16589efad418137b8fb106674777fc37d2cb82e853dbd2790600090a361016380547fffffffffffffffffffffffff0000000000000000000000000000000000000000166001600160a01b0392909216919091179055565b6106676109c5565b61066f6108d0565b61067883610b48565b61068182610b48565b61068a81610b88565b826106958183610bc2565b6106a96001600160a01b0382168484610945565b826001600160a01b0316846001600160a01b03167f6d25be279134f4ecaa4770aff0c3d916d9e7c5ef37b65ed95dbdba411f5d54d5846040516106ee91815260200190565b60405180910390a350610702600161013155565b505050565b61070f6109c5565b6107196000610fe6565b565b6107236109c5565b61072c81610b48565b61012e546040516001600160a01b038084169216907fb6e5fcf02f7fbb8acfbaa3bac4fd5abf9ff51e3f2e8884b5498927179b211b2890600090a361012e80547fffffffffffffffffffffffff0000000000000000000000000000000000000000166001600160a01b0392909216919091179055565b60655433906001600160a01b0316811461083e576040517f08c379a000000000000000000000000000000000000000000000000000000000815260206004820152602960248201527f4f776e61626c6532537465703a2063616c6c6572206973206e6f74207468652060448201527f6e6577206f776e6572000000000000000000000000000000000000000000000060648201526084016103cb565b61047981610fe6565b61084f6109c5565b606580546001600160a01b0383167fffffffffffffffffffffffff000000000000000000000000000000000000000090911681179091556108986033546001600160a01b031690565b6001600160a01b03167f38d16b8cac22d99fc7c124b9cd0de2d3fa1faef420bfe791d8c362d765e2270060405160405180910390a350565b6002610131540361093d576040517f08c379a000000000000000000000000000000000000000000000000000000000815260206004820152601f60248201527f5265656e7472616e637947756172643a207265656e7472616e742063616c6c0060448201526064016103cb565b600261013155565b604080516001600160a01b038416602482015260448082018490528251808303909101815260649091019091526020810180517bffffffffffffffffffffffffffffffffffffffffffffffffffffffff167fa9059cbb00000000000000000000000000000000000000000000000000000000179052610702908490611017565b6033546001600160a01b03163314610719576040517f08c379a000000000000000000000000000000000000000000000000000000000815260206004820181905260248201527f4f776e61626c653a2063616c6c6572206973206e6f7420746865206f776e657260448201526064016103cb565b6001600160a01b038116610acf576040517f08c379a000000000000000000000000000000000000000000000000000000000815260206004820152602560248201527f696e76616c696420616365737320636f6e74726f6c206d616e6167657220616460448201527f647265737300000000000000000000000000000000000000000000000000000060648201526084016103cb565b609780546001600160a01b038381167fffffffffffffffffffffffff000000000000000000000000000000000000000083168117909355604080519190921680825260208201939093527f66fd58e82f7b31a2a5c30e0888f3093efe4e111b00cd2b0c31fe014601293aa0910160405180910390a15050565b6001600160a01b038116610479576040517f8579befe00000000000000000000000000000000000000000000000000000000815260040160405180910390fd5b80600003610479576040517f9cf8540c00000000000000000000000000000000000000000000000000000000815260040160405180910390fd5b6040517f70a082310000000000000000000000000000000000000000000000000000000081523060048201526000906001600160a01b038416906370a0823190602401602060405180830381865afa158015610c22573d6000803e3d6000fd5b505050506040513d601f19601f82011682018060405250810190610c46919061149e565b905080821115610c82576040517ff4d678b800000000000000000000000000000000000000000000000000000000815260040160405180910390fd5b610163546040517f5c39f4670000000000000000000000000000000000000000000000000000000081526001600160a01b0385811660048301526000921690635c39f46790602401600060405180830381865afa158015610ce7573d6000803e3d6000fd5b505050506040513d6000823e601f3d9081017fffffffffffffffffffffffffffffffffffffffffffffffffffffffffffffffe0168201604052610d2d91908101906114f6565b8051909150600090815b81811015610db65760ca6000858381518110610d5557610d556115d9565b60200260200101516001600160a01b03166001600160a01b031681526020019081526020016000206000886001600160a01b03166001600160a01b031681526020019081526020016000205483610dac9190611486565b9250600101610d37565b506000610dc38386611608565b905085811015610fdd578086036000805b84811015610fd95760ca6000888381518110610df257610df26115d9565b60200260200101516001600160a01b03166001600160a01b0316815260200190815260200160002060008b6001600160a01b03166001600160a01b0316815260200190815260200160002054600014610fd1576000610e52600187611608565b821015610ee457868a60ca60008b8681518110610e7157610e716115d9565b60200260200101516001600160a01b03166001600160a01b0316815260200190815260200160002060008e6001600160a01b03166001600160a01b0316815260200190815260200160002054610ec7919061161f565b610ed1919061165c565b9050610edd8184611486565b9250610ef1565b610eee8385611608565b90505b8060ca60008a8581518110610f0857610f086115d9565b60200260200101516001600160a01b03166001600160a01b0316815260200190815260200160002060008d6001600160a01b03166001600160a01b031681526020019081526020016000206000828254610f629190611608565b925050819055508a6001600160a01b0316888381518110610f8557610f856115d9565b60200260200101516001600160a01b03167fdfbd88fdb255ea04a0084e45259969bdf724b3fbd610a114da4a0dd51bd8432083604051610fc791815260200190565b60405180910390a3505b600101610dd4565b5050505b50505050505050565b606580547fffffffffffffffffffffffff000000000000000000000000000000000000000016905561047981611119565b600061106c826040518060400160405280602081526020017f5361666545524332303a206c6f772d6c6576656c2063616c6c206661696c6564815250856001600160a01b03166111839092919063ffffffff16565b905080516000148061108d57508080602001905181019061108d9190611697565b610702576040517f08c379a000000000000000000000000000000000000000000000000000000000815260206004820152602a60248201527f5361666545524332303a204552433230206f7065726174696f6e20646964206e60448201527f6f7420737563636565640000000000000000000000000000000000000000000060648201526084016103cb565b603380546001600160a01b038381167fffffffffffffffffffffffff0000000000000000000000000000000000000000831681179093556040519116919082907f8be0079c531659141344cd1fd0a4f28419497f9722a3daafe3b4186f6b6457e090600090a35050565b6060611192848460008561119a565b949350505050565b60608247101561122c576040517f08c379a000000000000000000000000000000000000000000000000000000000815260206004820152602660248201527f416464726573733a20696e73756666696369656e742062616c616e636520666f60448201527f722063616c6c000000000000000000000000000000000000000000000000000060648201526084016103cb565b600080866001600160a01b0316858760405161124891906116e9565b60006040518083038185875af1925050503d8060008114611285576040519150601f19603f3d011682016040523d82523d6000602084013e61128a565b606091505b509150915061129b878383876112a6565b979650505050505050565b6060831561132f578251600003611328576001600160a01b0385163b611328576040517f08c379a000000000000000000000000000000000000000000000000000000000815260206004820152601d60248201527f416464726573733a2063616c6c20746f206e6f6e2d636f6e747261637400000060448201526064016103cb565b5081611192565b61119283838151156113445781518083602001fd5b806040517f08c379a00000000000000000000000000000000000000000000000000000000081526004016103cb9190611705565b6001600160a01b038116811461047957600080fd5b600080604083850312156113a057600080fd5b82356113ab81611378565b946020939093013593505050565b6000602082840312156113cb57600080fd5b81356113d681611378565b9392505050565b6000806000606084860312156113f257600080fd5b83356113fd81611378565b9250602084013561140d81611378565b929592945050506040919091013590565b6000806040838503121561143157600080fd5b823561143c81611378565b9150602083013561144c81611378565b809150509250929050565b7f4e487b7100000000000000000000000000000000000000000000000000000000600052601160045260246000fd5b6000821982111561149957611499611457565b500190565b6000602082840312156114b057600080fd5b5051919050565b7f4e487b7100000000000000000000000000000000000000000000000000000000600052604160045260246000fd5b80516114f181611378565b919050565b6000602080838503121561150957600080fd5b825167ffffffffffffffff8082111561152157600080fd5b818501915085601f83011261153557600080fd5b815181811115611547576115476114b7565b8060051b6040517fffffffffffffffffffffffffffffffffffffffffffffffffffffffffffffffe0603f8301168101818110858211171561158a5761158a6114b7565b6040529182528482019250838101850191888311156115a857600080fd5b938501935b828510156115cd576115be856114e6565b845293850193928501926115ad565b98975050505050505050565b7f4e487b7100000000000000000000000000000000000000000000000000000000600052603260045260246000fd5b60008282101561161a5761161a611457565b500390565b6000817fffffffffffffffffffffffffffffffffffffffffffffffffffffffffffffffff048311821515161561165757611657611457565b500290565b600082611692577f4e487b7100000000000000000000000000000000000000000000000000000000600052601260045260246000fd5b500490565b6000602082840312156116a957600080fd5b815180151581146113d657600080fd5b60005b838110156116d45781810151838201526020016116bc565b838111156116e3576000848401525b50505050565b600082516116fb8184602087016116b9565b9190910192915050565b60208152600082518060208401526117248160408501602087016116b9565b601f017fffffffffffffffffffffffffffffffffffffffffffffffffffffffffffffffe016919091016040019291505056fea26469706673582212204e8c16e16a4e758094765b6f7e03373e6d3bebe00f6e73bdbf142e66b5b0583a64736f6c634300080d0033",
  "devdoc": {
    "author": "Venus",
    "custom:security-contact": "https://github.com/VenusProtocol/protocol-reserve#discussion",
    "details": "This contract does not support BNB",
    "kind": "dev",
    "methods": {
      "acceptOwnership()": {
        "details": "The new owner accepts the ownership transfer."
      },
      "getPoolsBaseAssetReserves(address)": {
        "params": {
          "comptroller": "Comptroller address(pool)."
        },
        "returns": {
          "_0": "Base Asset's reserve in risk fund."
        }
      },
      "owner()": {
        "details": "Returns the address of the current owner."
      },
      "pendingOwner()": {
        "details": "Returns the address of the pending owner."
      },
      "renounceOwnership()": {
        "details": "Leaves the contract without owner. It will not be possible to call `onlyOwner` functions. Can only be called by the current owner. NOTE: Renouncing ownership will leave the contract without an owner, thereby disabling any functionality that is only available to the owner."
      },
      "setAccessControlManager(address)": {
        "custom:access": "Only Governance",
        "custom:event": "Emits NewAccessControlManager event",
        "details": "Admin function to set address of AccessControlManager",
        "params": {
          "accessControlManager_": "The new address of the AccessControlManager"
        }
      },
      "setConvertibleBaseAsset(address)": {
        "custom:access": "Only Governance",
        "custom:error": "ZeroAddressNotAllowed is thrown when convertible base asset address is zero",
        "custom:event": "ConvertibleBaseAssetUpdated emit on success",
        "details": "Convertible base asset setter",
        "params": {
          "convertibleBaseAsset_": "Address of the convertible base asset"
        }
      },
      "setRiskFundConverter(address)": {
        "custom:access": "Only Governance",
        "custom:error": "ZeroAddressNotAllowed is thrown when risk fund converter address is zero",
        "custom:event": "RiskFundConverterUpdated emit on success",
        "details": "Risk fund converter setter",
        "params": {
          "riskFundConverter_": "Address of the risk fund converter"
        }
      },
      "setShortfallContractAddress(address)": {
        "custom:access": "Only Governance",
        "custom:error": "ZeroAddressNotAllowed is thrown when shortfall contract address is zero",
        "custom:event": "ShortfallContractUpdated emit on success",
        "details": "Shortfall contract address setter",
        "params": {
          "shortfallContractAddress_": "Address of the auction contract"
        }
      },
      "sweepToken(address,address,uint256)": {
        "custom:access": "Only Governance",
        "custom:error": "ZeroAddressNotAllowed is thrown when tokenAddress/to address is zeroZeroValueNotAllowed is thrown when amount is zero",
        "custom:event": "Emits SweepToken event on success",
        "params": {
          "amount": "Amount need to sweep for the pool",
          "to": "Address to which assets will be transferred",
          "tokenAddress": "Address of the asset(token)"
        }
      },
      "transferOwnership(address)": {
        "details": "Starts the ownership transfer of the contract to a new account. Replaces the pending transfer if there is one. Can only be called by the current owner."
      },
      "transferReserveForAuction(address,uint256)": {
        "custom:access": "Only Shortfall contract",
        "custom:error": "InvalidShortfallAddress is thrown when caller is not shortfall contractInsufficientPoolReserve is thrown when pool reserve is less than the amount needed",
        "custom:event": "TransferredReserveForAuction emit on success",
        "details": "Transfer tokens for auction to shortfall contract",
        "params": {
          "amount": "Amount to be transferred to the shortfall",
          "comptroller": "Comptroller of the pool"
        },
        "returns": {
          "_0": "Amount of tokens transferred to the shortfall"
        }
      },
      "updatePoolState(address,address,uint256)": {
        "custom:access": "Only RiskFundConverter contract",
        "custom:error": "InvalidRiskFundConverter is thrown if caller is not riskFundConverter contract",
        "custom:event": "PoolAssetsIncreased emits on success",
        "details": "Update the reserve of the asset for the specific pool after transferring to risk fund",
        "params": {
          "amount": "Amount transferred for the pool",
          "asset": "Address of the asset(token)",
          "comptroller": "Comptroller address (pool)"
        }
      }
    },
    "title": "RiskFundV2",
    "version": 1
  },
  "userdoc": {
    "errors": {
      "InsufficientBalance()": [
        {
          "notice": "thrown when amount entered is greater than balance"
        }
      ],
      "InsufficientPoolReserve(address,uint256,uint256)": [
        {
          "notice": "Error is thrown when pool reserve is less than the amount needed"
        }
      ],
      "InvalidRiskFundConverter()": [
        {
          "notice": "Error is thrown when updatePoolState is not called by riskFundConverter"
        }
      ],
      "InvalidShortfallAddress()": [
        {
          "notice": "Error is thrown when transferReserveForAuction is called by non shortfall address"
        }
      ],
      "Unauthorized(address,address,string)": [
        {
          "notice": "Thrown when the action is prohibited by AccessControlManager"
        }
      ],
      "ZeroAddressNotAllowed()": [
        {
          "notice": "Thrown if the supplied address is a zero address where it is not allowed"
        }
      ],
      "ZeroValueNotAllowed()": [
        {
          "notice": "Thrown if the supplied value is 0 where it is not allowed"
        }
      ]
    },
    "events": {
      "ConvertibleBaseAssetUpdated(address,address)": {
        "notice": "Emitted when convertible base asset address is updated"
      },
      "NewAccessControlManager(address,address)": {
        "notice": "Emitted when access control manager contract address is changed"
      },
      "PoolAssetsDecreased(address,address,uint256)": {
        "notice": "Emitted when pool asset states is updated with amount transferred from this contract on sweeping tokens"
      },
      "PoolAssetsIncreased(address,address,uint256)": {
        "notice": "Emitted when pool asset states is updated with amount transferred to this contract"
      },
      "RiskFundConverterUpdated(address,address)": {
        "notice": "Emitted when risk fund converter address is updated"
      },
      "ShortfallContractUpdated(address,address)": {
        "notice": "Emitted when shortfall contract address is updated"
      },
      "SweepToken(address,address,uint256)": {
        "notice": "Event emitted when tokens are swept"
      },
      "TransferredReserveForAuction(address,uint256)": {
        "notice": "Emitted when reserves are transferred for auction"
      }
    },
    "kind": "user",
    "methods": {
      "accessControlManager()": {
        "notice": "Returns the address of the access control manager contract"
      },
      "convertibleBaseAsset()": {
        "notice": "Address of base asset"
      },
      "getPoolsBaseAssetReserves(address)": {
        "notice": "Get the Amount of the Base asset in the risk fund for the specific pool."
      },
      "maxLoopsLimit()": {
        "notice": "Limit for the loops to avoid the DOSThis state is deprecated, using it to prevent storage collision"
      },
      "poolAssetsFunds(address,address)": {
        "notice": "Available asset's fund per pool in RiskFund Comptroller(pool) -> Asset -> amount"
      },
      "riskFundConverter()": {
        "notice": "Risk fund converter address"
      },
      "setAccessControlManager(address)": {
        "notice": "Sets the address of AccessControlManager"
      },
      "shortfall()": {
        "notice": "Address of shortfall contract"
      },
      "sweepToken(address,address,uint256)": {
        "notice": "Function to sweep baseAsset for pool, Tokens are sent to address(to)"
      }
    },
    "notice": "Contract with basic features to hold base asset for different Comptrollers",
    "version": 1
  },
  "storageLayout": {
    "storage": [
      {
        "astId": 244,
        "contract": "contracts/ProtocolReserve/RiskFundV2.sol:RiskFundV2",
        "label": "_initialized",
        "offset": 0,
        "slot": "0",
        "type": "t_uint8"
      },
      {
        "astId": 247,
        "contract": "contracts/ProtocolReserve/RiskFundV2.sol:RiskFundV2",
        "label": "_initializing",
        "offset": 1,
        "slot": "0",
        "type": "t_bool"
      },
      {
        "astId": 1478,
        "contract": "contracts/ProtocolReserve/RiskFundV2.sol:RiskFundV2",
        "label": "__gap",
        "offset": 0,
        "slot": "1",
        "type": "t_array(t_uint256)50_storage"
      },
      {
        "astId": 116,
        "contract": "contracts/ProtocolReserve/RiskFundV2.sol:RiskFundV2",
        "label": "_owner",
        "offset": 0,
        "slot": "51",
        "type": "t_address"
      },
      {
        "astId": 236,
        "contract": "contracts/ProtocolReserve/RiskFundV2.sol:RiskFundV2",
        "label": "__gap",
        "offset": 0,
        "slot": "52",
        "type": "t_array(t_uint256)49_storage"
      },
      {
        "astId": 25,
        "contract": "contracts/ProtocolReserve/RiskFundV2.sol:RiskFundV2",
        "label": "_pendingOwner",
        "offset": 0,
        "slot": "101",
        "type": "t_address"
      },
      {
        "astId": 104,
        "contract": "contracts/ProtocolReserve/RiskFundV2.sol:RiskFundV2",
        "label": "__gap",
        "offset": 0,
        "slot": "102",
        "type": "t_array(t_uint256)49_storage"
      },
      {
        "astId": 4921,
        "contract": "contracts/ProtocolReserve/RiskFundV2.sol:RiskFundV2",
        "label": "_accessControlManager",
        "offset": 0,
        "slot": "151",
        "type": "t_contract(IAccessControlManagerV8)5106"
      },
      {
        "astId": 4926,
        "contract": "contracts/ProtocolReserve/RiskFundV2.sol:RiskFundV2",
        "label": "__gap",
        "offset": 0,
        "slot": "152",
        "type": "t_array(t_uint256)49_storage"
      },
      {
        "astId": 7551,
        "contract": "contracts/ProtocolReserve/RiskFundV2.sol:RiskFundV2",
        "label": "__deprecatedSlot1",
        "offset": 0,
        "slot": "201",
        "type": "t_bytes32"
      },
      {
        "astId": 7558,
        "contract": "contracts/ProtocolReserve/RiskFundV2.sol:RiskFundV2",
        "label": "poolAssetsFunds",
        "offset": 0,
        "slot": "202",
        "type": "t_mapping(t_address,t_mapping(t_address,t_uint256))"
      },
      {
        "astId": 7561,
        "contract": "contracts/ProtocolReserve/RiskFundV2.sol:RiskFundV2",
        "label": "__deprecatedSlot2",
        "offset": 0,
        "slot": "203",
        "type": "t_bytes32"
      },
      {
        "astId": 7564,
        "contract": "contracts/ProtocolReserve/RiskFundV2.sol:RiskFundV2",
        "label": "__deprecatedSlot3",
        "offset": 0,
        "slot": "204",
        "type": "t_bytes32"
      },
      {
        "astId": 7569,
        "contract": "contracts/ProtocolReserve/RiskFundV2.sol:RiskFundV2",
        "label": "__gap",
        "offset": 0,
        "slot": "205",
        "type": "t_array(t_uint256)46_storage"
      },
      {
        "astId": 7574,
        "contract": "contracts/ProtocolReserve/RiskFundV2.sol:RiskFundV2",
        "label": "maxLoopsLimit",
        "offset": 0,
        "slot": "251",
        "type": "t_uint256"
      },
      {
        "astId": 7579,
        "contract": "contracts/ProtocolReserve/RiskFundV2.sol:RiskFundV2",
        "label": "__gap",
        "offset": 0,
        "slot": "252",
        "type": "t_array(t_uint256)49_storage"
      },
      {
        "astId": 7588,
        "contract": "contracts/ProtocolReserve/RiskFundV2.sol:RiskFundV2",
        "label": "convertibleBaseAsset",
        "offset": 0,
        "slot": "301",
        "type": "t_address"
      },
      {
        "astId": 7591,
        "contract": "contracts/ProtocolReserve/RiskFundV2.sol:RiskFundV2",
        "label": "shortfall",
        "offset": 0,
        "slot": "302",
        "type": "t_address"
      },
      {
        "astId": 7594,
        "contract": "contracts/ProtocolReserve/RiskFundV2.sol:RiskFundV2",
        "label": "pancakeSwapRouter",
        "offset": 0,
        "slot": "303",
        "type": "t_address"
      },
      {
        "astId": 7597,
        "contract": "contracts/ProtocolReserve/RiskFundV2.sol:RiskFundV2",
        "label": "minAmountToConvert",
        "offset": 0,
        "slot": "304",
        "type": "t_uint256"
      },
      {
        "astId": 547,
        "contract": "contracts/ProtocolReserve/RiskFundV2.sol:RiskFundV2",
        "label": "_status",
        "offset": 0,
        "slot": "305",
        "type": "t_uint256"
      },
      {
        "astId": 616,
        "contract": "contracts/ProtocolReserve/RiskFundV2.sol:RiskFundV2",
        "label": "__gap",
        "offset": 0,
        "slot": "306",
        "type": "t_array(t_uint256)49_storage"
      },
      {
        "astId": 7606,
        "contract": "contracts/ProtocolReserve/RiskFundV2.sol:RiskFundV2",
        "label": "riskFundConverter",
        "offset": 0,
        "slot": "355",
        "type": "t_address"
      }
    ],
    "types": {
      "t_address": {
        "encoding": "inplace",
        "label": "address",
        "numberOfBytes": "20"
      },
      "t_array(t_uint256)46_storage": {
        "base": "t_uint256",
        "encoding": "inplace",
        "label": "uint256[46]",
        "numberOfBytes": "1472"
      },
      "t_array(t_uint256)49_storage": {
        "base": "t_uint256",
        "encoding": "inplace",
        "label": "uint256[49]",
        "numberOfBytes": "1568"
      },
      "t_array(t_uint256)50_storage": {
        "base": "t_uint256",
        "encoding": "inplace",
        "label": "uint256[50]",
        "numberOfBytes": "1600"
      },
      "t_bool": {
        "encoding": "inplace",
        "label": "bool",
        "numberOfBytes": "1"
      },
      "t_bytes32": {
        "encoding": "inplace",
        "label": "bytes32",
        "numberOfBytes": "32"
      },
      "t_contract(IAccessControlManagerV8)5106": {
        "encoding": "inplace",
        "label": "contract IAccessControlManagerV8",
        "numberOfBytes": "20"
      },
      "t_mapping(t_address,t_mapping(t_address,t_uint256))": {
        "encoding": "mapping",
        "key": "t_address",
        "label": "mapping(address => mapping(address => uint256))",
        "numberOfBytes": "32",
        "value": "t_mapping(t_address,t_uint256)"
      },
      "t_mapping(t_address,t_uint256)": {
        "encoding": "mapping",
        "key": "t_address",
        "label": "mapping(address => uint256)",
        "numberOfBytes": "32",
        "value": "t_uint256"
      },
      "t_uint256": {
        "encoding": "inplace",
        "label": "uint256",
        "numberOfBytes": "32"
      },
      "t_uint8": {
        "encoding": "inplace",
        "label": "uint8",
        "numberOfBytes": "1"
      }
    }
  }
}