{
  "address": "0xa7c352e5eb243eF8711a620E7694A88DA5Eca3E7",
  "abi": [
    {
      "inputs": [],
      "stateMutability": "nonpayable",
      "type": "constructor"
    },
    {
      "inputs": [
        {
          "internalType": "uint256",
          "name": "amountInMantissa",
          "type": "uint256"
        },
        {
          "internalType": "uint256",
          "name": "amountInMaxMantissa",
          "type": "uint256"
        }
      ],
      "name": "AmountInHigherThanMax",
      "type": "error"
    },
    {
      "inputs": [],
      "name": "AmountInMismatched",
      "type": "error"
    },
    {
      "inputs": [
        {
          "internalType": "uint256",
          "name": "amountOutMantissa",
          "type": "uint256"
        },
        {
          "internalType": "uint256",
          "name": "amountOutMinMantissa",
          "type": "uint256"
        }
      ],
      "name": "AmountOutLowerThanMinRequired",
      "type": "error"
    },
    {
      "inputs": [],
      "name": "AmountOutMismatched",
      "type": "error"
    },
    {
      "inputs": [],
      "name": "ConversionConfigNotEnabled",
      "type": "error"
    },
    {
      "inputs": [],
      "name": "ConversionEnabledOnlyForPrivateConversions",
      "type": "error"
    },
    {
      "inputs": [],
      "name": "ConversionTokensActive",
      "type": "error"
    },
    {
      "inputs": [],
      "name": "ConversionTokensPaused",
      "type": "error"
    },
    {
      "inputs": [],
      "name": "DeflationaryTokenNotSupported",
      "type": "error"
    },
    {
      "inputs": [
        {
          "internalType": "uint256",
          "name": "incentive",
          "type": "uint256"
        },
        {
          "internalType": "uint256",
          "name": "maxIncentive",
          "type": "uint256"
        }
      ],
      "name": "IncentiveTooHigh",
      "type": "error"
    },
    {
      "inputs": [],
      "name": "InputLengthMisMatch",
      "type": "error"
    },
    {
      "inputs": [],
      "name": "InsufficientInputAmount",
      "type": "error"
    },
    {
      "inputs": [],
      "name": "InsufficientOutputAmount",
      "type": "error"
    },
    {
      "inputs": [],
      "name": "InsufficientPoolLiquidity",
      "type": "error"
    },
    {
      "inputs": [],
      "name": "InvalidConverterNetwork",
      "type": "error"
    },
    {
      "inputs": [],
      "name": "InvalidMinimumAmountToConvert",
      "type": "error"
    },
    {
      "inputs": [],
      "name": "InvalidToAddress",
      "type": "error"
    },
    {
      "inputs": [],
      "name": "InvalidTokenConfigAddresses",
      "type": "error"
    },
    {
      "inputs": [],
      "name": "NonZeroIncentiveForPrivateConversion",
      "type": "error"
    },
    {
      "inputs": [
        {
          "internalType": "address",
          "name": "sender",
          "type": "address"
        },
        {
          "internalType": "address",
          "name": "calledContract",
          "type": "address"
        },
        {
          "internalType": "string",
          "name": "methodSignature",
          "type": "string"
        }
      ],
      "name": "Unauthorized",
      "type": "error"
    },
    {
      "inputs": [],
      "name": "ZeroAddressNotAllowed",
      "type": "error"
    },
    {
      "inputs": [],
      "name": "ZeroValueNotAllowed",
      "type": "error"
    },
    {
      "anonymous": false,
      "inputs": [
        {
          "indexed": true,
          "internalType": "address",
          "name": "receiver",
          "type": "address"
        },
        {
          "indexed": true,
          "internalType": "address",
          "name": "comptroller",
          "type": "address"
        },
        {
          "indexed": true,
          "internalType": "address",
          "name": "asset",
          "type": "address"
        },
        {
          "indexed": false,
          "internalType": "uint256",
          "name": "amount",
          "type": "uint256"
        }
      ],
      "name": "AssetTransferredToDestination",
      "type": "event"
    },
    {
      "anonymous": false,
      "inputs": [
        {
          "indexed": true,
          "internalType": "address",
          "name": "oldBaseAsset",
          "type": "address"
        },
        {
          "indexed": true,
          "internalType": "address",
          "name": "newBaseAsset",
          "type": "address"
        }
      ],
      "name": "BaseAssetUpdated",
      "type": "event"
    },
    {
      "anonymous": false,
      "inputs": [
        {
          "indexed": true,
          "internalType": "address",
          "name": "tokenAddressIn",
          "type": "address"
        },
        {
          "indexed": true,
          "internalType": "address",
          "name": "tokenAddressOut",
          "type": "address"
        },
        {
          "indexed": false,
          "internalType": "uint256",
          "name": "oldIncentive",
          "type": "uint256"
        },
        {
          "indexed": false,
          "internalType": "uint256",
          "name": "newIncentive",
          "type": "uint256"
        },
        {
          "indexed": false,
          "internalType": "enum IAbstractTokenConverter.ConversionAccessibility",
          "name": "oldAccess",
          "type": "uint8"
        },
        {
          "indexed": false,
          "internalType": "enum IAbstractTokenConverter.ConversionAccessibility",
          "name": "newAccess",
          "type": "uint8"
        }
      ],
      "name": "ConversionConfigUpdated",
      "type": "event"
    },
    {
      "anonymous": false,
      "inputs": [
        {
          "indexed": true,
          "internalType": "address",
          "name": "sender",
          "type": "address"
        }
      ],
      "name": "ConversionPaused",
      "type": "event"
    },
    {
      "anonymous": false,
      "inputs": [
        {
          "indexed": true,
          "internalType": "address",
          "name": "sender",
          "type": "address"
        }
      ],
      "name": "ConversionResumed",
      "type": "event"
    },
    {
      "anonymous": false,
      "inputs": [
        {
          "indexed": true,
          "internalType": "address",
          "name": "sender",
          "type": "address"
        },
        {
          "indexed": true,
          "internalType": "address",
          "name": "receiver",
          "type": "address"
        },
        {
          "indexed": false,
          "internalType": "address",
          "name": "tokenAddressIn",
          "type": "address"
        },
        {
          "indexed": true,
          "internalType": "address",
          "name": "tokenAddressOut",
          "type": "address"
        },
        {
          "indexed": false,
          "internalType": "uint256",
          "name": "amountIn",
          "type": "uint256"
        },
        {
          "indexed": false,
          "internalType": "uint256",
          "name": "amountOut",
          "type": "uint256"
        }
      ],
      "name": "ConvertedExactTokens",
      "type": "event"
    },
    {
      "anonymous": false,
      "inputs": [
        {
          "indexed": true,
          "internalType": "address",
          "name": "sender",
          "type": "address"
        },
        {
          "indexed": true,
          "internalType": "address",
          "name": "receiver",
          "type": "address"
        },
        {
          "indexed": false,
          "internalType": "address",
          "name": "tokenAddressIn",
          "type": "address"
        },
        {
          "indexed": true,
          "internalType": "address",
          "name": "tokenAddressOut",
          "type": "address"
        },
        {
          "indexed": false,
          "internalType": "uint256",
          "name": "amountIn",
          "type": "uint256"
        },
        {
          "indexed": false,
          "internalType": "uint256",
          "name": "amountOut",
          "type": "uint256"
        }
      ],
      "name": "ConvertedExactTokensSupportingFeeOnTransferTokens",
      "type": "event"
    },
    {
      "anonymous": false,
      "inputs": [
        {
          "indexed": true,
          "internalType": "address",
          "name": "sender",
          "type": "address"
        },
        {
          "indexed": true,
          "internalType": "address",
          "name": "receiver",
          "type": "address"
        },
        {
          "indexed": false,
          "internalType": "address",
          "name": "tokenAddressIn",
          "type": "address"
        },
        {
          "indexed": true,
          "internalType": "address",
          "name": "tokenAddressOut",
          "type": "address"
        },
        {
          "indexed": false,
          "internalType": "uint256",
          "name": "amountIn",
          "type": "uint256"
        },
        {
          "indexed": false,
          "internalType": "uint256",
          "name": "amountOut",
          "type": "uint256"
        }
      ],
      "name": "ConvertedForExactTokens",
      "type": "event"
    },
    {
      "anonymous": false,
      "inputs": [
        {
          "indexed": true,
          "internalType": "address",
          "name": "sender",
          "type": "address"
        },
        {
          "indexed": true,
          "internalType": "address",
          "name": "receiver",
          "type": "address"
        },
        {
          "indexed": false,
          "internalType": "address",
          "name": "tokenAddressIn",
          "type": "address"
        },
        {
          "indexed": true,
          "internalType": "address",
          "name": "tokenAddressOut",
          "type": "address"
        },
        {
          "indexed": false,
          "internalType": "uint256",
          "name": "amountIn",
          "type": "uint256"
        },
        {
          "indexed": false,
          "internalType": "uint256",
          "name": "amountOut",
          "type": "uint256"
        }
      ],
      "name": "ConvertedForExactTokensSupportingFeeOnTransferTokens",
      "type": "event"
    },
    {
      "anonymous": false,
      "inputs": [
        {
          "indexed": true,
          "internalType": "address",
          "name": "oldConverterNetwork",
          "type": "address"
        },
        {
          "indexed": true,
          "internalType": "address",
          "name": "converterNetwork",
          "type": "address"
        }
      ],
      "name": "ConverterNetworkAddressUpdated",
      "type": "event"
    },
    {
      "anonymous": false,
      "inputs": [
        {
          "indexed": true,
          "internalType": "address",
          "name": "oldDestinationAddress",
          "type": "address"
        },
        {
          "indexed": true,
          "internalType": "address",
          "name": "destinationAddress",
          "type": "address"
        }
      ],
      "name": "DestinationAddressUpdated",
      "type": "event"
    },
    {
      "anonymous": false,
      "inputs": [
        {
          "indexed": false,
          "internalType": "uint8",
          "name": "version",
          "type": "uint8"
        }
      ],
      "name": "Initialized",
      "type": "event"
    },
    {
      "anonymous": false,
      "inputs": [
        {
          "indexed": false,
          "internalType": "uint256",
          "name": "oldMinAmountToConvert",
          "type": "uint256"
        },
        {
          "indexed": false,
          "internalType": "uint256",
          "name": "newMinAmountToConvert",
          "type": "uint256"
        }
      ],
      "name": "MinAmountToConvertUpdated",
      "type": "event"
    },
    {
      "anonymous": false,
      "inputs": [
        {
          "indexed": false,
          "internalType": "address",
          "name": "oldAccessControlManager",
          "type": "address"
        },
        {
          "indexed": false,
          "internalType": "address",
          "name": "newAccessControlManager",
          "type": "address"
        }
      ],
      "name": "NewAccessControlManager",
      "type": "event"
    },
    {
      "anonymous": false,
      "inputs": [
        {
          "indexed": true,
          "internalType": "address",
          "name": "previousOwner",
          "type": "address"
        },
        {
          "indexed": true,
          "internalType": "address",
          "name": "newOwner",
          "type": "address"
        }
      ],
      "name": "OwnershipTransferStarted",
      "type": "event"
    },
    {
      "anonymous": false,
      "inputs": [
        {
          "indexed": true,
          "internalType": "address",
          "name": "previousOwner",
          "type": "address"
        },
        {
          "indexed": true,
          "internalType": "address",
          "name": "newOwner",
          "type": "address"
        }
      ],
      "name": "OwnershipTransferred",
      "type": "event"
    },
    {
      "anonymous": false,
      "inputs": [
        {
          "indexed": true,
          "internalType": "contract ResilientOracle",
          "name": "oldPriceOracle",
          "type": "address"
        },
        {
          "indexed": true,
          "internalType": "contract ResilientOracle",
          "name": "priceOracle",
          "type": "address"
        }
      ],
      "name": "PriceOracleUpdated",
      "type": "event"
    },
    {
      "anonymous": false,
      "inputs": [
        {
          "indexed": true,
          "internalType": "address",
          "name": "token",
          "type": "address"
        },
        {
          "indexed": true,
          "internalType": "address",
          "name": "to",
          "type": "address"
        },
        {
          "indexed": false,
          "internalType": "uint256",
          "name": "amount",
          "type": "uint256"
        }
      ],
      "name": "SweepToken",
      "type": "event"
    },
    {
      "inputs": [],
      "name": "MAX_INCENTIVE",
      "outputs": [
        {
          "internalType": "uint256",
          "name": "",
          "type": "uint256"
        }
      ],
      "stateMutability": "view",
      "type": "function"
    },
    {
      "inputs": [],
      "name": "acceptOwnership",
      "outputs": [],
      "stateMutability": "nonpayable",
      "type": "function"
    },
    {
      "inputs": [],
      "name": "accessControlManager",
      "outputs": [
        {
          "internalType": "contract IAccessControlManagerV8",
          "name": "",
          "type": "address"
        }
      ],
      "stateMutability": "view",
      "type": "function"
    },
    {
      "inputs": [
        {
          "internalType": "address",
          "name": "tokenAddress",
          "type": "address"
        }
      ],
      "name": "balanceOf",
      "outputs": [
        {
          "internalType": "uint256",
          "name": "tokenBalance",
          "type": "uint256"
        }
      ],
      "stateMutability": "view",
      "type": "function"
    },
    {
      "inputs": [],
      "name": "baseAsset",
      "outputs": [
        {
          "internalType": "address",
          "name": "",
          "type": "address"
        }
      ],
      "stateMutability": "view",
      "type": "function"
    },
    {
      "inputs": [
        {
          "internalType": "address",
          "name": "",
          "type": "address"
        },
        {
          "internalType": "address",
          "name": "",
          "type": "address"
        }
      ],
      "name": "conversionConfigurations",
      "outputs": [
        {
          "internalType": "uint256",
          "name": "incentive",
          "type": "uint256"
        },
        {
          "internalType": "enum IAbstractTokenConverter.ConversionAccessibility",
          "name": "conversionAccess",
          "type": "uint8"
        }
      ],
      "stateMutability": "view",
      "type": "function"
    },
    {
      "inputs": [],
      "name": "conversionPaused",
      "outputs": [
        {
          "internalType": "bool",
          "name": "",
          "type": "bool"
        }
      ],
      "stateMutability": "view",
      "type": "function"
    },
    {
      "inputs": [
        {
          "internalType": "uint256",
          "name": "amountInMantissa",
          "type": "uint256"
        },
        {
          "internalType": "uint256",
          "name": "amountOutMinMantissa",
          "type": "uint256"
        },
        {
          "internalType": "address",
          "name": "tokenAddressIn",
          "type": "address"
        },
        {
          "internalType": "address",
          "name": "tokenAddressOut",
          "type": "address"
        },
        {
          "internalType": "address",
          "name": "to",
          "type": "address"
        }
      ],
      "name": "convertExactTokens",
      "outputs": [
        {
          "internalType": "uint256",
          "name": "actualAmountIn",
          "type": "uint256"
        },
        {
          "internalType": "uint256",
          "name": "actualAmountOut",
          "type": "uint256"
        }
      ],
      "stateMutability": "nonpayable",
      "type": "function"
    },
    {
      "inputs": [
        {
          "internalType": "uint256",
          "name": "amountInMantissa",
          "type": "uint256"
        },
        {
          "internalType": "uint256",
          "name": "amountOutMinMantissa",
          "type": "uint256"
        },
        {
          "internalType": "address",
          "name": "tokenAddressIn",
          "type": "address"
        },
        {
          "internalType": "address",
          "name": "tokenAddressOut",
          "type": "address"
        },
        {
          "internalType": "address",
          "name": "to",
          "type": "address"
        }
      ],
      "name": "convertExactTokensSupportingFeeOnTransferTokens",
      "outputs": [
        {
          "internalType": "uint256",
          "name": "actualAmountIn",
          "type": "uint256"
        },
        {
          "internalType": "uint256",
          "name": "actualAmountOut",
          "type": "uint256"
        }
      ],
      "stateMutability": "nonpayable",
      "type": "function"
    },
    {
      "inputs": [
        {
          "internalType": "uint256",
          "name": "amountInMaxMantissa",
          "type": "uint256"
        },
        {
          "internalType": "uint256",
          "name": "amountOutMantissa",
          "type": "uint256"
        },
        {
          "internalType": "address",
          "name": "tokenAddressIn",
          "type": "address"
        },
        {
          "internalType": "address",
          "name": "tokenAddressOut",
          "type": "address"
        },
        {
          "internalType": "address",
          "name": "to",
          "type": "address"
        }
      ],
      "name": "convertForExactTokens",
      "outputs": [
        {
          "internalType": "uint256",
          "name": "actualAmountIn",
          "type": "uint256"
        },
        {
          "internalType": "uint256",
          "name": "actualAmountOut",
          "type": "uint256"
        }
      ],
      "stateMutability": "nonpayable",
      "type": "function"
    },
    {
      "inputs": [
        {
          "internalType": "uint256",
          "name": "amountInMaxMantissa",
          "type": "uint256"
        },
        {
          "internalType": "uint256",
          "name": "amountOutMantissa",
          "type": "uint256"
        },
        {
          "internalType": "address",
          "name": "tokenAddressIn",
          "type": "address"
        },
        {
          "internalType": "address",
          "name": "tokenAddressOut",
          "type": "address"
        },
        {
          "internalType": "address",
          "name": "to",
          "type": "address"
        }
      ],
      "name": "convertForExactTokensSupportingFeeOnTransferTokens",
      "outputs": [
        {
          "internalType": "uint256",
          "name": "actualAmountIn",
          "type": "uint256"
        },
        {
          "internalType": "uint256",
          "name": "actualAmountOut",
          "type": "uint256"
        }
      ],
      "stateMutability": "nonpayable",
      "type": "function"
    },
    {
      "inputs": [],
      "name": "converterNetwork",
      "outputs": [
        {
          "internalType": "contract IConverterNetwork",
          "name": "",
          "type": "address"
        }
      ],
      "stateMutability": "view",
      "type": "function"
    },
    {
      "inputs": [],
      "name": "destinationAddress",
      "outputs": [
        {
          "internalType": "address",
          "name": "",
          "type": "address"
        }
      ],
      "stateMutability": "view",
      "type": "function"
    },
    {
      "inputs": [
        {
          "internalType": "uint256",
          "name": "amountOutMantissa",
          "type": "uint256"
        },
        {
          "internalType": "address",
          "name": "tokenAddressIn",
          "type": "address"
        },
        {
          "internalType": "address",
          "name": "tokenAddressOut",
          "type": "address"
        }
      ],
      "name": "getAmountIn",
      "outputs": [
        {
          "internalType": "uint256",
          "name": "amountConvertedMantissa",
          "type": "uint256"
        },
        {
          "internalType": "uint256",
          "name": "amountInMantissa",
          "type": "uint256"
        }
      ],
      "stateMutability": "view",
      "type": "function"
    },
    {
      "inputs": [
        {
          "internalType": "uint256",
          "name": "amountInMantissa",
          "type": "uint256"
        },
        {
          "internalType": "address",
          "name": "tokenAddressIn",
          "type": "address"
        },
        {
          "internalType": "address",
          "name": "tokenAddressOut",
          "type": "address"
        }
      ],
      "name": "getAmountOut",
      "outputs": [
        {
          "internalType": "uint256",
          "name": "amountConvertedMantissa",
          "type": "uint256"
        },
        {
          "internalType": "uint256",
          "name": "amountOutMantissa",
          "type": "uint256"
        }
      ],
      "stateMutability": "view",
      "type": "function"
    },
    {
      "inputs": [
        {
          "internalType": "uint256",
          "name": "amountOutMantissa",
          "type": "uint256"
        },
        {
          "internalType": "address",
          "name": "tokenAddressIn",
          "type": "address"
        },
        {
          "internalType": "address",
          "name": "tokenAddressOut",
          "type": "address"
        }
      ],
      "name": "getUpdatedAmountIn",
      "outputs": [
        {
          "internalType": "uint256",
          "name": "amountConvertedMantissa",
          "type": "uint256"
        },
        {
          "internalType": "uint256",
          "name": "amountInMantissa",
          "type": "uint256"
        }
      ],
      "stateMutability": "nonpayable",
      "type": "function"
    },
    {
      "inputs": [
        {
          "internalType": "uint256",
          "name": "amountInMantissa",
          "type": "uint256"
        },
        {
          "internalType": "address",
          "name": "tokenAddressIn",
          "type": "address"
        },
        {
          "internalType": "address",
          "name": "tokenAddressOut",
          "type": "address"
        }
      ],
      "name": "getUpdatedAmountOut",
      "outputs": [
        {
          "internalType": "uint256",
          "name": "amountConvertedMantissa",
          "type": "uint256"
        },
        {
          "internalType": "uint256",
          "name": "amountOutMantissa",
          "type": "uint256"
        }
      ],
      "stateMutability": "nonpayable",
      "type": "function"
    },
    {
      "inputs": [
        {
          "internalType": "address",
          "name": "accessControlManager_",
          "type": "address"
        },
        {
          "internalType": "contract ResilientOracle",
          "name": "priceOracle_",
          "type": "address"
        },
        {
          "internalType": "address",
          "name": "destinationAddress_",
          "type": "address"
        },
        {
          "internalType": "address",
          "name": "baseAsset_",
          "type": "address"
        },
        {
          "internalType": "uint256",
          "name": "minAmountToConvert_",
          "type": "uint256"
        }
      ],
      "name": "initialize",
      "outputs": [],
      "stateMutability": "nonpayable",
      "type": "function"
    },
    {
      "inputs": [],
      "name": "minAmountToConvert",
      "outputs": [
        {
          "internalType": "uint256",
          "name": "",
          "type": "uint256"
        }
      ],
      "stateMutability": "view",
      "type": "function"
    },
    {
      "inputs": [],
      "name": "owner",
      "outputs": [
        {
          "internalType": "address",
          "name": "",
          "type": "address"
        }
      ],
      "stateMutability": "view",
      "type": "function"
    },
    {
      "inputs": [],
      "name": "pauseConversion",
      "outputs": [],
      "stateMutability": "nonpayable",
      "type": "function"
    },
    {
      "inputs": [],
      "name": "pendingOwner",
      "outputs": [
        {
          "internalType": "address",
          "name": "",
          "type": "address"
        }
      ],
      "stateMutability": "view",
      "type": "function"
    },
    {
      "inputs": [],
      "name": "priceOracle",
      "outputs": [
        {
          "internalType": "contract ResilientOracle",
          "name": "",
          "type": "address"
        }
      ],
      "stateMutability": "view",
      "type": "function"
    },
    {
      "inputs": [],
      "name": "renounceOwnership",
      "outputs": [],
      "stateMutability": "nonpayable",
      "type": "function"
    },
    {
      "inputs": [],
      "name": "resumeConversion",
      "outputs": [],
      "stateMutability": "nonpayable",
      "type": "function"
    },
    {
      "inputs": [
        {
          "internalType": "address",
          "name": "accessControlManager_",
          "type": "address"
        }
      ],
      "name": "setAccessControlManager",
      "outputs": [],
      "stateMutability": "nonpayable",
      "type": "function"
    },
    {
      "inputs": [
        {
          "internalType": "address",
          "name": "baseAsset_",
          "type": "address"
        }
      ],
      "name": "setBaseAsset",
      "outputs": [],
      "stateMutability": "nonpayable",
      "type": "function"
    },
    {
      "inputs": [
        {
          "internalType": "address",
          "name": "tokenAddressIn",
          "type": "address"
        },
        {
          "internalType": "address",
          "name": "tokenAddressOut",
          "type": "address"
        },
        {
          "components": [
            {
              "internalType": "uint256",
              "name": "incentive",
              "type": "uint256"
            },
            {
              "internalType": "enum IAbstractTokenConverter.ConversionAccessibility",
              "name": "conversionAccess",
              "type": "uint8"
            }
          ],
          "internalType": "struct IAbstractTokenConverter.ConversionConfig",
          "name": "conversionConfig",
          "type": "tuple"
        }
      ],
      "name": "setConversionConfig",
      "outputs": [],
      "stateMutability": "nonpayable",
      "type": "function"
    },
    {
      "inputs": [
        {
          "internalType": "address",
          "name": "tokenAddressIn",
          "type": "address"
        },
        {
          "internalType": "address[]",
          "name": "tokenAddressesOut",
          "type": "address[]"
        },
        {
          "components": [
            {
              "internalType": "uint256",
              "name": "incentive",
              "type": "uint256"
            },
            {
              "internalType": "enum IAbstractTokenConverter.ConversionAccessibility",
              "name": "conversionAccess",
              "type": "uint8"
            }
          ],
          "internalType": "struct IAbstractTokenConverter.ConversionConfig[]",
          "name": "conversionConfigs",
          "type": "tuple[]"
        }
      ],
      "name": "setConversionConfigs",
      "outputs": [],
      "stateMutability": "nonpayable",
      "type": "function"
    },
    {
      "inputs": [
        {
          "internalType": "contract IConverterNetwork",
          "name": "converterNetwork_",
          "type": "address"
        }
      ],
      "name": "setConverterNetwork",
      "outputs": [],
      "stateMutability": "nonpayable",
      "type": "function"
    },
    {
      "inputs": [
        {
          "internalType": "address",
          "name": "destinationAddress_",
          "type": "address"
        }
      ],
      "name": "setDestination",
      "outputs": [],
      "stateMutability": "nonpayable",
      "type": "function"
    },
    {
      "inputs": [
        {
          "internalType": "uint256",
          "name": "minAmountToConvert_",
          "type": "uint256"
        }
      ],
      "name": "setMinAmountToConvert",
      "outputs": [],
      "stateMutability": "nonpayable",
      "type": "function"
    },
    {
      "inputs": [
        {
          "internalType": "contract ResilientOracle",
          "name": "priceOracle_",
          "type": "address"
        }
      ],
      "name": "setPriceOracle",
      "outputs": [],
      "stateMutability": "nonpayable",
      "type": "function"
    },
    {
      "inputs": [
        {
          "internalType": "address",
          "name": "tokenAddress",
          "type": "address"
        },
        {
          "internalType": "address",
          "name": "to",
          "type": "address"
        },
        {
          "internalType": "uint256",
          "name": "amount",
          "type": "uint256"
        }
      ],
      "name": "sweepToken",
      "outputs": [],
      "stateMutability": "nonpayable",
      "type": "function"
    },
    {
      "inputs": [
        {
          "internalType": "address",
          "name": "newOwner",
          "type": "address"
        }
      ],
      "name": "transferOwnership",
      "outputs": [],
      "stateMutability": "nonpayable",
      "type": "function"
    },
    {
      "inputs": [
        {
          "internalType": "address",
          "name": "comptroller",
          "type": "address"
        },
        {
          "internalType": "address",
          "name": "asset",
          "type": "address"
        }
      ],
      "name": "updateAssetsState",
      "outputs": [],
      "stateMutability": "nonpayable",
      "type": "function"
    }
  ],
  "transactionHash": "0x37eaa5cbfec8cec424693fda82dbf6a2805724bc24f659ee0b681d89ad07f7b8",
  "args": [],
  "numDeployments": 1,
  "solcInputHash": "5d85b28b6a601f301b9d986a9cab69e1",
  "bytecode": "0x60806040523480156200001157600080fd5b506200001c62000022565b620000e3565b600054610100900460ff16156200008f5760405162461bcd60e51b815260206004820152602760248201527f496e697469616c697a61626c653a20636f6e747261637420697320696e697469604482015266616c697a696e6760c81b606482015260840160405180910390fd5b60005460ff90811614620000e1576000805460ff191660ff9081179091556040519081527f7f26b83ff96e1f2b6a682f133852f6798a09c465da95921460cefb38474024989060200160405180910390a15b565b6140c180620000f36000396000f3fe608060405234801561001057600080fd5b506004361061025c5760003560e01c806379ba509711610145578063ca325469116100bd578063f04c31871161008c578063f2fde38b11610071578063f2fde38b14610533578063f7013ef614610546578063fe3da9841461055957600080fd5b8063f04c31871461050d578063f0dc7e9d1461052057600080fd5b8063ca325469146104c6578063cdf456e1146104d9578063e2ff7ea2146104ed578063e30c3978146104fc57600080fd5b8063b491ddf711610114578063b6828c57116100f9578063b6828c5714610498578063bc368b04146104ab578063c0654646146104b357600080fd5b8063b491ddf714610444578063b4a0bdf31461048757600080fd5b806379ba5097146104055780638da5cb5b1461040d57806390fa7b541461041e578063aac59a751461043157600080fd5b8063530e784f116101d85780636daa463b116101a757806370a082311161018c57806370a08231146103c9578063715018a6146103ea578063746460a9146103f257600080fd5b80636daa463b146103a35780636f1a30a8146103b657600080fd5b8063530e784f1461036257806358b904df146103755780635e1e63251461037d57806364aff9ec1461039057600080fd5b80630e32cb861161022f5780633606b26c116102145780633606b26c14610329578063439727a51461033c57806352e21a181461034f57600080fd5b80630e32cb86146103035780632630c12f1461031657600080fd5b806301e201781461026157806307aa239e146102915780630a0a05e6146102c65780630a9a2b72146102db575b600080fd5b60ff54610274906001600160a01b031681565b6040516001600160a01b0390911681526020015b60405180910390f35b60fe546102b69074010000000000000000000000000000000000000000900460ff1681565b6040519015158152602001610288565b6102d96102d4366004613837565b610562565b005b6102ee6102e9366004613854565b610576565b60408051928352602083019190915201610288565b6102d9610311366004613837565b61065d565b60fc54610274906001600160a01b031681565b6102d9610337366004613837565b61066e565b6102ee61034a366004613896565b61067f565b6102d961035d366004613837565b6107bd565b6102d9610370366004613837565b6107ce565b6102d96107df565b6102ee61038b366004613854565b6108c5565b6102d961039e3660046138f5565b6109a8565b6102ee6103b1366004613854565b610a45565b6102ee6103c4366004613854565b610b4e565b6103dc6103d7366004613837565b610c4d565b604051908152602001610288565b6102d9610cda565b6102d9610400366004613936565b610cee565b6102d9610d35565b6033546001600160a01b0316610274565b6102ee61042c366004613896565b610dc5565b6102d961043f36600461394f565b610eaf565b61047961045236600461394f565b60fd6020908152600092835260408084209091529082529020805460019091015460ff1682565b6040516102889291906139f2565b6097546001600160a01b0316610274565b6102ee6104a6366004613896565b610ee5565b6102d9610fcf565b6102d96104c1366004613a52565b611081565b60fe54610274906001600160a01b031681565b61012d54610274906001600160a01b031681565b6103dc6706f05b59d3b2000081565b6065546001600160a01b0316610274565b6102ee61051b366004613896565b61111f565b6102d961052e366004613b06565b611242565b6102d9610541366004613837565b6115e1565b6102d9610554366004613b77565b61166a565b6103dc60fb5481565b61056a6117f4565b6105738161184e565b50565b60008060026001600160a01b03808616600090815260fd602090815260408083209388168352929052206001015460ff1660038111156105b8576105b8613988565b036105ef576040517f03410cd100000000000000000000000000000000000000000000000000000000815260040160405180910390fd5b84915060006105ff8686866118cb565b9092509050600061060f85610c4d565b905086811015610653578160018161062f670de0b6b3a764000085613c0a565b6106399190613c47565b6106439190613c5f565b61064d9190613c76565b92508093505b5050935093915050565b6106656117f4565b61057381611bef565b6106766117f4565b61057381611ce4565b60008082858561068d611d63565b61069683611db8565b816001600160a01b0316836001600160a01b031614806106c75750806001600160a01b0316836001600160a01b0316145b156106fe576040517f8aa3a72f00000000000000000000000000000000000000000000000000000000815260040160405180910390fd5b610706611df8565b6107138a8a8a8a8a611e51565b9095509350898514610751576040517fc214279600000000000000000000000000000000000000000000000000000000815260040160405180910390fd5b604080516001600160a01b038a81168252602082018890529181018690528189169188169033907f795a235be939acb902ac69562805f86e1341a9b019c351b996e2aa2dfc34c67c906060015b60405180910390a46107b0600160c955565b5050509550959350505050565b6107c56117f4565b61057381611ed8565b6107d66117f4565b61057381611f55565b61081d6040518060400160405280601281526020017f726573756d65436f6e76657273696f6e28290000000000000000000000000000815250611fd2565b60fe5474010000000000000000000000000000000000000000900460ff16610870576040517e6d8dbb00000000000000000000000000000000000000000000000000000000815260040160405180910390fd5b60fe80547fffffffffffffffffffffff00ffffffffffffffffffffffffffffffffffffffff16905560405133907f89b79206f08dadd78502cff5075d2b094fa0abea0b063cfafe4475e2a380c51f90600090a2565b60008060026001600160a01b03808616600090815260fd602090815260408083209388168352929052206001015460ff16600381111561090757610907613988565b0361093e576040517f03410cd100000000000000000000000000000000000000000000000000000000815260040160405180910390fd5b849150600061094e86868661209e565b9092509050600061095e85610c4d565b905082811015610653578160018161097e670de0b6b3a764000085613c0a565b6109889190613c47565b6109929190613c5f565b61099c9190613c76565b97909650945050505050565b6109b06117f4565b6109b8611df8565b6109c183611db8565b6109ca82611db8565b6109d3816123bf565b826109e86001600160a01b03821684846123f9565b826001600160a01b0316846001600160a01b03167f6d25be279134f4ecaa4770aff0c3d916d9e7c5ef37b65ed95dbdba411f5d54d584604051610a2d91815260200190565b60405180910390a350610a40600160c955565b505050565b60fc546040517fb62cad690000000000000000000000000000000000000000000000000000000081526001600160a01b038481166004830152600092839291169063b62cad6990602401600060405180830381600087803b158015610aa957600080fd5b505af1158015610abd573d6000803e3d6000fd5b505060fc546040517fb62cad690000000000000000000000000000000000000000000000000000000081526001600160a01b038781166004830152909116925063b62cad699150602401600060405180830381600087803b158015610b2157600080fd5b505af1158015610b35573d6000803e3d6000fd5b50505050610b4485858561209e565b5094959350505050565b60fc546040517fb62cad690000000000000000000000000000000000000000000000000000000081526001600160a01b038481166004830152600092839291169063b62cad6990602401600060405180830381600087803b158015610bb257600080fd5b505af1158015610bc6573d6000803e3d6000fd5b505060fc546040517fb62cad690000000000000000000000000000000000000000000000000000000081526001600160a01b038781166004830152909116925063b62cad699150602401600060405180830381600087803b158015610c2a57600080fd5b505af1158015610c3e573d6000803e3d6000fd5b50505050610b448585856118cb565b6040517f70a0823100000000000000000000000000000000000000000000000000000000815230600482015260009082906001600160a01b038216906370a0823190602401602060405180830381865afa158015610caf573d6000803e3d6000fd5b505050506040513d601f19601f82011682018060405250810190610cd39190613cb1565b9392505050565b610ce26117f4565b610cec60006124c0565b565b610d2c6040518060400160405280601e81526020017f7365744d696e416d6f756e74546f436f6e766572742875696e74323536290000815250611fd2565b610573816124f1565b60655433906001600160a01b03168114610dbc5760405162461bcd60e51b815260206004820152602960248201527f4f776e61626c6532537465703a2063616c6c6572206973206e6f74207468652060448201527f6e6577206f776e6572000000000000000000000000000000000000000000000060648201526084015b60405180910390fd5b610573816124c0565b600080828585610dd3611d63565b610ddc83611db8565b816001600160a01b0316836001600160a01b03161480610e0d5750806001600160a01b0316836001600160a01b0316145b15610e44576040517f8aa3a72f00000000000000000000000000000000000000000000000000000000815260040160405180910390fd5b610e4c611df8565b610e598a8a8a8a8a611e51565b9095509350604080516001600160a01b038a81168252602082018890529181018690528189169188169033907f93b7ba2a2b0e36320375853d7466af5685c07567804b871b4fdfd31e3bb771549060600161079e565b610eb7611df8565b6000610ec3838361253b565b90508015610ed657610ed6838383612650565b50610ee1600160c955565b5050565b600080828585610ef3611d63565b610efc83611db8565b816001600160a01b0316836001600160a01b03161480610f2d5750806001600160a01b0316836001600160a01b0316145b15610f64576040517f8aa3a72f00000000000000000000000000000000000000000000000000000000815260040160405180910390fd5b610f6c611df8565b610f798a8a8a8a8a612b0d565b9095509350604080516001600160a01b038a81168252602082018890529181018690528189169188169033907f9b7dc1d7d2974d015b4fc39889a09f3a3923add808f5863158f3162d997d4e829060600161079e565b61100d6040518060400160405280601181526020017f7061757365436f6e76657273696f6e2829000000000000000000000000000000815250611fd2565b611015611d63565b60fe80547fffffffffffffffffffffff00ffffffffffffffffffffffffffffffffffffffff167401000000000000000000000000000000000000000017905560405133907f490bc639fd0d96f19c8adf77bc98d17fbefdee2e1e1864d21f041360d0ee065a90600090a2565b828181146110bb576040517f4d5590f300000000000000000000000000000000000000000000000000000000815260040160405180910390fd5b60005b818110156111165761110e878787848181106110dc576110dc613cca565b90506020020160208101906110f19190613837565b86868581811061110357611103613cca565b905060400201611242565b6001016110be565b50505050505050565b60008082858561112d611d63565b61113683611db8565b816001600160a01b0316836001600160a01b031614806111675750806001600160a01b0316836001600160a01b0316145b1561119e576040517f8aa3a72f00000000000000000000000000000000000000000000000000000000815260040160405180910390fd5b6111a6611df8565b6111b38a8a8a8a8a612b9f565b90955093508884146111f1576040517fa8dc653c00000000000000000000000000000000000000000000000000000000815260040160405180910390fd5b604080516001600160a01b038a81168252602082018890529181018690528189169188169033907fcb4ea7de8d069b0f443b792cba6c6df5096508951bbc75c04ac42c9251efe0769060600161079e565b61126360405180606001604052806035815260200161405760359139611fd2565b61126c83611db8565b61127582611db8565b6706f05b59d3b20000813511156112c9576040517f9770caee000000000000000000000000000000000000000000000000000000008152813560048201526706f05b59d3b200006024820152604401610db3565b816001600160a01b0316836001600160a01b031614806112f8575061012d546001600160a01b03848116911614155b80611340575060006001600160a01b03808416600090815260fd602090815260408083209388168352929052206001015460ff16600381111561133d5761133d613988565b14155b15611377576040517feebb5ac600000000000000000000000000000000000000000000000000000000815260040160405180910390fd5b60026113896040830160208401613cf9565b600381111561139a5761139a613988565b1480156113a75750803515155b156113de576040517fd0d4aabe00000000000000000000000000000000000000000000000000000000815260040160405180910390fd5b60026113f06040830160208401613cf9565b600381111561140157611401613988565b148061142d5750600161141a6040830160208401613cf9565b600381111561142b5761142b613988565b145b8015611442575060ff546001600160a01b0316155b15611479576040517fe7c2c99400000000000000000000000000000000000000000000000000000000815260040160405180910390fd5b6001600160a01b03808416600081815260fd602090815260408083209487168084529482529182902080546001820154919594937f39fbfdd5da133303ed31b1b65e30a0ddf7a9236573368c66c859dceccc1dd12a93919288359260ff909116916114e991908a01908a01613cf9565b6040516114f99493929190613d1a565b60405180910390a360006115136040840160208501613cf9565b600381111561152457611524613988565b03611581576001600160a01b03808516600090815260fd60209081526040808320938716835292905290812090815560010180547fffffffffffffffffffffffffffffffffffffffffffffffffffffffffffffff001690556115db565b813581556115956040830160208401613cf9565b6001808301805490917fffffffffffffffffffffffffffffffffffffffffffffffffffffffffffffff00909116908360038111156115d5576115d5613988565b02179055505b50505050565b6115e96117f4565b606580546001600160a01b0383167fffffffffffffffffffffffff000000000000000000000000000000000000000090911681179091556116326033546001600160a01b031690565b6001600160a01b03167f38d16b8cac22d99fc7c124b9cd0de2d3fa1faef420bfe791d8c362d765e2270060405160405180910390a350565b600054610100900460ff161580801561168a5750600054600160ff909116105b806116a45750303b1580156116a4575060005460ff166001145b6117165760405162461bcd60e51b815260206004820152602e60248201527f496e697469616c697a61626c653a20636f6e747261637420697320616c72656160448201527f647920696e697469616c697a65640000000000000000000000000000000000006064820152608401610db3565b600080547fffffffffffffffffffffffffffffffffffffffffffffffffffffffffffffff00166001179055801561177457600080547fffffffffffffffffffffffffffffffffffffffffffffffffffffffffffff00ff166101001790555b61177d83611ce4565b61178986868685612c5c565b80156117ec57600080547fffffffffffffffffffffffffffffffffffffffffffffffffffffffffffff00ff169055604051600181527f7f26b83ff96e1f2b6a682f133852f6798a09c465da95921460cefb38474024989060200160405180910390a15b505050505050565b6033546001600160a01b03163314610cec5760405162461bcd60e51b815260206004820181905260248201527f4f776e61626c653a2063616c6c6572206973206e6f7420746865206f776e65726044820152606401610db3565b61185781611db8565b60fe546040516001600160a01b038084169216907f9be3097b5c8b276786be52a244ee90d66efd34805d9eb16f168fb2b4aaae9a2b90600090a360fe80547fffffffffffffffffffffffff0000000000000000000000000000000000000000166001600160a01b0392909216919091179055565b60008084600003611908576040517f42301c2300000000000000000000000000000000000000000000000000000000815260040160405180910390fd5b6001600160a01b03808516600090815260fd6020908152604080832093871683529281528282208351808501909452805484526001810154929392909183019060ff16600381111561195c5761195c613988565b600381111561196d5761196d613988565b905250905060008160200151600381111561198a5761198a613988565b036119c1576040517f618ce59700000000000000000000000000000000000000000000000000000000815260040160405180910390fd5b60fc546040517f41976e090000000000000000000000000000000000000000000000000000000081526001600160a01b03878116600483015260009216906341976e0990602401602060405180830381865afa158015611a25573d6000803e3d6000fd5b505050506040513d601f19601f82011682018060405250810190611a499190613cb1565b60fc546040517f41976e090000000000000000000000000000000000000000000000000000000081526001600160a01b038881166004830152929350600092909116906341976e0990602401602060405180830381865afa158015611ab2573d6000803e3d6000fd5b505050506040513d601f19601f82011682018060405250810190611ad69190613cb1565b835160ff54919250906001600160a01b031615801590611b76575060ff546040517f6c059fb10000000000000000000000000000000000000000000000000000000081523360048201526001600160a01b0390911690636c059fb190602401602060405180830381865afa158015611b52573d6000803e3d6000fd5b505050506040513d601f19601f82011682018060405250810190611b769190613d4b565b15611b7f575060005b6000611b9382670de0b6b3a7640000613c47565b905082611ba08286613c0a565b611baa9190613c76565b955085600181611bc2670de0b6b3a76400008e613c0a565b611bcc9190613c47565b611bd69190613c5f565b611be09190613c76565b96505050505050935093915050565b6001600160a01b038116611c6b5760405162461bcd60e51b815260206004820152602560248201527f696e76616c696420616365737320636f6e74726f6c206d616e6167657220616460448201527f64726573730000000000000000000000000000000000000000000000000000006064820152608401610db3565b609780546001600160a01b038381167fffffffffffffffffffffffff000000000000000000000000000000000000000083168117909355604080519190921680825260208201939093527f66fd58e82f7b31a2a5c30e0888f3093efe4e111b00cd2b0c31fe014601293aa0910160405180910390a15050565b611ced81611db8565b61012d546040516001600160a01b038084169216907f4fe44995ca2482562846e3c0413d9bd6147e9ce1881c66a8765e8542fef99f4290600090a361012d80547fffffffffffffffffffffffff0000000000000000000000000000000000000000166001600160a01b0392909216919091179055565b60fe5474010000000000000000000000000000000000000000900460ff1615610cec576040517f952bcf7f00000000000000000000000000000000000000000000000000000000815260040160405180910390fd5b6001600160a01b038116610573576040517f8579befe00000000000000000000000000000000000000000000000000000000815260040160405180910390fd5b600260c95403611e4a5760405162461bcd60e51b815260206004820152601f60248201527f5265656e7472616e637947756172643a207265656e7472616e742063616c6c006044820152606401610db3565b600260c955565b600080611e5e8585612cf5565b611e688588612e15565b9150611e75828686610a45565b91505085811015611ebc576040517f228f8c110000000000000000000000000000000000000000000000000000000081526004810182905260248101879052604401610db3565b611ec7848483612f60565b9550959350505050565b600160c955565b611ee181611db8565b60ff546040516001600160a01b038084169216907f50f1a16bf24734355b14ff800d132cc0a934808b8621d5623b41bc67f204881790600090a360ff80547fffffffffffffffffffffffff0000000000000000000000000000000000000000166001600160a01b0392909216919091179055565b611f5e81611db8565b60fc546040516001600160a01b038084169216907f56b5f80d8cac1479698aa7d01605fd6111e90b15fc4d2b377417f46034876cbd90600090a360fc80547fffffffffffffffffffffffff0000000000000000000000000000000000000000166001600160a01b0392909216919091179055565b6097546040517f18c5e8ab0000000000000000000000000000000000000000000000000000000081526000916001600160a01b0316906318c5e8ab9061201e9033908690600401613de3565b602060405180830381865afa15801561203b573d6000803e3d6000fd5b505050506040513d601f19601f8201168201806040525081019061205f9190613d4b565b905080610ee1573330836040517f4a3fa293000000000000000000000000000000000000000000000000000000008152600401610db393929190613e05565b600080846000036120db576040517f098fb56100000000000000000000000000000000000000000000000000000000815260040160405180910390fd5b6001600160a01b03808516600090815260fd6020908152604080832093871683529281528282208351808501909452805484526001810154929392909183019060ff16600381111561212f5761212f613988565b600381111561214057612140613988565b905250905060008160200151600381111561215d5761215d613988565b03612194576040517f618ce59700000000000000000000000000000000000000000000000000000000815260040160405180910390fd5b60fc546040517f41976e090000000000000000000000000000000000000000000000000000000081526001600160a01b03878116600483015260009216906341976e0990602401602060405180830381865afa1580156121f8573d6000803e3d6000fd5b505050506040513d601f19601f8201168201806040525081019061221c9190613cb1565b60fc546040517f41976e090000000000000000000000000000000000000000000000000000000081526001600160a01b038881166004830152929350600092909116906341976e0990602401602060405180830381865afa158015612285573d6000803e3d6000fd5b505050506040513d601f19601f820116820180604052508101906122a99190613cb1565b835160ff54919250906001600160a01b031615801590612349575060ff546040517f6c059fb10000000000000000000000000000000000000000000000000000000081523360048201526001600160a01b0390911690636c059fb190602401602060405180830381865afa158015612325573d6000803e3d6000fd5b505050506040513d601f19601f820116820180604052508101906123499190613d4b565b15612352575060005b600061236682670de0b6b3a7640000613c47565b905061237a670de0b6b3a764000084613c0a565b81612385868d613c0a565b61238f9190613c0a565b6123999190613c76565b9650826123a68286613c0a565b6123b09190613c76565b95505050505050935093915050565b80600003610573576040517f9cf8540c00000000000000000000000000000000000000000000000000000000815260040160405180910390fd5b6040516001600160a01b038316602482015260448101829052610a409084907fa9059cbb00000000000000000000000000000000000000000000000000000000906064015b604080517fffffffffffffffffffffffffffffffffffffffffffffffffffffffffffffffe08184030181529190526020810180517bffffffffffffffffffffffffffffffffffffffffffffffffffffffff167fffffffff0000000000000000000000000000000000000000000000000000000090931692909217909152612fc3565b606580547fffffffffffffffffffffffff0000000000000000000000000000000000000000169055610573816130ab565b6124fa816123bf565b60fb5460408051918252602082018390527fada67d0d38fa20c8ae6a5c17cb9d60b0fe7f2d4e4f27ac9ee55e54ac88de9d8d910160405180910390a160fb55565b6040517f70a08231000000000000000000000000000000000000000000000000000000008152306004820152600090829082906001600160a01b038316906370a0823190602401602060405180830381865afa15801561259f573d6000803e3d6000fd5b505050506040513d601f19601f820116820180604052508101906125c39190613cb1565b61012d549093508391506001600160a01b03908116908516036126485760fe54600093506125fe906001600160a01b038481169116836123f9565b60fe546040518281526001600160a01b0386811692888216929116907fadc20ad416881f76b4304665c35f5be8592297bcdfe4f0bb087b9d254222af559060200160405180910390a45b505092915050565b600061266561012d546001600160a01b031690565b60fe5460ff549192506001600160a01b03908116916000911615612b085760ff546040517f4e9f8f390000000000000000000000000000000000000000000000000000000081526001600160a01b03878116600483015285811660248301526000928392911690634e9f8f39906044016000604051808303816000875af11580156126f4573d6000803e3d6000fd5b505050506040513d6000823e601f3d9081017fffffffffffffffffffffffffffffffffffffffffffffffffffffffffffffffe016820160405261273a9190810190613f3e565b8151919350915060005b81811015612b035782818151811061275e5761275e613cca565b602002602001015160000315612b0357600084828151811061278257612782613cca565b60200260200101516001600160a01b0316636f1a30a88584815181106127aa576127aa613cca565b60200260200101518c8b6040518463ffffffff1660e01b81526004016127ec939291909283526001600160a01b03918216602084015216604082015260600190565b60408051808303816000875af115801561280a573d6000803e3d6000fd5b505050506040513d601f19601f8201168201806040525081019061282e9190614003565b9150508881111561283c5750875b612846818b613115565b6128505750612b03565b6040517f70a082310000000000000000000000000000000000000000000000000000000081526001600160a01b038881166004830152600091908a16906370a0823190602401602060405180830381865afa1580156128b3573d6000803e3d6000fd5b505050506040513d601f19601f820116820180604052508101906128d79190613cb1565b90508a6001600160a01b031663095ea7b38785815181106128fa576128fa613cca565b6020026020010151846040518363ffffffff1660e01b81526004016129349291906001600160a01b03929092168252602082015260400190565b6020604051808303816000875af1158015612953573d6000803e3d6000fd5b505050506040513d601f19601f820116820180604052508101906129779190613d4b565b5085838151811061298a5761298a613cca565b60209081029190910101516040517f439727a500000000000000000000000000000000000000000000000000000000815260048101849052600060248201526001600160a01b038d811660448301528b811660648301528a811660848301529091169063439727a59060a40160408051808303816000875af1158015612a14573d6000803e3d6000fd5b505050506040513d601f19601f82011682018060405250810190612a389190614003565b50506040517f70a082310000000000000000000000000000000000000000000000000000000081526001600160a01b038981166004830152600091908b16906370a0823190602401602060405180830381865afa158015612a9d573d6000803e3d6000fd5b505050506040513d601f19601f82011682018060405250810190612ac19190613cb1565b9050612acd838c613c5f565b9a50612ad98282613c5f565b612ae39089613c47565b97508a600003612af557505050612b03565b836001019350505050612744565b505050505b6117ec565b600080612b1a8585612cf5565b6000612b27878787610b4e565b91505087811115612b6e576040517f71b5f0c10000000000000000000000000000000000000000000000000000000081526004810182905260248101899052604401610db3565b612b788682612e15565b9250612b85838787610a45565b9250612b949050858584612f60565b509550959350505050565b600080612bac8585612cf5565b6000612bb9878787610b4e565b915050612bc68682612e15565b9250808314612c01576040517f0c5c1c2000000000000000000000000000000000000000000000000000000000815260040160405180910390fd5b87831115612c45576040517f71b5f0c10000000000000000000000000000000000000000000000000000000081526004810182905260248101899052604401610db3565b612c50858589612f60565b50909694955050505050565b600054610100900460ff16612cd95760405162461bcd60e51b815260206004820152602b60248201527f496e697469616c697a61626c653a20636f6e7472616374206973206e6f74206960448201527f6e697469616c697a696e670000000000000000000000000000000000000000006064820152608401610db3565b612ce28461324d565b612cea6132db565b6115db838383613360565b60ff546000906001600160a01b031615801590612d92575060ff546040517f6c059fb10000000000000000000000000000000000000000000000000000000081523360048201526001600160a01b0390911690636c059fb190602401602060405180830381865afa158015612d6e573d6000803e3d6000fd5b505050506040513d601f19601f82011682018060405250810190612d929190613d4b565b905080158015612dde575060026001600160a01b03808516600090815260fd602090815260408083209387168352929052206001015460ff166003811115612ddc57612ddc613988565b145b15610a40576040517f03410cd100000000000000000000000000000000000000000000000000000000815260040160405180910390fd5b60fe546040517f70a082310000000000000000000000000000000000000000000000000000000081526001600160a01b039182166004820152600091849183918316906370a0823190602401602060405180830381865afa158015612e7e573d6000803e3d6000fd5b505050506040513d601f19601f82011682018060405250810190612ea29190613cb1565b60fe54909150612ec1906001600160a01b038481169133911687613425565b60fe546040517f70a082310000000000000000000000000000000000000000000000000000000081526001600160a01b0391821660048201526000918416906370a0823190602401602060405180830381865afa158015612f26573d6000803e3d6000fd5b505050506040513d601f19601f82011682018060405250810190612f4a9190613cb1565b9050612f568282613c5f565b9695505050505050565b6000612f6b84610c4d565b905081811015612fa7576040517f6bb2792900000000000000000000000000000000000000000000000000000000815260040160405180910390fd5b83612fbc6001600160a01b03821685856123f9565b5050505050565b6000613018826040518060400160405280602081526020017f5361666545524332303a206c6f772d6c6576656c2063616c6c206661696c6564815250856001600160a01b03166134769092919063ffffffff16565b90508051600014806130395750808060200190518101906130399190613d4b565b610a405760405162461bcd60e51b815260206004820152602a60248201527f5361666545524332303a204552433230206f7065726174696f6e20646964206e60448201527f6f742073756363656564000000000000000000000000000000000000000000006064820152608401610db3565b603380546001600160a01b038381167fffffffffffffffffffffffff0000000000000000000000000000000000000000831681179093556040519116919082907f8be0079c531659141344cd1fd0a4f28419497f9722a3daafe3b4186f6b6457e090600090a35050565b60fc546040517fb62cad690000000000000000000000000000000000000000000000000000000081526001600160a01b038381166004830152600092169063b62cad6990602401600060405180830381600087803b15801561317657600080fd5b505af115801561318a573d6000803e3d6000fd5b505060fc546040517f41976e090000000000000000000000000000000000000000000000000000000081526001600160a01b03868116600483015260009450670de0b6b3a76400009350879216906341976e0990602401602060405180830381865afa1580156131fe573d6000803e3d6000fd5b505050506040513d601f19601f820116820180604052508101906132229190613cb1565b61322c9190613c0a565b6132369190613c76565b905060fb54811061324657600191505b5092915050565b600054610100900460ff166132ca5760405162461bcd60e51b815260206004820152602b60248201527f496e697469616c697a61626c653a20636f6e7472616374206973206e6f74206960448201527f6e697469616c697a696e670000000000000000000000000000000000000000006064820152608401610db3565b6132d261348d565b61057381613512565b600054610100900460ff166133585760405162461bcd60e51b815260206004820152602b60248201527f496e697469616c697a61626c653a20636f6e7472616374206973206e6f74206960448201527f6e697469616c697a696e670000000000000000000000000000000000000000006064820152608401610db3565b610cec61358f565b600054610100900460ff166133dd5760405162461bcd60e51b815260206004820152602b60248201527f496e697469616c697a61626c653a20636f6e7472616374206973206e6f74206960448201527f6e697469616c697a696e670000000000000000000000000000000000000000006064820152608401610db3565b6133e683611f55565b6133ef8261184e565b6133f8816124f1565b505060fe80547fffffffffffffffffffffff00ffffffffffffffffffffffffffffffffffffffff16905550565b6040516001600160a01b03808516602483015283166044820152606481018290526115db9085907f23b872dd000000000000000000000000000000000000000000000000000000009060840161243e565b6060613485848460008561360c565b949350505050565b600054610100900460ff1661350a5760405162461bcd60e51b815260206004820152602b60248201527f496e697469616c697a61626c653a20636f6e7472616374206973206e6f74206960448201527f6e697469616c697a696e670000000000000000000000000000000000000000006064820152608401610db3565b610cec6136fe565b600054610100900460ff166106655760405162461bcd60e51b815260206004820152602b60248201527f496e697469616c697a61626c653a20636f6e7472616374206973206e6f74206960448201527f6e697469616c697a696e670000000000000000000000000000000000000000006064820152608401610db3565b600054610100900460ff16611ed15760405162461bcd60e51b815260206004820152602b60248201527f496e697469616c697a61626c653a20636f6e7472616374206973206e6f74206960448201527f6e697469616c697a696e670000000000000000000000000000000000000000006064820152608401610db3565b6060824710156136845760405162461bcd60e51b815260206004820152602660248201527f416464726573733a20696e73756666696369656e742062616c616e636520666f60448201527f722063616c6c00000000000000000000000000000000000000000000000000006064820152608401610db3565b600080866001600160a01b031685876040516136a09190614027565b60006040518083038185875af1925050503d80600081146136dd576040519150601f19603f3d011682016040523d82523d6000602084013e6136e2565b606091505b50915091506136f387838387613784565b979650505050505050565b600054610100900460ff1661377b5760405162461bcd60e51b815260206004820152602b60248201527f496e697469616c697a61626c653a20636f6e7472616374206973206e6f74206960448201527f6e697469616c697a696e670000000000000000000000000000000000000000006064820152608401610db3565b610cec336124c0565b606083156137f35782516000036137ec576001600160a01b0385163b6137ec5760405162461bcd60e51b815260206004820152601d60248201527f416464726573733a2063616c6c20746f206e6f6e2d636f6e74726163740000006044820152606401610db3565b5081613485565b61348583838151156138085781518083602001fd5b8060405162461bcd60e51b8152600401610db39190614043565b6001600160a01b038116811461057357600080fd5b60006020828403121561384957600080fd5b8135610cd381613822565b60008060006060848603121561386957600080fd5b83359250602084013561387b81613822565b9150604084013561388b81613822565b809150509250925092565b600080600080600060a086880312156138ae57600080fd5b853594506020860135935060408601356138c781613822565b925060608601356138d781613822565b915060808601356138e781613822565b809150509295509295909350565b60008060006060848603121561390a57600080fd5b833561391581613822565b9250602084013561392581613822565b929592945050506040919091013590565b60006020828403121561394857600080fd5b5035919050565b6000806040838503121561396257600080fd5b823561396d81613822565b9150602083013561397d81613822565b809150509250929050565b7f4e487b7100000000000000000000000000000000000000000000000000000000600052602160045260246000fd5b600481106139ee577f4e487b7100000000000000000000000000000000000000000000000000000000600052602160045260246000fd5b9052565b82815260408101610cd360208301846139b7565b60008083601f840112613a1857600080fd5b50813567ffffffffffffffff811115613a3057600080fd5b6020830191508360208260061b8501011115613a4b57600080fd5b9250929050565b600080600080600060608688031215613a6a57600080fd5b8535613a7581613822565b9450602086013567ffffffffffffffff80821115613a9257600080fd5b818801915088601f830112613aa657600080fd5b813581811115613ab557600080fd5b8960208260051b8501011115613aca57600080fd5b602083019650809550506040880135915080821115613ae857600080fd5b50613af588828901613a06565b969995985093965092949392505050565b60008060008385036080811215613b1c57600080fd5b8435613b2781613822565b93506020850135613b3781613822565b925060407fffffffffffffffffffffffffffffffffffffffffffffffffffffffffffffffc082011215613b6957600080fd5b506040840190509250925092565b600080600080600060a08688031215613b8f57600080fd5b8535613b9a81613822565b94506020860135613baa81613822565b93506040860135613bba81613822565b92506060860135613bca81613822565b949793965091946080013592915050565b7f4e487b7100000000000000000000000000000000000000000000000000000000600052601160045260246000fd5b6000817fffffffffffffffffffffffffffffffffffffffffffffffffffffffffffffffff0483118215151615613c4257613c42613bdb565b500290565b60008219821115613c5a57613c5a613bdb565b500190565b600082821015613c7157613c71613bdb565b500390565b600082613cac577f4e487b7100000000000000000000000000000000000000000000000000000000600052601260045260246000fd5b500490565b600060208284031215613cc357600080fd5b5051919050565b7f4e487b7100000000000000000000000000000000000000000000000000000000600052603260045260246000fd5b600060208284031215613d0b57600080fd5b813560048110610cd357600080fd5b8481526020810184905260808101613d3560408301856139b7565b613d4260608301846139b7565b95945050505050565b600060208284031215613d5d57600080fd5b81518015158114610cd357600080fd5b60005b83811015613d88578181015183820152602001613d70565b838111156115db5750506000910152565b60008151808452613db1816020860160208601613d6d565b601f017fffffffffffffffffffffffffffffffffffffffffffffffffffffffffffffffe0169290920160200192915050565b6001600160a01b03831681526040602082015260006134856040830184613d99565b60006001600160a01b03808616835280851660208401525060606040830152613d426060830184613d99565b7f4e487b7100000000000000000000000000000000000000000000000000000000600052604160045260246000fd5b604051601f82017fffffffffffffffffffffffffffffffffffffffffffffffffffffffffffffffe016810167ffffffffffffffff81118282101715613ea757613ea7613e31565b604052919050565b600067ffffffffffffffff821115613ec957613ec9613e31565b5060051b60200190565b600082601f830112613ee457600080fd5b81516020613ef9613ef483613eaf565b613e60565b82815260059290921b84018101918181019086841115613f1857600080fd5b8286015b84811015613f335780518352918301918301613f1c565b509695505050505050565b60008060408385031215613f5157600080fd5b825167ffffffffffffffff80821115613f6957600080fd5b818501915085601f830112613f7d57600080fd5b81516020613f8d613ef483613eaf565b82815260059290921b84018101918181019089841115613fac57600080fd5b948201945b83861015613fd3578551613fc481613822565b82529482019490820190613fb1565b91880151919650909350505080821115613fec57600080fd5b50613ff985828601613ed3565b9150509250929050565b6000806040838503121561401657600080fd5b505080516020909101519092909150565b60008251614039818460208701613d6d565b9190910192915050565b602081526000610cd36020830184613d9956fe736574436f6e76657273696f6e436f6e66696728616464726573732c616464726573732c436f6e76657273696f6e436f6e66696729a2646970667358221220ed4e6231ea5c5e38e732e0e7eb2760eb5dfe5c266f6d6a4e5862de69b81f4bbc64736f6c634300080d0033",
  "devdoc": {
    "author": "Venus",
    "custom:security-contact": "https://github.com/VenusProtocol/protocol-reserve#discussion",
    "kind": "dev",
    "methods": {
      "acceptOwnership()": {
        "details": "The new owner accepts the ownership transfer."
      },
      "balanceOf(address)": {
        "params": {
          "tokenAddress": "Address of the token"
        },
        "returns": {
          "tokenBalance": "Balance of the token the contract has"
        }
      },
      "constructor": {
        "custom:oz-upgrades-unsafe-allow": "constructor"
      },
      "convertExactTokens(uint256,uint256,address,address,address)": {
        "custom:error": "ZeroAddressNotAllowed is thrown when to address is zeroInvalidToAddress error is thrown when address(to) is same as tokenAddressIn or tokenAddressOutAmountOutLowerThanMinRequired error is thrown when amount of output tokenAddressOut is less than amountOutMinMantissaAmountInMismatched error is thrown when amount of output tokenAddressOut is less than amountOutMinMantissa",
        "custom:event": "Emits ConvertedExactTokens event on success",
        "details": "Method does not support deflationary tokens transfer",
        "params": {
          "amountInMantissa": "Amount of tokenAddressIn",
          "amountOutMinMantissa": "Min amount of tokenAddressOut required as output",
          "to": "Address of the tokenAddressOut receiver",
          "tokenAddressIn": "Address of the token to convert",
          "tokenAddressOut": "Address of the token to get after conversion"
        },
        "returns": {
          "actualAmountIn": "Actual amount transferred to destination",
          "actualAmountOut": "Actual amount transferred to user"
        }
      },
      "convertExactTokensSupportingFeeOnTransferTokens(uint256,uint256,address,address,address)": {
        "custom:error": "ZeroAddressNotAllowed is thrown when to address is zeroInvalidToAddress error is thrown when address(to) is same as tokenAddressIn or tokenAddressOutAmountOutLowerThanMinRequired error is thrown when amount of output tokenAddressOut is less than amountOutMinMantissa",
        "custom:event": "Emits ConvertedExactTokensSupportingFeeOnTransferTokens event on success",
        "params": {
          "amountInMantissa": "Amount of tokenAddressIn",
          "amountOutMinMantissa": "Min amount of tokenAddressOut required as output",
          "to": "Address of the tokenAddressOut receiver",
          "tokenAddressIn": "Address of the token to convert",
          "tokenAddressOut": "Address of the token to get after conversion"
        },
        "returns": {
          "actualAmountIn": "Actual amount transferred to destination",
          "actualAmountOut": "Actual amount transferred to user"
        }
      },
      "convertForExactTokens(uint256,uint256,address,address,address)": {
        "custom:error": "ZeroAddressNotAllowed is thrown when to address is zeroInvalidToAddress error is thrown when address(to) is same as tokenAddressIn or tokenAddressOutAmountInHigherThanMax error is thrown when amount of tokenAddressIn is higher than amountInMaxMantissaAmountOutMismatched error is thrown when actualAmountOut is does not match amountOutMantissa",
        "custom:event": "Emits ConvertedForExactTokens event on success",
        "details": "Method does not support deflationary tokens transfer",
        "params": {
          "amountInMaxMantissa": "Max amount of tokenAddressIn",
          "amountOutMantissa": "Amount of tokenAddressOut required as output",
          "to": "Address of the tokenAddressOut receiver",
          "tokenAddressIn": "Address of the token to convert",
          "tokenAddressOut": "Address of the token to get after conversion"
        },
        "returns": {
          "actualAmountIn": "Actual amount transferred to destination",
          "actualAmountOut": "Actual amount transferred to user"
        }
      },
      "convertForExactTokensSupportingFeeOnTransferTokens(uint256,uint256,address,address,address)": {
        "custom:error": "ZeroAddressNotAllowed is thrown when to address is zeroInvalidToAddress error is thrown when address(to) is same as tokenAddressIn or tokenAddressOutAmountInHigherThanMax error is thrown when amount of tokenAddressIn is higher than amountInMaxMantissa",
        "custom:event": "Emits ConvertedForExactTokensSupportingFeeOnTransferTokens event on success",
        "params": {
          "amountInMaxMantissa": "Max amount of tokenAddressIn",
          "amountOutMantissa": "Amount of tokenAddressOut required as output",
          "to": "Address of the tokenAddressOut receiver",
          "tokenAddressIn": "Address of the token to convert",
          "tokenAddressOut": "Address of the token to get after conversion"
        },
        "returns": {
          "actualAmountIn": "Actual amount transferred to destination",
          "actualAmountOut": "Actual amount transferred to user"
        }
      },
      "getAmountIn(uint256,address,address)": {
        "custom:error": "InsufficientInputAmount error is thrown when given input amount is zeroConversionConfigNotEnabled is thrown when conversion is disabled or config does not exist for given pairConversionEnabledOnlyForPrivateConversions is thrown when conversion is only enabled for private conversion",
        "details": "This function retrieves values without altering token prices",
        "params": {
          "amountOutMantissa": "Amount of tokenAddressOut user wants to receive",
          "tokenAddressIn": "Address of the token to convert",
          "tokenAddressOut": "Address of the token to get after conversion"
        },
        "returns": {
          "amountConvertedMantissa": "Amount of tokenAddressOut should be transferred after conversion",
          "amountInMantissa": "Amount of the tokenAddressIn sender would send to contract before conversion"
        }
      },
      "getAmountOut(uint256,address,address)": {
        "custom:error": "InsufficientInputAmount error is thrown when given input amount is zeroConversionConfigNotEnabled is thrown when conversion is disabled or config does not exist for given pairConversionEnabledOnlyForPrivateConversions is thrown when conversion is only enabled for private conversion",
        "details": "This function retrieves values without altering token prices",
        "params": {
          "amountInMantissa": "Amount of tokenAddressIn",
          "tokenAddressIn": "Address of the token to convert",
          "tokenAddressOut": "Address of the token to get after conversion"
        },
        "returns": {
          "amountConvertedMantissa": "Amount of tokenAddressIn should be transferred after conversion",
          "amountOutMantissa": "Amount of the tokenAddressOut sender should receive after conversion"
        }
      },
      "getUpdatedAmountIn(uint256,address,address)": {
        "custom:error": "InsufficientInputAmount error is thrown when given input amount is zeroConversionConfigNotEnabled is thrown when conversion is disabled or config does not exist for given pair",
        "params": {
          "amountOutMantissa": "Amount of tokenAddressOut user wants to receive",
          "tokenAddressIn": "Address of the token to convert",
          "tokenAddressOut": "Address of the token to get after conversion"
        },
        "returns": {
          "amountConvertedMantissa": "Amount of tokenAddressOut should be transferred after conversion",
          "amountInMantissa": "Amount of the tokenAddressIn sender would send to contract before conversion"
        }
      },
      "getUpdatedAmountOut(uint256,address,address)": {
        "custom:error": "InsufficientInputAmount error is thrown when given input amount is zeroConversionConfigNotEnabled is thrown when conversion is disabled or config does not exist for given pair",
        "params": {
          "amountInMantissa": "Amount of tokenAddressIn",
          "tokenAddressIn": "Address of the token to convert",
          "tokenAddressOut": "Address of the token to get after conversion"
        },
        "returns": {
          "amountConvertedMantissa": "Amount of tokenAddressIn should be transferred after conversion",
          "amountOutMantissa": "Amount of the tokenAddressOut sender should receive after conversion"
        }
      },
      "initialize(address,address,address,address,uint256)": {
        "params": {
          "accessControlManager_": "Access control manager contract address",
          "destinationAddress_": "Address at all incoming tokens will transferred to",
          "minAmountToConvert_": "Minimum amount to convert",
          "priceOracle_": "Resilient oracle address"
        }
      },
      "owner()": {
        "details": "Returns the address of the current owner."
      },
      "pauseConversion()": {
        "custom:access": "Restricted by ACM",
        "custom:error": "ConversionTokensPaused thrown when conversion is already paused",
        "custom:event": "Emits ConversionPaused on success"
      },
      "pendingOwner()": {
        "details": "Returns the address of the pending owner."
      },
      "renounceOwnership()": {
        "details": "Leaves the contract without owner. It will not be possible to call `onlyOwner` functions. Can only be called by the current owner. NOTE: Renouncing ownership will leave the contract without an owner, thereby disabling any functionality that is only available to the owner."
      },
      "resumeConversion()": {
        "custom:access": "Restricted by ACM",
        "custom:error": "ConversionTokensActive thrown when conversion is already active",
        "custom:event": "Emits ConversionResumed on success"
      },
      "setAccessControlManager(address)": {
        "custom:access": "Only Governance",
        "custom:event": "Emits NewAccessControlManager event",
        "details": "Admin function to set address of AccessControlManager",
        "params": {
          "accessControlManager_": "The new address of the AccessControlManager"
        }
      },
      "setBaseAsset(address)": {
        "custom:access": "Only Governance",
        "params": {
          "baseAsset_": "The new address of the base asset"
        }
      },
      "setConversionConfig(address,address,(uint256,uint8))": {
        "custom:access": "Controlled by AccessControlManager",
        "custom:error": "Unauthorized error is thrown when the call is not authorized by AccessControlManagerZeroAddressNotAllowed is thrown when pool registry address is zeroNonZeroIncentiveForPrivateConversion is thrown when incentive is non zero for private conversion",
        "custom:event": "Emits ConversionConfigUpdated event on success",
        "params": {
          "conversionConfig": "ConversionConfig config details to update",
          "tokenAddressIn": "Address of tokenIn",
          "tokenAddressOut": "Address of tokenOut"
        }
      },
      "setConversionConfigs(address,address[],(uint256,uint8)[])": {
        "custom:error": "InputLengthMisMatch is thrown when tokenAddressesOut and conversionConfigs array length mismatches",
        "params": {
          "conversionConfigs": "Array of conversionConfig config details to update",
          "tokenAddressIn": "Address of tokenIn",
          "tokenAddressesOut": "Array of addresses of tokenOut"
        }
      },
      "setConverterNetwork(address)": {
        "custom:access": "Only Governance",
        "params": {
          "converterNetwork_": "The converterNetwork address to be set"
        }
      },
      "setDestination(address)": {
        "custom:access": "Only Governance",
        "params": {
          "destinationAddress_": "The new destination address to be set"
        }
      },
      "setMinAmountToConvert(uint256)": {
        "custom:access": "Only Governance",
        "params": {
          "minAmountToConvert_": "Min amount to convert"
        }
      },
      "setPriceOracle(address)": {
        "custom:access": "Only Governance",
        "params": {
          "priceOracle_": "Address of the new price oracle to set"
        }
      },
      "sweepToken(address,address,uint256)": {
        "custom:access": "Only Governance",
        "custom:error": "ZeroAddressNotAllowed is thrown when tokenAddress/to address is zero",
        "custom:event": "Emits SweepToken event on success",
        "params": {
          "amount": "The amount to transfer",
          "to": "The address to which tokens will be transferred",
          "tokenAddress": "The address of the ERC-20 token to sweep"
        }
      },
      "transferOwnership(address)": {
        "details": "Starts the ownership transfer of the contract to a new account. Replaces the pending transfer if there is one. Can only be called by the current owner."
      },
      "updateAssetsState(address,address)": {
        "details": "This function is called by protocolShareReservecall _updateAssetsState to update the states related to the comptroller and asset transfer to the specific converter then it calls the _privateConversion which will convert the asset into destination's base asset and transfer it to destination address",
        "params": {
          "asset": "Asset address",
          "comptroller": "Comptroller address (pool)"
        }
      }
    },
    "title": "SingleTokenConverter",
    "version": 1
  },
  "userdoc": {
    "errors": {
      "AmountInHigherThanMax(uint256,uint256)": [
        {
          "notice": "Thrown when amountIn is higher than amountInMax"
        }
      ],
      "AmountInMismatched()": [
        {
          "notice": "Thrown when actualAmountIn does not match with amountInMantissa for convertForExactTokens"
        }
      ],
      "AmountOutLowerThanMinRequired(uint256,uint256)": [
        {
          "notice": "Thrown when amountOut is lower than amountOutMin"
        }
      ],
      "AmountOutMismatched()": [
        {
          "notice": "Thrown when actualAmountOut does not match with amountOutMantissa for convertForExactTokens"
        }
      ],
      "ConversionConfigNotEnabled()": [
        {
          "notice": "Thrown when conversion is disabled or config does not exist for given pair"
        }
      ],
      "ConversionEnabledOnlyForPrivateConversions()": [
        {
          "notice": "Thrown when conversion is enabled only for private conversions"
        }
      ],
      "ConversionTokensActive()": [
        {
          "notice": "Thrown when conversion is Active"
        }
      ],
      "ConversionTokensPaused()": [
        {
          "notice": "Thrown when conversion is paused"
        }
      ],
      "DeflationaryTokenNotSupported()": [
        {
          "notice": "Thrown when using convertForExactTokens deflationary tokens"
        }
      ],
      "IncentiveTooHigh(uint256,uint256)": [
        {
          "notice": "Thrown when incentive is higher than the MAX_INCENTIVE"
        }
      ],
      "InputLengthMisMatch()": [
        {
          "notice": "Thrown when there is a mismatch in the length of input arrays"
        }
      ],
      "InsufficientInputAmount()": [
        {
          "notice": "Thrown when given input amount is zero"
        }
      ],
      "InsufficientOutputAmount()": [
        {
          "notice": "Thrown when given output amount is zero"
        }
      ],
      "InsufficientPoolLiquidity()": [
        {
          "notice": "Thrown when contract has less liquidity for tokenAddressOut than amountOutMantissa"
        }
      ],
      "InvalidConverterNetwork()": [
        {
          "notice": "When address of the ConverterNetwork is not set or Zero address"
        }
      ],
      "InvalidMinimumAmountToConvert()": [
        {
          "notice": "Thrown when minimum amount to convert is zero"
        }
      ],
      "InvalidToAddress()": [
        {
          "notice": "Thrown when address(to) is same as tokenAddressIn or tokenAddressOut"
        }
      ],
      "InvalidTokenConfigAddresses()": [
        {
          "notice": "Thrown when tokenInAddress is same as tokeOutAdress OR tokeInAddress is not the base asset of the destination"
        }
      ],
      "NonZeroIncentiveForPrivateConversion()": [
        {
          "notice": "Thrown when trying to set non zero incentive for private conversion"
        }
      ],
      "Unauthorized(address,address,string)": [
        {
          "notice": "Thrown when the action is prohibited by AccessControlManager"
        }
      ],
      "ZeroAddressNotAllowed()": [
        {
          "notice": "Thrown if the supplied address is a zero address where it is not allowed"
        }
      ],
      "ZeroValueNotAllowed()": [
        {
          "notice": "Thrown if the supplied value is 0 where it is not allowed"
        }
      ]
    },
    "events": {
      "AssetTransferredToDestination(address,address,address,uint256)": {
        "notice": "Emmitted after the funds transferred to the destination address"
      },
      "BaseAssetUpdated(address,address)": {
        "notice": "Emitted when base asset is updated"
      },
      "ConversionConfigUpdated(address,address,uint256,uint256,uint8,uint8)": {
        "notice": "Emitted when config is updated for tokens pair"
      },
      "ConversionPaused(address)": {
        "notice": "Emitted when conversion is paused"
      },
      "ConversionResumed(address)": {
        "notice": "Emitted when conversion is unpaused"
      },
      "ConvertedExactTokens(address,address,address,address,uint256,uint256)": {
        "notice": "Emitted when exact amount of tokens are converted for tokens"
      },
      "ConvertedExactTokensSupportingFeeOnTransferTokens(address,address,address,address,uint256,uint256)": {
        "notice": "Emitted when exact amount of tokens are converted for tokens, for deflationary tokens"
      },
      "ConvertedForExactTokens(address,address,address,address,uint256,uint256)": {
        "notice": "Emitted when tokens are converted for exact amount of tokens"
      },
      "ConvertedForExactTokensSupportingFeeOnTransferTokens(address,address,address,address,uint256,uint256)": {
        "notice": "Emitted when tokens are converted for exact amount of tokens, for deflationary tokens"
      },
      "ConverterNetworkAddressUpdated(address,address)": {
        "notice": "Emitted when converterNetwork address is updated"
      },
      "DestinationAddressUpdated(address,address)": {
        "notice": "Emitted when destination address is updated"
      },
      "MinAmountToConvertUpdated(uint256,uint256)": {
        "notice": "Emitted when minimum amount to convert is updated"
      },
      "NewAccessControlManager(address,address)": {
        "notice": "Emitted when access control manager contract address is changed"
      },
      "PriceOracleUpdated(address,address)": {
        "notice": "Emitted when price oracle address is updated"
      },
      "SweepToken(address,address,uint256)": {
        "notice": "Event emitted when tokens are swept"
      }
    },
    "kind": "user",
    "methods": {
      "MAX_INCENTIVE()": {
        "notice": "Maximum incentive could be"
      },
      "accessControlManager()": {
        "notice": "Returns the address of the access control manager contract"
      },
      "balanceOf(address)": {
        "notice": "Get the balance for specific token"
      },
      "baseAsset()": {
        "notice": "Address of the base asset token"
      },
      "conversionConfigurations(address,address)": {
        "notice": "conversion configurations for the existing pairs"
      },
      "conversionPaused()": {
        "notice": "Boolean for if conversion is paused"
      },
      "convertExactTokens(uint256,uint256,address,address,address)": {
        "notice": "Converts exact amount of tokenAddressIn for tokenAddressOut if there is enough tokens held by the contract"
      },
      "convertExactTokensSupportingFeeOnTransferTokens(uint256,uint256,address,address,address)": {
        "notice": "Converts exact amount of tokenAddressIn for tokenAddressOut if there is enough tokens held by the contract"
      },
      "convertForExactTokens(uint256,uint256,address,address,address)": {
        "notice": "Converts tokens for tokenAddressIn for exact amount of tokenAddressOut if there is enough tokens held by the contract, otherwise the amount is adjusted"
      },
      "convertForExactTokensSupportingFeeOnTransferTokens(uint256,uint256,address,address,address)": {
        "notice": "Converts tokens for tokenAddressIn for amount of tokenAddressOut calculated on the basis of amount of tokenAddressIn received by the contract, if there is enough tokens held by the contract, otherwise the amount is adjusted. The user will be responsible for bearing any fees associated with token transfers, whether pulling in or pushing out tokens"
      },
      "converterNetwork()": {
        "notice": "Address of the converterNetwork contract"
      },
      "destinationAddress()": {
        "notice": "Address that all incoming tokens are transferred to"
      },
      "getAmountIn(uint256,address,address)": {
        "notice": "To get the amount of tokenAddressIn tokens sender would send on receiving amountOutMantissa tokens of tokenAddressOut. This function does not account for potential token transfer fees(in case of deflationary tokens)"
      },
      "getAmountOut(uint256,address,address)": {
        "notice": "To get the amount of tokenAddressOut tokens sender could receive on providing amountInMantissa tokens of tokenAddressIn. This function does not account for potential token transfer fees(in case of deflationary tokens)"
      },
      "getUpdatedAmountIn(uint256,address,address)": {
        "notice": "To get the amount of tokenAddressIn tokens sender would send on receiving amountOutMantissa tokens of tokenAddressOut"
      },
      "getUpdatedAmountOut(uint256,address,address)": {
        "notice": "To get the amount of tokenAddressOut tokens sender could receive on providing amountInMantissa tokens of tokenAddressIn"
      },
      "minAmountToConvert()": {
        "notice": "Min amount to convert for private conversions. Defined in USD, with 18 decimals"
      },
      "pauseConversion()": {
        "notice": "Pause conversion of tokens"
      },
      "priceOracle()": {
        "notice": "Venus price oracle contract"
      },
      "resumeConversion()": {
        "notice": "Resume conversion of tokens."
      },
      "setAccessControlManager(address)": {
        "notice": "Sets the address of AccessControlManager"
      },
      "setBaseAsset(address)": {
        "notice": "Sets the base asset for the contract"
      },
      "setConversionConfig(address,address,(uint256,uint8))": {
        "notice": "Set the configuration for new or existing conversion pair"
      },
      "setConversionConfigs(address,address[],(uint256,uint8)[])": {
        "notice": "Batch sets the conversion configurations"
      },
      "setConverterNetwork(address)": {
        "notice": "Sets a converter network contract address"
      },
      "setDestination(address)": {
        "notice": "Sets a new destination address"
      },
      "setMinAmountToConvert(uint256)": {
        "notice": "Min amount to convert setter"
      },
      "setPriceOracle(address)": {
        "notice": "Sets a new price oracle"
      },
      "sweepToken(address,address,uint256)": {
        "notice": "To sweep ERC20 tokens and transfer them to user(to address)"
      },
      "updateAssetsState(address,address)": {
        "notice": "This method updated the states of this contract after getting funds from PSR after settling the amount(if any) through privateConversion between converters"
      }
    },
    "notice": "SingleTokenConverter used for token conversions and sends received tokens",
    "version": 1
  },
  "storageLayout": {
    "storage": [
      {
        "astId": 244,
        "contract": "contracts/TokenConverter/SingleTokenConverter.sol:SingleTokenConverter",
        "label": "_initialized",
        "offset": 0,
        "slot": "0",
        "type": "t_uint8"
      },
      {
        "astId": 247,
        "contract": "contracts/TokenConverter/SingleTokenConverter.sol:SingleTokenConverter",
        "label": "_initializing",
        "offset": 1,
        "slot": "0",
        "type": "t_bool"
      },
      {
        "astId": 1478,
        "contract": "contracts/TokenConverter/SingleTokenConverter.sol:SingleTokenConverter",
        "label": "__gap",
        "offset": 0,
        "slot": "1",
        "type": "t_array(t_uint256)50_storage"
      },
      {
        "astId": 116,
        "contract": "contracts/TokenConverter/SingleTokenConverter.sol:SingleTokenConverter",
        "label": "_owner",
        "offset": 0,
        "slot": "51",
        "type": "t_address"
      },
      {
        "astId": 236,
        "contract": "contracts/TokenConverter/SingleTokenConverter.sol:SingleTokenConverter",
        "label": "__gap",
        "offset": 0,
        "slot": "52",
        "type": "t_array(t_uint256)49_storage"
      },
      {
        "astId": 25,
        "contract": "contracts/TokenConverter/SingleTokenConverter.sol:SingleTokenConverter",
        "label": "_pendingOwner",
        "offset": 0,
        "slot": "101",
        "type": "t_address"
      },
      {
        "astId": 104,
        "contract": "contracts/TokenConverter/SingleTokenConverter.sol:SingleTokenConverter",
        "label": "__gap",
        "offset": 0,
        "slot": "102",
        "type": "t_array(t_uint256)49_storage"
      },
      {
        "astId": 2782,
        "contract": "contracts/TokenConverter/SingleTokenConverter.sol:SingleTokenConverter",
        "label": "_accessControlManager",
        "offset": 0,
        "slot": "151",
        "type": "t_contract(IAccessControlManagerV8)2967"
      },
      {
        "astId": 2787,
        "contract": "contracts/TokenConverter/SingleTokenConverter.sol:SingleTokenConverter",
        "label": "__gap",
        "offset": 0,
        "slot": "152",
        "type": "t_array(t_uint256)49_storage"
      },
      {
        "astId": 547,
        "contract": "contracts/TokenConverter/SingleTokenConverter.sol:SingleTokenConverter",
        "label": "_status",
        "offset": 0,
        "slot": "201",
        "type": "t_uint256"
      },
      {
        "astId": 616,
        "contract": "contracts/TokenConverter/SingleTokenConverter.sol:SingleTokenConverter",
        "label": "__gap",
        "offset": 0,
        "slot": "202",
        "type": "t_array(t_uint256)49_storage"
      },
      {
        "astId": 4489,
        "contract": "contracts/TokenConverter/SingleTokenConverter.sol:SingleTokenConverter",
        "label": "minAmountToConvert",
        "offset": 0,
        "slot": "251",
        "type": "t_uint256"
      },
      {
        "astId": 4493,
        "contract": "contracts/TokenConverter/SingleTokenConverter.sol:SingleTokenConverter",
        "label": "priceOracle",
        "offset": 0,
        "slot": "252",
        "type": "t_contract(ResilientOracle)3858"
      },
      {
        "astId": 4501,
        "contract": "contracts/TokenConverter/SingleTokenConverter.sol:SingleTokenConverter",
        "label": "conversionConfigurations",
        "offset": 0,
        "slot": "253",
        "type": "t_mapping(t_address,t_mapping(t_address,t_struct(ConversionConfig)7208_storage))"
      },
      {
        "astId": 4504,
        "contract": "contracts/TokenConverter/SingleTokenConverter.sol:SingleTokenConverter",
        "label": "destinationAddress",
        "offset": 0,
        "slot": "254",
        "type": "t_address"
      },
      {
        "astId": 4507,
        "contract": "contracts/TokenConverter/SingleTokenConverter.sol:SingleTokenConverter",
        "label": "conversionPaused",
        "offset": 20,
        "slot": "254",
        "type": "t_bool"
      },
      {
        "astId": 4511,
        "contract": "contracts/TokenConverter/SingleTokenConverter.sol:SingleTokenConverter",
        "label": "converterNetwork",
        "offset": 0,
        "slot": "255",
        "type": "t_contract(IConverterNetwork)4076"
      },
      {
        "astId": 4516,
        "contract": "contracts/TokenConverter/SingleTokenConverter.sol:SingleTokenConverter",
        "label": "__gap",
        "offset": 0,
        "slot": "256",
        "type": "t_array(t_uint256)45_storage"
      },
      {
        "astId": 8558,
        "contract": "contracts/TokenConverter/SingleTokenConverter.sol:SingleTokenConverter",
        "label": "baseAsset",
        "offset": 0,
        "slot": "301",
        "type": "t_address"
      }
    ],
    "types": {
      "t_address": {
        "encoding": "inplace",
        "label": "address",
        "numberOfBytes": "20"
      },
      "t_array(t_uint256)45_storage": {
        "base": "t_uint256",
        "encoding": "inplace",
        "label": "uint256[45]",
        "numberOfBytes": "1440"
      },
      "t_array(t_uint256)49_storage": {
        "base": "t_uint256",
        "encoding": "inplace",
        "label": "uint256[49]",
        "numberOfBytes": "1568"
      },
      "t_array(t_uint256)50_storage": {
        "base": "t_uint256",
        "encoding": "inplace",
        "label": "uint256[50]",
        "numberOfBytes": "1600"
      },
      "t_bool": {
        "encoding": "inplace",
        "label": "bool",
        "numberOfBytes": "1"
      },
      "t_contract(IAccessControlManagerV8)2967": {
        "encoding": "inplace",
        "label": "contract IAccessControlManagerV8",
        "numberOfBytes": "20"
      },
      "t_contract(IConverterNetwork)4076": {
        "encoding": "inplace",
        "label": "contract IConverterNetwork",
        "numberOfBytes": "20"
      },
      "t_contract(ResilientOracle)3858": {
        "encoding": "inplace",
        "label": "contract ResilientOracle",
        "numberOfBytes": "20"
      },
      "t_enum(ConversionAccessibility)7200": {
        "encoding": "inplace",
        "label": "enum IAbstractTokenConverter.ConversionAccessibility",
        "numberOfBytes": "1"
      },
      "t_mapping(t_address,t_mapping(t_address,t_struct(ConversionConfig)7208_storage))": {
        "encoding": "mapping",
        "key": "t_address",
        "label": "mapping(address => mapping(address => struct IAbstractTokenConverter.ConversionConfig))",
        "numberOfBytes": "32",
        "value": "t_mapping(t_address,t_struct(ConversionConfig)7208_storage)"
      },
      "t_mapping(t_address,t_struct(ConversionConfig)7208_storage)": {
        "encoding": "mapping",
        "key": "t_address",
        "label": "mapping(address => struct IAbstractTokenConverter.ConversionConfig)",
        "numberOfBytes": "32",
        "value": "t_struct(ConversionConfig)7208_storage"
      },
      "t_struct(ConversionConfig)7208_storage": {
        "encoding": "inplace",
        "label": "struct IAbstractTokenConverter.ConversionConfig",
        "members": [
          {
            "astId": 7203,
            "contract": "contracts/TokenConverter/SingleTokenConverter.sol:SingleTokenConverter",
            "label": "incentive",
            "offset": 0,
            "slot": "0",
            "type": "t_uint256"
          },
          {
            "astId": 7207,
            "contract": "contracts/TokenConverter/SingleTokenConverter.sol:SingleTokenConverter",
            "label": "conversionAccess",
            "offset": 0,
            "slot": "1",
            "type": "t_enum(ConversionAccessibility)7200"
          }
        ],
        "numberOfBytes": "64"
      },
      "t_uint256": {
        "encoding": "inplace",
        "label": "uint256",
        "numberOfBytes": "32"
      },
      "t_uint8": {
        "encoding": "inplace",
        "label": "uint8",
        "numberOfBytes": "1"
      }
    }
  }
}