{
  "address": "0xD91a8d928413daEc12028800cb934562138b8b36",
  "abi": [
    {
      "inputs": [
        {
          "internalType": "address",
          "name": "_corePoolComptroller",
          "type": "address"
        },
        {
          "internalType": "address",
          "name": "_wbnb",
          "type": "address"
        },
        {
          "internalType": "address",
          "name": "_vbnb",
          "type": "address"
        }
      ],
      "stateMutability": "nonpayable",
      "type": "constructor"
    },
    {
      "inputs": [],
      "name": "InvalidAddress",
      "type": "error"
    },
    {
      "inputs": [],
      "name": "InvalidTotalPercentage",
      "type": "error"
    },
    {
      "inputs": [
        {
          "internalType": "uint256",
          "name": "loopsLimit",
          "type": "uint256"
        },
        {
          "internalType": "uint256",
          "name": "requiredLoops",
          "type": "uint256"
        }
      ],
      "name": "MaxLoopsLimitExceeded",
      "type": "error"
    },
    {
      "inputs": [
        {
          "internalType": "address",
          "name": "sender",
          "type": "address"
        },
        {
          "internalType": "address",
          "name": "calledContract",
          "type": "address"
        },
        {
          "internalType": "string",
          "name": "methodSignature",
          "type": "string"
        }
      ],
      "name": "Unauthorized",
      "type": "error"
    },
    {
      "anonymous": false,
      "inputs": [
        {
          "indexed": true,
          "internalType": "address",
          "name": "destination",
          "type": "address"
        },
        {
          "indexed": true,
          "internalType": "address",
          "name": "asset",
          "type": "address"
        },
        {
          "indexed": false,
          "internalType": "enum ProtocolShareReserve.Schema",
          "name": "schema",
          "type": "uint8"
        },
        {
          "indexed": false,
          "internalType": "uint256",
          "name": "percent",
          "type": "uint256"
        },
        {
          "indexed": false,
          "internalType": "uint256",
          "name": "amount",
          "type": "uint256"
        }
      ],
      "name": "AssetReleased",
      "type": "event"
    },
    {
      "anonymous": false,
      "inputs": [
        {
          "indexed": true,
          "internalType": "address",
          "name": "comptroller",
          "type": "address"
        },
        {
          "indexed": true,
          "internalType": "address",
          "name": "asset",
          "type": "address"
        },
        {
          "indexed": false,
          "internalType": "uint256",
          "name": "amount",
          "type": "uint256"
        },
        {
          "indexed": false,
          "internalType": "enum IProtocolShareReserve.IncomeType",
          "name": "incomeType",
          "type": "uint8"
        },
        {
          "indexed": false,
          "internalType": "enum ProtocolShareReserve.Schema",
          "name": "schema",
          "type": "uint8"
        }
      ],
      "name": "AssetsReservesUpdated",
      "type": "event"
    },
    {
      "anonymous": false,
      "inputs": [
        {
          "indexed": true,
          "internalType": "address",
          "name": "destination",
          "type": "address"
        },
        {
          "indexed": false,
          "internalType": "uint16",
          "name": "percentage",
          "type": "uint16"
        },
        {
          "indexed": false,
          "internalType": "enum ProtocolShareReserve.Schema",
          "name": "schema",
          "type": "uint8"
        }
      ],
      "name": "DistributionConfigAdded",
      "type": "event"
    },
    {
      "anonymous": false,
      "inputs": [
        {
          "indexed": true,
          "internalType": "address",
          "name": "destination",
          "type": "address"
        },
        {
          "indexed": false,
          "internalType": "uint16",
          "name": "percentage",
          "type": "uint16"
        },
        {
          "indexed": false,
          "internalType": "enum ProtocolShareReserve.Schema",
          "name": "schema",
          "type": "uint8"
        }
      ],
      "name": "DistributionConfigRemoved",
      "type": "event"
    },
    {
      "anonymous": false,
      "inputs": [
        {
          "indexed": true,
          "internalType": "address",
          "name": "destination",
          "type": "address"
        },
        {
          "indexed": false,
          "internalType": "uint16",
          "name": "oldPercentage",
          "type": "uint16"
        },
        {
          "indexed": false,
          "internalType": "uint16",
          "name": "newPercentage",
          "type": "uint16"
        },
        {
          "indexed": false,
          "internalType": "enum ProtocolShareReserve.Schema",
          "name": "schema",
          "type": "uint8"
        }
      ],
      "name": "DistributionConfigUpdated",
      "type": "event"
    },
    {
      "anonymous": false,
      "inputs": [
        {
          "indexed": false,
          "internalType": "uint8",
          "name": "version",
          "type": "uint8"
        }
      ],
      "name": "Initialized",
      "type": "event"
    },
    {
      "anonymous": false,
      "inputs": [
        {
          "indexed": false,
          "internalType": "uint256",
          "name": "oldMaxLoopsLimit",
          "type": "uint256"
        },
        {
          "indexed": false,
          "internalType": "uint256",
          "name": "newmaxLoopsLimit",
          "type": "uint256"
        }
      ],
      "name": "MaxLoopsLimitUpdated",
      "type": "event"
    },
    {
      "anonymous": false,
      "inputs": [
        {
          "indexed": false,
          "internalType": "address",
          "name": "oldAccessControlManager",
          "type": "address"
        },
        {
          "indexed": false,
          "internalType": "address",
          "name": "newAccessControlManager",
          "type": "address"
        }
      ],
      "name": "NewAccessControlManager",
      "type": "event"
    },
    {
      "anonymous": false,
      "inputs": [
        {
          "indexed": true,
          "internalType": "address",
          "name": "previousOwner",
          "type": "address"
        },
        {
          "indexed": true,
          "internalType": "address",
          "name": "newOwner",
          "type": "address"
        }
      ],
      "name": "OwnershipTransferStarted",
      "type": "event"
    },
    {
      "anonymous": false,
      "inputs": [
        {
          "indexed": true,
          "internalType": "address",
          "name": "previousOwner",
          "type": "address"
        },
        {
          "indexed": true,
          "internalType": "address",
          "name": "newOwner",
          "type": "address"
        }
      ],
      "name": "OwnershipTransferred",
      "type": "event"
    },
    {
      "anonymous": false,
      "inputs": [
        {
          "indexed": true,
          "internalType": "address",
          "name": "oldPoolRegistry",
          "type": "address"
        },
        {
          "indexed": true,
          "internalType": "address",
          "name": "newPoolRegistry",
          "type": "address"
        }
      ],
      "name": "PoolRegistryUpdated",
      "type": "event"
    },
    {
      "anonymous": false,
      "inputs": [
        {
          "indexed": true,
          "internalType": "address",
          "name": "comptroller",
          "type": "address"
        },
        {
          "indexed": true,
          "internalType": "address",
          "name": "asset",
          "type": "address"
        },
        {
          "indexed": false,
          "internalType": "enum ProtocolShareReserve.Schema",
          "name": "schema",
          "type": "uint8"
        },
        {
          "indexed": false,
          "internalType": "uint256",
          "name": "oldBalance",
          "type": "uint256"
        },
        {
          "indexed": false,
          "internalType": "uint256",
          "name": "newBalance",
          "type": "uint256"
        }
      ],
      "name": "ReservesUpdated",
      "type": "event"
    },
    {
      "inputs": [],
      "name": "CORE_POOL_COMPTROLLER",
      "outputs": [
        {
          "internalType": "address",
          "name": "",
          "type": "address"
        }
      ],
      "stateMutability": "view",
      "type": "function"
    },
    {
      "inputs": [],
      "name": "MAX_PERCENT",
      "outputs": [
        {
          "internalType": "uint16",
          "name": "",
          "type": "uint16"
        }
      ],
      "stateMutability": "view",
      "type": "function"
    },
    {
      "inputs": [],
      "name": "WBNB",
      "outputs": [
        {
          "internalType": "address",
          "name": "",
          "type": "address"
        }
      ],
      "stateMutability": "view",
      "type": "function"
    },
    {
      "inputs": [],
      "name": "acceptOwnership",
      "outputs": [],
      "stateMutability": "nonpayable",
      "type": "function"
    },
    {
      "inputs": [],
      "name": "accessControlManager",
      "outputs": [
        {
          "internalType": "contract IAccessControlManagerV8",
          "name": "",
          "type": "address"
        }
      ],
      "stateMutability": "view",
      "type": "function"
    },
    {
      "inputs": [
        {
          "components": [
            {
              "internalType": "enum ProtocolShareReserve.Schema",
              "name": "schema",
              "type": "uint8"
            },
            {
              "internalType": "uint16",
              "name": "percentage",
              "type": "uint16"
            },
            {
              "internalType": "address",
              "name": "destination",
              "type": "address"
            }
          ],
          "internalType": "struct ProtocolShareReserve.DistributionConfig[]",
          "name": "configs",
          "type": "tuple[]"
        }
      ],
      "name": "addOrUpdateDistributionConfigs",
      "outputs": [],
      "stateMutability": "nonpayable",
      "type": "function"
    },
    {
      "inputs": [
        {
          "internalType": "address",
          "name": "",
          "type": "address"
        },
        {
          "internalType": "address",
          "name": "",
          "type": "address"
        },
        {
          "internalType": "enum ProtocolShareReserve.Schema",
          "name": "",
          "type": "uint8"
        }
      ],
      "name": "assetsReserves",
      "outputs": [
        {
          "internalType": "uint256",
          "name": "",
          "type": "uint256"
        }
      ],
      "stateMutability": "view",
      "type": "function"
    },
    {
      "inputs": [
        {
          "internalType": "uint256",
          "name": "",
          "type": "uint256"
        }
      ],
      "name": "distributionTargets",
      "outputs": [
        {
          "internalType": "enum ProtocolShareReserve.Schema",
          "name": "schema",
          "type": "uint8"
        },
        {
          "internalType": "uint16",
          "name": "percentage",
          "type": "uint16"
        },
        {
          "internalType": "address",
          "name": "destination",
          "type": "address"
        }
      ],
      "stateMutability": "view",
      "type": "function"
    },
    {
      "inputs": [
        {
          "internalType": "address",
          "name": "destination",
          "type": "address"
        },
        {
          "internalType": "enum ProtocolShareReserve.Schema",
          "name": "schema",
          "type": "uint8"
        }
      ],
      "name": "getPercentageDistribution",
      "outputs": [
        {
          "internalType": "uint256",
          "name": "",
          "type": "uint256"
        }
      ],
      "stateMutability": "view",
      "type": "function"
    },
    {
      "inputs": [
        {
          "internalType": "address",
          "name": "comptroller",
          "type": "address"
        },
        {
          "internalType": "enum ProtocolShareReserve.Schema",
          "name": "schema",
          "type": "uint8"
        },
        {
          "internalType": "address",
          "name": "destination",
          "type": "address"
        },
        {
          "internalType": "address",
          "name": "asset",
          "type": "address"
        }
      ],
      "name": "getUnreleasedFunds",
      "outputs": [
        {
          "internalType": "uint256",
          "name": "",
          "type": "uint256"
        }
      ],
      "stateMutability": "view",
      "type": "function"
    },
    {
      "inputs": [
        {
          "internalType": "address",
          "name": "_accessControlManager",
          "type": "address"
        },
        {
          "internalType": "uint256",
          "name": "_loopsLimit",
          "type": "uint256"
        }
      ],
      "name": "initialize",
      "outputs": [],
      "stateMutability": "nonpayable",
      "type": "function"
    },
    {
      "inputs": [],
      "name": "maxLoopsLimit",
      "outputs": [
        {
          "internalType": "uint256",
          "name": "",
          "type": "uint256"
        }
      ],
      "stateMutability": "view",
      "type": "function"
    },
    {
      "inputs": [],
      "name": "owner",
      "outputs": [
        {
          "internalType": "address",
          "name": "",
          "type": "address"
        }
      ],
      "stateMutability": "view",
      "type": "function"
    },
    {
      "inputs": [],
      "name": "pendingOwner",
      "outputs": [
        {
          "internalType": "address",
          "name": "",
          "type": "address"
        }
      ],
      "stateMutability": "view",
      "type": "function"
    },
    {
      "inputs": [],
      "name": "poolRegistry",
      "outputs": [
        {
          "internalType": "address",
          "name": "",
          "type": "address"
        }
      ],
      "stateMutability": "view",
      "type": "function"
    },
    {
      "inputs": [
        {
          "internalType": "address",
          "name": "comptroller",
          "type": "address"
        },
        {
          "internalType": "address[]",
          "name": "assets",
          "type": "address[]"
        }
      ],
      "name": "releaseFunds",
      "outputs": [],
      "stateMutability": "nonpayable",
      "type": "function"
    },
    {
      "inputs": [
        {
          "internalType": "enum ProtocolShareReserve.Schema",
          "name": "schema",
          "type": "uint8"
        },
        {
          "internalType": "address",
          "name": "destination",
          "type": "address"
        }
      ],
      "name": "removeDistributionConfig",
      "outputs": [],
      "stateMutability": "nonpayable",
      "type": "function"
    },
    {
      "inputs": [],
      "name": "renounceOwnership",
      "outputs": [],
      "stateMutability": "nonpayable",
      "type": "function"
    },
    {
      "inputs": [
        {
          "internalType": "address",
          "name": "accessControlManager_",
          "type": "address"
        }
      ],
      "name": "setAccessControlManager",
      "outputs": [],
      "stateMutability": "nonpayable",
      "type": "function"
    },
    {
      "inputs": [
        {
          "internalType": "address",
          "name": "_poolRegistry",
          "type": "address"
        }
      ],
      "name": "setPoolRegistry",
      "outputs": [],
      "stateMutability": "nonpayable",
      "type": "function"
    },
    {
      "inputs": [
        {
          "internalType": "address",
          "name": "",
          "type": "address"
        }
      ],
      "name": "totalAssetReserve",
      "outputs": [
        {
          "internalType": "uint256",
          "name": "",
          "type": "uint256"
        }
      ],
      "stateMutability": "view",
      "type": "function"
    },
    {
      "inputs": [],
      "name": "totalDistributions",
      "outputs": [
        {
          "internalType": "uint256",
          "name": "",
          "type": "uint256"
        }
      ],
      "stateMutability": "view",
      "type": "function"
    },
    {
      "inputs": [
        {
          "internalType": "address",
          "name": "newOwner",
          "type": "address"
        }
      ],
      "name": "transferOwnership",
      "outputs": [],
      "stateMutability": "nonpayable",
      "type": "function"
    },
    {
      "inputs": [
        {
          "internalType": "address",
          "name": "comptroller",
          "type": "address"
        },
        {
          "internalType": "address",
          "name": "asset",
          "type": "address"
        },
        {
          "internalType": "enum IProtocolShareReserve.IncomeType",
          "name": "incomeType",
          "type": "uint8"
        }
      ],
      "name": "updateAssetsState",
      "outputs": [],
      "stateMutability": "nonpayable",
      "type": "function"
    },
    {
      "inputs": [],
      "name": "vBNB",
      "outputs": [
        {
          "internalType": "address",
          "name": "",
          "type": "address"
        }
      ],
      "stateMutability": "view",
      "type": "function"
    }
  ],
  "transactionHash": "0xf24c3edc2158535dc08750a690958527dcb1c6e8f1f5fca613e1da144611c2f6",
  "args": [
    "0x0000000000000000000000000000000000000001",
    "0x0000000000000000000000000000000000000001",
    "0x0000000000000000000000000000000000000001"
  ],
  "numDeployments": 1,
  "solcInputHash": "ba60628f690b0c86286428d918d719fe",
  "bytecode": "0x60e06040523480156200001157600080fd5b5060405162003019380380620030198339810160408190526200003491620001b6565b6001600160a01b0383166200005c5760405163e6c4247b60e01b815260040160405180910390fd5b6001600160a01b038216620000845760405163e6c4247b60e01b815260040160405180910390fd5b6001600160a01b038116620000ac5760405163e6c4247b60e01b815260040160405180910390fd5b6001600160a01b0380841660805282811660a052811660c052620000cf620000d8565b50505062000200565b600054610100900460ff1615620001455760405162461bcd60e51b815260206004820152602760248201527f496e697469616c697a61626c653a20636f6e747261637420697320696e697469604482015266616c697a696e6760c81b606482015260840160405180910390fd5b60005460ff9081161462000197576000805460ff191660ff9081179091556040519081527f7f26b83ff96e1f2b6a682f133852f6798a09c465da95921460cefb38474024989060200160405180910390a15b565b80516001600160a01b0381168114620001b157600080fd5b919050565b600080600060608486031215620001cc57600080fd5b620001d78462000199565b9250620001e76020850162000199565b9150620001f76040850162000199565b90509250925092565b60805160a05160c051612de2620002376000396000610209015260006103090152600081816103c901526104f30152612de26000f3fe608060405234801561001057600080fd5b50600436106101a35760003560e01c8063893ffe98116100ee578063b4a0bdf311610097578063e30c397811610071578063e30c3978146103a0578063f2fde38b146103b1578063fa7b81a0146103c4578063fc31116a146103eb57600080fd5b8063b4a0bdf314610373578063be26317e14610384578063cd6dc6871461038d57600080fd5b8063966961f0116100c8578063966961f01461032b578063aea211211461033e578063afcff50f1461035f57600080fd5b8063893ffe98146102e05780638da5cb5b146102f35780638dd950021461030457600080fd5b80634f429f3611610150578063715018a61161012a578063715018a6146102bd57806379ba5097146102c55780637b77cd6a146102cd57600080fd5b80634f429f36146102655780635db6da12146102785780635f3d6133146102aa57600080fd5b806316faecec1161018157806316faecec146101f157806333e1567f14610204578063392ee7121461024357600080fd5b80630e32cb86146101a85780631036bbe2146101bd578063163db71b146101de575b600080fd5b6101bb6101b636600461260e565b6103fe565b005b6101c661271081565b60405161ffff90911681526020015b60405180910390f35b610130545b6040519081526020016101d5565b6101bb6101ff36600461263f565b610412565b61022b7f000000000000000000000000000000000000000000000000000000000000000081565b6040516001600160a01b0390911681526020016101d5565b61025661025136600461268a565b6107bf565b6040516101d593929190612709565b6101bb610273366004612737565b6107ff565b6101e361028636600461263f565b61012e60209081526000938452604080852082529284528284209052825290205481565b6101bb6102b8366004612770565b610b41565b6101bb610e88565b6101bb610e9c565b6101bb6102db36600461260e565b610f2c565b6101e36102ee3660046127e5565b610fea565b6033546001600160a01b031661022b565b61022b7f000000000000000000000000000000000000000000000000000000000000000081565b6101e3610339366004612841565b61110c565b6101e361034c36600461260e565b61012f6020526000908152604090205481565b61012d5461022b906001600160a01b031681565b6097546001600160a01b031661022b565b6101e360fb5481565b6101bb61039b36600461286f565b611201565b6065546001600160a01b031661022b565b6101bb6103bf36600461260e565b61138c565b61022b7f000000000000000000000000000000000000000000000000000000000000000081565b6101bb6103f936600461289b565b611415565b61040661146b565b61040f816114c5565b50565b61041a6115bb565b826001600160a01b0316627e3dd26040518163ffffffff1660e01b8152600401602060405180830381865afa158015610457573d6000803e3d6000fd5b505050506040513d601f19601f8201168201806040525081019061047b9190612923565b6104b1576040517fe6c4247b00000000000000000000000000000000000000000000000000000000815260040160405180910390fd5b6001600160a01b0382166104f1576040517fe6c4247b00000000000000000000000000000000000000000000000000000000815260040160405180910390fd5b7f00000000000000000000000000000000000000000000000000000000000000006001600160a01b0316836001600160a01b0316141580156105ca575061012d546040517f266e0a7f0000000000000000000000000000000000000000000000000000000081526001600160a01b0385811660048301528481166024830152600092169063266e0a7f90604401602060405180830381865afa15801561059b573d6000803e3d6000fd5b505050506040513d601f19601f820116820180604052508101906105bf9190612945565b6001600160a01b0316145b15610601576040517fe6c4247b00000000000000000000000000000000000000000000000000000000815260040160405180910390fd5b600061060c82611614565b6040517f70a082310000000000000000000000000000000000000000000000000000000081523060048201529091506000906001600160a01b038516906370a0823190602401602060405180830381865afa15801561066f573d6000803e3d6000fd5b505050506040513d601f19601f820116820180604052508101906106939190612962565b6001600160a01b038516600090815261012f6020526040902054909150808211156107ad576001600160a01b03808716600090815261012e602090815260408083209389168352929052908120828403918291908660018111156106f9576106f96126a3565b600181111561070a5761070a6126a3565b8152602001908152602001600020600082825461072791906129aa565b90915550506001600160a01b038616600090815261012f6020526040812080548392906107559084906129aa565b92505081905550856001600160a01b0316876001600160a01b03167fa46b2431e663cf7b50c9d5129aff85d2394ecfd447b7ccba83986510a9d945ea8388886040516107a3939291906129c2565b60405180910390a3505b5050506107ba600160c955565b505050565b61013081815481106107d057600080fd5b60009182526020909120015460ff81169150610100810461ffff1690630100000090046001600160a01b031683565b610820604051806060016040528060288152602001612d516028913961163f565b600080805b610130548110156108cb5760006101308281548110610846576108466129ef565b6000918252602090912001805490915060ff16600181111561086a5761086a6126a3565b86600181111561087c5761087c6126a3565b14801561089c575080546001600160a01b03868116630100000090920416145b80156108b057508054610100900461ffff16155b156108c25760019250819350506108cb565b50600101610825565b508015610b335761013082815481106108e6576108e66129ef565b9060005260206000200160000160039054906101000a90046001600160a01b03166001600160a01b03167f70e7a210881df49522a5bf05d477e00d59e52a41c96c1eedeaeb356b9e6c81cc6101308481548110610945576109456129ef565b9060005260206000200160000160019054906101000a900461ffff166101308581548110610975576109756129ef565b600091825260209091200154604051610992929160ff1690612a1e565b60405180910390a261013080546109ab90600190612a3f565b815481106109bb576109bb6129ef565b9060005260206000200161013083815481106109d9576109d96129ef565b60009182526020909120825491018054909160ff169082907fffffffffffffffffffffffffffffffffffffffffffffffffffffffffffffff001660018381811115610a2657610a266126a3565b02179055508154815461ffff61010092839004169091027fffffffffffffffffffffffffffffffffffffffffffffffffffffffffff0000ff82168117835592546001600160a01b0363010000009182900416027fffffffffffffffffff0000000000000000000000000000000000000000ffffff9093167fffffffffffffffffff00000000000000000000000000000000000000000000ff90911617919091179055610130805480610ada57610ada612a56565b60008281526020902081017fffffffffffffffffffffffffffffffffffffffffffffffffffffffffffffffff90810180547fffffffffffffffffff00000000000000000000000000000000000000000000001690550190555b610b3b61170b565b50505050565b610b496115bb565b610b6a604051806060016040528060348152602001612d796034913961163f565b60005b81811015610e64576000838383818110610b8957610b896129ef565b905060600201803603810190610b9f9190612ab4565b60408101519091506001600160a01b0316610be6576040517fe6c4247b00000000000000000000000000000000000000000000000000000000815260040160405180910390fd5b61013054600090815b81811015610d145760006101308281548110610c0d57610c0d6129ef565b6000918252602090912001805490915060ff166001811115610c3157610c316126a3565b85516001811115610c4457610c446126a3565b148015610c69575060408501518154630100000090046001600160a01b039081169116145b15610d0b5760408581015182546020880151885193516001600160a01b03909316937fa682db621f4ae1c92cd6c492151d32fe657fc6db6e87bd65eb8bda05311f6ef293610cc293610100900461ffff16929190612b54565b60405180910390a26020850151815461ffff909116610100027fffffffffffffffffffffffffffffffffffffffffffffffffffffffffff0000ff90911617905560019250610d14565b50600101610bef565b5081610e565761013080546001818101835560009290925284517f2f605e086faac1d93117bbfbc18835d434e9405fadc1ca66faf4b864746daf349091018054869391929183917fffffffffffffffffffffffffffffffffffffffffffffffffffffffffffffff0016908381811115610d8f57610d8f6126a3565b021790555060208281015182546040948501517fffffffffffffffffff00000000000000000000000000000000000000000000ff90911661010061ffff909316929092027fffffffffffffffffff0000000000000000000000000000000000000000ffffff169190911763010000006001600160a01b03928316021790925585830151908601518651935191909216927f8c96910d818618d8b1de4e1b5672a192443e87aa553f0ebe4c47f9d8c928b28292610e4d92909190612a1e565b60405180910390a25b836001019350505050610b6d565b50610e6d61170b565b61013054610e7a906118e3565b610e84600160c955565b5050565b610e9061146b565b610e9a600061192d565b565b60655433906001600160a01b03168114610f235760405162461bcd60e51b815260206004820152602960248201527f4f776e61626c6532537465703a2063616c6c6572206973206e6f74207468652060448201527f6e6577206f776e6572000000000000000000000000000000000000000000000060648201526084015b60405180910390fd5b61040f8161192d565b610f3461146b565b6001600160a01b038116610f74576040517fe6c4247b00000000000000000000000000000000000000000000000000000000815260040160405180910390fd5b61012d546040516001600160a01b038084169216907fa87b964d321035d2165e484ff4b722dd6eae30606c0b98887d2ed1a34e594bfe90600090a361012d80547fffffffffffffffffffffffff0000000000000000000000000000000000000000166001600160a01b0392909216919091179055565b61013054600090815b818110156111015760006101308281548110611011576110116129ef565b90600052602060002001905086600181111561102f5761102f6126a3565b815460ff166001811115611045576110456126a3565b148015611065575080546001600160a01b03878116630100000090920416145b156110f8576001600160a01b03808916600090815261012e602090815260408083209389168352929052908120818960018111156110a5576110a56126a3565b60018111156110b6576110b66126a3565b81526020810191909152604001600020548254909150612710906110e390610100900461ffff1683612b70565b6110ed9190612bad565b945050505050611104565b50600101610ff3565b50505b949350505050565b61013054600090815b818110156111f85760006101308281548110611133576111336129ef565b60009182526020909120604080516060810190915291018054829060ff166001811115611162576111626126a3565b6001811115611173576111736126a3565b81529054610100810461ffff166020830152630100000090046001600160a01b039081166040928301529082015191925087811691161480156111d857508460018111156111c3576111c36126a3565b815160018111156111d6576111d66126a3565b145b156111ef576020015161ffff1692506111fb915050565b50600101611115565b50505b92915050565b600054610100900460ff16158080156112215750600054600160ff909116105b8061123b5750303b15801561123b575060005460ff166001145b6112ad5760405162461bcd60e51b815260206004820152602e60248201527f496e697469616c697a61626c653a20636f6e747261637420697320616c72656160448201527f647920696e697469616c697a65640000000000000000000000000000000000006064820152608401610f1a565b600080547fffffffffffffffffffffffffffffffffffffffffffffffffffffffffffffff00166001179055801561130b57600080547fffffffffffffffffffffffffffffffffffffffffffffffffffffffffffff00ff166101001790555b6113148361195e565b61131c6119ec565b61132582611a71565b80156107ba57600080547fffffffffffffffffffffffffffffffffffffffffffffffffffffffffffff00ff169055604051600181527f7f26b83ff96e1f2b6a682f133852f6798a09c465da95921460cefb38474024989060200160405180910390a1505050565b61139461146b565b606580546001600160a01b0383167fffffffffffffffffffffffff000000000000000000000000000000000000000090911681179091556113dd6033546001600160a01b031690565b6001600160a01b03167f38d16b8cac22d99fc7c124b9cd0de2d3fa1faef420bfe791d8c362d765e2270060405160405180910390a350565b61141d6115bb565b60005b81811015611460576114588484848481811061143e5761143e6129ef565b9050602002016020810190611453919061260e565b611b26565b600101611420565b506107ba600160c955565b6033546001600160a01b03163314610e9a5760405162461bcd60e51b815260206004820181905260248201527f4f776e61626c653a2063616c6c6572206973206e6f7420746865206f776e65726044820152606401610f1a565b6001600160a01b0381166115415760405162461bcd60e51b815260206004820152602560248201527f696e76616c696420616365737320636f6e74726f6c206d616e6167657220616460448201527f64726573730000000000000000000000000000000000000000000000000000006064820152608401610f1a565b609780546001600160a01b038381167fffffffffffffffffffffffff000000000000000000000000000000000000000083168117909355604080519190921680825260208201939093527f66fd58e82f7b31a2a5c30e0888f3093efe4e111b00cd2b0c31fe014601293aa091015b60405180910390a15050565b600260c9540361160d5760405162461bcd60e51b815260206004820152601f60248201527f5265656e7472616e637947756172643a207265656e7472616e742063616c6c006044820152606401610f1a565b600260c955565b6001600082600181111561162a5761162a6126a3565b03611633575060005b919050565b600160c955565b6097546040517f18c5e8ab0000000000000000000000000000000000000000000000000000000081526000916001600160a01b0316906318c5e8ab9061168b9033908690600401612c5e565b602060405180830381865afa1580156116a8573d6000803e3d6000fd5b505050506040513d601f19601f820116820180604052508101906116cc9190612923565b905080610e84573330836040517f4a3fa293000000000000000000000000000000000000000000000000000000008152600401610f1a93929190612c80565b60006117186001806129aa565b905060008167ffffffffffffffff81111561173557611735612a85565b60405190808252806020026020018201604052801561175e578160200160208202803683370190505b506101305490915060005b818110156118475760006101308281548110611787576117876129ef565b60009182526020909120604080516060810190915291018054829060ff1660018111156117b6576117b66126a3565b60018111156117c7576117c76126a3565b81529054610100810461ffff1660208084019190915263010000009091046001600160a01b031660409092019190915281015181519192509085906001811115611813576118136126a3565b81518110611823576118236129ef565b602002602001018181516118379190612cb5565b61ffff1690525050600101611769565b5060005b83811015610b3b5761271061ffff1683828151811061186c5761186c6129ef565b602002602001015161ffff16141580156118a45750828181518110611893576118936129ef565b602002602001015161ffff16600014155b156118db576040517f0b8ad7f100000000000000000000000000000000000000000000000000000000815260040160405180910390fd5b60010161184b565b60fb5481111561040f5760fb546040517ff257f636000000000000000000000000000000000000000000000000000000008152600481019190915260248101829052604401610f1a565b606580547fffffffffffffffffffffffff000000000000000000000000000000000000000016905561040f816120ff565b600054610100900460ff166119db5760405162461bcd60e51b815260206004820152602b60248201527f496e697469616c697a61626c653a20636f6e7472616374206973206e6f74206960448201527f6e697469616c697a696e670000000000000000000000000000000000000000006064820152608401610f1a565b6119e3612169565b61040f816121ee565b600054610100900460ff16611a695760405162461bcd60e51b815260206004820152602b60248201527f496e697469616c697a61626c653a20636f6e7472616374206973206e6f74206960448201527f6e697469616c697a696e670000000000000000000000000000000000000000006064820152608401610f1a565b610e9a61226b565b60fb548111611ae85760405162461bcd60e51b815260206004820152602260248201527f436f6d7074726f6c6c65723a20496e76616c6964206d61784c6f6f70734c696d60448201527f69740000000000000000000000000000000000000000000000000000000000006064820152608401610f1a565b60fb80549082905560408051828152602081018490527fc2d09fef144f7c8a86f71ea459f8fc17f675768eb1ae369cbd77fb31d467aafa91016115af565b6000611b336001806129aa565b905060008167ffffffffffffffff811115611b5057611b50612a85565b604051908082528060200260200182016040528015611b79578160200160208202803683370190505b5090506000805b83811015611c41576001600160a01b03808716600090815261012e60209081526040808320938916835292905290812090826001811115611bc357611bc36126a3565b6001811115611bd457611bd46126a3565b6001811115611be557611be56126a3565b815260200190815260200160002054838281518110611c0657611c066129ef565b602002602001018181525050828181518110611c2457611c246129ef565b602002602001015182611c3791906129aa565b9150600101611b80565b5080600003611c51575050505050565b60008367ffffffffffffffff811115611c6c57611c6c612a85565b604051908082528060200260200182016040528015611c95578160200160208202803683370190505b50905060005b61013054811015611eca5760006101308281548110611cbc57611cbc6129ef565b60009182526020909120604080516060810190915291018054829060ff166001811115611ceb57611ceb6126a3565b6001811115611cfc57611cfc6126a3565b81529054610100810461ffff90811660208085019190915263010000009092046001600160a01b0316604090930192909252820151825192935060009261271092919091169088906001811115611d5557611d556126a3565b81518110611d6557611d656129ef565b6020026020010151611d779190612b70565b611d819190612bad565b9050808483600001516001811115611d9b57611d9b6126a3565b81518110611dab57611dab6129ef565b60200260200101818151611dbf91906129aa565b9052508015611ec0576040820151611de2906001600160a01b038a1690836122e8565b60408083015190517faac59a750000000000000000000000000000000000000000000000000000000081526001600160a01b038b811660048301528a811660248301529091169063aac59a7590604401600060405180830381600087803b158015611e4c57600080fd5b505af1158015611e60573d6000803e3d6000fd5b50505050876001600160a01b031682604001516001600160a01b03167f09f71e7b22d78540ee9a42f09917a9d62f46735cb0dfa70d6bab27866d9cb5008460000151856020015185604051611eb793929190612cdb565b60405180910390a35b5050600101611c9b565b5060008467ffffffffffffffff811115611ee657611ee6612a85565b604051908082528060200260200182016040528015611f0f578160200160208202803683370190505b50905060005b858110156120f557828181518110611f2f57611f2f6129ef565b6020026020010151858281518110611f4957611f496129ef565b6020026020010151611f5b9190612a3f565b828281518110611f6d57611f6d6129ef565b602002602001018181525050818181518110611f8b57611f8b6129ef565b6020908102919091018101516001600160a01b03808b16600090815261012e84526040808220928c1682529190935282209091836001811115611fd057611fd06126a3565b6001811115611fe157611fe16126a3565b6001811115611ff257611ff26126a3565b815260200190815260200160002081905550828181518110612016576120166129ef565b602002602001015161012f6000896001600160a01b03166001600160a01b031681526020019081526020016000205461204f9190612a3f565b6001600160a01b03808916600081815261012f602052604090209290925589167f7d881f3d6246a6a2b97b121b8ba093c17497912c68e8b2bca6108528e91df3ca8360018111156120a2576120a26126a3565b8885815181106120b4576120b46129ef565b60200260200101518686815181106120ce576120ce6129ef565b60200260200101516040516120e593929190612d00565b60405180910390a3600101611f15565b5050505050505050565b603380546001600160a01b038381167fffffffffffffffffffffffff0000000000000000000000000000000000000000831681179093556040519116919082907f8be0079c531659141344cd1fd0a4f28419497f9722a3daafe3b4186f6b6457e090600090a35050565b600054610100900460ff166121e65760405162461bcd60e51b815260206004820152602b60248201527f496e697469616c697a61626c653a20636f6e7472616374206973206e6f74206960448201527f6e697469616c697a696e670000000000000000000000000000000000000000006064820152608401610f1a565b610e9a612368565b600054610100900460ff166104065760405162461bcd60e51b815260206004820152602b60248201527f496e697469616c697a61626c653a20636f6e7472616374206973206e6f74206960448201527f6e697469616c697a696e670000000000000000000000000000000000000000006064820152608401610f1a565b600054610100900460ff166116385760405162461bcd60e51b815260206004820152602b60248201527f496e697469616c697a61626c653a20636f6e7472616374206973206e6f74206960448201527f6e697469616c697a696e670000000000000000000000000000000000000000006064820152608401610f1a565b604080516001600160a01b038416602482015260448082018490528251808303909101815260649091019091526020810180517bffffffffffffffffffffffffffffffffffffffffffffffffffffffff167fa9059cbb000000000000000000000000000000000000000000000000000000001790526107ba9084906123ee565b600054610100900460ff166123e55760405162461bcd60e51b815260206004820152602b60248201527f496e697469616c697a61626c653a20636f6e7472616374206973206e6f74206960448201527f6e697469616c697a696e670000000000000000000000000000000000000000006064820152608401610f1a565b610e9a3361192d565b6000612443826040518060400160405280602081526020017f5361666545524332303a206c6f772d6c6576656c2063616c6c206661696c6564815250856001600160a01b03166124d69092919063ffffffff16565b90508051600014806124645750808060200190518101906124649190612923565b6107ba5760405162461bcd60e51b815260206004820152602a60248201527f5361666545524332303a204552433230206f7065726174696f6e20646964206e60448201527f6f742073756363656564000000000000000000000000000000000000000000006064820152608401610f1a565b6060611104848460008585600080866001600160a01b031685876040516124fd9190612d21565b60006040518083038185875af1925050503d806000811461253a576040519150601f19603f3d011682016040523d82523d6000602084013e61253f565b606091505b50915091506125508783838761255b565b979650505050505050565b606083156125ca5782516000036125c3576001600160a01b0385163b6125c35760405162461bcd60e51b815260206004820152601d60248201527f416464726573733a2063616c6c20746f206e6f6e2d636f6e74726163740000006044820152606401610f1a565b5081611104565b61110483838151156125df5781518083602001fd5b8060405162461bcd60e51b8152600401610f1a9190612d3d565b6001600160a01b038116811461040f57600080fd5b60006020828403121561262057600080fd5b813561262b816125f9565b9392505050565b6002811061040f57600080fd5b60008060006060848603121561265457600080fd5b833561265f816125f9565b9250602084013561266f816125f9565b9150604084013561267f81612632565b809150509250925092565b60006020828403121561269c57600080fd5b5035919050565b7f4e487b7100000000000000000000000000000000000000000000000000000000600052602160045260246000fd5b6002811061040f577f4e487b7100000000000000000000000000000000000000000000000000000000600052602160045260246000fd5b60608101612716856126d2565b93815261ffff9290921660208301526001600160a01b031660409091015290565b6000806040838503121561274a57600080fd5b823561275581612632565b91506020830135612765816125f9565b809150509250929050565b6000806020838503121561278357600080fd5b823567ffffffffffffffff8082111561279b57600080fd5b818501915085601f8301126127af57600080fd5b8135818111156127be57600080fd5b8660206060830285010111156127d357600080fd5b60209290920196919550909350505050565b600080600080608085870312156127fb57600080fd5b8435612806816125f9565b9350602085013561281681612632565b92506040850135612826816125f9565b91506060850135612836816125f9565b939692955090935050565b6000806040838503121561285457600080fd5b823561285f816125f9565b9150602083013561276581612632565b6000806040838503121561288257600080fd5b823561288d816125f9565b946020939093013593505050565b6000806000604084860312156128b057600080fd5b83356128bb816125f9565b9250602084013567ffffffffffffffff808211156128d857600080fd5b818601915086601f8301126128ec57600080fd5b8135818111156128fb57600080fd5b8760208260051b850101111561291057600080fd5b6020830194508093505050509250925092565b60006020828403121561293557600080fd5b8151801515811461262b57600080fd5b60006020828403121561295757600080fd5b815161262b816125f9565b60006020828403121561297457600080fd5b5051919050565b7f4e487b7100000000000000000000000000000000000000000000000000000000600052601160045260246000fd5b600082198211156129bd576129bd61297b565b500190565b838152606081016129d2846126d2565b8360208301526129e1836126d2565b826040830152949350505050565b7f4e487b7100000000000000000000000000000000000000000000000000000000600052603260045260246000fd5b61ffff8316815260408101612a32836126d2565b8260208301529392505050565b600082821015612a5157612a5161297b565b500390565b7f4e487b7100000000000000000000000000000000000000000000000000000000600052603160045260246000fd5b7f4e487b7100000000000000000000000000000000000000000000000000000000600052604160045260246000fd5b600060608284031215612ac657600080fd5b6040516060810181811067ffffffffffffffff82111715612b10577f4e487b7100000000000000000000000000000000000000000000000000000000600052604160045260246000fd5b6040528235612b1e81612632565b8152602083013561ffff81168114612b3557600080fd5b60208201526040830135612b48816125f9565b60408201529392505050565b61ffff848116825283166020820152606081016129e1836126d2565b6000817fffffffffffffffffffffffffffffffffffffffffffffffffffffffffffffffff0483118215151615612ba857612ba861297b565b500290565b600082612be3577f4e487b7100000000000000000000000000000000000000000000000000000000600052601260045260246000fd5b500490565b60005b83811015612c03578181015183820152602001612beb565b83811115610b3b5750506000910152565b60008151808452612c2c816020860160208601612be8565b601f017fffffffffffffffffffffffffffffffffffffffffffffffffffffffffffffffe0169290920160200192915050565b6001600160a01b03831681526040602082015260006111046040830184612c14565b60006001600160a01b03808616835280851660208401525060606040830152612cac6060830184612c14565b95945050505050565b600061ffff808316818516808303821115612cd257612cd261297b565b01949350505050565b60608101612ce8856126d2565b93815261ffff92909216602083015260409091015290565b60608101612d0d856126d2565b938152602081019290925260409091015290565b60008251612d33818460208701612be8565b9190910192915050565b60208152600061262b6020830184612c1456fe72656d6f7665446973747269627574696f6e436f6e66696728536368656d612c61646472657373296164644f72557064617465446973747269627574696f6e436f6e6669677328446973747269627574696f6e436f6e6669675b5d29a264697066735822122028b2a8b936459158817f276125ec478900d0afe0f9db7d9ad52fb1d3a1c538c464736f6c634300080d0033",
  "devdoc": {
    "kind": "dev",
    "methods": {
      "acceptOwnership()": {
        "details": "The new owner accepts the ownership transfer."
      },
      "addOrUpdateDistributionConfigs((uint8,uint16,address)[])": {
        "details": "Add or update destination targets based on destination address",
        "params": {
          "configs": "configurations of the destinations."
        }
      },
      "constructor": {
        "custom:oz-upgrades-unsafe-allow": "constructor"
      },
      "getPercentageDistribution(address,uint8)": {
        "details": "Used to find out the percentage distribution for a particular destination based on schema",
        "params": {
          "destination": "the destination address of the distribution target",
          "schema": "the schema of the distribution target"
        },
        "returns": {
          "_0": "percentage percentage distribution"
        }
      },
      "getUnreleasedFunds(address,uint8,address,address)": {
        "details": "Used to find out the amount of funds that's going to be released when release funds is called.",
        "params": {
          "asset": "the asset address which will be released",
          "comptroller": "the comptroller address of the pool",
          "destination": "the destination address of the distribution target",
          "schema": "the schema of the distribution target"
        }
      },
      "initialize(address,uint256)": {
        "details": "Initializes the deployer to owner.",
        "params": {
          "_accessControlManager": "The address of ACM contract",
          "_loopsLimit": "Limit for the loops in the contract to avoid DOS"
        }
      },
      "owner()": {
        "details": "Returns the address of the current owner."
      },
      "pendingOwner()": {
        "details": "Returns the address of the pending owner."
      },
      "releaseFunds(address,address[])": {
        "details": "Release funds",
        "params": {
          "assets": "assets to be released to distribution targets",
          "comptroller": "the comptroller address of the pool"
        }
      },
      "removeDistributionConfig(uint8,address)": {
        "details": "Remove destionation target if percentage is 0",
        "params": {
          "destination": "destination address of the configuration",
          "schema": "schema of the configuration"
        }
      },
      "renounceOwnership()": {
        "details": "Leaves the contract without owner. It will not be possible to call `onlyOwner` functions. Can only be called by the current owner. NOTE: Renouncing ownership will leave the contract without an owner, thereby disabling any functionality that is only available to the owner."
      },
      "setAccessControlManager(address)": {
        "custom:access": "Only Governance",
        "custom:event": "Emits NewAccessControlManager event",
        "details": "Admin function to set address of AccessControlManager",
        "params": {
          "accessControlManager_": "The new address of the AccessControlManager"
        }
      },
      "setPoolRegistry(address)": {
        "details": "Pool registry setter.",
        "params": {
          "_poolRegistry": "Address of the pool registry"
        }
      },
      "totalDistributions()": {
        "details": "Returns the total number of distribution targets"
      },
      "transferOwnership(address)": {
        "details": "Starts the ownership transfer of the contract to a new account. Replaces the pending transfer if there is one. Can only be called by the current owner."
      },
      "updateAssetsState(address,address,uint8)": {
        "details": "Update the reserve of the asset for the specific pool after transferring to the protocol share reserve.",
        "params": {
          "asset": "Asset address.",
          "comptroller": "Comptroller address(pool)",
          "incomeType": "type of income"
        }
      }
    },
    "stateVariables": {
      "CORE_POOL_COMPTROLLER": {
        "custom:oz-upgrades-unsafe-allow": "state-variable-immutable"
      },
      "WBNB": {
        "custom:oz-upgrades-unsafe-allow": "state-variable-immutable"
      },
      "vBNB": {
        "custom:oz-upgrades-unsafe-allow": "state-variable-immutable"
      }
    },
    "version": 1
  },
  "userdoc": {
    "errors": {
      "MaxLoopsLimitExceeded(uint256,uint256)": [
        {
          "notice": "Thrown an error on maxLoopsLimit exceeds for any loop"
        }
      ],
      "Unauthorized(address,address,string)": [
        {
          "notice": "Thrown when the action is prohibited by AccessControlManager"
        }
      ]
    },
    "events": {
      "AssetReleased(address,address,uint8,uint256,uint256)": {
        "notice": "Event emitted when an asset is released to a target"
      },
      "AssetsReservesUpdated(address,address,uint256,uint8,uint8)": {
        "notice": "Event emitted after the updation of the assets reserves."
      },
      "DistributionConfigAdded(address,uint16,uint8)": {
        "notice": "Event emitted when distribution configuration is added"
      },
      "DistributionConfigRemoved(address,uint16,uint8)": {
        "notice": "Event emitted when distribution configuration is removed"
      },
      "DistributionConfigUpdated(address,uint16,uint16,uint8)": {
        "notice": "Event emitted when distribution configuration is updated"
      },
      "MaxLoopsLimitUpdated(uint256,uint256)": {
        "notice": "Emitted when max loops limit is set"
      },
      "NewAccessControlManager(address,address)": {
        "notice": "Emitted when access control manager contract address is changed"
      },
      "PoolRegistryUpdated(address,address)": {
        "notice": "Emitted when pool registry address is updated"
      },
      "ReservesUpdated(address,address,uint8,uint256,uint256)": {
        "notice": "Event emitted when asset reserves state is updated"
      }
    },
    "kind": "user",
    "methods": {
      "CORE_POOL_COMPTROLLER()": {
        "notice": "address of core pool comptroller contract"
      },
      "WBNB()": {
        "notice": "address of WBNB contract"
      },
      "accessControlManager()": {
        "notice": "Returns the address of the access control manager contract"
      },
      "assetsReserves(address,address,uint8)": {
        "notice": "comptroller => asset => schema => balance"
      },
      "distributionTargets(uint256)": {
        "notice": "configuration for different income distribution targets"
      },
      "poolRegistry()": {
        "notice": "address of pool registry contract"
      },
      "setAccessControlManager(address)": {
        "notice": "Sets the address of AccessControlManager"
      },
      "totalAssetReserve(address)": {
        "notice": "asset => balance"
      },
      "vBNB()": {
        "notice": "address of vBNB contract"
      }
    },
    "version": 1
  },
  "storageLayout": {
    "storage": [
      {
        "astId": 244,
        "contract": "contracts/ProtocolReserve/ProtocolShareReserve.sol:ProtocolShareReserve",
        "label": "_initialized",
        "offset": 0,
        "slot": "0",
        "type": "t_uint8"
      },
      {
        "astId": 247,
        "contract": "contracts/ProtocolReserve/ProtocolShareReserve.sol:ProtocolShareReserve",
        "label": "_initializing",
        "offset": 1,
        "slot": "0",
        "type": "t_bool"
      },
      {
        "astId": 1351,
        "contract": "contracts/ProtocolReserve/ProtocolShareReserve.sol:ProtocolShareReserve",
        "label": "__gap",
        "offset": 0,
        "slot": "1",
        "type": "t_array(t_uint256)50_storage"
      },
      {
        "astId": 116,
        "contract": "contracts/ProtocolReserve/ProtocolShareReserve.sol:ProtocolShareReserve",
        "label": "_owner",
        "offset": 0,
        "slot": "51",
        "type": "t_address"
      },
      {
        "astId": 236,
        "contract": "contracts/ProtocolReserve/ProtocolShareReserve.sol:ProtocolShareReserve",
        "label": "__gap",
        "offset": 0,
        "slot": "52",
        "type": "t_array(t_uint256)49_storage"
      },
      {
        "astId": 25,
        "contract": "contracts/ProtocolReserve/ProtocolShareReserve.sol:ProtocolShareReserve",
        "label": "_pendingOwner",
        "offset": 0,
        "slot": "101",
        "type": "t_address"
      },
      {
        "astId": 104,
        "contract": "contracts/ProtocolReserve/ProtocolShareReserve.sol:ProtocolShareReserve",
        "label": "__gap",
        "offset": 0,
        "slot": "102",
        "type": "t_array(t_uint256)49_storage"
      },
      {
        "astId": 2151,
        "contract": "contracts/ProtocolReserve/ProtocolShareReserve.sol:ProtocolShareReserve",
        "label": "_accessControlManager",
        "offset": 0,
        "slot": "151",
        "type": "t_contract(IAccessControlManagerV8)2336"
      },
      {
        "astId": 2156,
        "contract": "contracts/ProtocolReserve/ProtocolShareReserve.sol:ProtocolShareReserve",
        "label": "__gap",
        "offset": 0,
        "slot": "152",
        "type": "t_array(t_uint256)49_storage"
      },
      {
        "astId": 420,
        "contract": "contracts/ProtocolReserve/ProtocolShareReserve.sol:ProtocolShareReserve",
        "label": "_status",
        "offset": 0,
        "slot": "201",
        "type": "t_uint256"
      },
      {
        "astId": 489,
        "contract": "contracts/ProtocolReserve/ProtocolShareReserve.sol:ProtocolShareReserve",
        "label": "__gap",
        "offset": 0,
        "slot": "202",
        "type": "t_array(t_uint256)49_storage"
      },
      {
        "astId": 2341,
        "contract": "contracts/ProtocolReserve/ProtocolShareReserve.sol:ProtocolShareReserve",
        "label": "maxLoopsLimit",
        "offset": 0,
        "slot": "251",
        "type": "t_uint256"
      },
      {
        "astId": 2346,
        "contract": "contracts/ProtocolReserve/ProtocolShareReserve.sol:ProtocolShareReserve",
        "label": "__gap",
        "offset": 0,
        "slot": "252",
        "type": "t_array(t_uint256)49_storage"
      },
      {
        "astId": 2524,
        "contract": "contracts/ProtocolReserve/ProtocolShareReserve.sol:ProtocolShareReserve",
        "label": "poolRegistry",
        "offset": 0,
        "slot": "301",
        "type": "t_address"
      },
      {
        "astId": 2537,
        "contract": "contracts/ProtocolReserve/ProtocolShareReserve.sol:ProtocolShareReserve",
        "label": "assetsReserves",
        "offset": 0,
        "slot": "302",
        "type": "t_mapping(t_address,t_mapping(t_address,t_mapping(t_enum(Schema)2503,t_uint256)))"
      },
      {
        "astId": 2542,
        "contract": "contracts/ProtocolReserve/ProtocolShareReserve.sol:ProtocolShareReserve",
        "label": "totalAssetReserve",
        "offset": 0,
        "slot": "303",
        "type": "t_mapping(t_address,t_uint256)"
      },
      {
        "astId": 2547,
        "contract": "contracts/ProtocolReserve/ProtocolShareReserve.sol:ProtocolShareReserve",
        "label": "distributionTargets",
        "offset": 0,
        "slot": "304",
        "type": "t_array(t_struct(DistributionConfig)2512_storage)dyn_storage"
      }
    ],
    "types": {
      "t_address": {
        "encoding": "inplace",
        "label": "address",
        "numberOfBytes": "20"
      },
      "t_array(t_struct(DistributionConfig)2512_storage)dyn_storage": {
        "base": "t_struct(DistributionConfig)2512_storage",
        "encoding": "dynamic_array",
        "label": "struct ProtocolShareReserve.DistributionConfig[]",
        "numberOfBytes": "32"
      },
      "t_array(t_uint256)49_storage": {
        "base": "t_uint256",
        "encoding": "inplace",
        "label": "uint256[49]",
        "numberOfBytes": "1568"
      },
      "t_array(t_uint256)50_storage": {
        "base": "t_uint256",
        "encoding": "inplace",
        "label": "uint256[50]",
        "numberOfBytes": "1600"
      },
      "t_bool": {
        "encoding": "inplace",
        "label": "bool",
        "numberOfBytes": "1"
      },
      "t_contract(IAccessControlManagerV8)2336": {
        "encoding": "inplace",
        "label": "contract IAccessControlManagerV8",
        "numberOfBytes": "20"
      },
      "t_enum(Schema)2503": {
        "encoding": "inplace",
        "label": "enum ProtocolShareReserve.Schema",
        "numberOfBytes": "1"
      },
      "t_mapping(t_address,t_mapping(t_address,t_mapping(t_enum(Schema)2503,t_uint256)))": {
        "encoding": "mapping",
        "key": "t_address",
        "label": "mapping(address => mapping(address => mapping(enum ProtocolShareReserve.Schema => uint256)))",
        "numberOfBytes": "32",
        "value": "t_mapping(t_address,t_mapping(t_enum(Schema)2503,t_uint256))"
      },
      "t_mapping(t_address,t_mapping(t_enum(Schema)2503,t_uint256))": {
        "encoding": "mapping",
        "key": "t_address",
        "label": "mapping(address => mapping(enum ProtocolShareReserve.Schema => uint256))",
        "numberOfBytes": "32",
        "value": "t_mapping(t_enum(Schema)2503,t_uint256)"
      },
      "t_mapping(t_address,t_uint256)": {
        "encoding": "mapping",
        "key": "t_address",
        "label": "mapping(address => uint256)",
        "numberOfBytes": "32",
        "value": "t_uint256"
      },
      "t_mapping(t_enum(Schema)2503,t_uint256)": {
        "encoding": "mapping",
        "key": "t_enum(Schema)2503",
        "label": "mapping(enum ProtocolShareReserve.Schema => uint256)",
        "numberOfBytes": "32",
        "value": "t_uint256"
      },
      "t_struct(DistributionConfig)2512_storage": {
        "encoding": "inplace",
        "label": "struct ProtocolShareReserve.DistributionConfig",
        "members": [
          {
            "astId": 2506,
            "contract": "contracts/ProtocolReserve/ProtocolShareReserve.sol:ProtocolShareReserve",
            "label": "schema",
            "offset": 0,
            "slot": "0",
            "type": "t_enum(Schema)2503"
          },
          {
            "astId": 2509,
            "contract": "contracts/ProtocolReserve/ProtocolShareReserve.sol:ProtocolShareReserve",
            "label": "percentage",
            "offset": 1,
            "slot": "0",
            "type": "t_uint16"
          },
          {
            "astId": 2511,
            "contract": "contracts/ProtocolReserve/ProtocolShareReserve.sol:ProtocolShareReserve",
            "label": "destination",
            "offset": 3,
            "slot": "0",
            "type": "t_address"
          }
        ],
        "numberOfBytes": "32"
      },
      "t_uint16": {
        "encoding": "inplace",
        "label": "uint16",
        "numberOfBytes": "2"
      },
      "t_uint256": {
        "encoding": "inplace",
        "label": "uint256",
        "numberOfBytes": "32"
      },
      "t_uint8": {
        "encoding": "inplace",
        "label": "uint8",
        "numberOfBytes": "1"
      }
    }
  }
}